:020000040800F2
:20000000A819002065260008392400083B2400083D2400083F24000841240008000000005F
:200020000000000000000000000000004324000845240008000000004724000849240008F8
:200040009126000895260008992600089D260008A1260008A5260008A9260008AD26000838
:20006000B1260008B5260008B92600080D250008BD260008C1260008C5260008C9260008D9
:20008000CD260008D1260008D5260008D9260008DD260008E1260008E5260008E926000818
:2000A000ED260008F1260008F5260008F9260008FD260008012700080527000809270008F5
:2000C0000D2700081127000815270008192700081D270008212700082527000829270008D0
:2000E0002D2700083127000835270008392700083D270008412700084527000849270008B0
:200100004D2700085127000855270008592700085D270008A3240008612700086527000858
:20012000692700086D270008712700087527000800EB40014903491C0846411E0028FBD1C9
:20014000704780B500F010FB4FF4803000F025FB00F03DFB01282BD1002000F068FB0020D5
:2001600000F073FB4FF4806000F068FB4FF4404000F076FB002000F070FB022000F01EFCE0
:20018000102000F023FC4FF400114FF4803000F037FB012000F03CFB392000F0DFFB002824
:2001A000FAD0022000F037FB00F03CFB0828FBD101BD10B5044621463D2000F0A3FB214688
:2001C0004FF4A010BDE8104000F0A7BB80B500214FF0006000F038FC4FF4A060BDE80240A2
:2001E00000F000BC80B50121DFF8140500F09EFC10208DF8030003208DF802000220ADF859
:2002000000006946DFF8FC0400F042FC01BD70B5FFF797FFFFF7DAFF0120FFF7CAFF72B6E4
:20022000FFF7E0FFDFF8E044022020600A20FFF77FFF00F0B3FC00F083FD45F25555DFF8E7
:20024000CC643088A84206D100F09FF8002802D14AF6AA2030804FF4E13000F011FE00F076
:2002600060FE0021012000F06DFE00F0B5FE0822DFF89C14DFF89C0401F0B6F901F045FAE8
:2002800002206060DFF890043188A94202D10121016001E040210160DFF88044DFF880245E
:2002A0000121204600F0A5FE0220A4F81E0162B670BDDFF8640401688A070ED521F00201D1
:2002C0000160C168491CC160DFF83C04C90702D502214160704702210160704710B572B6AD
:2002E00002461468DFF83034DFF838140C40B4F1005F09D1001D006858611861106880F310
:2003000008881869804705E0012018600020DFF81814086062B610BDDFF8FC0301684A0688
:200320000ED4DFF804241268292A09D3DFF8DC23128845F255539A4202D141F08001016022
:200340000078000606D50220DFF8E0130860DFF8E003C3E7704710B5DFF8D8430721204690
:2003600001F0C2FA00280FD00721204601F0C3FA4FF4E13000F084FD00F0D3FD00210120C6
:20038000BDE8104000F0DEBD10BD38B50024DFF8A85308220FF2BC31284601F0F1FA0028A3
:2003A00012D1082100E0491C0846C0B2322807DA15F8010BA0F12002602AF4D30028F2D0EA
:2003C000C9B2322900D10124200009D107220FF29031DFF8680301F0D3FA002800D101244E
:2003E000204632BDF8B5CC4C2068400500F1B180DFF84C530721284601F076FA00280DD082
:200400000721284601F077FA4FF4E13001F0ECFA01F03FFB0021012001F04CFBBF4E06F50C
:200420008E75C84F3878052801D006281AD1A878400717D57A88D2B2B91D304600F00EFFB9
:2004400000280AD0002028730820688000224FF4BD61384601F080FB04E080203870002016
:20046000C7F8E4056988880714D54FF6FD70014069806878297888420CD200224FF4BD61E3
:20048000384601F069FBA8480168304600F054FE24206880A87880061ED56978AA6806EBCF
:2004A0008100C06F8218A0480068824214D206F1FC00425C521E42546978405C002809D1E2
:2004C00069884FF6DF7001406980082068800220287301E0022068806988080739D54FF662
:2004E000F77001406980304600F08CFF287B00281ED10220688068782978884229D12168E8
:2005000021F0805121602879012808D14020688041F48061216080208B490870F1BD002834
:2005200017D18A4881880068416101206880F1BD2879012807D17A4A0021304600F059FDF4
:2005400002206880F1BD012068808048818800684161F1BDF8B5704C2068400540F1CE809C
:20056000774D0721284601F0BFF900280DD00721284601F0C0F94FF4E13001F035FA01F0CE
:2005800088FA0021012001F095FA6E4E3078704D052801D0062838D1A888800510D5B11D59
:2005A000284601F08BFB002805D06878401C68700120A88004E0802030700020C6F8E40511
:2005C000614F7288B11D384601F0D2FB002804D055480168384601F02DFCB01D00F040FFD1
:2005E00000280CD04D4F4E4A0021384600F001FD0220A7F81E01206820F480602060002238
:200600004FF4BD61304601F0A7FAA988C80515D54FF6FF600140A9806878297888420DD251
:2006200000224FF4BD61304601F096FA3E480168284601F0AFFA40F20120A8802879C00766
:2006400021D56978D5F8E82105F5B47050F82100821835480068824215D205F24710425C50
:20066000521E42546978405C002809D1A9884FF6FE700140A9800820A8800220A87002E03B
:200680004FF48070A880A98808070CD54FF6F7700140A980284601F059FB687829788842CA
:2006A00001D3002028802068C10027D520F08050206005F5B470C8212A7840F8221005F5EC
:2006C000A47101222B78CA5405F128032C781A552A78521C2A704FF48073AB80C824D2B272
:2006E00040F8224001202A788854032005F128012A7888542878401C2870AB80F1BD000094
:2007000000023000000C0140100C014094110020085000088C110020741100200010002046
:200720002C1100200000FE2F9C110020140C01400040000800480040005000088050000801
:2007400000500040240600201400002080260008140E002020534D353030312000000000F5
:2007600047323330323030008549086840F0010008604A68834802404A600A68824802404D
:200780000A60086820F480200860486820F4FE0048604FF41F008860704779490A6822F4AE
:2007A00080320A600A6822F480220A60B0F5803F03D0B0F5802F05D07047086840F480301E
:2007C00008607047086840F4A020086070471CB5002000900446312000F0C0F80099491CB5
:2007E000009100994FF6FF72914201D00028F2D0312000F0B3F8002800D00124204616BD49
:20080000624A136823F47C1318430843106070475F49086070475D490A68920850EA820009
:20082000086070475948006800F00C00704757490A6822F0F00210430860704753490A6847
:2008400022F4E06210430860704750490A6822F4605242EAC0020A6070474E490860704736
:200860004A490A6822F4404210430860704710B4464A116801F00C01042902D0082903D09B
:200880001BE0454901601AE0136803F47013116801F480319B0C9B1C002903D13F494B43EF
:2008A00003600CE01168890303D53D494B43036005E039494B43036001E03A4901601168FF
:2008C00001F0F001384B0909595C0468CC404460116801F4E061090A595CCC4084601168F0
:2008E00001F46051C90A595C4468CC40C460116801F4404103EB9131097CB4FBF1F10161D7
:2009000010BC7047294A0029116802D008431060704721EA000010607047254A00291168B8
:2009200002D008431060704721EA000010607047204A0029116802D008431060704721EAE6
:200940000000106070471C4A0029116802D008431060704721EA0000106070470146400962
:20096000074A012801D1106804E0022801D1106A00E0506A01F01F01C84000F001007047FE
:20098000001002400000FFF8FFFFF6FE0410024060004242D8004242001BB70000093D006E
:2009A000808D5B0000127A0000000020181002401C1002400C10024010100240DFF8201084
:2009C0000A6802F03802104308607047DFF810100A6822F010020A600A681043086070472C
:2009E000002002402249084322490860704770B403781C460122C17800291BD01D490B680B
:200A000003F4E063C3F5E0631B0A4578C3F104018D4081780F26DE4031400D432D0116499F
:200A20000D55017801F01F0082401448491140F8212007E003F01F0302FA03F3104864111F
:200A400040F8243070BC70470E4A114008430E49086070470D490428086803D140F00400C3
:200A60000860704720F0040008607047000000000000FA050CED00E000E400E000E100E0C7
:200A800080E100E080FFFF1F08ED00E010E000E0F0B40024CA78134603F00F03D20601D5BD
:200AA0008A7813430A88D2B2002A1AD0026815E0482D12D1066110E00126A6400D8835408F
:200AC000B5420AD1A5000F27AF40BA4303FA05F52A43CD78282DEBD14661641C082CEBD3AA
:200AE00002600A88B2F5807F1EDB4468002218E0012602F1080506FA05F50E882E40AE4288
:200B00000ED196000F27B740BC4303FA06F63443CE78282E00D14561CE78482E00D10561BE
:200B2000521C082AE4D34460F0BC704770B41A4A002801D5936900E01368C0F3034485B249
:200B400000F44016B6F5401F06D123F07063146824F07064146010E0C60206D5032606FAF0
:200B600004F4A34343F0706307E00446640D240105FA04F4A34343F07063002904D00146A3
:200B8000490D09018D402B43002801D5936100E0136070BC70470000040001401CB5032059
:200BA0008DF8020014208DF803008020ADF80000604C69462046FFF76BFF4020ADF8000087
:200BC00069462046FFF764FF13BDC8210846411E0028FBD1704700EB40014903491C08466B
:200BE000411E0028FBD1704710B5534C8020A0604020A060FFF7E9FF20688020E060FFF74B
:200C0000E4FF2068000601D5002010BD8020E060FFF7DBFF012010BD10B5484C4020606089
:200C2000FFF7D3FF80206060FFF7CFFF40202060FFF7CBFF80202060BDE81040C5E710B5A2
:200C40003E4C40206060FFF7C0FF80206060FFF7BCFF40202060FFF7B8FF40206060BDE8D2
:200C60001040B2E710B5354C40206060FFF7ADFF80202060FFF7A9FF40202060FFF7A5FF4B
:200C800040206060BDE810409FE710B52A4C4020E060FFF79AFF8020A060FFF796FF4020C4
:200CA000A060FFF792FF2068000603D54020E060002010BD4020E060012010BD70B50546BC
:200CC00008261E4C0FE08020606005E0402060602806F8D580202060FFF777FF40202060C1
:200CE000FFF773FF6D003046461EC0B20028EDD14020606070BD70B5082500260E4C80202E
:200D0000A0600DE076004020E060FFF75EFF4020A060FFF75AFF2068000601D546F001062D
:200D20002846451EC0B20028ECD14020E0603046C0B270BD000C0140080C0140100C0140D7
:200D4000FEB500220821684600F006FF00264B4D2A46082141F6F87001F0E4F8040025D135
:200D60003220FFF738FF761C3046C0B20228EFDD00266A4608214FF4F05001F0D3F807003F
:200D80001FD13220FFF727FF761C3046C0B20228EFDD54EA070020D14AF6AA20288000207D
:200DA000688000F029F800F04CF8F7BD0621284601F08EF9E988884201D00024D8E7012431
:200DC000D6E70621684601F083F9BDF80610884201D00027DDE70127DBE7002F02D100F0E7
:200DE00030F8F7BD002C06D108226946284600F00BFC00F001F8F7BD70B500241F4D20461E
:200E0000E8800621284601F063F9E8802A46082141F6F87001F024F9060006D02A46082165
:200E20004FF4F05001F01CF90646300007D13220FFF7D1FE641C2046C0B20328E6DB304604
:200E400070BD70B500240D4D2046E8800621284601F03EF9E8802A4608214FF4F05001F0C2
:200E6000FFF8060007D13220FFF7B5FE641C2046C0B20328EFDB304670BD000094110020ED
:200E800078B585B0044600220421684600F064FE0022102101A800F05FFE10208DF803005E
:200EA00003208DF80200414D284600F049FC4FF48060ADF8000003208DF8020018208DF828
:200EC00003003B4E69463046FFF7E2FD10208DF803000120ADF8000069463046FFF7D8FD1E
:200EE000012070614FF40060ADF8000004208DF8030069463046FFF7CBFD019400200290E2
:200F0000ADF80C00ADF810000C20ADF80E0001A9284600F062FC0121284600F0BBFC06B039
:200F200070BD80B527208DF8000001208DF8010000208DF8020001208DF803006846FFF7E8
:200F400056FD01BD70B504460D46184E40F2A551304600F0F6FC224640F22551304600F062
:200F6000A6FC2A4640F226613046BDE8704000F09EBC0E490A881206FCD588807047F8B553
:200F800005460E4600270B4C0120206003E0E85DFFF7EFFF7F1C30468742F8D3034800880F
:200FA0004006FBD501206060F1BD000000480040000C0140100C014010B5044601F0FAF868
:200FC000014689B22046FFF7DAFF0D20FFF7D1FF0A20BDE81040CCE780B54FF4E13000F01C
:200FE00003FD00F056FD00210120BDE8044000F061BDF8B504460D46164600224FF4967163
:2010000000F0AAFD04F1590004F1FC0104F17C022B46012B67D1C823136002230B7001238F
:201020000370C823536002234B704370C823936019238B700B238370C823D3600223CB7058
:201040000C23C370C82313610A230B710D230371C82353610A234B711B234371C823936129
:201060000A238B7112238371C823D3612823CB710423C371C8231362B4230B7205230372CC
:20108000C8235362B4234B7206234372C82393620A238B72072383724FF44873D3620223BD
:2010A000CB720823C37240F6B833136302270F7309270773536302234B732B234373C8231F
:2010C000936302238B732C238373C823D3630223CB732D23C373C823136402220A742E2155
:2010E000017411201AE04FF4FA63136001230B7010230370B423536001234B7003234370B6
:201100004FF4C873936001238B700F2383701423D3600122CA700021C170042004F58E71E5
:2011200002224A800D710870482231462046BDE8F84000F059BA000038B504460D4694F88E
:201140001D01204490F859002E2800F28380DFE800F01818212143484D52575C81262A2FDB
:2011600039816B813E6681818181818181348181818181818181818181818181816173788F
:201180007D009C488188006841619B488188006841615FE098488188006801615AE092A087
:2011A00000F0CAFC56E00FF2DC2000F0C5FC51E00FF2D82000F0C0FC4CE00FF2D82000F0AA
:2011C000BBFC47E00FF2D42000F0B6FC42E00FF2D82000F0B1FC3DE00FF2D42000F0ACFC38
:2011E00038E00FF2D82000F0A7FC33E00FF2D82000F0A2FC2EE00FF2DC2000F09DFC29E014
:201200000FF2F02000F098FC24E00FF2F82000F093FC1FE00FF2F82000F08EFC1AE00FF210
:20122000FC2000F089FC15E00A2000F060FC0FF20C3000F081FC0DE00FF2103000F07CFC72
:2012400008E00FF2243000F077FC03E00FF2383000F072FCC4F8245131BD000070B50646B4
:201260000D46002496F81D01304490F85900001F2A2800F2B680DFE800F061697A16161620
:201280008C16161FB4B416B41652B4B4B4B4B4B4B435B4B4B4B4B4B4B4B4B4ADB4B4B4B4EB
:2012A000B444959DA50051A1284600F09EFF002800F09780012494E04CA1284600F095FFCB
:2012C000002800F08E804D4C04F5C0660F22A91C304600F089F904F5BE61304600F018FFBD
:2012E00001247EE041A1284600F07FFF002800F078801122A91C06F1480000F075F90124E3
:201300006FE03AA1284600F070FF002869D0102205F111013A4800F067F9012461E033A12F
:20132000284600F062FF00285BD000BF9EA1284600F05BFF002854D0012452E09CA1284697
:2013400000F053FF00284CD001244AE09AA1284600F04BFF002844D025A1284600F045FF31
:201360004078312801D035283BD1012439E000BF93A1284600F039FF002832D01CA1284606
:2013800000F033FF4078312801D0352829D1012427E000BF8CA1284600F027FF002820D03E
:2013A00001241EE011A1284600F01FFF002818D0012416E00DA1284600F017FF002810D087
:2013C00001240EE009A1284600F00FFF002808D0012406E005A1284600F007FF002800D0D7
:2013E0000124204670BD0000415400004F4B00002C00000088260008802600081400002042
:20140000F405002000F21D110A78024492F85900032811D9001F0A2817D90B3801280BD942
:20142000C01E012811D909380FD00A3801280CD9801F042809D97047002082F8FC000878D1
:20144000401C08700020C8727047C87A002805D1002082F8FC000878401C087070470000C6
:2014600010B504465AA100F0C0FE002840F006805AA1204600F0B9FE002801D0012010BDE7
:20148000002010BD415445300000000041542B47534E000041542B43494D490041542B43C8
:2014A000434C4B3F00000000415426443100000041542B4350494E3F0000000041542B43B7
:2014C0005245473F0000000041542B43475245473F00000041542B5149435347503D312C67
:2014E000312C22434D4E4554222C22222C22222C3100000041542B514944454143543D316E
:201500000000000041542B51494143543D31000041542B51494143543F00000041542B51A9
:201520004E54503D312C223230322E3131322E31302E3336222C31323300000041542B518C
:2015400049434C4F53453D310000000041542B51485454504346473D22636F6E74657874D9
:201560006964222C3100000041542B51485454504346473D22726571756573746865616404
:201580006572222C3000000041542B51485454504346473D22726573706F6E7365686561D9
:2015A000646572222C310000514E54500000000052454144590000002B435245470000006D
:2015C0002B43475245470000434F4E4E45435400636C6F7365640D0A000000007064706435
:2015E000656163740D0A000062B38B0708D0521E11F8013B00F8013B00F024808B07F6D1E2
:20160000830740F0208000BF103A07D330B4B1E83810103AA0E83810F9D230BC530724BFBA
:20162000B1E80810A0E8081044BF51F8043B40F8043BD20724BF31F8022B20F8022B44BFFD
:201640000B7803707047121F17D35B0009D151F8043B20F8023B1B0C121F20F8023BF6D23B
:201660000BE051F8043B00F8013B1B0A20F8023B1B0C121F00F8013BF3D238BF121D521E62
:2016800024BF11F8013B00F8013BF8D8704730B4002513E050F8042BD30744BFA9F1010379
:2016A0009A18091F042942F8045BFAD213468C0744BF15809B1CC90748BF1D7050F8041BB8
:2016C0000029E7D130BC70470901020002D4174881547047164802F00F02104400F8041CEC
:2016E000704710B5401EB0F1807F01D3012010BD104C60600F214FF0FF30FFF7E5FF0020FA
:20170000A06007202060002010BD80B50420FFF7A1F90948FFF7E5FF0848002101604160AE
:201720000F214FF0FF30BDE80440CDE700E400E018ED00E010E000E0C02709009C11002038
:2017400080B54F4988420BD101214FF48040FFF7EFF800214FF48040BDE80440FFF7E8B871
:20176000484988420BD101214FF40030FFF7EBF800214FF40030BDE80440FFF7E4B842492A
:2017800088420BD101214FF48020FFF7DCF800214FF48020BDE80440FFF7D5B83B49884216
:2017A0000BD101214FF40020FFF7CDF800214FF40020BDE80440FFF7C6B8354988420BD108
:2017C00001214FF48010FFF7BEF800214FF48010BDE80440FFF7B7B801BD30B585B0044604
:2017E0000D46218A4CF6FF700140E88801432182A1894EF6F3100140A88801432889014387
:2018000068890143A181A18A4FF6FF400140A8890143A1826846FFF72AF81948844201D12A
:20182000039900E002992A6819204143A089000403D55200B1FBF2F202E09200B1FBF2F257
:201840006420B2FBF0F109010B461B0900FB1322A089000408D5D20032326420B2FBF0F076
:2018600000F00700014307E0120132326420B2FBF0F000F00F000143218105B030BD000037
:20188000003801400044004000480040004C004000500040002904D0818941F40051818118
:2018A000704782894DF6FF710A408281704710B40B46DBB25B09012401F01F0104FA01F183
:2018C000012B01D10C3004E0022B01D1103000E01430002A026802D01143016002E022EA7E
:2018E0000101016010BC70470246002012880A4200D001207047C9430180704730B402469C
:2019000000200C46E4B26409012501F01F0305FA03F3012C02D19489234006E0022C02D1BD
:20192000148A234001E0948A2340090A05FA01F112881140002B02D0002900D0284630BC05
:2019400070470122090A02FA01F189B2C9430180704730B40EE00268436802440830DC07E5
:2019600044BFA9F10104E31852F8045B43F8045B091FF9D150F8041B0029ECD130BC7047A5
:201980000300002013F0030F09D0521E22BF13F8010B11F801CBB0EB0C00F3D0704711F0D7
:2019A000030F14D1121F22BF53F8040B51F804CB6045F7D0121D0AD200BA9CFA8CFCB0EBC2
:2019C0000C0038BF6FF0000088BF01207047521E22BF13F8010B11F801CBB0EB0C00F6D0DC
:2019E000521C08BF1046704730B585B0054600220421684600F0B0F80022102101A800F0C7
:201A0000ABF810208DF8030003208DF802001020ADF80000444C69462046FFF739F81020F0
:201A200060612020ADF8000069462046FFF730F8202020613D4C2046FFF782FE4FF4805094
:201A4000ADF8000003208DF8020018208DF8030069463748FFF71CF80420ADF800008DF8F1
:201A6000030069463348FFF713F8019500200290ADF80C00ADF810000C20ADF80E0001A901
:201A80002046FFF7AAFE01212046FFF703FF05B030BD80B535208DF8000001208DF801006A
:201AA00000208DF8020001208DF803006846FEF79EFF01BD70B504460D461C4E40F22771E2
:201AC0003046FFF73EFF224640F225513046FFF7EEFE2A4640F226613046BDE87040FFF70B
:201AE000E6BE12490A881206FCD588807047C0EBC001C902491C0846411E0028FBD17047B9
:201B000010B4002208E0094B1C882406FBD51446A4B2045D9C80521C13460C469BB2A3428D
:201B2000F1D310BC70470000000C014000500040001001400014014010B5044600F03AFBA7
:201B4000014689B22046FFF7DBFF0D20FFF7C9FF0A20BDE81040C4E762F30F2262F31F42DC
:201B600000B500BF130096469446103928BFA0E80C50FAD85FEA417C28BF0CC048BF40F84A
:201B8000042BC90728BF20F8022B48BF00F8012B00BD00002DE9F041ADF5107D04460D461F
:201BA0000022402180A8FFF7D7FF4FF40077002239466846FFF7D0FF6078204490F82800F4
:201BC000012806D0022809D003280BD005286BD06DE000BF98A0FFF7AFFF68E09BA0FFF734
:201BE000ABFF64E08E4E00223946301DFFF7B4FF002239466846FFF7AFFF8A4F394668468B
:201C000000F009FB95A100F006FB0FF208284146684600F000FB844900F0FDFA414668466F
:201C200000F0F9FA8FA100F0F6FA8049684600F0F2FA00F0BFFA0246921E6946301DFFF7CB
:201C4000E3FC0FF2D4184146301D00F0E4FA00BF8AA100F0E0FA07F12C01301D00F0DBFA2B
:201C6000414600F0D8FA00BF88A1301D00F0D3FA8DA180A800F0CFFA301D00F09BFA3070A8
:201C8000301D00F097FA06F5017603230022314600F05EFA314680A800F0BDFAFFF78CF93C
:201CA00080A8FFF749FF02E083A0FFF745FFC4F8E8510DF5107DBDE8F081000038B50C46A6
:201CC00000254178084490F82800401E04283BD8DFE800F0031018272F0000BF7BA1204614
:201CE00000F083FA00282FD0012500BF79A0FFF723FF29E049A1204600F077FA002823D065
:201D0000012521E045A1204600F06FFA00281BD00125434C201DFFF74FF9201DFFF70CFF76
:201D200012E03EA1204600F060FA00280CD001250AE000BF65A1204600F057FA002803D0A7
:201D400001252046FFF738F9284632BD4178421892F82810491E042908D88178002905D132
:201D6000002182F848114178491C417070470000F8B505460E461746002400BF5DA13046E9
:201D800000F033FA002817D02948017800EB8101C822C1F86821012100F5A4720378D154C7
:201DA000052100F128020378D1540178491C01704FF4807181802BE053A1304600F015FA4A
:201DC000002818D001241A48017800EB8101C822C1F86821214600F5A4720378D154052122
:201DE00000F128020378D1540178491C01704FF4807181800CE000BF46A1304600F0F5F9BE
:201E0000002805D001243A463146281DFFF7ECFB2046F2BD2F0000000D0A00004F4B000092
:201E20000C0C002010250008140600208C110020140E00207047000041542B5148545450EC
:201E400055524C3D32382C363030300041542B51485454504745543D323500003539383249
:201E600034330000636865636B3F747970653D312676657273696F6E3D0000006175746873
:201E80006F72697A6174696F6E3A0000686F73743A696F742D6170692E6865636C6F75646C
:201EA000732E636F6D0D0A0041542B51485454504745543D0000000041542B51485454506C
:201EC000524541443D31383400000000434F4E4E4543540068747470733A2F2F696F742DBE
:201EE0006170692E6865636C6F7564732E636F6D000000002B51485454504745543A203090
:201F00002C323030000000002B51485454504745540000002B5148545450524541443A2035
:201F2000300000002DE9F04180460F4614460126002538004DD0FEF757FE002800D12E465D
:201F4000300007D0A020FEF7B9FEFEF79EFE002800D12E46300006D04046000AFEF7AEFED9
:201F6000FEF793FE0646300006D04046C0B2FEF7A5FEFEF78AFE0646300004D0FEF734FE05
:201F8000002800D12E46300007D0A120FEF796FEFEF77BFE002800D12E467F1E300007D103
:201FA00015E0FEF7A8FE04F80800FEF748FE6D1CA8461FFA88F82846394680B289B288421E
:201FC000EFD3FEF798FE04F80800FEF74BFEFEF723FE3046BDE8F0812DE9F04107460C46EA
:201FE000904600250126200034D0FEF7FDFD002800D12E46300007D0A020FEF75FFEFEF731
:2020000044FE002800D12E46300006D03846000AFEF754FEFEF739FE0646300013D0384633
:20202000C0B2FEF74BFEFEF730FE06460BE0300008D0284680B218F80000FEF73FFEFEF7B7
:2020400024FE06466D1C2846214680B28842EED3FEF7E2FD0520FEF7BEFD3046BDE8F081C2
:202060002DE9F04104460E461546002710F01F0F0ED004F01F00C0F12000374680B2874291
:2020800000D9074639462046FFF7A6FFF61B00E00120010019D0314689B2002915D04FF09F
:2020A0002008304680B2202800D2B046384680B22A18414689B2381980B2FFF78DFFA6EBF6
:2020C000080617FA88F70100E5D1BDE8F081000030B4024600244FF6FF7000E0641C8C4263
:2020E00012D2135D58400023082BF7D205466D10C007284601D480B204E080F4044080F0C5
:20210000080080B25B1CEFE7C04380B230BC704770B504460D460020002C16D0204600F016
:2021200049F84FF6FE71084000210BE0074A635CD35C66187678925D42EA031205F8012B52
:20214000891C89B28142F1DB400870BD4C220008F0B40446002901D1002028E09A1A184602
:202160004D1E002818D00A26B4FBF6F6374607EB870CA4EB4C0430342C543446461E174619
:20218000FFB2BE4204D130462E260746FFB2EE55401EC0B2002CE4D11B1A30224C1E02E02A
:2021A0002254401EC0B20028FAD11846C0B2F0BC7047000000F10103810704D010F8011B3E
:2021C000820781B1FAD10268A2F10131914311F0803104BF50F8042FF6E709BAB1FA81F1C9
:2021E00000EBD100401CC01A704770B50D462C7834B970BD11F8013F1678B34206D0401C02
:20220000214600F017F828B101462A4612F8013F002BEFD170BD034600E05B1C1A78002A0A
:20222000FBD111F801CB83F800C013F8012B002AF7D17047C9B202788A421AB11CBF10F873
:20224000012FF9E718BF0020704700000000000000000000000000000000000000000000C0
:20226000000000000000000000000000000000000000000000000000000000000001020358
:20228000040506070809000000000000000A0B0C0D0E0F00000000000000000000000000CC
:2022A000000000000000000000000000000A0B0C0D0E0F00000000000000000000000000D3
:2022C0000000000000000000000000000000000000000000000000000000000000000000FE
:2022E0000000000000000000000000000000000000000000000000000000000000000000DE
:202300000000000000000000000000000000000000000000000000000000000000000000BD
:2023200000000000000000000000000000000000000000000000000000000000000000009D
:202340000000000000000000000000003649086840F0010008604A68344802404A600A6869
:20236000334802400A60086820F480200860486820F4FE0048604FF41F00886000E0000016
:2023800000BF82B00020009001902749086840F4803008604FF6FF72086800F40030019004
:2023A0000098401C00900198002802D100989042F2D10868400C00F00100019001980128D8
:2023C00030D11C48026842F0100202600268920892000260026842F0020202604868486036
:2023E00048684860486840F480604860486820F47C104860486840F4E8104860086840F0FD
:202400008070086008688001FCD54868800880004860486840F002004860486800F00C000C
:202420000828FAD102B07047001002400000FFF8FFFFF6FE002002407047FEE7FEE7FEE735
:20244000FEE77047704770472B4A1068401C106010681521B0FBF1F301FB1300002804D170
:202460002648016841F002010160106840F2F511B0FBF1F201FB1200002804D11F480168D7
:2024800041F0805101601E480178090608D5D0F8E415491DC0F8E415322901D30521017070
:2024A000704710B5174C40F225512046FFF726FA00281AD01449A088087011480978428866
:2024C000024491714188491C418089B240F2DC52914204DA017841F08001017001E00621D5
:2024E00001700021C0F8E41500E0A088208800F47C40208010BD00009C110020741100205A
:202500002406002000500040A4110020704700004745542068747470733A2F2F696F742D11
:202520006170692E6865636C6F7564732E636F6D2F667573652D6F74612F0000766572732D
:20254000696F6E3D323032322D30352D3031267265733D7573657269642532463333323173
:2025600038362665743D32353939383831323430266D6574686F643D6D6435267369676EE0
:202580003D71544A59307A70493834795169686242545A676977412533442533440000001A
:2025A00010B5074979441831064C7C44163404E00A68081D114488470146A142F8D110BD45
:2025C0000800000028000000C7F0FFFF9411000014000020000000007BF3FFFF14000000BD
:2025E00070000000000000200000000000F00DF8002801D0FFF7D4FFAFF300800020AFF3B0
:20260000008000F004F800F010F80120704780B5FDF7FDFDFDF74DFEFDF77EFEFDF79BFE1F
:20262000FDF7E0FEFDF796FFF4E700F001B800000746384600F002F8FBE7000080B5AFF34D
:202640000080024A11001820ABBEFBE72600020000000000010203040102030406070809C0
:202660000204060801488047014800474D23000875260008AFF30080AFF30080FFF7B6FF9C
:20268000000C014010000000000C014020000000FFF7FEBFFFF7FEBFFFF7FEBFFFF7FEBFA4
:2026A000FFF7FEBFFFF7FEBFFFF7FEBFFFF7FEBFFFF7FEBFFFF7FEBFFFF7FEBFFFF7FEBF82
:2026C000FFF7FEBFFFF7FEBFFFF7FEBFFFF7FEBFFFF7FEBFFFF7FEBFFFF7FEBFFFF7FEBF62
:2026E000FFF7FEBFFFF7FEBFFFF7FEBFFFF7FEBFFFF7FEBFFFF7FEBFFFF7FEBFFFF7FEBF42
:20270000FFF7FEBFFFF7FEBFFFF7FEBFFFF7FEBFFFF7FEBFFFF7FEBFFFF7FEBFFFF7FEBF21
:20272000FFF7FEBFFFF7FEBFFFF7FEBFFFF7FEBFFFF7FEBFFFF7FEBFFFF7FEBFFFF7FEBF01
:20274000FFF7FEBFFFF7FEBFFFF7FEBFFFF7FEBFFFF7FEBFFFF7FEBFFFF7FEBFFFF7FEBFE1
:18276000FFF7FEBFFFF7FEBFFFF7FEBFFFF7FEBFFFF7FEBFFFF7FEBF2F
:20400000F06100207D0701084DF900084FF9000851F9000853F9000855F900080000000008
:2040200000000000000000000000000057F9000859F90008000000005BF900085DF9000814
:20404000890901088D09010891090108FDF9000895090108990901089D090108A1090108D1
:20406000A5090108A9090108AD090108B109010805FB0008DFFA0008B5090108B9090108D1
:2040800063FA000889FA0008A1FB0008BD090108C1090108C5090108C9090108CD09010859
:2040A000D1090108D5090108D9090108DD090108E1090108E5090108E9090108ED09010878
:2040C000F1090108F5090108F9090108FD090108010A0108C7F9000827FA0008A3FA000812
:2040E000050A0108090A01080D0A0108110A0108150A0108190A01081D0A0108210A010890
:20410000250A0108290A01082D0A0108310A010801FC000845FB0008350A0108390A0108C6
:204120003D0A0108410A0108A3FB0008C9FB000830B4002513E050F8042BD30744BFA9F17F
:2041400001039A18091F042942F8045BFAD213468C0744BF15809B1CC90748BF1D7050F808
:20416000041B0029E7D130BC7047B1F5807F02D34FF0FF3070470170012070470078401EDE
:204180008041C043C00F70470268531C0360117070472E0012000130010101000131077341
:2041A00001000120020102030404F0090806070809020406083AA7000452FF01E392411499
:1D41C000200400001296000857F003162C0000200001127D48212C436B413C2101F0
:2050000020534D3530303120323330363037303020473233303230300000000000000000CA
:125020000000000000000000000000000000000000007E
:2050340080B500F00CF800F0BAF801BD4FF4C0414843401C0100481E0029FBD170472DE97F
:20505400F84300260027DFF8CC4822004FF48E71002003F021FB05002800C0B200280DD092
:2050740000265FF000084FF48C71200003F030FCD4F81811884201D00022150022004FF4F4
:205094008E714FF4007003F007FB06003000C0B200280DD000275FF000084FF48C712000CA
:2050B40003F016FCD4F81811884201D00022160056EA0500C0B2002838D14FF48E775FF090
:2050D4000008A14642463900484603F071FD0120A4F810010520A4F814010620A4F81201A4
:2050F4005020A4F8FA001E20A4F8FC005F20A4F8FE000A20A4F800015A20A4F802014FF484
:205114001670A4F80401A4F8060140F2B220A4F808014FF47A71A4F80A11A4F80C014FF437
:205134002F70A4F80E0100F0AFF82AE02800C0B2012811D13000C0B200280DD122004FF4BE
:205154008E71002003F0A8FA22004FF48E714FF4007003F068FB14E02800C0B2002810D183
:205174003000C0B201280CD122004FF48E714FF4007003F091FA22004FF48E71002003F067
:2051940052FB03F049FD45F25550DFF88C170A88824202D0088003F0B3FDBDE8F1832DE99D
:2051B400F84300270024DFF874572A00B4214FF4806003F071FA06003000C0B200280CD087
:2051D40000275FF00008B021280003F081FBD5F8B010884201D0002216002A00B4214FF433
:2051F400C06003F059FA07003800C0B200280CD000245FF00008B021280003F069FBD5F8E8
:20521400B010884201D00022170057EA0600C0B200280ED16324DFF8088715F10109220007
:205234004146484603F08EFD6320287000F04AF828E03000C0B2012810D13800C0B20028F4
:205254000CD12A00B4214FF4806003F025FA2A00B4214FF4C06003F0E6FA13E03000C0B25F
:2052740000280FD13800C0B201280BD12A00B4214FF4C06003F010FA2A00B4214FF48060E2
:2052940003F0D1FABDE8F18370B50024DFF884660020C6F818014FF48C71300003F018FBAC
:2052B400C6F8180132004FF48E71002003F0BBFA050032004FF48E714FF4007003F0B3FAFB
:2052D400C0B270BD70B50024DFF850660020C6F8B000B021300003F0FBFAC6F8B00032002E
:2052F400B4214FF4806003F09EFA05003200B4214FF4C06003F097FAC0B270BD2DE9F84F28
:2053140005000E00170000245FF000081F20210089B239448870641C3000C0B2F1281BDB93
:20533400200080B238448670641C0020210089B239448870641CB1465FFA89F9AA462000C2
:2053540080B2384410F1020B4A465146584603F0F9FC54FA86F438E041F22340385C00289E
:205374000ED1B1465FFA89F9AA46200080B2384410F1020B4A465146584603F0E3FC0EE017
:20539400B1465FFA89F95FF0000A200080B2384410F1020B52464946584603F009FC54FAE7
:2053B40086F441F22440385C210089B239448870641C0020210089B239448870641C002052
:2053D400210089B239448870641C210089B2B81C03F07EFA0100200080B238448170641C8D
:2053F400080080B2000A220092B23A449070641C3C80200080B2BDE8F28F70B5040000266E
:2054140000251F20310089B26054761CDFF8FC0E90F8E812320092B2A154761C90F8E9028F
:20543400310089B26054761C0020310089B26054761C0020310089B26054761C310089B296
:20545400200003F045FA0100300080B22154761C080080B2000A320092B2A054761C30000C
:2054740080B270BD70B50400002600251F20310089B26054761CDFF8940E90F8E01232002F
:2054940092B2A154761C90F8E102310089B26054761C0020310089B26054761C00203100ED
:2054B40089B26054761C310089B2200003F010FA0100300080B22154761C080080B2000A20
:2054D400320092B2A054761C300080B270BD2DE9F84F05000E00170098460A9CDDF82C9091
:2054F4005FF0000B5FF0000A1F20594689B268541BF1010B3000C0B2FF281BD14846000EA7
:20551400594689B268541BF1010B4846000C594689B268541BF1010B4846000A594689B20F
:2055340068541BF1010B584680B205F800901BF1010B15E00020594689B268541BF1010B4B
:20555400584680B22F541BF1010B584680B205F800801BF1010B584680B22C541BF1010BFF
:205574000020594689B268541BF1010B0020594689B268541BF1010B594689B2280003F086
:20559400A7F90100584680B229541BF1010B080080B2000A5A4692B2A8541BF1010B584617
:2055B40080B2BDE8F28FF8B504000D00002700261F20390089B2214488707F1C2800C0B22F
:2055D4003B2810D1DFF8440D90F8E0123A0092B2224491707F1C90F8E102390089B221440D
:2055F40088707F1C13E02800C0B23A280FD1DFF81C0D90F8E8123A0092B2224491707F1C33
:2056140090F8E902390089B2214488707F1C0020390089B2214488707F1C0020390089B277
:20563400214488707F1C390089B2A01C03F050F90100380080B2204481707F1C080080B25D
:20565400000A3A0092B2224490707F1C2780380080B2F2BD2DE9F84F04000D0016005FF01A
:20567400000A00271F20514689B2214488701AF1010AB0465FFA88F8A946504680B2204477
:2056940010F1020B42464946584603F05BFB5AFA86FA0020514689B2214488701AF1010AB1
:2056B4000020514689B2214488701AF1010A514689B2A01C03F00CF90100504680B22044BE
:2056D40081701AF1010A080080B2000A524692B2224490701AF1010AA4F800A0504680B20F
:2056F400BDE8F28F70B50400002600251F20310089B221448870761C1F20310089B2214452
:205714008870761C8348B0F81011320092B222449170761CB0F81411320092B2224491703E
:20573400761CB0F81211320092B222449170761C90F8F010320092B222449170761CB0F8EA
:20575400F21089B2090A320092B222449170761CB0F8F210320092B222449170761CB0F8B5
:20577400FA1089B2090A320092B222449170761CB0F8FA10320092B222449170761CB0F885
:20579400FC1089B2090A320092B222449170761CB0F8FC10320092B222449170761CB0F861
:2057B400FE1089B2090A320092B222449170761CB0F8FE10320092B222449170761CB0F83D
:2057D400001189B2090A320092B222449170761CB0F80011320092B222449170761CB0F817
:2057F400021189B2090A320092B222449170761CB0F80211320092B222449170761CB0F8F3
:20581400041189B2090A320092B222449170761CB0F80411320092B222449170761CB0F8CE
:20583400061189B2090A320092B222449170761CB0F80611320092B222449170761CB0F8AA
:20585400081189B2090A320092B222449170761CB0F80811320092B222449170761CB0F886
:205874000A1189B2090A320092B222449170761CB0F80A11320092B222449170761CB0F862
:205894000C1189B2090A320092B222449170761CB0F80C11320092B222449170761CB0F83E
:2058B4000E1189B2090A320092B222449170761CB0F80E01310089B221448870761C41F2B3
:2058D4002440205C310089B221448870761C0020310089B221448870761C0020310089B272
:2058F40021448870761C310089B2A01C02F0F0FF0100300080B220448170761C080080B218
:20591400000A320092B222449070761C2680300080B270BD804B0020BC4F00209C4D0020A7
:20593400B40001082DE9F34F83B00500160000240020ADF8080000275FF000081F20210021
:2059540089B231448870641C9DF81000002840F0C2822800C0B20D2880F29B845FF084098E
:20597400DFF8BCAA2800C0B209FB00F05044407F210089B231448870641C2800C0B209FB0E
:2059940000F05044807FC0F3C0012800C0B209FB00F05044807FC0F38000800050EAC1002D
:2059B4002900C9B209FB01F15144897FC1F3400150EA41002900C9B209FB01F15144897FF5
:2059D40011F001010843210089B231448870641C2800C0B209FB00F0504490F82000210031
:2059F40089B231448870641C2800C0B209FB00F05044408C80B2000A210089B23144887078
:205A1400641C2800C0B209FB00F05044408C210089B231448870641C2800C0B209FB00F02D
:205A34005044808C80B2000A210089B231448870641C2800C0B209FB00F05044808C2100DE
:205A540089B231448870641C062001902800C0B209FB00F0504426300090200080B2304485
:205A740010F1020B019A0099584603F06BF9A41D2800C0B209FB00F05044808D80B2000AAF
:205A9400210089B231448870641C2800C0B209FB00F05044808D210089B231448870641C31
:205AB4002800C0B209FB00F0504490F82E00210089B231448870641C2800C0B209FB00F023
:205AD4005044008E80B2000A210089B231448870641C2800C0B209FB00F05044008E21003A
:205AF40089B231448870641C2800C0B209FB00F0504490F83200210089B231448870641C45
:205B14002800C0B209FB00F05044808E80B2000A210089B231448870641C2800C0B209FB1E
:205B340000F05044808E210089B231448870641C2800C0B209FB00F05044C08E80B2000ACA
:205B5400210089B231448870641C2800C0B209FB00F05044C08E210089B231448870641C2F
:205B74002800C0B209FB00F05044008F80B2000A210089B231448870641C2800C0B209FB3D
:205B940000F05044008F210089B231448870641C2800C0B209FB00F05044408F80B2000A68
:205BB400210089B231448870641C2800C0B209FB00F05044408F210089B231448870641C4E
:205BD4002800C0B209FB00F0504490F83C00210089B231448870641C2800C0B209FB00F0F4
:205BF400504490F83D00210089B231448870641C2800C0B209FB00F0504490F83E002100E6
:205C140089B231448870641C2800C0B209FB00F0504490F83F00210089B231448870641C16
:205C34002800C0B209FB00F0504490F84000210089B231448870641C2800C0B209FB00F08F
:205C5400504490F84100210089B231448870641C2800C0B209FB00F0504490F8420021007D
:205C740089B231448870641C002080464046C0B2142824DA2800C0B209FB00F05044414627
:205C9400C9B200EB4100B0F8440080B2000A210089B231448870641C2800C0B209FB00F04A
:205CB40050444146C9B200EB4100B0F84400210089B231448870641C18F10108D6E72800E2
:205CD400C0B209FB00F0504490F86C00210089B231448870641C042001902800C0B209FB26
:205CF40000F050446D300090200080B2304410F1020B019A0099584603F024F8241D2800C1
:205D1400C0B209FB00F05044B0F8720080B2000A210089B231448870641C2800C0B209FB38
:205D340000F05044B0F87200210089B231448870641C2800C0B209FB00F05044B0F874002A
:205D540080B2000A210089B231448870641C2800C0B209FB00F05044B0F87400210089B210
:205D740031448870641C2800C0B209FB00F05044B0F8760080B2000A210089B231448870DD
:205D9400641C2800C0B209FB00F05044B0F87600210089B231448870641C2800C0B209FB48
:205DB40000F05044B0F8780080B2000A210089B231448870641C2800C0B209FB00F0504484
:205DD400B0F87800210089B231448870641C2800C0B209FB00F05044B0F87A0080B2000AC6
:205DF400210089B231448870641C2800C0B209FB00F05044B0F87A00210089B23144887039
:205E1400641C2800C0B209FB00F05044B0F87C0080B2000A210089B231448870641C2800FB
:205E3400C0B209FB00F05044B0F87C00210089B231448870641C2800C0B209FB00F05044C5
:205E5400B0F87E0080B2000A210089B231448870641C2800C0B209FB00F05044B0F87E003B
:205E7400210089B231448870641C2800C0B209FB00F05044B0F8800080B2000A210089B2E3
:205E940031448870641C2800C0B209FB00F05044B0F88000210089B231448870641C280046
:205EB400C0B209FB00F05044B0F8820080B2000A210089B231448870641C2800C0B209FB87
:205ED40000F90AEB0900B0F88200210089B231448870641CDDE1002007003800C0B20C2881
:205EF40080F2D781781C210089B231448870641C5FF08409DFF828A53800C0B209FB00F0C9
:205F14005044407F210089B231448870641C3800C0B209FB00F05044807FC0F3C0013800F4
:205F3400C0B209FB00F05044807FC0F38000800050EAC1003900C9B209FB01F15144897F5F
:205F5400C1F3400150EA41003900C9B209FB01F15144897F11F001010843210089B2314457
:205F74008870641C3800C0B209FB00F0504490F82000210089B231448870641C06200190BB
:205F94003800C0B209FB00F0504426300090200080B2304410F1020B019A0099584602F03D
:205FB400D1FEA41D3800C0B209FB00F05044808D80B2000A210089B231448870641C380041
:205FD400C0B209FB00F05044808D210089B231448870641C3800C0B209FB00F0504490F8A3
:205FF4002E00210089B231448870641C3800C0B209FB00F05044008E80B2000A210089B2BE
:2060140031448870641C3800C0B209FB00F05044008E210089B231448870641C3800C0B2CC
:2060340009FB00F0504490F83200210089B231448870641C3800C0B209FB00F05044008F00
:2060540080B2000A210089B231448870641C3800C0B209FB00F05044008F210089B2314415
:206074008870641C3800C0B209FB00F05044408F80B2000A210089B231448870641C3800D6
:20609400C0B209FB00F05044408F210089B231448870641C3800C0B209FB00F0504490F820
:2060B4003C00210089B231448870641C3800C0B209FB00F0504490F83D00210089B231447F
:2060D4008870641C3800C0B209FB00F0504490F83E00210089B231448870641C3800C0B249
:2060F40009FB00F0504490F83F00210089B231448870641C3800C0B209FB00F0504490F83A
:206114004000210089B231448870641C3800C0B209FB00F0504490F84100210089B2314416
:206134008870641C3800C0B209FB00F0504490F84200210089B231448870641C3800C0B2E4
:2061540009FB00F0504490F86C00210089B231448870641C3800C0B209FB00F05044B0F88C
:20617400780080B2000A210089B231448870641C3800C0B209FB00F05044B0F8780021009B
:2061940089B231448870641C3800C0B209FB00F05044B0F87A0080B2000A210089B2314462
:2061B4008870641C3800C0B209FB00F05044B0F87A00210089B231448870641C3800C0B20C
:2061D40009FB00F05044B0F87C0080B2000A210089B231448870641C3800C0B209FB00F0DC
:2061F4005044B0F87C00210089B231448870641C3800C0B209FB00F05044B0F87E0080B200
:20621400000A210089B231448870641C3800C0B209FB00F05044B0F87E00210089B23144EE
:206234008870641C3800C0B209FB00F05044B0F8800080B2000A210089B231448870641CF3
:206254003800C0B209FB00F05044B0F88000210089B231448870641C3800C0B209FB00F0E9
:206274005044B0F8820080B2000A210089B231448870641C3800C0B209FB00F90AEB090022
:20629400B0F88200210089B231448870641C7F1C23E60020210089B231448870641C00204A
:2062B400210089B231448870641C210089B2B01C02F00EFB0100200080B230448170641C26
:2062D400080080B2000A220092B232449070641C3480200080B205B0BDE8F08F1CB5042135
:2062F40000226C46200002F063FC03208DF8020004208DF80300DFF81C078188ADF8001037
:206314006946006802F072FD13BD0000084200202DE9F74F82B004005FF00008002000218D
:20633400002500260027424692B2A25C8DF8002018F101085FF0000948469DF80010C0B259
:20635400884269D2404680B220440600049800794000B178401805005FF0840ADFF8C0B003
:206374002800C0B20AFB00F058441A3007002800C0B20AFB00F05844007A00280ED02800BA
:20639400C0B20AFB00F058440021017201202900C9B20AFB01FA0BF80A002FE00122391DF8
:2063B400301D02F0DFFD002809D1B079B979884205D196F8520097F85210884207D001201E
:2063D4002900C9B20AFB01FA0BF80A0016E02800C0B20AFB00F058444068DFF83C16B1F85D
:2063F40014114018DFF834160968884206D201202900C9B20AFB01FA0BF80A005FF06A0A43
:206414000196BB4652460199584602F09BFC18F16A0819F101098FE705B0BDE8F08F000099
:20643400D83B00202DE9F44F88B004000D00002600275FF000080020B4F80310ADF800103B
:20645400BDF800102A79521C914240F09382207A95F89412884240F08D8201200600A07825
:20647400002805D114F10C0007006089804605E014F10A000700A0780B38804695F8940204
:20649400362800F04B82372812D0382817D039283FD03A2864D03B2800F02A813C2800F0ED
:2064B400EC813D2800F03982F72800F0208161E22A00414689B23800FFF72AFF5AE241F2A6
:2064D4002840DFF8341D0A5832F002020A50DFF82C0D90F89602C0071AD4DFF8240D0178D0
:2064F40000EB81016422C1F8442601210278024482F8221605210278024482F826100178CF
:20651400491C0170D0F8C81651F02001C0F8C81630E241F22840DFF8E01C0A5832F00202EB
:206534000A50002085F89D02DFF8D40C017800EB81016422C1F8442601210278024482F80F
:20655400221605210278024482F826100178491C0170D0F8C81651F02001C0F8C81609E281
:20657400404680B2022840F0BC8041F22840DFF8889C19F8001049072FD5397885F8E81286
:20659400797885F8E91259F8001031F0040149F80010022068713A214846FFF704F8A9F82F
:2065B4000000DFF85C0C017800EB81016422C1F8442601210278024482F8221605210278C5
:2065D400024482F826100178491C0170D0F8C81651F02001C0F8C81677E03878002835D18F
:2065F40001200600DFF834040068C5F8EC02387885F8E802787885F8E90201206871DFF8FE
:20661400049C19F10400FEF7F8FE89F80100DFF8F00B017800EB81016422C1F844260121C8
:206634000278024482F8221602210278024482F826100178491C0170D0F8C81651F02001EA
:20665400C0F8C816002085F89D023EE095F8E8023978884204D195F8E902797888422FD03D
:20667400DFF8B8030068C5F8EC02387885F8E802787885F8E90202206871DFF8889B19F1F3
:206694000400FEF7BAFE89F80100DFF8740B017800EB81016422C1F84426012102780244EC
:2066B40082F8221602210278024482F826100178491C0170D0F8C81651F02001C0F8C81694
:2066D40000200600D5480068A86095F8E93295F8E8220121DFF8240BC07880B201F092F9A6
:2066F40004E000200600CD480068A86042E141E1404680B2022840F0BA8041F22840DFF8F4
:20671400F89A19F8001009072FD5397885F8E012797885F8E11259F8001031F0080149F851
:206734000010022068713B214846FEF73CFFA9F80000DFF8CC0A017800EB81016422C1F8AD
:20675400442601210278024482F8221605210278024482F826100178491C0170D0F8C8169C
:2067740051F02001C0F8C81675E03878002834D101200600002085F89D02387885F8E00269
:20679400787885F8E102A5480068C5F8E40201206871DFF8709A19F12400FEF763FE89F8BD
:2067B4000200DFF85C0A017800EB81016422C1F8442601210278024482F8221603210278C5
:2067D400024482F826100178491C0170D0F8C81651F02001C0F8C8163DE095F8E002397885
:2067F400884204D195F8E102797888422ED08B480068C5F8E402387885F8E002787885F863
:20681400E10202206871DFF8FC9919F12400FEF729FE89F80200DFF8E809017800EB81019F
:206834006422C1F8442601210278024482F8221603210278024482F826100178491C017024
:20685400D0F8C81651F02001C0F8C8160020060072480068A86095F8E13295F8E0220221E4
:20687400DFF89809C07880B201F0CCF804E0002006006A480068A8607CE0404680B2002805
:206894004AD0082007900697DFF89491BDF800104FF48470414309EB0100B0F1FF0A079AB2
:2068B4000699504602F04EFA0820059004975FF0840ABDF8000040000AFB00F04844B0F109
:2068D4007B0B059A0499584602F03CFA0820039017F108000290BDF800104FF4847041433F
:2068F40009EB0100B0F1F70B039A0299584602F029FA5FF0080B17F108000190BDF8000049
:2069140040000AFB00FA09EB0A00B0F173095A460199484602F016FA2CE02BE041F228408D
:20693400DFF8D49859F8001031F0020149F80010012239004846FEF78DFEA9F80000DFF848
:20695400C008017800EB81016422C1F8442601210278024482F8221605210278024482F8D8
:2069740026100178491C0170D0F8C81651F02001C0F8C8163000C0B209B0BDE8F08F2DE94B
:20699400F84F04000D00160000210020277A85F84870002285F84520002285F84620002233
:2069B4002A75B6F10B083A00D2B2302A04D0522A22D0532A21D020E04046C0B200281AD098
:2069D400082214F11401281D02F0CCFA00280AD05FF0080914F1140A15F1040B4A465146A1
:2069F400584602F0AFF9DFF8480C002180F86010012180F84C1000E0FFE7287D002805D1B8
:206A1400012085F84500022085F84600287D80B2BDE8F28F58080108804B0020D04F00200A
:206A3400D83B00202DE9F64F85B004000D001E005FF0000800208DF802000020ADF8040089
:206A540000208DF80100DFF8B0770020388041F230495FF0000ABB4652464946584602F0E9
:206A7400A7F8DFF8D00B40798DF800009DF800001F2802D160788DF800009DF8000041F29F
:206A940026417854002041F22341785441F22448002007F8080020788DF80100BDF81890EB
:206AB4009DF80000042823D0212800F0C68023286AD0242800F06E83362800F0F8823728B6
:206AD40000F04C83382800F0CF80392800F058813A2800F0E1813B2800F03C82F42800F049
:206AF4009680F52839D0F7281FD0F82829D06AE3484680B2002817D12800C0B2FF280AD166
:206B14003A0000210020FEF7F9FB3880012041F22341785402E0032007F808003A0000215A
:206B34000020FEF7EBFB38804DE3484680B2142806D13A003221DFF8000BFEF7DFFB388095
:206B540041E3484680B2002806D13A000C21DFF8EC0AFEF7D3FB388035E3484680B200288F
:206B740011D12800C0B2FF2804D13800FEF7BAFD388008E0032007F808003A000021002060
:206B9400FEF7BCFB38801EE3484680B200283DD12800C0B2FF282AD10120DFF8601681F8E3
:206BB4009602DFF89C0A00218173002141730F21427B024482F86510417B00EB81014FF434
:206BD400C872C1F8A8200221427B024451740121427B024482F885100421427B024482F825
:206BF4003110417B491C41730421017008E0032007F808003A0000210020FEF77FFB388021
:206C14003A0000210020FEF779FB3880DBE2484680B220280AD12800C0B2FF2803D120006F
:206C340000F0F2FA02E0032007F808003A0000210020FEF763FB3880C5E2484680B205283E
:206C540011D12800C0B2FF2804D19DF8010000F060FC02E0032007F808003A00002100203F
:206C7400FEF74CFB3880AEE2484680B2052840F0868041F22840395851F002013950280038
:206C9400C0B2FF2851D02800C0B200284DD0207810F0030F02D12078002821D1DFF85C05E0
:206CB4000321017003218170382180F894122900C9B2491E49100171022180F89E12290055
:206CD400C9B2491C022291FBF2F302FB131180F89F12217880F8A012310002F065FB48E073
:206CF400DFF818050321017003218170382180F894122900C9B2491E49100171022180F8FA
:206D14009E122900C9B2491C022291FBF2F302FB131180F89F12217880F8A012310002F0E1
:206D340043FB022007F8080023E0DFF8D0040321017003218170382180F894122900C9B265
:206D5400491E49100171022180F89E122900C9B2491C022291FBF2F302FB131180F89F12BA
:206D7400217880F8A012310002F01EFB032007F808003A0000210020FEF7C0FA388022E2F0
:206D9400484680B2052840F0868041F22840395851F0020139502800C0B2FF2851D02800B9
:206DB400C0B200284DD0207810F0030F02D12078002821D1DFF84404032101700321817010
:206DD400392180F894122900C9B2491E49100171022180F89E122900C9B2491C022291FB4D
:206DF400F2F302FB131180F89F12217880F8A012310002F0D9FA48E0DFF8000403210170FF
:206E140003218170392180F894122900C9B2491E49100171022180F89E122900C9B2491CA7
:206E3400022291FBF2F302FB131180F89F12217880F8A012310002F0B7FA022007F808009F
:206E540023E0DFF8B8030321017003218170392180F894122900C9B2491E4910017102216E
:206E740080F89E122900C9B2491C022291FBF2F302FB131180F89F12217880F8A0123100FA
:206E940002F092FA032007F808003A0000210020FEF734FA388096E1484680B20A2858D14E
:206EB40041F22840395851F0040139502800C0B2FF2841D02800C0B200283DD0DFF83CA36C
:206ED4009AF8050002283ED0681E8AF8030003208AF8020003208AF800003A208AF8940206
:206EF4002800C0B2401E40108AF804002800C0B2401C022190FBF1F201FB12008AF89F02F8
:206F140007208AF89E020620049003941AF5287B049A0399584601F015FF062002900194E7
:206F3400DFF8D4BA029A0199584601F00BFF3100504602F039FA06E03100B04802F034FAEE
:206F5400032007F808003A0000210020FEF7D6F9388038E1484680B20A2840F0A78041F267
:206F74002840395851F0080139502800C0B2FF2800F08F802800C0B2002800F08A80002095
:206F9400002100221000C0B20C281FDA8423DFF86CCA1000C0B25843604490F826000028A0
:206FB40012D01000C0B25843604490F8270000280AD01000C0B203FB00F30CEB030090F874
:206FD4002B00002800D0491C521CDBE7C9B2002939D0DFF828A2681E8AF8030003208AF8E7
:206FF400020003208AF800003B208AF894022800C0B2401E40108AF804002800C0B2401C9F
:20701400022190FBF1F201FB12008AF89F0207208AF89E020620049003941AF5287B049AB0
:207034000399584601F08EFE062002900194DFF8D0B9029A0199584601F084FE31005046CA
:2070540002F0B2F92CE0DFF8F80500218173002141730F21427B024482F86510417B00EBEC
:2070740081014FF4C862C1F8A8200121427B024451740121427B024482F885100321427B8D
:20709400024482F83110417B491C41730421017006E03100594802F087F9032007F808001C
:2070B4003A0000210020FEF729F938808BE0484680B20B2851D141F22840395851F0020182
:2070D40039502800C0B2FF283AD02800C0B2002836D0DFF828A19AF80500022837D0681E92
:2070F4008AF8030003208AF8020003208AF8000036208AF894022800C0B2401E40108AF873
:2071140004002800C0B2401C022190FBF1F201FB12008AF89F0260788AF8A00208208AF8F9
:207134009E020720029001941AF5287B029A0199584601F007FE3100504602F035F906E004
:2071540031002E4802F030F9032007F808003A0000210020FEF7D2F8388034E0484680B269
:20717400052816D12078002802D02078FF2807D13A002178681EC0B2FEF7D4FB388008E08F
:20719400022007F808003A0000210020FEF7B6F8388018E0484680B20C2814D15FF0080AAA
:2071B4000194DFF80CBD52460199584601F0CAFD002007F80800FEF785F83A0000210020EA
:2071D400FEF79CF838803888002810D19DF8020000280CD1012041F223417854042007F84E
:2071F40008003A0000210020FEF788F83880388807B0BDE8F08F0000AC00002008420020FA
:207214000C350020504E002070B5040001250026DFF8A01C3000C0B2205CA1F81001761CD9
:207234003000C0B2205CA1F81401761C3000C0B2205CA1F81201761C3000C0B2205C81F8E9
:20725400F000761C3000C0B2205C0002A1F8F200761CB1F8F2203000C0B2205C0243A1F8A4
:20727400F220761C3000C0B2205C0002A1F8FA00761CB1F8FA203000C0B2205C0243A1F852
:20729400FA20761C3000C0B2205C0002A1F8FC00761CB1F8FC203000C0B2205C0243A1F826
:2072B400FC20761C3000C0B2205C0002A1F8FE00761CB1F8FE203000C0B2205C0243A1F800
:2072D400FE20761C3000C0B2205C0002A1F80001761CB1F800213000C0B2205C0243A1F8D8
:2072F4000021761C3000C0B2205C0002A1F80201761CB1F802213000C0B2205C0243A1F8B1
:207314000221761C3000C0B2205C0002A1F80401761CB1F804213000C0B2205C0243A1F88A
:207334000421761C3000C0B2205C0002A1F80601761CB1F806213000C0B2205C0243A1F864
:207354000621761C3000C0B2205C0002A1F80801761CB1F808213000C0B2205C0243A1F83E
:207374000821761C3000C0B2205C0002A1F80A01761CB1F80A213000C0B2205C0243A1F818
:207394000A21761C3000C0B2205C0002A1F80C01761CB1F80C213000C0B2205C0243A1F8F2
:2073B4000C21761C3000C0B2205C0002A1F80E01761CB1F80E213000C0B2205C0243A1F8CC
:2073D4000E21761CFDF760FF2800C0B270BD2DE9F84304000D005FF000080026E08805284A
:2073F40010DB14F19E0002F0EFF800280AD0E08820448789E188891E14F10E0001F068FABE
:20741400060007E0E088002803D1FF200600370000E0FF273800310080B289B288424DD1E7
:207434005FF00008DFF8409C99F8C80610F0810F07D12B00E288217914F10E00FFF7F2FA43
:207454008046404680B2002861D0DFF8600B41F22841415C11F00E0F59D199F8001009EBE9
:2074740081016422C1F84426012199F800204A4482F82216052199F800204A4482F82610A5
:2074940099F80010491C89F80010D9F8C81651F02001C9F8C81641F22641415C042936D126
:2074B40041F22341405C012831D10520FDF7BEFDDFF8FC0ADFF8FC1A086028E0DFF8EC8AFF
:2074D400012041F2244108F80100424600210020FDF714FFA8F80000DFF88C0B017800EB9C
:2074F40081016422C1F8442601210278024482F8221605210278024482F826100178491C45
:207514000170D0F8C81651F02001C0F8C816BDE8F183C1070BD5DFF8541B8A8809680A6153
:20753400DFF8241C0A6852F040020A600AE0DFF83C1B8A8809684A61DFF80C1C0A6832F0E7
:2075540040020A6081070BD5DFF8241B8A8809680A61DFF8F41B0A6852F004020A600AE00B
:20757400DFF80C1B8A8809684A61DFF8DC1B0A6832F004020A60410705D5DFF8F81A8A88DC
:2075940009680A6104E0DFF8EC1A8A8809684A6101070BD5DFF8E01A8A8809680A61DFF88E
:2075B400A81B0A6852F080020A600AE0DFF8C81A8A8809684A61DFF8901B0A6832F08002EB
:2075D4000A6070472DE9F043ADF5006D81B005000E0017009846DDF820484FF400610022E2
:2075F4000DF10409484601F0E3FA220092B2310001A801F0C4F901A8009023009BB22A004F
:20761400DFF8481B404601F0FBFF404601F0DCFF0090DFF83C3BDFF83C2BDFF8A41C38006E
:2076340001F0EEFF0DF5006D01B0BDE8F08300009C4C00205C4A002000500008E8F7FF1FFD
:20765400184900202DE9F34F83B0050000240020ADF8080000271F20210089B26854641C16
:207674000498000E210089B26854641C0498000C210089B26854641C0498000A210089B272
:207694006854641C0498210089B26854641CFF20210089B26854641CDFF8280C0178220009
:2076B40092B2A954641C4178220092B2A954641C8178220092B2A954641CC178220092B2DE
:2076D400A954641C0179220092B2A954641C4179220092B2A954641C8179220092B2A954C2
:2076F400641CC07910F0F000210089B26854641C5FF00808DFF8D09B200080B205EB00064C
:2077140042464946300001F01DFB08345FF0080ADFF8B8BB200080B205EB0006524659469F
:20773400300001F00FFB0834DFF8A40B8168090E220092B2A954641C8168090C220092B201
:20775400A954641C8168090A220092B2A954641C8068210089B26854641CDFF85807D0F83B
:207774009410220092B2A954641CD0F8E800210089B26854641CDFF8D009807B210089B21F
:207794006854641C0020210089B26854641C0020210089B26854641C0020210089B26854F1
:2077B400641C0020210089B26854641C0020210089B26854641C00263000C0B20C2880F257
:2077D4008B80701C210089B26854641C8427DFF82C823000C0B2784318F8000000286CD065
:2077F40008200190DFF8840B0090200080B205EB0009019A0099484601F0A4FA08345FF09F
:207814000809DFF86CAB200080B205EB000B4A465146584601F096FA08343000C0B2784329
:207834004044407F210089B26854641C3000C0B278434044807FC0F3C0013000C0B27843A8
:207854004044807FC0F38000800050EAC1003100C9B279434144897FC1F3400150EA41007E
:207874003100C9B279434144897F11F001010843210089B26854641C3000C0B27843404438
:2078940090F82000210089B26854641C3000C0B27843404490F82E00210089B26854641C65
:2078B4003000C0B207FB00F708EB070090F86C00210089B26854641C0CE00927FF200090C8
:2078D400200080B205EB0008009A3900404601F06FF90934761C6FE70020210089B268543B
:2078F400641C0020210089B26854641C210089B2280000F0EDFF0100200080B22954641C8C
:20791400080080B2000A220092B2A854641C200080B205B0BDE8F08F70B5DFF8984514F124
:207934004805DFF8506A31880905090D280001F087FE280001F0ABFE14F19C05718809056B
:20795400090D280001F07CFE280001F0A0FED4F894003C2803DAD4F8E8003C2806DBDFF842
:20797400180A816851F00101816005E0DFF8080A816849084900816070BDDFF8CC170A7A27
:2079940012F0030F02D10A7812071CD50A7A12F0030F0BD00A78520708D4DFF8D42693884A
:2079B400126813610A6852F004020A600A78120621D5DFF8C4269388126853610A6832F073
:2079D40080020A6017E00A78120608D4DFF8A8269388126813610A6852F080020A600A786A
:2079F400520708D5DFF888269388126853610A6832F004020A607047AC4F0020D83B002066
:207A1400B44F002070B40C00E4B2012C40F0E6801400E4B2002C57D11C00E4B2002C05D0F5
:207A3400022C2AD028D3032C4DD06EE1DFF8F84B0025A573002565730F25667B264486F823
:207A54006550657B04EB85054FF4C866C5F8A8600325667B264475740125667B264486F883
:207A740085500525667B264486F83150657B6D1C65730425257048E147E1DFF8AC4B002566
:207A9400A573002565730F25667B264486F86550657B04EB85054FF4C866C5F8A860042553
:207AB400667B264475740125667B264486F885500325667B264486F83150657B6D1C657307
:207AD4000425257021E120E11400E4B2012C30D11C00E4B2002C02D0012C29D015E1DFF856
:207AF400484B0025A573002565730F25667B264486F86550657B04EB85054FF4C866C5F86C
:207B1400A860DFF8285BED786D1C667B264475740125667B264486F885500125667B264498
:207B340086F83150657B6D1C657304252570ECE0EBE01400E4B2022C40F0E7801C00E4B27B
:207B5400012C06D0022C0CD0042C12D0FF2C3DD0DBE0DFF8D84A6578022D01D0022565702D
:207B7400D3E0DFF8C85A6C78002C01D000246C70CBE0DFF8B84A6578032D26D003256570E0
:207B9400DFF8A44A0025A573002565730F25667B264486F86550657B04EB85054FF4C86656
:207BB400C5F8A8600925667B264475740125667B264486F885500B25667B264486F831504C
:207BD400657B6D1C6573042525709EE0DFF85C5A6C78002C01D000246C7096E00C00E4B28E
:207BF400022C40F092801400E4B2002C31D11C00E4B2002C05D0022C29D027D3032C27D02F
:207C140083E0DFF8244A0025A573002565730F25667B264486F86550657B04EB8505C82675
:207C3400C5F8A8600225667B264475740125667B264486F885500425667B264486F83150D9
:207C5400657B6D1C6573042525705EE05DE05CE05BE01400E4B2012C30D11C00E4B2002C69
:207C740002D0012C29D050E0DFF8BC490025A573002565730F25667B264486F86550657B20
:207C940004EB85054FF4C866C5F8A860DFF89C59ED786D1C667B264475740125667B2644C2
:207CB40086F885500225667B264486F83150657B6D1C65730425257027E026E01400E4B236
:207CD400022C22D11C00E4B2012C06D0022C0CD0042C12D0FF2C11D017E0DFF8504965784E
:207CF400012D01D0012565700FE0DFF840596C78002C01D000246C7007E006E0DFF82C590D
:207D14006C78002C01D000246C7070BC70472DE9F84FADF5206D05000E0017005FF000087E
:207D34004FF40074210000220DF50069484600F03FFF210000220DF5C069484600F038FFEB
:207D5400210000220DF58069484600F031FF210000220DF50079484600F02AFF210000228B
:207D74006C46200000F024FFDFF8C4180DF5006001F046FCDFF8BC180DF5C06001F040FCC8
:207D9400DFF8B4180DF5806001F03AFC15F59C72DFF8A81880A801F033FCDFF8A4186846EB
:207DB40001F02EFC0DF50061300001F08DFC002830D0242416F1390915F59C7A22004946FD
:207DD400504600F0BFFF95F840012D2868D195F845012D2864D195F84A012D2860D195F8A7
:207DF4004F012D285CD101208046DFF858480120E0705FF0800916F1600A15F5AE7B4A46C2
:207E14005146584600F09EFF16F16001200002F0AFFA45E00DF5C061300001F055FC002887
:207E34000AD0012080460020224981F8F5000220DFF81018C87033E00DF58061300001F004
:207E540043FC002806D0002080460220DFF8F417C87025E080A9300001F036FC002806D030
:207E7400012080460220DFF8DC17C87018E06946300001F029FC002812D0012080460220E3
:207E9400DFF8C017C8704AF6AA20DFF8BC17088000F036FF0520FDF7C9F84548454908602A
:207EB4004046C0B20DF5206D01B0BDE8F08F0000334E0020804B0020F8B504000D000020E8
:207ED4006178214491F826603100C9B2012907D069D3032930D01BD3052954D040D362E097
:207EF400DFF86807016814F14600FFF7ABFBA080DFF85C77A0880090DFF858373A0014F1B1
:207F140046012800FFF75EFB380002F0FBFB4AE0DFF83C77DFF8340700680090DFF80C07C7
:207F3400C378DFF830273900DFF82C0700F035F9380002F0E7FB36E0DFF81477DFF80C07F5
:207F540000680090DFF8E406C378DFF808273900DFF8080700F06AF9380002F0D3FB22E0A7
:207F7400DFF8FC06DFF8E876DFF8E016096800910378DFF8E0263900443000F0ABF938003F
:207F940002F0C0FB0FE0DFF8C876084801880091DFF8C0363A00811CDFF8C80600F00CF875
:207FB400380002F0AFFBC4F8C456F1BDAC0000200400FA050CED00E02DE9F043ADF5006D55
:207FD40085B005000E0017009846DDF830484FF4006100220DF11409484600F0E9FD042199
:207FF40000220DF11009484600F0E2FD022100220DF10C09484600F0DBFD00208DF80C0078
:2080140020008DF80D00220092B2310005A800F0B6FC022203A904A800F0B1FCDFF824069A
:2080340005A9029104A9019110F19801009110F1960310F18E02DFF83016404601F0E0FAE8
:20805400404601F0C1FA019015F59C700090404B404ADFF81816380001F0D2FA0DF5006D25
:2080740005B0BDE8F08300000C350020A8080108D8080108A0080108E00801082DE9F0472D
:2080940004000D00002000266178214491F826703900C9B2012907D046D303291ED010D34D
:2080B400052935D027D33FE0AFA1280001F00CFB002805D001200600DFF8980502F022FB49
:2080D40032E0A9A1280001F0FFFA002805D001200600DFF8800502F015FB25E0A2A128002C
:2080F40001F0F2FA002805D001200600DFF8640502F008FB18E09CA1280001F0E5FA0028E1
:2081140005D001200600DFF84C0502F0FBFA0BE095A1280001F0D8FA002805D00120060010
:20813400DFF8300502F0EEFA4FF400685FF00009DFF820A54A464146504600F039FD3000A3
:20815400C0B2BDE8F08700009C4F002048040108884F00205008010810B4002142780244E0
:2081740092F826201300DBB25B1E042B13D88178002908D100214378034483F8221641785E
:20819400491C417007E000214378034483F822164178491C417010BC70472DE9F041ADF5BD
:2081B400006D82B004000D0016001F004FF4006100220DF10808404600F0FAFC0221002241
:2081D4000DF10608404600F0F3FC012100220DF10408404600F0ECFC781C8DF8040001222E
:2081F40001A90DF1060000F0CAFB0722210002A800F0C5FB02A800900DF10603DDF8202806
:20821400DFF86C14300001F0FBF9300001F0DCF90090DFF86034DFF860242949280001F007
:20823400EFF90DF5006D02B0BDE8F0812DE9F041ADF5006D82B004000D0016001F004FF4FA
:20825400006100220DF10808404600F0B1FC022100220DF10608404600F0AAFC01210022A5
:208274000DF10408404600F0A3FC781C8DF80400012201A90DF1060000F081FB0722210027
:2082940002A800F07CFB02A800900DF10603DDF82028DFF8E813300001F0B2F9300001F09C
:2082B40093F90090DFF8CC33DFF8CC230449280001F0A6F90DF5006D02B0BDE8F0810000B6
:2082D40088020108744F00208C07010898070108F84400202DE9F041ADF5006D82B00400E8
:2082F4000D0016001F004FF4006100220DF10808404600F05DFC022100220DF106084046AE
:2083140000F056FC012100220DF10408404600F04FFC781C8DF80400012201A90DF106000A
:2083340000F02DFB0922210002A800F028FB02A800900DF10603DDF82028DFF8441330004C
:2083540001F05EF9300001F03FF90090DFF82433DFF82423DFF82C13280001F051F90DF511
:20837400006D02B0BDE8F0813E000000A4070108B0070108C44F00209C4F00202DE9FE4F61
:2083940004002000C0B2FF2840D1DFF8FC7217F1040804223900404600F0E4FD002800F0D4
:2083B400138104253E002A003100404600F0CAFCDFF8AC82FE2088F80000786801900020E3
:2083D400009000230022FF2118F14400FDF77FF888F80300DFF8B402017800EB8101642260
:2083F400C1F8442601210278024482F8221604210278024482F826100178491C0170D0F806
:20841400C81651F02001C0F8C816DDE0DFF880525FF0840ADFF87CB201222000C0B20AFB70
:2084340000F0584410F11E012300DBB20320434305EB0300801C00F095FD002825D10122D1
:208454002000C0B20AFB00F0584410F120012300DBB20320434305EB030000F083FD0028DF
:2084740013D101222000C0B20AFB00F0584410F16C012300DBB20320434305EB0300401CA8
:2084940000F070FD002800F09F80012002902000C0B20AFB00F0584410F11E062100C9B29D
:2084B4000320414305EB0100871C029A3100380000F048FC01272000C0B20AFB00F05844E9
:2084D40010F120082100C9B20320414305EB01093A004146484600F035FC5FF00109200039
:2084F400C0B20AFB00FA0BEB0A0010F16C0A2100C9B20320414305EB010010F1010B4A46AF
:208514005146584600F01EFCDFF854B18BF80040002001902100C9B20320414305EB010084
:20853400407800902100C9B2032041436B5C2100C9B20320414305EB01008078C0F3C00135
:208554002200D2B20320424305EB02008078C0F38002920052EAC1022100C9B203204143C6
:2085740005EB01008078C0F3400052EA40022100C9B20320414305EB0100807810F0010060
:208594000243D2B205211BF14400FCF7A0FF8BF80300DFF8F800017800EB81016422C1F87C
:2085B400442601210278024482F8221604210278024482F826100178491C0170D0F8C8161F
:2085D40051F02001C0F8C816BDE8F78FDFF8B8000078800726D514480178090722D40021DF
:2085F4008173002141730F21427B024482F86510417B00EB81014FF41672C1F8A8200B21DB
:20861400427B024451740121427B024482F885100D21427B024482F83110417B491C417389
:20863400042101707047000018490020084200203C070108F40601080C07010884060108F0
:20865400BC0701085C4A0020BC4F0020D04F00200C2500200C2D0020544E0020744E0020BC
:20867400504E00202C470020C002010810020108F8020108884F0020500801083003010818
:2086940068030108880201089C4F00200C350020504F0020D83B00202DE9F04104000D0009
:2086B40016005FF001080027280080B2002860D002F068F8002801D1002080464046C0B235
:2086D400002808D0A02002F0F2F802F0CFF8002801D1002080464046C0B2002808D0200039
:2086F40080B2000AC0B202F0E2F802F0BFF880464046C0B2002806D02000C0B202F0D7F834
:2087140002F0B4F880464046C0B2002805D002F039F8002801D1002080464046C0B20028C9
:2087340008D0A12002F0C3F802F0A0F8002801D1002080466D1E4046C0B2002817D00020C3
:2087540007003800290080B289B2884208D202F0D3F8390089B2705402F058F87F1CF0E7E3
:2087740002F0CAF8390089B2705402F067F802F035F84046C0B2BDE8F0812DE9F041040030
:208794000D00160000275FF00108280080B2002842D001F0F7FF002801D100208046404642
:2087B400C0B2002808D0A02002F081F802F05EF8002801D1002080464046C0B2002808D0E8
:2087D400200080B2000AC0B202F071F802F04EF880464046C0B2002806D02000C0B202F0E4
:2087F40066F802F043F88046002007003800290080B289B288420DD24046C0B2002807D07F
:20881400380080B2305C02F052F802F02FF880467F1CEBE701F0E2FF052001F0AAFF4046AF
:20883400C0B2BDE8F0812DE9F04704000D00160000275FF000085FF0000A200010F01F0F03
:208854001BD014F01F00D0F1200007002800390080B289B2884200D22F00404680B206EBCC
:208874000002390089B218EB040080B2FFF785FF8146ED1B17EB080801E05FF00109484612
:20889400C0B200281FD0280080B200281BD0202007002800390080B289B2884200D22F00EE
:2088B400404680B206EB0002390089B218EB040080B2FFF762FF8146ED1B17EB0808484686
:2088D400C0B20028DFD14846C0B2BDE8F087000070B403000022002400264FF6FF700025B2
:2088F4008D4214D25A5D504000221600082E0CD2C20706D580B2020048F2084090EA5200F6
:2089140001E080B24008761CF0E76D1CE8E780B2C04380B270BC70472DE9F04104000D0085
:208934005FF0000800260027002C24D0200000F04BFE01004FF6FE700140002006003000BB
:208954000A0080B292B2904210D22248320092B2A25C825C120133009BB223445B78C05C2A
:20897400024317002F706D1CB61CE8E788461FFA88F85FEA5808404680B2BDE8F081F0B43C
:2089940000250023002425001600ADB2B6B2B5421DD22500ADB24D5DEDB22D090E4E2F00E1
:2089B400FFB2F75DA4461FFA8CFC00F81C702700BFB2CF5D17F00F073B001F00FFB2F65D50
:2089D4002700BFB200EB47077E70641CDBE7F0BC7047000088FE00086C070108F0B403006E
:2089F4000020002500260027002B00F0C5801400E4B2022C09D0082C24D00A2C3FD0102C17
:208A140000F07F80112C58D0B6E01D00002427003C008C46E4B25FFA8CFC644511D22C783B
:208A340026003400E4B2302C03D03400E4B2312C07D140003400E4B2303C20187F1C6D1C32
:208A5400E6E799E01D00002427003C008C46E4B25FFA8CFC644511D22C7826003400E4B2AF
:208A7400302C0BDB3400E4B2382C07DAC0003400E4B2303C20187F1C6D1CE6E77CE01D00F9
:208A9400002427003C008C46E4B25FFA8CFC644512D22C7826003400E4B2302C0CDB34005A
:208AB400E4B23A2C08DA0A2460433400E4B2303C20187F1C6D1CE5E75EE01D0000242700EF
:208AD4003C008C46E4B25FFA8CFC644518D22C7826003400E4B2302C0ADB3400E4B23A2C65
:208AF40006DA0A2460433400E4B2303C201804E03400E4B22E2C00D002E07F1C6D1CDFE79F
:208B14003AE01D00002427003C008C46E4B25FFA8CFC64452FD22C7826003400E4B2302CA0
:208B340009DB3400E4B23A2C05DA00013400E4B2303C20181CE03400E4B2612C09DB340054
:208B5400E4B2672C05DA00013400E4B2573C20180EE03400E4B2412C09DB3400E4B2472C1D
:208B740005DA00013400E4B2373C201800E002E07F1C6D1CC8E7FFE7F0BC704770B4040086
:208B94005FF0FF300D001600ADB2B6B2B5420CD20D00ADB2655D1E00F6B2B54203D10D00B8
:208BB400ADB2280001E0491CECE770BC7047000062F30F2262F31F42401810F0030308D0AC
:208BD400C91A1FD3DB0748BF00F8012D28BF20F8022D130030B414461546103928BF20E98A
:208BF4003C00FAD8490728BF20E90C0048BF40F8042D890028BF20F8022D48BF00F8012DB3
:208C140030BC7047C91818BF00F8012DCB0728BF00F8012D704700002DE9F8435FF0000881
:208C3400002441F6F875464E320008212800FFF733FD07003800C0B2002810D05FF000080B
:208C54005FF0000906213000FFF742FEF18802000B0092B29BB29A4201D0002217003200EC
:208C740008214FF4F050FFF717FD80464046C0B200280FD000245FF0000906213000FFF79C
:208C940027FEF18802000B0092B29BB29A4201D00022904658EA0700C0B2002807D1012003
:208CB400B0804AF6AA20308000F02AF826E03800C0B201280FD14046C0B200280BD13200BD
:208CD40008212800FFF7E8FC320008214FF4F050FFF7A9FD12E03800C0B200280ED14046B2
:208CF400C0B201280AD1320008214FF4F050FFF7D3FC320008212800FFF795FDBDE8F18323
:208D140038B500240E4D0020E88006212800FFF7DFFDE8802A00082141F6F870FFF783FD5A
:208D3400012809D12A0008214FF4F050FFF77BFD012801D1012004002000C0B232BD000037
:208D5400BC4F002062B38B0708D0521E11F8013B00F8013B00F024808B07F6D1830740F0C5
:208D7400208000BF103A07D330B4B1E83810103AA0E83810F9D230BC530724BFB1E80810D8
:208D9400A0E8081044BF51F8043B40F8043BD20724BF31F8022B20F8022B44BF0B780370CD
:208DB4007047121F17D35B0009D151F8043B20F8023B1B0C121F20F8023BF6D20BE051F812
:208DD400043B00F8013B1B0A20F8023B1B0C121F00F8013BF3D238BF121D521E24BF11F8BF
:208DF400013B00F8013BF8D870470000F0B500220023002400250026002791F803C01CF090
:208E14000F0C91F803E05FEACE6E02D58A7852EA0C0C0A7812062AD00268160000221400BB
:208E3400082C23D25FF0010E1EFA04F215000A882A401300AB4217D1A20015000F22AA40BE
:208E54001700BE431CFA05F21643CA78282A04D11EFA04FEC0F814E006E0CA78482A03D1E3
:208E74001EFA04FEC0F810E0641CD9E706600A88B2F5807F2EDB4268160000221400082C0B
:208E940027D25FF0010E14F108021EFA02F215000A882A401300AB4219D1A20015000F2269
:208EB400AA401700BE431CFA05F21643CA78282A04D114F108021EFA02F24261CA78482A5B
:208ED40005D114F108021EFA02FEC0F810E0641CD5E74660F0BDF0B4002200230025002715
:208EF400002802D51D4C246801E01D4C2468C0F3034586B210F4401CBCF5401F07D134F0F5
:208F14007064174A176837F07067176011E0C20206D50322AA4013009C4354F0706408E083
:208F34000200520DD2B2120116FA02F2944354F070640A00D2B2002A06D00200520DD2B2BF
:208F5400120116FA02F21443002802D5034A146001E0034A1460F0BC704700001C0001406D
:208F7400040001400300002013F0030F09D0521E22BF13F8010B11F801CBB0EB0C00F3D0E0
:208F9400704711F0030F14D1121F22BF53F8040B51F804CB6045F7D0121D0AD200BA9CFAC3
:208FB4008CFCB0EB0C0038BF6FF0000088BF01207047521E22BF13F8010B11F801CBB0EB21
