:020000040800F2
:1040000058590020F9060108DDF80008DFF800081B
:10401000E1F80008E3F80008E5F8000800000000F7
:10402000000000000000000000000000E7F80008A9
:10403000E9F8000800000000EBF80008EDF80008BF
:10404000D1080108D5080108D9080108A9F9000814
:10405000DD080108E1080108E5080108E908010890
:10406000ED080108F1080108F5080108F908010840
:10407000B1FA00088BFA0008FD08010801090108DF
:104080000FFA000835FA00084BFB00080509010883
:10409000090901080D09010811090108150901089C
:1040A000190901081D09010821090108250901084C
:1040B000290901082D0901083109010835090108FC
:1040C000390901083D0901084109010845090108AC
:1040D0004909010873F90008D3F900084FFA0008EC
:1040E0004D0901085109010855090108590901083C
:1040F0005D090108610901086509010869090108EC
:104100006D0901087109010875090108790901089B
:10411000ABFB0008F1FA00087D09010881090108DC
:1041200085090108890901084DFB000873FB000897
:1041300030B4002513E050F8042BD30744BFA9F195
:1041400001039A18091F042942F8045BFAD21346A6
:104150008C0744BF15809B1CC90748BF1D7050F8D1
:10416000041B0029E7D130BC7047B1F5807F02D332
:104170004FF0FF3070470170012070470078401EFB
:104180008041C043C00F70470268531C0360117028
:1041900070472E0043000000C9B202788A421AB16B
:1041A0001CBF10F8012FF9E718BF0020704712005C
:1041B00001300101010001310773010001200201FA
:1041C00002030404F0090806070809020406089619
:1041D00041000452FF01F200921410010000940CFF
:1041E0002157F003162C0000200001127D34212CF1
:0541F000526B3C2101AF
:1050000020534D3530303120323330363033303369
:105010002047323330323030000000000000000002
:105020000000000000000000000000000000000080
:0250300000007E
:1050340080B500F00CF800F0BAF801BD4FF4C0419F
:105044004843401C0100481E0029FBD170472DE94C
:10505400F84300260027DFF8CC4822004FF48E7175
:10506400002003F0FFFA05002800C0B200280DD08C
:1050740000265FF000084FF48C71200003F00EFC52
:10508400D4F81811884201D00022150022004FF4F0
:105094008E714FF4007003F0E5FA06003000C0B2E0
:1050A40000280DD000275FF000084FF48C71200019
:1050B40003F0F4FBD4F81811884201D00022160042
:1050C40056EA0500C0B2002838D14FF48E775FF05D
:1050D4000008A14642463900484603F04FFD01202E
:1050E400A4F810010520A4F814010620A4F8120164
:1050F4005020A4F8FA001E20A4F8FC005F20A4F8B5
:10510400FE000A20A4F800015A20A4F802014FF47A
:105114001670A4F80401A4F8060140F2B220A4F821
:1051240008014FF47A71A4F80A11A4F80C014FF4A1
:105134002F70A4F80E0100F0AFF82AE02800C0B2E6
:10514400012811D13000C0B200280DD122004FF443
:105154008E71002003F086FA22004FF48E714FF412
:10516400007003F046FB14E02800C0B2002810D100
:105174003000C0B201280CD122004FF48E714FF4DC
:10518400007003F06FFA22004FF48E71002003F0D8
:1051940030FB03F027FD45F25550DFF88C170A88E1
:1051A400824202D0088003F091FDBDE8F1832DE92D
:1051B400F84300270024DFF874572A00B4214FF481
:1051C400806003F04FFA06003000C0B200280CD013
:1051D40000275FF00008B021280003F05FFBD5F83A
:1051E400B010884201D0002216002A00B4214FF4E6
:1051F400C06003F037FA07003800C0B200280CD0B2
:1052040000245FF00008B021280003F047FBD5F824
:10521400B010884201D00022170057EA0600C0B23D
:1052240000280ED18124DFF8088715F10109220036
:105234004146484603F06CFD8120287000F04AF88E
:1052440028E03000C0B2012810D13800C0B20028D4
:105254000CD12A00B4214FF4806003F003FA2A0031
:10526400B4214FF4C06003F0C4FA13E03000C0B2BC
:1052740000280FD13800C0B201280BD12A00B42174
:105284004FF4C06003F0EEF92A00B4214FF48060BB
:1052940003F0AFFABDE8F18370B50024DFF884664B
:1052A4000020C6F818014FF48C71300003F0F6FAB0
:1052B400C6F8180132004FF48E71002003F099FAF9
:1052C400050032004FF48E714FF4007003F091FA30
:1052D400C0B270BD70B50024DFF850660020C6F877
:1052E400B000B021300003F0D9FAC6F8B0003200A3
:1052F400B4214FF4806003F07CFA05003200B4213D
:105304004FF4C06003F075FAC0B270BD2DE9F84FD8
:1053140005000E00170000245FF000081F20210084
:1053240089B239448870641C3000C0B2F1281BDB98
:10533400200080B238448670641C0020210089B2A9
:1053440039448870641CB1465FFA89F9AA46200082
:1053540080B2384410F1020B4A465146584603F0D5
:10536400D7FC54FA86F438E041F22340385C002834
:105374000ED1B1465FFA89F9AA46200080B23844BA
:1053840010F1020B4A465146584603F0C1FC0EE0A8
:10539400B1465FFA89F95FF0000A200080B2384410
:1053A40010F1020B52464946584603F0E7FB54FA03
:1053B40086F441F22440385C210089B23944887073
:1053C400641C0020210089B239448870641C0020C8
:1053D400210089B239448870641C210089B2B81C48
:1053E40003F05CFA0100200080B238448170641C30
:1053F400080080B2000A220092B23A449070641C01
:105404003C80200080B2BDE8F28F70B50400002615
:1054140000251F20310089B26054761CDFF8F40E99
:1054240090F8E812320092B2A154761C90F8E90286
:10543400310089B26054761C0020310089B2605476
:10544400761C0020310089B26054761C310089B288
:10545400200003F023FA0100300080B22154761CAE
:10546400080080B2000A320092B2A054761C3000C8
:1054740080B270BD70B50400002600251F203100E5
:1054840089B26054761CDFF88C0E90F8E01232007A
:1054940092B2A154761C90F8E102310089B26054B2
:1054A400761C0020310089B26054761C0020310043
:1054B40089B26054761C310089B2200003F0EEF901
:1054C4000100300080B22154761C080080B2000A2A
:1054D400320092B2A054761C300080B270BD2DE927
:1054E400F84F05000E00170098460A9CDDF82C9032
:1054F4005FF0000B5FF0000A1F20594689B2685420
:105504001BF1010B3000C0B2FF281BD14846000E2E
:10551400594689B268541BF1010B4846000C5946A0
:1055240089B268541BF1010B4846000A594689B2F6
:1055340068541BF1010B584680B205F800901BF12A
:10554400010B15E00020594689B268541BF1010B88
:10555400584680B22F541BF1010B584680B205F80F
:1055640000801BF1010B584680B22C541BF1010B37
:105574000020594689B268541BF1010B002059469A
:1055840089B268541BF1010B594689B2280003F013
:1055940085F90100584680B229541BF1010B08001B
:1055A40080B2000A5A4692B2A8541BF1010B584625
:1055B40080B2BDE8F28FF8B504000D000027002684
:1055C4001F20390089B2214488707F1C2800C0B292
:1055D4003B2810D1DFF83C0D90F8E0123A0092B26B
:1055E400224491707F1C90F8E102390089B2214471
:1055F40088707F1C13E02800C0B23A280FD1DFF86E
:10560400140D90F8E8123A0092B2224491707F1C73
:1056140090F8E902390089B2214488707F1C002087
:10562400390089B2214488707F1C0020390089B276
:10563400214488707F1C390089B2A01C03F02EF924
:105644000100380080B2204481707F1C080080B2C1
:10565400000A3A0092B2224490707F1C27803800DE
:1056640080B2F2BD2DE9F84F04000D0016005FF082
:10567400000A00271F20514689B2214488701AF17C
:10568400010AB0465FFA88F8A946504680B2204421
:1056940010F1020B42464946584603F039FB5AFAC8
:1056A40086FA0020514689B2214488701AF1010A11
:1056B4000020514689B2214488701AF1010A5146EA
:1056C40089B2A01C03F0EAF80100504680B22044DD
:1056D40081701AF1010A080080B2000A524692B29F
:1056E400224490701AF1010AA4F800A0504680B236
:1056F400BDE8F28F70B50400002600251F2031009C
:1057040089B221448870761C1F20310089B221445B
:105714008870761C8348B0F81011320092B222448B
:105724009170761CB0F81411320092B22244917038
:10573400761CB0F81211320092B222449170761C99
:1057440090F8F010320092B222449170761CB0F8B6
:10575400F21089B2090A320092B222449170761C86
:10576400B0F8F210320092B222449170761CB0F874
:10577400FA1089B2090A320092B222449170761C5E
:10578400B0F8FA10320092B222449170761CB0F84C
:10579400FC1089B2090A320092B222449170761C3C
:1057A400B0F8FC10320092B222449170761CB0F82A
:1057B400FE1089B2090A320092B222449170761C1A
:1057C400B0F8FE10320092B222449170761CB0F808
:1057D400001189B2090A320092B222449170761CF7
:1057E400B0F80011320092B222449170761CB0F8E5
:1057F400021189B2090A320092B222449170761CD5
:10580400B0F80211320092B222449170761CB0F8C2
:10581400041189B2090A320092B222449170761CB2
:10582400B0F80411320092B222449170761CB0F8A0
:10583400061189B2090A320092B222449170761C90
:10584400B0F80611320092B222449170761CB0F87E
:10585400081189B2090A320092B222449170761C6E
:10586400B0F80811320092B222449170761CB0F85C
:105874000A1189B2090A320092B222449170761C4C
:10588400B0F80A11320092B222449170761CB0F83A
:105894000C1189B2090A320092B222449170761C2A
:1058A400B0F80C11320092B222449170761CB0F818
:1058B4000E1189B2090A320092B222449170761C08
:1058C400B0F80E01310089B221448870761C41F28F
:1058D4002440205C310089B221448870761C002069
:1058E400310089B221448870761C0020310089B2CD
:1058F40021448870761C310089B2A01C02F0CEFFCE
:105904000100300080B220448170761C080080B20F
:10591400000A320092B222449070761C2680300035
:1059240080B270BDDC42002020470020F8440020F3
:10593400ECFF00082DE9F34F83B0050016000024A6
:105944000020ADF8080000275FF000081F202100A8
:1059540089B231448870641C9DF81000002840F01E
:10596400BF822800C0B20D2880F297845FF07809C6
:10597400DFF8B4AA2800C0B209FB00F05044407C10
:10598400210089B231448870641C2800C0B209FB2C
:1059940000F05044807CC0F3C0012800C0B209FB71
:1059A40000F05044807CC0F38000800050EAC100C5
:1059B4002900C9B209FB01F15144897CC1F34001BA
:1059C40050EA41002900C9B209FB01F15144897C24
:1059D40011F001010843210089B231448870641C2C
:1059E4002800C0B209FB00F05044007D210089B2B8
:1059F40031448870641C2800C0B209FB00F0504494
:105A0400C08A80B2000A210089B231448870641CC3
:105A14002800C0B209FB00F05044C08A210089B2BA
:105A240031448870641C2800C0B209FB00F0504463
:105A3400008B80B2000A210089B231448870641C52
:105A44002800C0B209FB00F05044008B210089B249
:105A540031448870641C062001902800C0B209FB00
:105A640000F050441A300090200080B2304410F10D
:105A7400020B019A0099584603F04AF9A41D280024
:105A8400C0B209FB00F05044008C80B2000A21002F
:105A940089B231448870641C2800C0B209FB00F04C
:105AA4005044008C210089B231448870641C280061
:105AB400C0B209FB00F0504490F82200210089B2E2
:105AC40031448870641C2800C0B209FB00F05044C3
:105AD400808C80B2000A210089B231448870641C31
:105AE4002800C0B209FB00F05044808C210089B228
:105AF40031448870641C2800C0B209FB00F0504493
:105B040090F82600210089B231448870641C280072
:105B1400C0B209FB00F05044008D80B2000A21009D
:105B240089B231448870641C2800C0B209FB00F0BB
:105B34005044008D210089B231448870641C2800CF
:105B4400C0B209FB00F05044408D80B2000A21002D
:105B540089B231448870641C2800C0B209FB00F08B
:105B64005044408D210089B231448870641C28005F
:105B7400C0B209FB00F05044808D80B2000A2100BD
:105B840089B231448870641C2800C0B209FB00F05B
:105B94005044808D210089B231448870641C2800EF
:105BA400C0B209FB00F05044C08D80B2000A21004D
:105BB40089B231448870641C2800C0B209FB00F02B
:105BC4005044C08D210089B231448870641C28007F
:105BD400C0B209FB00F0504490F83000210089B2B3
:105BE40031448870641C2800C0B209FB00F05044A2
:105BF40090F83100210089B231448870641C280077
:105C0400C0B209FB00F0504490F83200210089B280
:105C140031448870641C2800C0B209FB00F0504471
:105C240090F83300210089B231448870641C280044
:105C3400C0B209FB00F0504490F83400210089B24E
:105C440031448870641C2800C0B209FB00F0504441
:105C540090F83500210089B231448870641C280012
:105C6400C0B209FB00F0504490F83600210089B21C
:105C740031448870641C002080464046C0B2142819
:105C840022DA2800C0B209FB00F050444146C9B2F0
:105C940000EB4100008F80B2000A210089B2314438
:105CA4008870641C2800C0B209FB00F050444146CF
:105CB400C9B200EB4100008F210089B231448870E1
:105CC400641C18F10108D8E72800C0B209FB00F0F1
:105CD400504490F86000210089B231448870641CFB
:105CE400042001902800C0B209FB00F05044613048
:105CF4000090200080B2304410F1020B019A009908
:105D0400584603F005F8241D2800C0B209FB00F032
:105D14005044B0F8660080B2000A210089B23144D0
:105D24008870641C2800C0B209FB00F05044B0F82D
:105D34006600210089B231448870641C2800C0B216
:105D440009FB00F05044B0F8680080B2000A21005A
:105D540089B231448870641C2800C0B209FB00F089
:105D64005044B0F86800210089B231448870641C42
:105D74002800C0B209FB00F05044B0F86A0080B2B9
:105D8400000A210089B231448870641C2800C0B222
:105D940009FB00F05044B0F86A00210089B2314494
:105DA4008870641C2800C0B209FB00F05044B0F8AD
:105DB4006C0080B2000A210089B231448870641CEE
:105DC4002800C0B209FB00F05044B0F86C00210078
:105DD40089B231448870641C2800C0B209FB00F009
:105DE4005044B0F86E0080B2000A210089B23144F8
:105DF4008870641C2800C0B209FB00F05044B0F85D
:105E04006E00210089B231448870641C2800C0B23D
:105E140009FB00F05044B0F8700080B2000A210081
:105E240089B231448870641C2800C0B209FB00F0B8
:105E34005044B0F87000210089B231448870641C69
:105E44002800C0B209FB00F05044B0F8720080B2E0
:105E5400000A210089B231448870641C2800C0B251
:105E640009FB00F05044B0F87200210089B23144BB
:105E74008870641C2800C0B209FB00F05044B0F8DC
:105E8400740080B2000A210089B231448870641C15
:105E94002800C0B209FB00F05044B0F8740021009F
:105EA40089B231448870641C2800C0B209FB00F038
:105EB4005044B0F8760080B2000A210089B231441F
:105EC4008870641C2800C0B209FB00F90AEB0900C1
:105ED400B0F87600210089B231448870641CDCE19A
:105EE400002007003800C0B20C2880F2D681781C4C
:105EF400210089B231448870641C5FF07809DFF8AE
:105F040028A53800C0B209FB00F05044407C2100B1
:105F140089B231448870641C3800C0B209FB00F0B7
:105F24005044807CC0F3C0013800C0B209FB00F0CB
:105F34005044807CC0F38000800050EAC1003900E6
:105F4400C9B209FB01F15144897CC1F3400150EA13
:105F540041003900C9B209FB01F15144897C11F0B7
:105F640001010843210089B231448870641C38005F
:105F7400C0B209FB00F05044007D210089B23144D5
:105F84008870641C062001903800C0B209FB00F040
:105F940050441A300090200080B2304410F1020BBB
:105FA400019A0099584602F0B3FEA41D3800C0B20D
:105FB40009FB00F05044008C80B2000A210089B231
:105FC40031448870641C3800C0B209FB00F05044AE
:105FD400008C210089B231448870641C3800C0B23E
:105FE40009FB00F0504490F82200210089B23144AA
:105FF4008870641C3800C0B209FB00F05044808CE7
:1060040080B2000A210089B231448870641C3800CF
:10601400C0B209FB00F05044808C210089B23144A5
:106024008870641C3800C0B209FB00F0504490F83A
:106034002600210089B231448870641C3800C0B243
:1060440009FB00F05044808D80B2000A210089B21F
:1060540031448870641C3800C0B209FB00F050441D
:10606400808D210089B231448870641C3800C0B22C
:1060740009FB00F05044C08D80B2000A210089B2AF
:1060840031448870641C3800C0B209FB00F05044ED
:10609400C08D210089B231448870641C3800C0B2BC
:1060A40009FB00F0504490F83000210089B23144DB
:1060B4008870641C3800C0B209FB00F0504490F8AA
:1060C4003100210089B231448870641C3800C0B2A8
:1060D40009FB00F0504490F83200210089B23144A9
:1060E4008870641C3800C0B209FB00F0504490F87A
:1060F4003300210089B231448870641C3800C0B276
:1061040009FB00F0504490F83400210089B2314476
:106114008870641C3800C0B209FB00F0504490F849
:106124003500210089B231448870641C3800C0B243
:1061340009FB00F0504490F83600210089B2314444
:106144008870641C3800C0B209FB00F0504490F819
:106154006000210089B231448870641C3800C0B2E8
:1061640009FB00F05044B0F86C0080B2000A210032
:1061740089B231448870641C3800C0B209FB00F055
:106184005044B0F86C00210089B231448870641C1A
:106194003800C0B209FB00F05044B0F86E0080B281
:1061A400000A210089B231448870641C3800C0B2EE
:1061B40009FB00F05044B0F86E00210089B231446C
:1061C4008870641C3800C0B209FB00F05044B0F879
:1061D400700080B2000A210089B231448870641CC6
:1061E4003800C0B209FB00F05044B0F87000210040
:1061F40089B231448870641C3800C0B209FB00F0D5
:106204005044B0F8720080B2000A210089B23144CF
:106214008870641C3800C0B209FB00F05044B0F828
:106224007200210089B231448870641C3800C0B205
:1062340009FB00F05044B0F8740080B2000A210059
:1062440089B231448870641C3800C0B209FB00F084
:106254005044B0F87400210089B231448870641C41
:106264003800C0B209FB00F05044B0F8760080B2A8
:10627400000A210089B231448870641C3800C0B21D
:1062840009FB00F90AEB0900B0F87600210089B295
:1062940031448870641C7F1C24E60020210089B2EC
:1062A40031448870641C0020210089B23144887014
:1062B400641C210089B2B01C02F0F0FA0100200035
:1062C40080B230448170641C080080B2000A22004D
:1062D40092B232449070641C3480200080B205B0C5
:1062E400BDE8F08F1CB5042100226C46200002F0AA
:1062F40045FC03208DF8020004208DF80300DFF82C
:106304000C078188ADF800106946006802F054FD5E
:1063140013BD0000683900202DE9F74F82B0040056
:106324005FF00008002000210025002600274246D7
:1063340092B2A25C8DF8002018F101085FF0000908
:1063440048469DF80010C0B2884269D2404680B2E7
:1063540020440600049800794000B17840180500F4
:106364005FF0780ADFF8C0B02800C0B20AFB00F082
:1063740058440E3007002800C0B20AFB00F058440D
:10638400007B00280ED02800C0B20AFB00F058445D
:106394000021017301202900C9B20AFB01FA0BF89C
:1063A4000A002FE00122391D301D02F0C1FD002832
:1063B40009D1B079B979884205D196F8520097F895
:1063C4005210884207D001202900C9B20AFB01FA01
:1063D4000BF80A0016E02800C0B20AFB00F058448B
:1063E4008068DFF82C16B1F814114018DFF8241671
:1063F4000968884206D201202900C9B20AFB01FAC1
:106404000BF80A005FF06A0A0196BB4652460199EE
:10641400584602F07DFC18F16A0819F101098FE76A
:1064240005B0BDE8F08F0000A82B00202DE9F84F3F
:1064340004000D00160000275FF000085FF000095B
:106444000020B4F803A0514689B22A79521C914223
:1064540040F07E82207A95F89412884240F0788247
:1064640001200700A078002805D114F10C00804613
:106474006089814605E014F10A008046A0780B3853
:10648400814695F89402362800F03682372812D0D7
:10649400382817D039283ED03A2863D03B2800F05A
:1064A40032813C2800F0FD813D2800F02482F72849
:1064B40000F028814CE22A00494689B24046FFF7A1
:1064C4002BFF45E241F22840DFF8301D0A5832F034
:1064D40002020A50DFF8280D0079C0071AD4DFF849
:1064E400240D017800EB81016422C1F844260121C6
:1064F4000278024482F8221605210278024482F8C6
:1065040026100178491C0170D0F8C81651F02001FA
:10651400C0F8C8161CE241F22840DFF8E01C0A5813
:1065240032F002020A50002085F89D02DFF8D40CF4
:10653400017800EB81016422C1F84426012102782C
:10654400024482F8221605210278024482F82610B9
:106554000178491C0170D0F8C81651F02001C0F828
:10656400C816F5E1484680B2022840F0C58041F2E1
:106574002840DFF888BC1BF80010490731D598F88B
:10658400001085F8E81298F8011085F8E9125BF814
:10659400001031F004014BF80010022068713A2118
:1065A4005846FFF708F8ABF80000DFF8580C0178FC
:1065B40000EB81016422C1F84426012102780244DF
:1065C40082F8221605210278024482F82610017806
:1065D400491C0170D0F8C81651F02001C0F8C81643
:1065E4007EE098F80000002837D101200700DFF88A
:1065F40024040068C5F8EC0298F8000085F8E80265
:1066040098F8010085F8E90201206871DFF8F8BB09
:106614001BF10400FEF7F9FE8BF80100DFF8E40B30
:10662400017800EB81016422C1F84426012102783B
:10663400024482F8221602210278024482F82610CB
:106644000178491C0170D0F8C81651F02001C0F837
:10665400C816002085F89D0242E095F8E80298F8F3
:106664000010884205D195F8E90298F80110884293
:1066740031D0DFF8A0030068C5F8EC0298F80000F8
:1066840085F8E80298F8010085F8E90202206871AB
:10669400DFF874BB1BF10400FEF7B7FE8BF80100B2
:1066A400DFF8600B017800EB81016422C1F8442615
:1066B40001210278024482F822160221027802445F
:1066C40082F826100178491C0170D0F8C81651F0E0
:1066D4002001C0F8C81600200700CE480068A86052
:1066E40095F8E93295F8E8220121DFF8E80CC07842
:1066F40080B201F089F904E000200700C548006871
:10670400A86025E124E1484680B2022840F0C38015
:1067140041F22840DFF8E4BA1BF80010090731D52C
:1067240098F8001085F8E01298F8011085F8E11245
:106734005BF8001031F008014BF80010022068717A
:106744003B215846FEF737FFABF80000DFF8B40AE8
:10675400017800EB81016422C1F84426012102780A
:10676400024482F8221605210278024482F8261097
:106774000178491C0170D0F8C81651F02001C0F806
:10678400C8167CE098F80000002836D101200700E4
:10679400002085F89D0298F8000085F8E00298F83A
:1067A400010085F8E1029B480068C5F8E402012075
:1067B4006871DFF854BA1BF12400FEF75BFE8BF816
:1067C4000200DFF8400A017800EB81016422C1F87D
:1067D400442601210278024482F822160321027819
:1067E400024482F826100178491C0170D0F8C816BA
:1067F40051F02001C0F8C81641E095F8E00298F87D
:106804000010884205D195F8E10298F801108842F9
:1068140030D080480068C5F8E40298F8000085F894
:10682400E00298F8010085F8E10202206871DFF8BF
:10683400D8B91BF12400FEF71DFE8BF80200DFF827
:10684400C409017800EB81016422C1F844260121C6
:106854000278024482F8221603210278024482F864
:1068640026100178491C0170D0F8C81651F0200197
:10687400C0F8C8160020070066480068A86095F8AC
:10688400E13295F8E0220221DFF8480BC07880B2AB
:1068940001F0BAF804E0002007005E480068A86030
:1068A40056E0484680B2042824D15B49504680B261
:1068B4004200782042430A4498F8000098F80130D6
:1068C4001B0453EA006398F8020053EA002398F883
:1068D4000300034342F8743CF020524692B2424310
:1068E4000A4453469BB200FB03F0084450F8740C6E
:1068F40042F8EC0C2CE02BE041F22840DFF8FCB825
:106904005BF8001031F002014BF8001001224146FF
:106914005846FEF7A7FEABF80000DFF8E808017858
:1069240000EB81016422C1F844260121027802446B
:1069340082F8221605210278024482F82610017892
:10694400491C0170D0F8C81651F02001C0F8C816CF
:106954003800C0B2BDE8F28F2DE9FE4F04000D00EF
:106964001600002000210022277AE378ADF80430D5
:1069740085F84870002385F84530002385F84630B3
:1069840000232B755FF00008B6F10B093B00DBB266
:10699400302B04D0522B23D0532B22D029E048464D
:1069A400C0B200281BD0082214F11401281D02F0E3
:1069B400BFFA00280BD05FF0080A14F1140000900D
:1069C40015F1040B52460099584602F0A1F9DFF87C
:1069D4006C0C002180F86010012180F84C1008E054
:1069E40007E04846C0B2002803D0DFF8540C02F098
:1069F4001DFC287D002805D1012085F845000220D2
:106A040085F84600287D80B2BDE8FE8F980701080E
:106A1400DC42002034470020A82B00202DE9F64F4B
:106A240085B004000D001E005FF0000800208DF802
:106A340002000020ADF8040000208DF80100DFF80A
:106A4400BC770020388041F230495FF0000ABB4631
:106A540052464946584602F091F8DFF8E80B40796F
:106A64008DF800009DF800001F2802D160788DF891
:106A740000009DF8000041F226417854002041F2C4
:106A84002341785441F22448002007F80800207874
:106A94008DF80100BDF818909DF80000042823D05B
:106AA400212800F0D180232876D0242800F0778391
:106AB400362800F00183372800F05583382800F089
:106AC400DA80392800F063813A2800F0EC813B2811
:106AD40000F04882F42800F0A180F52845D0F7287A
:106AE4002BD0F82835D070E3484680B2002823D153
:106AF4002800C0B2FF280AD13A0000210020FEF786
:106B040005FC3880012041F2234178540EE028002E
:106B1400C0B200280AD02800C0B2002803D0280040
:106B2400C0B20D2802DB032007F808003A00002158
:106B34000020FEF7EBFB388047E3484680B2142878
:106B440006D13A003221DFF8000BFEF7DFFB388074
:106B54003BE3484680B2002806D13A000C21DFF816
:106B6400EC0AFEF7D3FB38802FE3484680B20028B6
:106B740011D12800C0B2FF2804D13800FEF7BAFDB5
:106B8400388008E0032007F808003A0000210020BC
:106B9400FEF7BCFB388018E3484680B200283CD19D
:106BA4002800C0B2FF2829D10120DFF8541648601C
:106BB400DFF89C0A00218173002141730F21427B7D
:106BC400024482F86510417B00EB81014FF4C872E6
:106BD400C1F8A8200221427B024451740121427B66
:106BE400024482F885100421427B024482F8311069
:106BF400417B491C41730421017008E0032007F81C
:106C040008003A0000210020FEF780FB38803A009B
:106C140000210020FEF77AFB3880D6E2484680B295
:106C240020280AD12800C0B2FF2803D1200000F098
:106C3400EDFA02E0032007F808003A0000210020E2
:106C4400FEF764FB3880C0E2484680B2052811D1C3
:106C54002800C0B2FF2804D19DF8010000F060FCB8
:106C640002E0032007F808003A0000210020FEF7A4
:106C74004DFB3880A9E2484680B2052840F0868062
:106C840041F22840395851F0020139502800C0B26D
:106C9400FF2851D02800C0B200284DD0207810F031
:106CA400030F02D12078002821D1DFF8280703211F
:106CB400017003218170382180F894122900C9B22F
:106CC400491E49100171022180F89E122900C9B29F
:106CD400491C022291FBF2F302FB131180F89F126C
:106CE400217880F8A012310002F0A0FC48E0DFF81F
:106CF400E4060321017003218170382180F8941285
:106D04002900C9B2491E49100171022180F89E125E
:106D14002900C9B2491C022291FBF2F302FB1311B0
:106D240080F89F12217880F8A012310002F07EFCD6
:106D3400022007F8080023E0DFF898060321017019
:106D440003218170382180F894122900C9B2491EA8
:106D540049100171022180F89E122900C9B2491C10
:106D6400022291FBF2F302FB131180F89F122178A7
:106D740080F8A012310002F059FC032007F8080043
:106D84003A0000210020FEF7C1FA38801DE248468F
:106D940080B2052840F0868041F22840395851F0ED
:106DA400020139502800C0B2FF2851D02800C0B2D7
:106DB40000284DD0207810F0030F02D1207800284D
:106DC40021D1DFF8100603210170032181703921DC
:106DD40080F894122900C9B2491E49100171022198
:106DE40080F89E122900C9B2491C022291FBF2F3D9
:106DF40002FB131180F89F12217880F8A012310051
:106E040002F014FC48E0DFF8CC05032101700321F3
:106E14008170392180F894122900C9B2491E4910A1
:106E24000171022180F89E122900C9B2491C022274
:106E340091FBF2F302FB131180F89F12217880F882
:106E4400A012310002F0F2FB022007F8080023E050
:106E5400DFF880050321017003218170392180F856
:106E640094122900C9B2491E49100171022180F807
:106E74009E122900C9B2491C022291FBF2F302FBC3
:106E8400131180F89F12217880F8A012310002F0CB
:106E9400CDFB032007F808003A0000210020FEF78C
:106EA40035FA388091E1484680B20A2859D141F236
:106EB4002840395851F0040139502800C0B2FF2845
:106EC40041D02800C0B200283DD0DFF808A59AF8C8
:106ED400050002283FD0681E8AF8030003208AF8C0
:106EE400020003208AF800003A208AF8940228005D
:106EF400C0B2401E40108AF804002800C0B2401CF2
:106F0400022190FBF1F201FB12008AF89F02072094
:106F14008AF89E020620049003941AF5287B049AAA
:106F24000399584601F0F4FE062002900194DFF81C
:106F3400CCBA029A0199584601F0EAFE3100504653
:106F440002F074FB07E03100DFF8880402F06EFB06
:106F5400032007F808003A0000210020FEF7D6F9C4
:106F6400388032E1484680B20A2840F0A48041F2D9
:106F74002840395851F0080139502800C0B2FF2880
:106F840000F08C802800C0B2002800F08780002028
:106F9400002100221000C0B20C281CDA7823DFF88C
:106FA40060CA1000C0B258436044807E002810D0EC
:106FB4001000C0B258436044C07E002809D01000BD
:106FC400C0B203FB00F30CEB0300C07F002800D029
:106FD400491C521CDEE7C9B2002939D0DFF8F4A3FA
:106FE400681E8AF8030003208AF8020003208AF846
:106FF40000003B208AF894022800C0B2401E4010D2
:107004008AF804002800C0B2401C022190FBF1F26F
:1070140001FB12008AF89F0207208AF89E020620CC
:10702400049003941AF5287B049A0399584601F0B6
:107034006FFE062002900194DFF8C8B9029A019904
:10704400584601F065FE3100504602F0EFFA2CE09C
:10705400DFF8FC0500218173002141730F21427B7D
:10706400024482F86510417B00EB81014FF4C86251
:10707400C1F8A8200121427B024451740121427BC2
:10708400024482F885100321427B024482F83110C5
:10709400417B491C41730421017006E03100CD4855
:1070A40002F0C4FA032007F808003A000021002087
:1070B400FEF72CF9388088E0484680B20B2851D17D
:1070C40041F22840395851F0020139502800C0B229
:1070D400FF283AD02800C0B2002836D0DFF8F4A246
:1070E4009AF80500022837D0681E8AF803000320A6
:1070F4008AF8020003208AF8000036208AF89402F5
:107104002800C0B2401E40108AF804002800C0B213
:10711400401C022190FBF1F201FB12008AF89F024D
:1071240060788AF8A00208208AF89E02072002905C
:1071340001941AF5287B029A0199584601F0E8FD5A
:107144003100504602F072FA06E03100A14802F024
:107154006DFA032007F808003A0000210020FEF72A
:10716400D5F8388031E0484680B2052816D1207819
:10717400002802D02078FF2807D13A002178681E21
:10718400C0B2FEF7D7FB388008E0022007F80800F9
:107194003A0000210020FEF7B9F8388015E048468F
:1071A40080B20C2811D15FF0080A0194DFF8E8BC22
:1071B40052460199584601F0ABFDFEF78BF83A00B0
:1071C40000210020FEF7A2F838803888002810D16A
:1071D4009DF8020000280CD1012041F2234178548B
:1071E400042007F808003A0000210020FEF78EF87A
:1071F4003880388807B0BDE8F08F0000AC0000206C
:1072040008470020DC240020AC45002070B50400B1
:1072140001250026DFF8841C3000C0B2205CA1F8F0
:107224001001761C3000C0B2205CA1F81401761C59
:107234003000C0B2205CA1F81201761C3000C0B24C
:10724400205C81F8F000761C3000C0B2205C0002A3
:10725400A1F8F200761CB1F8F2203000C0B2205C34
:107264000243A1F8F220761C3000C0B2205C000278
:10727400A1F8FA00761CB1F8FA203000C0B2205C04
:107284000243A1F8FA20761C3000C0B2205C000250
:10729400A1F8FC00761CB1F8FC203000C0B2205CE0
:1072A4000243A1F8FC20761C3000C0B2205C00022E
:1072B400A1F8FE00761CB1F8FE203000C0B2205CBC
:1072C4000243A1F8FE20761C3000C0B2205C00020C
:1072D400A1F80001761CB1F800213000C0B2205C96
:1072E4000243A1F80021761C3000C0B2205C0002E9
:1072F400A1F80201761CB1F802213000C0B2205C72
:107304000243A1F80221761C3000C0B2205C0002C6
:10731400A1F80401761CB1F804213000C0B2205C4D
:107324000243A1F80421761C3000C0B2205C0002A4
:10733400A1F80601761CB1F806213000C0B2205C29
:107344000243A1F80621761C3000C0B2205C000282
:10735400A1F80801761CB1F808213000C0B2205C05
:107364000243A1F80821761C3000C0B2205C000260
:10737400A1F80A01761CB1F80A213000C0B2205CE1
:107384000243A1F80A21761C3000C0B2205C00023E
:10739400A1F80C01761CB1F80C213000C0B2205CBD
:1073A4000243A1F80C21761C3000C0B2205C00021C
:1073B400A1F80E01761CB1F80E213000C0B2205C99
:1073C4000243A1F80E21761CFDF766FF2800C0B227
:1073D40070BD0000683900202DE9F84304000D0059
:1073E4005FF000080026E088052812DB14F19E00F7
:1073F40002F030FA00280CD0E08820448789E18824
:10740400891E14F10E0001F049FA060002F03DFA5B
:1074140007E0E088002803D1FF200600370000E0E1
:10742400FF273800310080B289B288424DD15FF025
:107434000008DFF8149C99F8C80610F0810F07D1F2
:107444002B00E288217914F10E00FFF7E7FA804659
:10745400404680B2002861D0DFF8380B41F2284161
:10746400415C11F00E0F59D199F8001009EB81011C
:107474006422C1F84426012199F800204A4482F884
:107484002216052199F800204A4482F8261099F81A
:107494000010491C89F80010D9F8C81651F02001D1
:1074A400C9F8C81641F22641415C042936D141F29B
:1074B4002341405C012831D10520FDF7BFFDDFF8F1
:1074C4008C0BDFF88C1B086028E0DFF8C88A0120E9
:1074D40041F2244108F80100424600210020FDF752
:1074E40015FFA8F80000DFF8600B017800EB8101BC
:1074F4006422C1F8442601210278024482F822164B
:1075040005210278024482F826100178491C017092
:10751400D0F8C81651F02001C0F8C816BDE8F183B0
:10752400C1070BD5DFF82C1B8A8809680A61DFF8CC
:10753400E01C0A6852F040020A600AE0DFF8141BFB
:107544008A8809684A61DFF8C81C0A6832F0400278
:107554000A6081070BD5DFF8001B8A8809680A6175
:10756400DFF8AC1C0A6852F004020A600AE0DFF893
:10757400E81A8A8809684A61DFF8941C0A6832F0BC
:1075840004020A60410705D5DFF89C1B8A88096854
:107594000A6104E0DFF8901B8A8809684A610107E0
:1075A4000BD5DFF8881B8A8809680A61DFF8601C3C
:1075B4000A6852F080020A600AE0DFF8701B8A88C9
:1075C40009684A61DFF8481C0A6832F080020A60E0
:1075D40070472DE9F043ADF5006D81B005000E0054
:1075E40017009846DDF820484FF4006100220DF1A1
:1075F4000409484601F0C2FA220092B2310001A8FF
:1076040001F0A3F901A8009023009BB22A00DFF83F
:10761400201B404602F04AF9404602F01BF9009054
:10762400074BDFF8102BDFF8801C380002F03EF91E
:107634000DF5006D01B0BDE8F0830000F8430020B3
:10764400E4460020B841002000500008E8F7FF1F7E
:10765400744000202DE9F84F05000E000024002797
:1076640000201F21220092B2A954641C3100090E8B
:10767400220092B2A954641C3100090C220092B277
:10768400A954641C3100090A220092B2A954641C52
:10769400210089B26E54641C4FF0FF08210089B2A6
:1076A40005F80180641CDFF8041C0A7823009BB2EF
:1076B400EA54641C4A7823009BB2EA54641C8A7816
:1076C40023009BB2EA54641CCA7823009BB2EA5498
:1076D400641C0A7923009BB2EA54641C4A7923008F
:1076E4009BB2EA54641C8A7923009BB2EA54641C5A
:1076F400C97911F0F001220092B2A954641C23212B
:10770400220092B2A954641C0621220092B2A95408
:10771400641C0321220092B2A954641C0321220098
:1077240092B2A954641CDFF8201C8A68120E23004C
:107734009BB2EA54641C8A68120C23009BB2EA547C
:10774400641C8A68120A23009BB2EA54641C896888
:10775400220092B2A954641CDFF84017D1F8942097
:1077640023009BB2EA54641CD1F8E810220092B2C0
:10777400A954641CDFF8981A897B220092B2A95498
:10778400641C0021220092B2A954641C002122002E
:1077940092B2A954641C0021220092B2A954641C20
:1077A4000021220092B2A954641C0021220092B24A
:1077B400A954641C5FF000094846C0B20C2880F24A
:1077C400958019F10100210089B26854641C782164
:1077D4008B4A4846C0B24843105C002875D04846DE
:1077E400C0B2484310444068000E23009BB2E854E2
:1077F400641C4846C0B2484310444068000C23004F
:107804009BB2E854641C4846C0B2484310444068E4
:10781400000A23009BB2E854641C4846C0B24843A3
:107824001044406823009BB2E854641C4846C0B22C
:1078340048431044407C23009BB2E854641C4846EF
:10784400C0B248431044807CC0F3C0034846C0B271
:1078540048431044807CC0F38000800050EAC30099
:107864004B46DBB24B4313449B7CC3F3400350EAC7
:1078740043004B46DBB24B4313449B7C13F00103A0
:10788400184323009BB2E854641C4846C0B24843E2
:107894001044007D23009BB2E854641C4846C0B2E7
:1078A4004843104490F8220023009BB2E854641C1F
:1078B4004846C0B201FB00F102EB010090F8600001
:1078C400210089B26854641C0DE05FF0090ACDF808
:1078D4000080200080B205EB000B009A5146584608
:1078E40001F04CF9093419F1010965E70020210080
:1078F40089B26854641C0020210089B26854641C55
:10790400210089B2280000F0C9FF0100200080B2E4
:107914002954641C080080B2000A220092B2A854C0
:10792400641C200080B2BDE8F28F70B5DFF86C45AE
:1079340014F14805DFF8686C31880905090D280041
:1079440001F0D4FF280001F0F8FF14F19C057188C0
:107954000905090D280001F0C9FF280001F0EDFF19
:10796400D4F894004B2803DAD4F8E8004B2806DB5B
:10797400DFF8D809816851F00101816005E0DFF882
:10798400CC09816849084900816070BDDFF880181E
:107994000A7A12F0030F17D00A7812F08402042A2C
:1079A4002AD0DFF8B426938812681361DFF87C27A5
:1079B4009388126853610A6852F004020A600A68E4
:1079C40032F080020A6017E00A78120608D4DFF861
:1079D4005C279388126813610A6852F080020A6077
:1079E4000A78520708D5DFF8702693881268536125
:1079F4000A6832F004020A60704700001047002051
:107A0400A82B00201847002070B40C00E4B2012C0D
:107A140040F0E6801400E4B2002C57D11C00E4B21C
:107A2400002C05D0022C2AD028D3032C4DD06EE193
:107A3400DFF8C84B0025A573002565730F25667B09
:107A4400264486F86550657B04EB85054FF4C866CB
:107A5400C5F8A8600325667B264475740125667BFA
:107A6400264486F885500525667B264486F83150E1
:107A7400657B6D1C65730425257048E147E1DFF8DB
:107A84007C4B0025A573002565730F25667B264472
:107A940086F86550657B04EB85054FF4C866C5F828
:107AA400A8600425667B264475740125667B2644FC
:107AB40086F885500325667B264486F83150657B1D
:107AC4006D1C65730425257021E120E11400E4B2E6
:107AD400012C30D11C00E4B2002C02D0012C29D09E
:107AE40015E1DFF8184B0025A573002565730F25F4
:107AF400667B264486F86550657B04EB85054FF468
:107B0400C866C5F8A860DFF8F85AED786D1C667B86
:107B1400264475740125667B264486F88550012524
:107B2400667B264486F83150657B6D1C657304259D
:107B34002570ECE0EBE01400E4B2022C40F0E780A6
:107B44001C00E4B2012C06D0022C0CD0042C12D060
:107B5400FF2C3DD0DBE0DFF8A84A6578022D01D088
:107B640002256570D3E0DFF8985A6C78002C01D0B8
:107B740000246C70CBE0DFF8884A6578032D26D0AA
:107B840003256570DFF8744A0025A5730025657325
:107B94000F25667B264486F86550657B04EB8505D6
:107BA4004FF4C866C5F8A8600925667B2644757439
:107BB4000125667B264486F885500B25667B264482
:107BC40086F83150657B6D1C6573042525709EE035
:107BD400DFF82C5A6C78002C01D000246C7096E0ED
:107BE4000C00E4B2022C40F092801400E4B2002CA9
:107BF40031D11C00E4B2002C05D0022C29D027D3AB
:107C0400032C27D083E0DFF8F4490025A573002571
:107C140065730F25667B264486F86550657B04EB07
:107C24008505C826C5F8A8600225667B26447574B8
:107C34000125667B264486F885500425667B264408
:107C440086F83150657B6D1C6573042525705EE0F4
:107C54005DE05CE05BE01400E4B2012C30D11C0078
:107C6400E4B2002C02D0012C29D050E0DFF88C497A
:107C74000025A573002565730F25667B264486F8C9
:107C84006550657B04EB85054FF4C866C5F8A860AC
:107C9400DFF86C59ED786D1C667B264475740125FC
:107CA400667B264486F885500225667B264486F842
:107CB4003150657B6D1C65730425257027E026E033
:107CC4001400E4B2022C22D11C00E4B2012C06D030
:107CD400022C0CD0042C12D0FF2C11D017E0DFF8AA
:107CE40020496578012D01D0012565700FE0DFF88A
:107CF40010596C78002C01D000246C7007E006E069
:107D0400DFF8FC586C78002C01D000246C7070BC37
:107D140070472DE9F04FADF5805D81B005000E0090
:107D240017005FF000084FF480642100002240F641
:107D34000449E944484600F021FF2100002240F6AE
:107D44000409E944484600F019FF210000220DF51A
:107D54007F7919F10809484600F010FF210000223C
:107D640001AC200000F00AFFDFF8C843DFF8C89335
:107D74004B462200DFF88C1840F60440684401F0BA
:107D840095FD4B462200DFF8801840F60400684455
:107D940001F08CFD4B462200DFF87018FFA8083074
:107DA40001F084FD15F59C7000904B462200DFF82D
:107DB400601801A801F07AFD40F6044169443000DE
:107DC40001F0D8FD002833D0242416F1390915F523
:107DD4009C7A22004946504600F09AFF95F84001EB
:107DE4002D2822D195F845012D281ED195F84A0158
:107DF4002D281AD195F84F012D2816D1012080463F
:107E0400DFF810480120E0705FF0800916F1600A85
:107E140015F5AE7B4A465146584600F079FF16F1F7
:107E24006001200002F04EFC2FE0002080462CE090
:107E340040F604016944300001F09CFD00280AD09A
:107E4400012080460020154981F8F5000220DFF862
:107E5400C417C87019E0FFA90831300001F08AFD89
:107E6400002806D0002080460220DFF8A817C8703A
:107E74000BE001A9300001F07DFD002805D00120B0
:107E840080460220DFF88C17C8704046C0B20DF55A
:107E9400805D01B0BDE8F08F8F450020DC420020FA
:107EA400F8B504000D0000206178214491F82660A3
:107EB4003100C9B2012907D069D3032930D01BD3BB
:107EC400052954D040D362E0DFF84C07016814F16F
:107ED4004600FFF7BFFBA080DFF84077A088009042
:107EE400DFF83C373A0014F146012800FFF771FB34
:107EF400380002F0ADFD4AE0DFF82077DFF818071C
:107F040000680090DFF8F806C378DFF8142739001A
:107F1400DFF8100700F033F9380002F099FD36E07D
:107F2400DFF8F876DFF8F00600680090DFF8D00696
:107F3400C378DFF8EC263900DFF8EC0600F06AF9C4
:107F4400380002F085FD22E0DFF8E006DFF8CC76A9
:107F5400DFF8C416096800910378DFF8C4263900F5
:107F6400443000F0A5F9380002F072FD0FE0DFF8AC
:107F7400AC76084801880091DFF8A4363A00811CE9
:107F8400DFF8AC0600F008F8380002F061FDC4F830
:107F9400C456F1BDAC0000202DE9F043ADF5006DF1
:107FA40085B005000E0017009846DDF830484FF400
:107FB400006100220DF11409484600F0DFFD0421A0
:107FC40000220DF11009484600F0D8FD02210022DC
:107FD4000DF10C09484600F0D1FD00208DF80C008D
:107FE40020008DF80D00220092B2310005A800F0A7
:107FF400ACFC022203A904A800F0A7FCDFF81406D5
:1080040005A9029104A9019110F19801009110F1C0
:10801400960310F18E02DFF81C16404601F046FC70
:10802400404601F017FC019015F59C700090424BFE
:10803400404ADFF80416380001F038FC0DF5006DF5
:1080440005B0BDE8F0830000DC2400200400FA053C
:108054000CED00E0E8070108180801082DE9F047D5
:1080640004000D00002000266178214491F8267058
:108074003900C9B2012907D046D303291ED010D331
:10808400052935D027D33FE0AEA1280001F072FCCA
:10809400002805D001200600DFF8840502F0D8FC92
:1080A40032E0A8A1280001F065FC002805D00120D9
:1080B4000600DFF86C0502F0CBFC25E0A1A1280046
:1080C40001F058FC002805D001200600DFF8500517
:1080D40002F0BEFC18E09BA1280001F04BFC002834
:1080E40005D001200600DFF8380502F0B1FC0BE0F2
:1080F40094A1280001F03EFC002805D001200600D0
:10810400DFF81C0502F0A4FC4FF400685FF00009DE
:10811400DFF80CA54A464146504600F02FFD3000DA
:10812400C0B2BDE8F0870000E0070108200801089C
:10813400B403010890070108E446002010B40021AC
:108144004278024492F826201300DBB25B1E042B13
:1081540013D88178002908D100214378034483F897
:1081640022164178491C417007E0002143780344FA
:1081740083F822164178491C417010BC70472DE9E0
:10818400F041ADF5006D82B004000D0016001F0033
:108194004FF4006100220DF10808404600F0EEFCA7
:1081A400022100220DF10608404600F0E7FC0121FF
:1081B40000220DF10408404600F0E0FC781C8DF824
:1081C4000400012201A90DF1060000F0BEFB072204
:1081D400210002A800F0B9FB02A800900DF10603EB
:1081E400DDF82028DFF85414300001F05FFB300084
:1081F40001F030FB0090DFF84834DFF848242A49C6
:10820400280001F053FB0DF5006D02B0BDE8F081CC
:10821400F84600202DE9F041ADF5006D82B0040070
:108224000D0016001F004FF4006100220DF1080834
:10823400404600F0A3FC022100220DF1060840464E
:1082440000F09CFC012100220DF10408404600F0DE
:1082540095FC781C8DF80400012201A90DF106009B
:1082640000F073FB0722210002A800F06EFB02A8B5
:1082740000900DF10603DDF82028DFF8CC13300060
:1082840001F014FB300001F0E5FA0090DFF8B033A0
:10829400DFF8B0230449280001F008FB0DF5006D58
:1082A40002B0BDE8F0810000F4010108D0460020CE
:1082B4002DE9F041ADF5006D82B004000D0016000B
:1082C4001F004FF4006100220DF10808404600F041
:1082D40055FC022100220DF10608404600F04EFC38
:1082E400012100220DF10408404600F047FC781CEF
:1082F4008DF80400012201A90DF1060000F025FB10
:108304000922210002A800F020FB02A800900DF130
:108314000603DDF82028DFF83413300001F0C6FA34
:10832400300001F097FA0090DFF81433DFF81423DB
:10833400DFF81C13280001F0B9FA0DF5006D02B046
:10834400BDE8F0813E000000583C0020F8460020C3
:108354002DE9FE4F04002000C0B2FF2840D1DFF811
:10836400F47217F1040804223900404600F0E0FDDD
:10837400002800F0138104253E002A003100404605
:1083840000F0C6FCDFF8A482FE2088F800007868BC
:1083940001900020009000230022FF2118F14400E6
:1083A400FDF79DF888F80300DFF8AC02017800EBD4
:1083B40081016422C1F8442601210278024482F832
:1083C400221604210278024482F826100178491CFE
:1083D4000170D0F8C81651F02001C0F8C816DDE0CD
:1083E400DFF878525FF0780ADFF874B201222000D7
:1083F400C0B20AFB00F0584410F112012300DBB2B2
:108404000320434305EB0300801C00F091FD00288A
:1084140025D101222000C0B20AFB00F0584410F11B
:1084240014012300DBB20320434305EB030000F0F7
:108434007FFD002813D101222000C0B20AFB00F006
:10844400584410F160012300DBB20320434305EBE1
:108454000300401C00F06CFD002800F09F80012008
:1084640002902000C0B20AFB00F0584410F112063A
:108474002100C9B20320414305EB0100871C029A85
:108484003100380000F044FC01272000C0B20AFB90
:1084940000F0584410F114082100C9B203204143EC
:1084A40005EB01093A004146484600F031FC5FF013
:1084B40001092000C0B20AFB00FA0BEB0A0010F11C
:1084C400600A2100C9B20320414305EB010010F109
:1084D400010B4A465146584600F01AFCDFF84CB1ED
:1084E4008BF80040002001902100C9B203204143D1
:1084F40005EB0100407800902100C9B203204143FC
:108504006B5C2100C9B20320414305EB0100807874
:10851400C0F3C0012200D2B20320424305EB0200A3
:108524008078C0F38002920052EAC1022100C9B2ED
:108534000320414305EB01008078C0F3400052EA78
:1085440040022100C9B20320414305EB01008078B9
:1085540010F001000243D2B205211BF14400FCF7E4
:10856400BEFF8BF80300DFF8F000017800EB810117
:108574006422C1F8442601210278024482F82216BA
:1085840004210278024482F826100178491C017003
:10859400D0F8C81651F02001C0F8C816BDE8F78F0E
:1085A400284700202B480078800726D513480178F7
:1085B400090722D400218173002141730F21427BDA
:1085C400024482F86510417B00EB81014FF416727E
:1085D400C1F8A8200B21427B024451740121427B43
:1085E400024482F885100D21427B024482F8311046
:1085F400417B491C41730421017070477440002081
:108604006839002088050108A4040108CC04010885
:108614004C040108B841002034470020DC14002039
:10862400DC1C0020B0450020D0450020AC450020D3
:10863400883E00202C0201087C0101086402010824
:10864400E4460020900701089C020108D4020108B6
:10865400F4010108F8460020DC240020AC46002088
:10866400A82B00202DE9F04104000D0016005FF056
:1086740001080027280080B2002860D002F028FA00
:10868400002801D1002080464046C0B2002808D00E
:10869400A02002F0B2FA02F08FFA002801D10020E3
:1086A40080464046C0B2002808D0200080B2000AAC
:1086B400C0B202F0A2FA02F07FFA80464046C0B28D
:1086C400002806D02000C0B202F097FA02F074FA33
:1086D40080464046C0B2002805D002F0F9F90028CF
:1086E40001D1002080464046C0B2002808D0A12015
:1086F40002F083FA02F060FA002801D100208046DB
:108704006D1E4046C0B2002817D000200700380074
:10871400290080B289B2884208D202F093FA390063
:1087240089B2705402F018FA7F1CF0E702F08AFA5A
:10873400390089B2705402F027FA02F0F5F9404684
:10874400C0B2BDE8F0812DE9F04104000D0016002F
:1087540000275FF00108280080B2002842D002F010
:10876400B7F9002801D1002080464046C0B2002855
:1087740008D0A02002F041FA02F01EFA002801D12C
:10878400002080464046C0B2002808D0200080B2B5
:10879400000AC0B202F031FA02F00EFA80464046F6
:1087A400C0B2002806D02000C0B202F026FA02F0BF
:1087B40003FA8046002007003800290080B289B2FD
:1087C40088420DD24046C0B2002807D0380080B29B
:1087D400305C02F012FA02F0EFF980467F1CEBE7FE
:1087E40002F0A2F9052002F06AF94046C0B2BDE8E1
:1087F400F0812DE9F04704000D00160000275FF01A
:1088040000085FF0000A200010F01F0F1BD014F0C6
:108814001F00D0F1200007002800390080B289B27F
:10882400884200D22F00404680B206EB0002390095
:1088340089B218EB040080B2FFF785FF8146ED1B77
:1088440017EB080801E05FF001094846C0B20028B0
:108854001FD0280080B200281BD020200700280049
:10886400390080B289B2884200D22F00404680B2DB
:1088740006EB0002390089B218EB040080B2FFF75E
:1088840062FF8146ED1B17EB08084846C0B200287A
:10889400DFD14846C0B2BDE8F087000070B40300E1
:1088A4000022002400264FF6FF7000258D4214D2CA
:1088B4005A5D504000221600082E0CD2C20706D57D
:1088C40080B2020048F2084090EA520001E080B20F
:1088D4004008761CF0E76D1CE8E780B2C04380B224
:1088E40070BC70472DE9F04104000D005FF00008F2
:1088F40000260027002C24D0200000F0ABFF01004C
:108904004FF6FE7001400020060030000A0080B2DD
:1089140092B2904210D22248320092B2A25C825C9F
:10892400120133009BB223445B78C05C02431700FE
:108934002F706D1CB61CE8E788461FFA88F85FEABA
:108944005808404680B2BDE8F081F0B40025002309
:10895400002425001600ADB2B6B2B5421DD22500E2
:10896400ADB24D5DEDB22D090E4E2F00FFB2F75D95
:10897400A4461FFA8CFC00F81C702700BFB2CF5D20
:1089840017F00F073B001F00FFB2F65D2700BFB2D0
:1089940000EB47077E70641CDBE7F0BC7047000007
:1089A40038FE0008E8060108F0B4030000200025A2
:1089B40000260027002B00F0C5801400E4B2022C2E
:1089C40009D0082C24D00A2C3FD0102C00F07F8032
:1089D400112C58D0B6E01D00002427003C008C4622
:1089E400E4B25FFA8CFC644511D22C782600340082
:1089F400E4B2302C03D03400E4B2312C07D140006F
:108A04003400E4B2303C20187F1C6D1CE6E799E08A
:108A14001D00002427003C008C46E4B25FFA8CFC65
:108A2400644511D22C7826003400E4B2302C0BDBE0
:108A34003400E4B2382C07DAC0003400E4B2303C2D
:108A440020187F1C6D1CE6E77CE01D000024270035
:108A54003C008C46E4B25FFA8CFC644512D22C785C
:108A640026003400E4B2302C0CDB3400E4B23A2C9F
:108A740008DA0A2460433400E4B2303C20187F1C36
:108A84006D1CE5E75EE01D00002427003C008C46D9
:108A9400E4B25FFA8CFC644518D22C7826003400CA
:108AA400E4B2302C0ADB3400E4B23A2C06DA0A24AD
:108AB40060433400E4B2303C201804E03400E4B2F3
:108AC4002E2C00D002E07F1C6D1CDFE73AE01D0075
:108AD400002427003C008C46E4B25FFA8CFC644519
:108AE4002FD22C7826003400E4B2302C09DB340079
:108AF400E4B23A2C05DA00013400E4B2303C201828
:108B04001CE03400E4B2612C09DB3400E4B2672CCD
:108B140005DA00013400E4B2573C20180EE03400BA
:108B2400E4B2412C09DB3400E4B2472C05DA00013D
:108B34003400E4B2373C201800E002E07F1C6D1CD6
:108B4400C8E7FFE7F0BC704770B404005FF0FF3083
:108B54000D001600ADB2B6B2B5420CD20D00ADB2E6
:108B6400655D1E00F6B2B54203D10D00ADB228001A
:108B740001E0491CECE770BC7047000062F30F226F
:108B840062F31F42401810F0030308D0C91A1FD320
:108B9400DB0748BF00F8012D28BF20F8022D130081
:108BA40030B414461546103928BF20E93C00FAD8E1
:108BB400490728BF20E90C0048BF40F8042D89006C
:108BC40028BF20F8022D48BF00F8012D30BC7047A3
:108BD400C91818BF00F8012DCB0728BF00F8012DD4
:108BE400704700002DE9F8435FF00008002441F6C7
:108BF400F875464E320008212800FFF733FD0700C0
:108C04003800C0B2002810D05FF000085FF00009FF
:108C140006213000FFF742FEF18802000B0092B2F9
:108C24009BB29A4201D000221700320008214FF46F
:108C3400F050FFF717FD80464046C0B200280FD021
:108C440000245FF0000906213000FFF727FEF188B9
:108C540002000B0092B29BB29A4201D000229046CD
:108C640058EA0700C0B2002807D10120B0804AF6B4
:108C7400AA20308000F02AF826E03800C0B201288B
:108C84000FD14046C0B200280BD132000821280081
:108C9400FFF7E8FC320008214FF4F050FFF7A9FD7C
:108CA40012E03800C0B200280ED14046C0B20128FC
:108CB4000AD1320008214FF4F050FFF7D3FC320000
:108CC40008212800FFF795FDBDE8F18338B500249D
:108CD4000E4D0020E88006212800FFF7DFFDE88024
:108CE4002A00082141F6F870FFF783FD012809D115
:108CF4002A0008214FF4F050FFF77BFD012801D131
:108D0400012004002000C0B232BD00002047002032
:108D140062B38B0708D0521E11F8013B00F8013BE7
:108D240000F024808B07F6D1830740F0208000BF39
:108D3400103A07D330B4B1E83810103AA0E838102C
:108D4400F9D230BC530724BFB1E80810A0E80810DA
:108D540044BF51F8043B40F8043BD20724BF31F828
:108D6400022B20F8022B44BF0B7803707047121FAC
:108D740017D35B0009D151F8043B20F8023B1B0CCC
:108D8400121F20F8023BF6D20BE051F8043B00F826
:108D9400013B1B0A20F8023B1B0C121F00F8013B8D
:108DA400F3D238BF121D521E24BF11F8013B00F844
:108DB400013BF8D870470000F0B5002200230024DE
:108DC40000250026002791F803C01CF00F0C91F831
:108DD40003E05FEACE6E02D58A7852EA0C0C0A7878
:108DE40012062AD00268160000221400082C23D28E
:108DF4005FF0010E1EFA04F215000A882A401300DF
:108E0400AB4217D1A20015000F22AA401700BE439F
:108E14001CFA05F21643CA78282A04D11EFA04FE65
:108E2400C0F814E006E0CA78482A03D11EFA04FE0A
:108E3400C0F810E0641CD9E706600A88B2F5807FA8
:108E44002EDB4268160000221400082C27D25FF0A3
:108E5400010E14F108021EFA02F215000A882A40D3
:108E64001300AB4219D1A20015000F22AA4017002B
:108E7400BE431CFA05F21643CA78282A04D114F119
:108E840008021EFA02F24261CA78482A05D114F196
:108E940008021EFA02FEC0F810E0641CD5E7466022
:108EA400F0BDF0B40022002300250027002802D5DD
:108EB4001D4C246801E01D4C2468C0F3034586B2B0
:108EC40010F4401CBCF5401F07D134F07064174AFD
:108ED400176837F07067176011E0C20206D50322E5
:108EE400AA4013009C4354F0706408E00200520D41
:108EF400D2B2120116FA02F2944354F070640A00DA
:108F0400D2B2002A06D00200520DD2B2120116FAD1
:108F140002F21443002802D5034A146001E0034A14
:108F24001460F0BC704700001C00014004000140C4
:108F34000300002013F0030F09D0521E22BF13F8C0
:108F4400010B11F801CBB0EB0C00F3D0704711F01A
:108F5400030F14D1121F22BF53F8040B51F804CB92
:108F64006045F7D0121D0AD200BA9CFA8CFCB0EB13
:108F74000C0038BF6FF0000088BF01207047521EFC
:108F840022BF13F8010B11F801CBB0EB0C00F6D0A3
:108F9400521C08BF1046704730B585B00400042148
:108FA40000226D462800FFF7E9FD1021002201ADE3
:108FB4002800FFF7E3FD10208DF8030003208DF84F
:108FC4000200924DA888ADF8000069462868FFF7B2
:108FD400F3FEA888296848618D488188ADF800109F
:108FE40003218DF8021018218DF8031069460068DA
:108FF400FFF7E2FE87488188ADF8001048218DF81C
:10900400031069460068FFF7D7FE01940020ADF80D
:1090140008000020ADF80A000020ADF80C00002084
:10902400ADF810000C20ADF80E007B4D01A928000E
:1090340001F07CFE0121280001F0EEFE012240F245
:109044002441280001F0F7FE01228021280001F0CC
:109054002AFF01224021280001F025FF05B030BD80
:1090640038B50400042100226D462800FFF786FD70
:1090740027208DF8000003208DF8010002208DF8D0
:1090840002008DF80340684601F07DFF31BD70B5E4
:109094008CB004000D00042100226E463000FFF75E
:1090A4006DFD2C21002201AE3000FFF767FD049511
:1090B4001020039000200B90029400200890802040
:1090C4000690002009905548019000200790002048
:1090D40005904FF440500A90514E01A9300002F01F
:1090E40021F801220221300002F048F820204D49E5
:1090F40008603068400840003060474800884006F7
:10910400FBD542488188006841610C208DF800003D
:1091140001208DF8030002208DF8010000208DF855
:109124000200684601F02FFF0CB070BD70B58CB022
:1091340004000D00042100226E463000FFF71EFDDE
:109144002C21002201AE3000FFF718FD364E30000E
:1091540001F070FF314801900294002003900495BF
:1091640000200590802006900020079000200890A1
:10917400002009904FF440500A9000200B9001A960
:10918400300001F0CFFF01220221300001F0F6FF90
:109194004FF4007023490860306840084000306094
:1091A4000D208DF8000003208DF8010001208DF8BA
:1091B400020001208DF80300684601F0E4FE0CB0C3
:1091C40070BD154909880906FBD50100C9B2134AC7
:1091D40011807047F8B504000D0000200B4EB188D3
:1091E400326811610027280080B2874204D2E05D12
:1091F400FFF7E7FF7F1CF6E7074800884006FBD52A
:10920400B08831684861F1BD00000000C808010859
:10921400B8080108C008010800480040044800409C
:109224001C000240040002403000024010B504005B
:10923400200000F00FFB010089B22000FFF7CAFFF5
:109244000D20FFF7BEFF0A20FFF7BBFF10BD000093
:109254002DE9F84F04000D0000208DF800005FF4A4
:10926400E13001F0B3FF012002F017F8DFF86C657C
:1092740016F50E7B4021584602F026F816F1140923
:109284004FF40871484602F071F800203070002055
:10929400B070002030710020B0604FF409775FF0A7
:1092A4000008424639004846FFF768FC5FF042096F
:1092B4005FF0000A524649465846FFF75FFC00201B
:1092C40086F89402002086F8950200203070002071
:1092D400B070B560C6F8984200263000C0B20C28C1
:1092E4001BDA78275FF000085FF07809DFF8F0A454
:1092F4003000C0B209FB00F00AEB000B4246390013
:109304005846FFF73BFC3000C0B209FB00F90AEBFA
:109314000900FF210173761CDFE7BDE8F18F10B56A
:109324000024DFF8C0040168490849000160DFF83F
:10933400B8040168490849000160002001F0ADFF4C
:10934400002240F22441200001F075FD002280211A
:10935400200001F0A8FD00224021200001F0A3FD1F
:109364000021200001F058FD200001F097FC10BD01
:109374002DE9F84F04000D002078002831D1DFF8E2
:109384005C64002030700020B07000203071002038
:10939400B0604FF409775FF0000816F114094246F3
:1093A40039004846FFF7EAFB5FF042095FF0000A24
:1093B40016F50E7B524649465846FFF7DFFB002060
:1093C40086F89402002086F89502002084F895021D
:1093D400012020700220A0703C2084F89402A56033
:1093E400A1E02078012802D0207802286BD194F8DB
:1093F4009D0200282FD0DFF8E463002030700020A5
:10940400B070002030710020B0604FF409775FF035
:10941400000816F11409424639004846FFF7AEFB2E
:109424005FF042095FF0000A16F50E7B524649468A
:109434005846FFF7A3FB002086F89402002086F824
:109444009502032020700220A07094F89D0284F8F5
:109454009402A56067E02079401C2071002084F804
:109464009502207906285EDBDFF8706300203070F7
:109474000020B070002030710020B0604FF40977F4
:109484005FF0000816F11409424639004846FFF718
:1094940075FB5FF042095FF0000A16F50E7B524639
:1094A40049465846FFF76AFB002086F894020020DC
:1094B40086F89502022020700220A070372084F8DC
:1094C4009402A5602FE0207803282CD1C34E0020FD
:1094D40030700020B070002030710020B0604FF474
:1094E40009775FF0000816F114094246390048462E
:1094F400FFF744FB5FF042095FF0000A16F50E7BAC
:10950400524649465846FFF739FB002086F8940234
:10951400002086F89502022020700220A0703720D7
:1095240084F89402A560BDE8F18F2DE9FE4F040094
:109534000D0016005FF0000A0020ADF804000020C2
:1095440002900020ADF8000027797F1C14F50E78F6
:109554007E20514689B208F801001AF1010A55200B
:10956400514689B208F801001AF1010A0020514657
:1095740089B208F801001AF1010A0020514689B2A3
:1095840008F801001AF1010A0020514689B208F8CE
:1095940001001AF1010A504680B208F800701AF16D
:1095A400010A380080B2000A514689B208F8010065
:1095B4001AF1010A94F89402514689B208F801009C
:1095C4001AF1010A0020514689B208F801001AF183
:1095D400010AB1461FFA89F90095504680B208EB9A
:1095E400000B4A4600995846FFF792FB16EB0A0A0D
:1095F4005046401E88F80200514689B2891E18F16F
:109604000200FFF74BF9514689B208F801001AF13C
:10961400010A010089B2090A524692B208F80210FE
:109624001AF1010AA4F878A2BDE8F78F38B504004E
:109634000D00642001F0E4FE207801281BD11822DB
:10964400D4F898122000FFF770FF684881880068FA
:10965400016167486749086014F50E70664908603F
:10966400B4F87802654908605F48016851F0010167
:109674000160A5603EE0207802281AD10022002172
:109684002000FFF752FF594881880068016158485B
:109694005849086014F50E7057490860B4F8780208
:1096A400564908605048016851F001010160A56005
:1096B40020E0207803281DD194F89E2292B204F26F
:1096C4009F212000FFF731FF48488188006801612D
:1096D40047484849086014F50E7047490860B4F8D3
:1096E4007802464908604048016851F00101016070
:1096F400A560E56031BD2DE9F04704000D000026AA
:109704000027B4F820020E2863DBB4F820023900E5
:1097140089B20E3188425CDB380080B2205C7E283E
:1097240055D1380080B22044407855284FD10021CB
:109734005FF000085FF00009380080B220448078B0
:10974400002807D0380080B2204490F802A01AF113
:10975400030A0EE0380080B2204490F80BA05FEAC0
:109764000A2A380080B22044807A50EA0A0A1AF1A0
:109774000E0A504680B20E2829DBB4F82002514666
:1097840089B211FA87F1884221DB514689B2091F57
:10979400380080B22044801CFFF780F8514689B21B
:1097A40011FA87F1214411F8012C1202514689B2B1
:1097B40011FA87F1214411F8021C0A430100130035
:1097C40089B29BB2994202D12F8001210E007F1CE5
:1097D4009BE73000C0B2BDE8F08700006839002084
:1097E400A82B00203004024058040240D807010886
:1097F4000000021004040240640402405C040240BD
:109804002DE9F84F04000D0016001F005FF0430817
:109814005FF00009A2464A4641465046FFF7AEF9BA
:1098240025703B206070A078411CA170C0B2204418
:10983400C6705FF0060A0097A078204410F1030B6D
:10984400524600995846FFF763FAA078801DA0702D
:10985400BDE8F18F00F10103810704D010F8011B6A
:10986400820781B1FAD10268A2F10131914311F06A
:10987400803104BF50F8042FF6E709BAB1FA81F138
:1098840000EBD100401CC01A704780B545F255501A
:1098940001F0E6FD032001F0E8FD40F2DC5001F0A8
:1098A400E9FD01F0ECFD01F0EFFD01BD0CB430B5B4
:1098B40083B00A4606A90291044600250194009546
:1098C40002AB01A9084878441E3001F0E9FD019A71
:1098D400157000284EBF04460198041B204603B0AF
:1098E40030BC5DF80CFB00BF9DA8FFFF8268521CD2
:1098F40082600368027A12F00F0200EB8202D268DF
:109904009B1A03608268002A01D110228260027AC5
:1099140012F00F0200EB8202D16002688A18026022
:109924008268102A03D302681209426004E00268C4
:109934008368B2FBF3F24260704710B400217FF0F9
:109944001302C26400221100C9B25A2909DA41681B
:10995400074B1400E4B233F81430994201D3521C7B
:10996400F1E7C16C51FA82F1C16410BC7047000088
:1099740038FF000870B50D462C7834B970BD11F865
:10998400013F1678B34206D0401C2146FAF702FC88
:1099940028B101462A4612F8013F002BEFD170BDD1
:1099A40080B55FF4E13000F093FF00F0F3FF002195
:1099B400012001F000F801BD2DE9F04705000E007B
:1099C400170000244FF4F6785FF00009AA464A46CF
:1099D40041465046FFF7D2F83000C0B2012840F0AB
:1099E4009E81C8202100C9B205EB8101C1F898000D
:1099F40002202100C9B2294481F818010120210064
:109A0400C9B2294481F87800641CC8202100C9B275
:109A140005EB8101C1F8980002202100C9B2294454
:109A240081F8180102202100C9B2294481F8780084
:109A3400641CC8202100C9B205EB8101C1F898005B
:109A440019202100C9B2294481F818010B202100F2
:109A5400C9B2294481F87800641CC8202100C9B225
:109A640005EB8101C1F8980002202100C9B2294404
:109A740081F818010C202100C9B2294481F878002A
:109A8400641CC8202100C9B205EB8101C1F898000B
:109A94000A202100C9B2294481F818010D202100AF
:109AA400C9B2294481F87800641CC8202100C9B2D5
:109AB40005EB8101C1F898000A202100C9B22944AC
:109AC40081F818011B202100C9B2294481F87800CB
:109AD400641CC8202100C9B205EB8101C1F89800BB
:109AE40002202100C9B2294481F818011220210062
:109AF400C9B2294481F87800641CC8202100C9B285
:109B040005EB8101C1F8980028202100C9B229443D
:109B140081F8180104202100C9B2294481F8780091
:109B2400641CC8202100C9B205EB8101C1F898006A
:109B3400B4202100C9B2294481F81801052021006C
:109B4400C9B2294481F87800641CC8202100C9B234
:109B540005EB8101C1F89800B4202100C9B2294461
:109B640081F8180106202100C9B2294481F878003F
:109B7400641C4FF448702100C9B205EB8101C1F89F
:109B8400980002212200D2B22A4482F81811082136
:109B94002200D2B22A4482F87810641C40F6B8310C
:109BA4002200D2B205EB8202C2F8981002212200F0
:109BB400D2B22A4482F8181109212200D2B22A44CE
:109BC40082F87810641C2100C9B205EB8101C1F848
:109BD400980004212200D2B22A4482F818111521D7
:109BE4002200D2B22A4482F87810641C2100C9B23F
:109BF40005EB8101C1F8980004212200D2B22A4465
:109C040082F8181120212200D2B22A4482F8781056
:109C1400641C2100C9B205EB8101C1F8980032210E
:109C24002200D2B22A4482F818111F212200D2B293
:109C34002A4482F87810641C2100C9B205EB810122
:109C4400C1F8980002212200D2B22A4482F81811E5
:109C540016212200D2B22A4482F87810641C210012
:109C6400C9B205EB8101C1F8980005212200D2B2E6
:109C74002A4482F8181118212200D2B22A4482F808
:109C84007810641C2100C9B205EB8101C1F8980069
:109C940032212200D2B22A4482F818111C21220057
:109CA400D2B22A4482F87810641C2100C9B205EBB0
:109CB4008101C1F8980032212200D2B22A4482F8EC
:109CC40018111D212200D2B22A4482F87810641C93
:109CD4002100C9B205EB8101C1F8980032212200AC
:109CE400D2B22A4482F818111E212200D2B22A4488
:109CF40082F87810641C2100C9B205EB8101C1F817
:109D0400980032202100C9B2294481F81801212089
:109D14002100C9B2294481F87800641C51E04FF451
:109D2400FA602100C9B205EB8101C1F89800012055
:109D34002100C9B2294481F8180110202100C9B2B8
:109D4400294481F87800641CB4202100C9B205EBD1
:109D54008101C1F8980001202100C9B2294481F889
:109D6400180103202100C9B2294481F87800641C39
:109D74004FF4C8702100C9B205EB8101C1F8980005
:109D840001202100C9B2294481F818010F202100C3
:109D9400C9B2294481F87800641C14202100C9B296
:109DA40005EB8101C1F8980001202100C9B22944C2
:109DB40081F8180100202100C9B2294481F87800F3
:109DC400641C0220A5F8DE0185F8E06185F8DC4119
:109DD4005FF04808B946AA46424649465046FEF74F
:109DE40097FFBDE8F087F0B5ADF5006D83B00400D2
:109DF4000D0000274FF40061002203AE3000FEF78F
:109E0400BDFE94F8DD01204490F878603000C0B2C3
:109E140000284CD0012855D002285ED003285CD0FD
:109E240004287DD0052800F08080062800F0828078
:109E3400072800F08480082800F08680092800F0B4
:109E440088800A2800F097800B284CD00C284ED02C
:109E54000D2851D00E2859D00F2827D0102800F0F3
:109E64008280122857D0132878D0152800F0A380B8
:109E7400162800F0BB80182800F0BD801A2800F0D6
:109E8400FE801B283DD01C2800F0C5801D2800F052
:109E9400CF801E2800F0D9801F2800F0A28020283F
:109EA40000F09A80212800F0DD80F1E0F0E0DFF896
:109EB4006C09818800684161DFF864098188006861
:109EC4004161E5E0DFF85409818800684161DFF809
:109ED4005009818800684161DAE0DFF8440981882B
:109EE40000680161D4E06DA000F0B2FDD0E0DFF8BD
:109EF400340900F0ADFDCBE0DFF82C0900F0A8FD3B
:109F0400C6E0DFF8280900F0A3FDC1E0DFF820096E
:109F140000F09EFDBCE0DFF81C0900F099FDB7E0FD
:109F2400DFF8140900F094FDB2E0DFF8100900F046
:109F34008FFDADE0DFF8080900F08AFDA8E0DFF846
:109F4400040900F085FDA3E0DFF8FC0800F080FDC3
:109F54009EE0DFF8F80800F07BFD99E0DFF8F008F8
:109F640000F076FD94E00A2000F046FDDFF8E408F6
:109F740000F06EFD8CE094F8470000280ED1A08814
:109F84000290E0780190A078009063782278DFF85E
:109F9400C818DFF8C808FFF789FC07E0A388A21DEA
:109FA400DFF8BC18DFF8B408FFF780FCDFF8AC0872
:109FB40000F04EFD6CE0DFF8AC0800F049FDDFF87E
:109FC400A80800F045FDDFF8A40800F041FDDFF823
:109FD400A00800F03DFD5BE0DFF8980800F038FDD4
:109FE40056E0DFF8940800F033FD51E0DFF88C0808
:109FF40000F02EFD4CE0DFF888080090DFF884388C
:10A00400DFF88428DFF8841803A8FFF74FFC03A8BF
:10A0140000F01EFD3CE0DFF87038DFF86828DFF858
:10A02400701803A8FFF742FC03A800F011FD2FE00D
:10A03400DFF85438DFF84C28DFF8581803A8FFF786
:10A0440035FC03A800F004FD22E0DFF83C38DFF81B
:10A054003428DFF8441803A8FFF728FC03A800F00D
:10A06400F7FC15E0DFF82038DFF81828DFF82C18A3
:10A0740003A8FFF71BFC03A800F0EAFC08E0DFF8E4
:10A08400201803A8FFF712FCDFF8180800F0E0FC22
:10A09400C4F8E4510DF5006D03B0F0BD4154000067
:10A0A4002DE9F84FADF5016D04000D0000270026E1
:10A0B4004FF4006100220DF110084046FEF75EFDEA
:10A0C40094F8DD01204490F878008DF800009DF8A4
:10A0D400000000284AD0012848D0022846D004288D
:10A0E40000F0C480052800F0CB80062800F0DC8056
:10A0F40007283CD008283AD0092838D00A2800F08C
:10A10400E7800B2833D00C2831D00D2838D00E2806
:10A1140000F091800F2829D0102828D0122826D0AA
:10A12400132878D0152800F0DD80162800F0F5807B
:10A13400182800F0FB80192800F001811A2800F08B
:10A144002B811B2854D01C2800F002811D2800F00C
:10A1540008811E2800F00E811F2800F0D5802028D9
:10A1640000F0C980212800F00E812AE129E198A19C
:10A174002800FFF7FFFB002801D00120060020E1A2
:10A1840093A12800FFF7F6FB002830D01127A81C64
:10A19400039014F148083A0003994046FEF7B8FDCD
:10A1A4005FF01108A81C0290DFF8DC96CA4642460C
:10A1B40002995046FEF7ACFD5FF0110AA81C01900D
:10A1C400DFF8E4B6524601995846FEF7A1FD14F1B2
:10A1D400590114F14800FEF785FBDFF8D016484614
:10A1E400FEF780FB4846FFF721F801200600E8E06F
:10A1F40077A12800FFF7BEFB00280BD0112715F12B
:10A20400020814F161093A0041464846FEF780FD10
:10A2140001200600D5E06EA12800FFF7ABFB002863
:10A2240008D0DFF88C162800FFF7A4FB002801D023
:10A2340001200600C5E066A12800FFF79BFB00286B
:10A2440013D014F172021C21280000F029F900280F
:10A2540009D106275FF0000814F17209424639005B
:10A264004846FEF78BFC01200600AAE0DFF84416FE
:10A274002800FFF77FFB002801D001200600A0E0A2
:10A28400DFF834162800FFF775FB00280BD082A1F5
:10A294002800FFF76FFB4178312902D04178352936
:10A2A40001D101210E008CE0DFF810162800FFF721
:10A2B40061FB00280BD078A12800FFF75BFB4178F5
:10A2C400312902D04178352901D101210E0078E0ED
:10A2D400DFF8EC152800FFF74DFB002801D0012022
:10A2E40006006EE03AA12800FFF744FB002801D0E5
:10A2F4000120060065E036A12800FFF73BFB00289B
:10A3040001D0012006005CE031A12800FFF732FBF8
:10A31400002801D00120060053E02DA12800FFF7FA
:10A3240029FB002801D0012006004AE028A12800CA
:10A33400FFF720FB002801D00120060041E024A102
:10A344002800FFF717FB002801D00120060038E0A1
:10A354001FA12800FFF70EFB002801D001200600F2
:10A364002FE01BA12800FFF705FB002801D00120E6
:10A37400060026E016A12800FFF7FCFA002801D009
:10A38400012006001DE012A12800FFF7F3FA0028BF
:10A3940001D00120060014E040A12800FFF7EAFAEA
:10A3A40000280ED0DFF8F81404A8FFF77FFA28215C
:10A3B40004A800F02AFB282104A800F026FB0120B1
:10A3C40006003000C0B20DF5006D05B0BDE8F08F99
:10A3D4004F4B000010B4002190F8DD21024492F8A4
:10A3E40078201300DBB2002B012B21D99B1E012BFB
:10A3F4000FD99B1E0A2B2AD90B3B012B18D9DB1E24
:10A40400012B24D9DB1E012B21D9DB1E092B1ED9DC
:10A414002CE0002190F8DD31034483F8181190F802
:10A42400DD11491C80F8DD11002180F8E8111DE0E0
:10A43400002190F8DD31034483F8181190F8DD1100
:10A44400491C80F8DD11002180F8E8110EE090F835
:10A45400E81100290AD1002190F8DD31034483F882
:10A46400181190F8DD11491C80F8DD1110BC7047FB
:10A4740010B50400DFF84C142000FFF77BFA002825
:10A4840006D1DFF844142000FFF774FA002801D045
:10A49400012000E0002010BD2C0000003E00000060
:10A4A4002DE9F84F04000D0016005FF0000A5FF07C
:10A4B40000095FF0010B002722232A00D2B292B2D6
:10A4C4005046010089B22000FEF73EFB8046584604
:10A4D400C0B200281DD0B8F1000F1AD40020834662
:10A4E4000A22022104EB0800401CFEF75DFA070073
:10A4F40018F103083800C0B215280ADB3800C0B2CE
:10A50400642806DA4846C0B2375419F1010901201B
:10A5140083462F232A00D2B292B24046010089B268
:10A524002000FEF711FB82465846C0B200281DD019
:10A53400BAF1000F1AD4002083460A22022104EB48
:10A544000A00401CFEF730FA07001AF1030A38002B
:10A55400C0B200280AD03800C0B20D2806DA484636
:10A56400C0B2375419F10109012083462F232A0070
:10A57400D2B292B25046010089B22000FEF7E4FA4A
:10A5840080465846C0B200281DD0B8F1000F1AD436
:10A59400002083460A22022104EB0800401CFEF737
:10A5A40003FA070018F103083800C0B200280AD0E3
:10A5B4003800C0B2202806DA4846C0B2375419F130
:10A5C4000109012083462C232A00D2B292B24046CC
:10A5D400010089B22000FEF7B7FA82465846C0B29D
:10A5E400002819D0BAF1000F16D4002083460A229D
:10A5F400022104EB0A00401CFEF7D6F907001AF109
:10A60400030A3800C0B2182806DA4846C0B23754E4
:10A6140019F10109012083463A232A00D2B292B2E9
:10A624005046010089B22000FEF78EFA8046584653
:10A63400C0B2002819D0B8F1000F16D40020834608
:10A644000A22022104EB0800401CFEF7ADF90700C2
:10A6540018F103083800C0B23C2806DA4846C0B2F4
:10A66400375419F10109012083463A232A00D2B252
:10A6740092B24046010089B22000FEF765FA824694
:10A684005846C0B2002819D0BAF1000F16D40020E1
:10A6940083460A22022104EB0A00401CFEF784F9D7
:10A6A40007001AF1030A3800C0B23C2806DA48460B
:10A6B400C0B2375419F10109012083465846C0B28B
:10A6C400BDE8F28F2DE9F04F87B004000D00E0786B
:10A6D400012840F07F80022100226E463000FEF700
:10A6E4004DFA4FF49270069000200590774E370093
:10A6F400059A06993800FEF741FA0827A81D049028
:10A7040014F18E083A0004994046FEF701FB5FF00D
:10A71400020815F12500039014F1960942460399A5
:10A724004846FEF7F5FA5FF0020915F1270002909A
:10A7340014F1980A4A4602995046FEF7E9FA5FF086
:10A74400040A15F12900019014F19A0B524601995B
:10A754005846FEF7DDFA16F10A0114F18E00FEF7F1
:10A76400C1F8311D14F19600FEF7BCF8711D14F107
:10A774009800FEF7B7F8694614F19A00FEF7B2F8AC
:10A7840069469DF80020487850EA0220002817D036
:10A794009DF80000497851EA0021F180F0884700D3
:10A7A40015F12D0814F19E093A0041464846FEF77A
:10A7B400AFFA16F10E0114F19E00FEF793F828E0AB
:10A7C40080275FF000080E36424639003000FEF75D
:10A7D400D5F91EE0E07804281BD14FF492760027C7
:10A7E400DFF8E880C1463A0031004846FEF7C6F972
:10A7F4005FF0080915F1060A14F18E0B4A4651461A
:10A804005846FEF785FA18F10A0114F18E00FEF796
:10A8140069F807B0BDE8F08F00000000B008010837
:10A82400A808010848080108500801085808010848
:10A8340020070108600801082C07010838070108EF
:10A8440044070108A8050108C806010850070108C3
:10A85400C8050108D806010878040108104600203C
:10A86400E80501085C060108780601089406010859
:10A87400E800010808060108B0060108F40401080C
:10A88400F944002068080108E44600204405010852
:10A894001C0401080C03010844030108B801010861
:10A8A4007C0301083801010897450020D0460020A8
:10A8B4007008010878080108800801088808010860
:10A8C400900801085C07010868070108B8410020E6
:10A8D40030B585B00400042100226D462800FEF73F
