:020000040800F2
:10400000C872002011160108A9070108AB070108B2
:10401000AD070108AF070108B10701080000000063
:10402000000000000000000000000000B3070108CD
:10403000B507010800000000B7070108B90701082B
:10404000F5170108F9170108FD17010859080108BB
:104050000118010805180108091801080D180108C0
:104060001118010815180108191801081D18010870
:10407000610901083B0901082118010825180108F8
:10408000BF080108E5080108F70901082918010817
:104090002D180108311801083518010839180108D0
:1040A0003D18010841180108451801084918010880
:1040B0004D18010851180108551801085918010830
:1040C0005D180108611801086518010869180108E0
:1040D0006D1801082308010883080108FF0801087A
:1040E0007118010875180108791801087D18010870
:1040F0008118010885180108891801088D18010820
:104100009118010895180108991801089D180108CF
:10411000570A01089B090108A1180108A518010800
:10412000A9180108AD180108F90901081F0A0108BA
:1041300030B4002513E050F8042BD30744BFA9F195
:1041400001039A18091F042942F8045BFAD21346A6
:104150008C0744BF15809B1CC90748BF1D7050F8D1
:10416000041B0029E7D130BC7047B1F5807F02D332
:104170004FF0FF3070470170012070470078401EFB
:104180008041C043C00F70470268531C0360117028
:104190007047120001300101010001310773010075
:1041A0000120020102030404F009080607080902BD
:1041B000040608A6BB000452FF01E316AF14200456
:1041C000000026B1000857F003162C000020000163
:1041D00020027D4100082C436B413C210103010179
:10500000534D353030312032333038303130352067
:1050100047443332323330320000000000000000D9
:105020000000000000000000000000000000000080
:0250300000007E
:1050340038B500F044F800F040F9DFF82409002105
:10504400817300214173417B00EB81014FF448726D
:10505400C1F8A820DFF80C4994F80811427B0244F7
:1050640051740121427B024482F885100621427B5F
:10507400024482F865100E21427B024482F831100A
:10508400417B491C41730421417001210170DFF807
:10509400D85822000121280003F08EFF0220A5F831
:1050A4007E0394F8090104F00FFF31BD4FF4C041B1
:1050B4004843401C0100481E0029FBD170472DE9DC
:1050C400F04700260027DFF89C4822004FF49A712D
:1050D4004FF4807004F0FBFF05002800C0B20028E4
:1050E4000DD000265FF000084FF49871200005F001
:1050F40009F9D4F83011884201D0002215002200A9
:105104004FF49A714FF4407004F0E1FF0600300050
:10511400C0B200280DD000275FF000084FF498714A
:10512400200005F0EFF8D4F83011884201D00022B5
:1051340016002800C0B2002803D13000C0B20028F5
:1051440004D0200000F09BF8002841D04FF49A7757
:105154005FF00008A14642463900484605F042FA8D
:10516400012084F80B010F2084F80801002084F842
:1051740009010120A4F80E010520A4F8120106205B
:10518400A4F810015020A4F8F2001E20A4F8F400A2
:105194005F20A4F8F6000A20A4F8F8005A20A4F826
:1051A400FA004FF41670A4F8FC00A4F8FE0040F2D4
:1051B400B220A4F800014FF47A71A4F80211A4F803
:1051C40004014FF42F70A4F8060100F0F5F82CE068
:1051D4002800C0B2012812D13000C0B200280ED17C
:1051E40022004FF49A714FF4807004F070FF220093
:1051F4004FF49A714FF4407005F030F815E0280030
:10520400C0B2002811D13000C0B201280DD1220053
:105214004FF49A714FF4407004F059FF22004FF498
:105224009A714FF4807005F019F805F00FFADFF861
:105234003C77387A00280FD1787A00280CD15FF0B7
:105244001608DFF82C9717F1080A424649465046DB
:1052540005F09AFA05F077FA45F25550B98881427B
:1052640005D1B978B4F8102189B2914205D0B4F8C7
:105274001011B970B88005F066FABDE8F087020035
:10528400002092F80B11012913D1B2F81011002952
:105294000FD0B2F80E1115290BDA92F808111F2954
:1052A40007DAB2F8F410292903DAB2F8F610502913
:1052B40001DA01210800C0B270472DE9F84F002639
:1052C4000027DFF8B0462200B4214FF4A06004F0B8
:1052D400FEFE05002800C0B200280CD000265FF0B6
:1052E4000008B021200005F00DF8D4F8B010884271
:1052F40001D0002215002200B4214FF4E06004F034
:10530400E6FE06003000C0B200280CD000275FF093
:105314000008B021200004F0F5FFD4F8B010884252
:1053240001D00022160056EA0500C0B2002818D1A8
:10533400B4275FF00008A14642463900484605F00C
:1053440051F95FF06309DFF830A614F1010B4A4606
:105354005146584605F018FA6320207000F04BF8C7
:1053640028E02800C0B2012810D13000C0B20028C3
:105374000CD12200B4214FF4A06004F0A8FE220056
:10538400B4214FF4E06004F069FF13E02800C0B2D8
:1053940000280FD13000C0B201280BD12200B42163
:1053A4004FF4E06004F093FE2200B4214FF4A060B7
:1053B40004F054FFBDE8F18F70B50024DFF8A46554
:1053C4000020C6F830014FF49871300004F09AFFC1
:1053D400C6F8300132004FF49A714FF4807004F033
:1053E4003DFF050032004FF49A714FF4407004F011
:1053F40035FFC0B270BD70B50024DFF878650020B9
:10540400C6F8B000B021300004F07CFFC6F8B0004C
:105414003200B4214FF4A06004F020FF05003200F4
:10542400B4214FF4E06004F019FFC0B270BD2DE95F
:10543400F84F05000E00170000245FF000081F203D
:10544400210089B239448870641C3000C0B2F1284C
:105454001BDB200080B238448670641C00202100CD
:1054640089B239448870641CB1465FFA89F9AA4646
:10547400200080B2384410F1020B4A465146584687
:1054840005F082F954FA86F438E041F22340385C9E
:1054940000280ED1B1465FFA89F9AA46200080B2ED
:1054A400384410F1020B4A465146584605F06CF94F
:1054B4000EE0B1465FFA89F95FF0000A200080B27D
:1054C400384410F1020B52464946584605F08AF812
:1054D40054FA86F441F22440385C210089B23944FC
:1054E4008870641C0020210089B239448870641CCF
:1054F4000020210089B239448870641C210089B2DB
:10550400B81C04F0FFFE0100200080B23844817012
:10551400641C080080B2000A220092B23A449070DF
:10552400641C3C80200080B2BDE8F28F70B504009A
:10553400002600251F20310089B26054761CDFF854
:105544003C0490F8EC12320092B2A154761C90F80C
:10555400ED02310089B26054761C0020310089B21A
:105564006054761C0020310089B26054761C3100EE
:1055740089B2200004F0C6FE0100300080B221543C
:10558400761C080080B2000A320092B2A054761C45
:10559400300080B270BD70B50400002600251F20C5
:1055A400310089B26054761CDFF8D00390F8E4121D
:1055B400320092B2A154761C90F8E502310089B20F
:1055C4006054761C0020310089B26054761C00209F
:1055D400310089B26054761C310089B2200004F095
:1055E40091FE0100300080B22154761C080080B284
:1055F400000A320092B2A054761C300080B270BD12
:10560400F8B504000D00002700261F20390089B2D8
:10561400214488707F1C2800C0B23B2810D1DFF8D9
:105624005C0390F8E4123A0092B2224491707F1C19
:1056340090F8E502390089B2214488707F1C12E099
:105644002800C0B23A280ED1CC4890F8EC123A00A7
:1056540092B2224491707F1C90F8ED02390089B215
:10566400214488707F1C0020390089B2214488704D
:105674007F1C0020390089B2214488707F1C3900C6
:1056840089B2A01C04F03EFE0100380080B2204420
:1056940081707F1C080080B2000A3A0092B2224452
:1056A40090707F1C2780380080B2F2BD2DE9F84F3E
:1056B40004000D0016005FF0000A00271F20514669
:1056C40089B2214488701AF1010AB0465FFA88F859
:1056D400A946504680B2204410F1020B4246494686
:1056E400584605F051F85AFA86FA0020514689B214
:1056F400214488701AF1010A0020514689B22144DC
:1057040088701AF1010A514689B2A01C04F0FAFD0E
:105714000100504680B2204481701AF1010A080049
:1057240080B2000A524692B2224490701AF1010AE1
:10573400A4F800A0504680B2BDE8F28F70B5040012
:10574400002600251F20310089B221448870761C70
:105754008448B0F80E11320092B222449170761C43
:10576400B0F81211320092B222449170761CB0F853
:105774001011320092B222449170761C90F80C11F0
:10578400320092B222449170761CB0F8141189B29E
:10579400090A320092B222449170761CB0F81411B6
:1057A400320092B222449170761CB0F8F21089B2A1
:1057B400090A320092B222449170761CB0F8F210B9
:1057C400320092B222449170761CB0F8F41089B27F
:1057D400090A320092B222449170761CB0F8F41097
:1057E400320092B222449170761CB0F8F61089B25D
:1057F400090A320092B222449170761CB0F8F61075
:10580400320092B222449170761CB0F8F81089B23A
:10581400090A320092B222449170761CB0F8F81052
:10582400320092B222449170761CB0F8FA1089B218
:10583400090A320092B222449170761CB0F8FA1030
:10584400320092B222449170761CB0F8FC1089B2F6
:10585400090A320092B222449170761CB0F8FC100E
:10586400320092B222449170761CB0F8FE1089B2D4
:10587400090A320092B222449170761CB0F8FE10EC
:10588400320092B222449170761CB0F8001189B2B1
:10589400090A320092B222449170761CB0F80011C9
:1058A400320092B222449170761CB0F8021189B28F
:1058B400090A320092B222449170761CB0F80211A7
:1058C400320092B222449170761CB0F8041189B26D
:1058D400090A320092B222449170761CB0F8041185
:1058E400320092B222449170761CB0F8061189B24B
:1058F400090A320092B222449170761CB0F8060173
:10590400310089B221448870761C41F22440205C25
:10591400310089B221448870761C0020310089B29C
:1059240021448870761C0020310089B2214488709B
:10593400761C310089B2A01C04F0E4FC01003000A4
:1059440080B220448170761C080080B2000A3200C4
:1059540092B222449070761C2680300080B270BDD2
:105964009C560020E0570020E8430020F85C00200B
:1059740070150108445B0020340F010874470020AF
:105984002DE9F34F83B00500160000240020ADF884
:10599400080000275FF000081F20210089B231446D
:1059A4008870641C9DF81000002840F0C282280012
:1059B400C0B20D2880F2BA845FF08409DFF8D4AA5B
:1059C4002800C0B209FB00F05044407F210089B296
:1059D40031448870641C2800C0B209FB00F05044B4
:1059E400807FC0F3C0012800C0B209FB00F050441E
:1059F400807FC0F38000800050EAC1002900C9B252
:105A040009FB01F15144897FC1F3400150EA41008F
:105A14002900C9B209FB01F15144897F11F0010148
:105A24000843210089B231448870641C2800C0B244
:105A340009FB00F0504490F82000210089B2314461
:105A44008870641C2800C0B209FB00F05044408CEC
:105A540080B2000A210089B231448870641C280095
:105A6400C0B209FB00F05044408C210089B231449B
:105A74008870641C2800C0B209FB00F05044808C7C
:105A840080B2000A210089B231448870641C280065
:105A9400C0B209FB00F05044808C210089B231442B
:105AA4008870641C062001902800C0B209FB00F035
:105AB400504426300090200080B2304410F1020B94
:105AC400019A0099584604F05FFEA41D2800C0B254
:105AD40009FB00F05044808D80B2000A210089B295
:105AE40031448870641C2800C0B209FB00F05044A3
:105AF400808D210089B231448870641C2800C0B2B2
:105B040009FB00F0504490F82E00210089B2314482
:105B14008870641C2800C0B209FB00F05044008E59
:105B240080B2000A210089B231448870641C2800C4
:105B3400C0B209FB00F05044008E210089B2314408
:105B44008870641C2800C0B209FB00F0504490F82F
:105B54003200210089B231448870641C2800C0B22C
:105B640009FB00F05044808E80B2000A210089B203
:105B740031448870641C2800C0B209FB00F0504412
:105B8400808E210089B231448870641C2800C0B220
:105B940009FB00F05044C08E80B2000A210089B293
:105BA40031448870641C2800C0B209FB00F05044E2
:105BB400C08E210089B231448870641C2800C0B2B0
:105BC40009FB00F05044008F80B2000A210089B222
:105BD40031448870641C2800C0B209FB00F05044B2
:105BE400008F210089B231448870641C2800C0B23F
:105BF40009FB00F05044408F80B2000A210089B2B2
:105C040031448870641C2800C0B209FB00F0504481
:105C1400408F210089B231448870641C2800C0B2CE
:105C240009FB00F0504490F83C00210089B2314453
:105C34008870641C2800C0B209FB00F0504490F83E
:105C44003D00210089B231448870641C2800C0B230
:105C540009FB00F0504490F83E00210089B2314421
:105C64008870641C2800C0B209FB00F0504490F80E
:105C74003F00210089B231448870641C2800C0B2FE
:105C840009FB00F0504490F84000210089B23144EF
:105C94008870641C2800C0B209FB00F0504490F8DE
:105CA4004100210089B231448870641C2800C0B2CC
:105CB40009FB00F0504490F84200210089B23144BD
:105CC4008870641C002080464046C0B2142824DA40
:105CD4002800C0B209FB00F050444146C9B200EBB1
:105CE4004100B0F8440080B2000A210089B2314476
:105CF4008870641C2800C0B209FB00F0504441467F
:105D0400C9B200EB4100B0F84400210089B231442B
:105D14008870641C18F10108D6E72800C0B209FB9A
:105D240000F0504490F86C00210089B2314488702E
:105D3400641C042001902800C0B209FB00F0504408
:105D44006D300090200080B2304410F1020B019AB3
:105D54000099584604F018FD241D2800C0B209FB20
:105D640000F05044B0F8720080B2000A210089B2F9
:105D740031448870641C2800C0B209FB00F0504410
:105D8400B0F87200210089B231448870641C280084
:105D9400C0B209FB00F05044B0F8740080B2000AAD
:105DA400210089B231448870641C2800C0B209FB08
:105DB40000F05044B0F87400210089B23144887076
:105DC400641C2800C0B209FB00F05044B0F876000F
:105DD40080B2000A210089B231448870641C280012
:105DE400C0B209FB00F05044B0F87600210089B23B
:105DF40031448870641C2800C0B209FB00F0504490
:105E0400B0F8780080B2000A210089B23144887069
:105E1400641C2800C0B209FB00F05044B0F87800BC
:105E2400210089B231448870641C2800C0B209FB87
:105E340000F05044B0F87A0080B2000A210089B220
:105E440031448870641C2800C0B209FB00F050443F
:105E5400B0F87A00210089B231448870641C2800AB
:105E6400C0B209FB00F05044B0F87C0080B2000AD4
:105E7400210089B231448870641C2800C0B209FB37
:105E840000F05044B0F87C00210089B2314488709D
:105E9400641C2800C0B209FB00F05044B0F87E0036
:105EA40080B2000A210089B231448870641C280041
:105EB400C0B209FB00F05044B0F87E00210089B262
:105EC40031448870641C2800C0B209FB00F05044BF
:105ED400B0F8800080B2000A210089B23144887091
:105EE400641C2800C0B209FB00F05044B0F88000E4
:105EF400210089B231448870641C2800C0B209FBB7
:105F040000F05044B0F8820080B2000A210089B247
:105F140031448870641C2800C0B209FB00F90AEB04
:105F24000900B0F88200210089B231448870641CF1
:105F3400FCE1002007003800C0B20C2880F2F68192
:105F44005FF08409DFF84CA53800C0B209FB00F00B
:105F54001AF80000002800F0D281781C210089B2D0
:105F640031448870641C3800C0B209FB00F050440E
:105F7400407F210089B231448870641C3800C0B26B
:105F840009FB00F05044807FC0F3C0013800C0B268
:105F940009FB00F05044807FC0F38000800050EA89
:105FA400C1003900C9B209FB01F15144897FC1F331
:105FB400400150EA41003900C9B209FB01F15144E2
:105FC400897F11F001010843210089B231448870AE
:105FD400641C3800C0B209FB00F0504490F8200063
:105FE400210089B231448870641C06200190380075
:105FF400C0B209FB00F0504426300090200080B26B
:10600400304410F1020B019A0099584604F0BCFB8D
:10601400A41D3800C0B209FB00F05044808D80B24A
:10602400000A210089B231448870641C3800C0B26F
:1060340009FB00F05044808D210089B231448870FE
:10604400641C3800C0B209FB00F0504490F82E00E4
:10605400210089B231448870641C3800C0B209FB45
:1060640000F05044008E80B2000A210089B231440D
:106074008870641C3800C0B209FB00F05044008EE4
:10608400210089B231448870641C3800C0B209FB15
:1060940000F0504490F83200210089B231448870F5
:1060A400641C3800C0B209FB00F05044008F80B279
:1060B400000A210089B231448870641C3800C0B2DF
:1060C40009FB00F05044008F210089B231448870EC
:1060D400641C3800C0B209FB00F05044408F80B209
:1060E400000A210089B231448870641C3800C0B2AF
:1060F40009FB00F05044408F210089B2314488707C
:10610400641C3800C0B209FB00F0504490F83C0015
:10611400210089B231448870641C3800C0B209FB84
:1061240000F0504490F83D00210089B23144887059
:10613400641C3800C0B209FB00F0504490F83E00E3
:10614400210089B231448870641C3800C0B209FB54
:1061540000F0504490F83F00210089B23144887027
:10616400641C3800C0B209FB00F0504490F84000B1
:10617400210089B231448870641C3800C0B209FB24
:1061840000F0504490F84100210089B231448870F5
:10619400641C3800C0B209FB00F0504490F842007F
:1061A400210089B231448870641C3800C0B209FBF4
:1061B40000F0504490F86C00210089B2314488709A
:1061C400641C3800C0B209FB00F05044B0F87800F9
:1061D40080B2000A210089B231448870641C3800FE
:1061E400C0B209FB00F05044B0F87800210089B235
:1061F40031448870641C3800C0B209FB00F050447C
:10620400B0F87A0080B2000A210089B23144887063
:10621400641C3800C0B209FB00F05044B0F87A00A6
:10622400210089B231448870641C3800C0B209FB73
:1062340000F05044B0F87C0080B2000A210089B21A
:1062440031448870641C3800C0B209FB00F050442B
:10625400B0F87C00210089B231448870641C380095
:10626400C0B209FB00F05044B0F87E0080B2000ACE
:10627400210089B231448870641C3800C0B209FB23
:1062840000F05044B0F87E00210089B23144887097
:10629400641C3800C0B209FB00F05044B0F8800020
:1062A40080B2000A210089B231448870641C38002D
:1062B400C0B209FB00F05044B0F88000210089B25C
:1062C40031448870641C3800C0B209FB00F05044AB
:1062D400B0F8820080B2000A210089B2314488708B
:1062E400641C3800C0B209FB00F90AEB0900B0F8DD
:1062F4008200210089B231448870641C14E0781C47
:10630400210089B231448870641C5FF027094FF082
:10631400FF0A200080B2304410F1020B5246494675
:10632400584604F05FF927347F1C04E6002021005E
:1063340089B231448870641C0020210089B2314440
:106344008870641C210089B2B01C03F0DBFF0100DB
:10635400200080B230448170641C080080B2000ABE
:10636400220092B232449070641C3480200080B2C7
:1063740005B0BDE8F08F2DE9F74F82B004005FF05F
:10638400000800200021002500260027424692B282
:10639400A25C8DF8002018F101085FF0000948465E
:1063A4009DF80010C0B2884269D2404680B22044B1
:1063B4000600049800794000B178401805005FF0A9
:1063C400840ADFF8D0B02800C0B20AFB00F05844B9
:1063D4001A3007002800C0B20AFB00F05844007AC3
:1063E40000280ED02800C0B20AFB00F05844002157
:1063F400017201202900C9B20AFB01FA0BF80A0054
:106404002FE00122391D301D04F012FA002809D1B1
:10641400B079B979884205D196F8520097F85210AC
:10642400884207D001202900C9B20AFB01FA0BF8FF
:106434000A0016E02800C0B20AFB00F05844406885
:10644400DFF84418B1F812114018DFF84018096851
:10645400884206D201202900C9B20AFB01FA0BF8CE
:106464000A005FF06A0A0196BB46524601995846F3
:1064740004F08AF918F16A0819F101098FE7DFF8C5
:106484001008017900EB81000021C0F87C1205B0EE
:10649400BDE8F08FB83D00202DE9F44F88B004002A
:1064A4000D00002600275FF0000800200021DFF81F
:1064B400E4A79AF80090B9F101095FEA690919F1B2
:1064C4000109B4F80320ADF80020BDF800202B79B1
:1064D4005B1C9A4204D1207A95F89412884213D016
:1064E4004846BDF8001080B2884202D1207A3A288A
:1064F4000AD04846BDF8001080B2884240F03B8381
:10650400207A3B2840F0378301200600A078002839
:1065140005D114F10C0007006089804605E014F1F0
:106524000A000700A0780B388046207A3A2803D165
:106534003A2085F8940205E0207A3B2802D13B20DA
:1065440085F8940295F89402362800F0E8823728FA
:1065540012D0382817D039283FD03A2865D03B28A4
:1065640000F07B813C2800F08A823D2800F0D6822E
:10657400F72800F07181FEE22A00414689B2380012
:10658400FFF7F9FEF7E241F22840DFF80C170A584A
:1065940032F002020A50DFF804070078C0071BD467
:1065A400DFF8FC16087801EB80006422C0F810279D
:1065B40001200A780A4482F8AC0605200A780A44C5
:1065C40082F86C000878401C0870D1F8A4080028F0
:1065D40002D12020C1F8A408CDE241F22840DFF81E
:1065E400B8160A5832F002020A50002085F8A102B7
:1065F400DFF8AC16087801EB80006422C0F810279D
:1066040001200A780A4482F8AC0605200A780A4474
:1066140082F86C000878401C0870D1F8A40800289F
:1066240002D12020C1F8A408A5E2404680B2022885
:1066340040F00B8141F22840DFF85CB61BF80010F3
:10664400490737D5397885F8EC12797885F8ED1251
:106654005BF8001031F004014BF80010DFF8441629
:106664000878002803D000200870042068713A21BB
:106674005846FEF7C5FFABF80000DFF8241608788B
:1066840001EB80006422C0F8102701200A780A4434
:1066940082F8AC0605200A780A4482F86C0008786F
:1066A400401C0870D1F8A408002802D12020C1F8A9
:1066B400A408B9E0DFF8D4B5DBF80000DFF8E8158A
:1066C4000860387800286BD101200600DBF8000050
:1066D400C5F8F0020120DFF8CC150870387885F889
:1066E400EC02787885F8ED02012068711AF1040053
:1066F400FEF71CFF8AF80100DFF8A415087801EB07
:1067040080006422C0F8102701200A780A4482F825
:10671400AC0602200A780A4482F86C000878401C0F
:106724000870D1F8A408002802D12020C1F8A408D8
:10673400087801EB80006422C0F8102701200A7851
:106744000A4482F8AC0602200A780A4482F86C00F3
:106754000878401C0870D1F8A408002802D1202031
:10676400C1F8A408087801EB80006422C0F810275F
:1067740001200A780A4482F8AC0602200A780A4406
:1067840082F86C000878401C0870D1F8A40800282E
:1067940002D12020C1F8A408002085F8A10243E01A
:1067A40095F8EC023978884204D195F8ED027978AD
:1067B400884234D0DBF80000C5F8F002387885F858
:1067C400EC02787885F8ED02DFF8D8140878002810
:1067D40003D000200870042068711AF10400FEF749
:1067E400A5FE8AF80100DFF8B814087801EB8000F0
:1067F4006422C0F8102701200A780A4482F8AC0603
:1068040002200A780A4482F86C000878401C087058
:10681400D1F8A408002802D12020C1F8A40800203F
:106824000600DBF80000A8600020DFF8641481F89B
:10683400980295F8ED3295F8EC2201219AF80000BF
:10684400401E80B201F056FB05E000200600DFF890
:106854003C040068A8608EE18DE1404680B20228C5
:1068640040F0078141F22840DFF82CB41BF80010F7
:10687400090737D5397885F8E412797885F8E5126F
:106884005BF8001031F008014BF80010DFF8141425
:106894000878002803D000200870042068713B2188
:1068A4005846FEF7ADFEABF80000DFF8F4130878A5
:1068B40001EB80006422C0F8102701200A780A4402
:1068C40082F8AC0605200A780A4482F86C0008783D
:1068D400401C0870D1F8A408002802D12020C1F877
:1068E400A408B6E0DFF8A4B3DBF80000DFF8B813BF
:1068F4000860387800286AD101200600002085F855
:10690400A1020120DFF89C130870387885F8E402AE
:10691400787885F8E502DBF80000C5F8E802012084
:1069240068711AF12400FEF736FE8AF80200DC4989
:10693400087801EB80006422C0F8102701200A784F
:106944000A4482F8AC0603200A780A4482F86C00F0
:106954000878401C0870D1F8A408002802D120202F
:10696400C1F8A408087801EB80006422C0F810275D
:1069740001200A780A4482F8AC0603200A780A4403
:1069840082F86C000878401C0870D1F8A40800282C
:1069940002D12020C1F8A408087801EB8000642209
:1069A400C0F8102701200A780A4482F8AC060320B4
:1069B4000A780A4482F86C000878401C0870D1F800
:1069C400A408002802D12020C1F8A40841E095F8C9
:1069D400E4023978884204D195F8E502797888424E
:1069E40032D0DBF80000C5F8E802387885F8E40214
:1069F400787885F8E502AB490878002803D00020B0
:106A04000870042068711AF12400FEF7C4FD8AF8A6
:106A14000200A349087801EB80006422C0F8102723
:106A240001200A780A4482F8AC0603200A780A4452
:106A340082F86C000878401C0870D1F8A40800287B
:106A440002D12020C1F8A40800200600DBF80000D1
:106A5400A86000208E4981F8980295F8E53295F8EF
:106A6400E42202219AF80000401E80B201F042FAAA
:106A740004E00020060085480068A8607BE04046EA
:106A840080B2002849D0082007900697DFF81CA29E
:106A9400BDF800104FF4847041430AEB0100B0F1DB
:106AA400FF0B079A0699584603F06EFE08200590DE
:106AB4000497BDF800004100842041430AEB010023
:106AC400B0F17B0B059A0499584603F05DFE08204B
:106AD400039017F109000290BDF800104FF4847080
:106AE40041430AEB0100B0F1F70B039A02995846AF
:106AF40003F04AFE5FF0080B17F109000190BDF89E
:106B040000004100842041430AEB0100B0F1730A04
:106B14005A460199504603F037FE2CE02BE041F22F
:106B24002840DFF874A15AF8001031F002014AF845
:106B34000010012239005046FEF7B8FDAAF8000003
:106B44005749087801EB80006422C0F8102701201F
:106B54000A780A4482F8AC0605200A780A4482F8C6
:106B64006C000878401C0870D1F8A408002802D1F1
:106B74002020C1F8A4083000C0B209B0BDE8F08FED
:106B840030B4434A434B1B785B1E5B1013710323E1
:106B940093700323137082F894020B00DBB2022477
:106BA40093FBF4F504FB153382F8A332012382F836
:106BB400A23230BC70472DE9F84F04000D001600D6
:106BC40000210020277A85F85470002285F851208E
:106BD400002285F85220002285F82020B6F10B0807
:106BE4003A00D2B2302A02D0532A3ED03DE0404689
:106BF400C0B2002838D0082214F11401A81D03F0F3
:106C040017FE00280DD05FF0080914F1140A15F1DD
:106C1400060B4A465146584603F0B6FD00206871FB
:106C240002E06879401C68716879032814DB082243
:106C3400A91D15F10E0003F0FBFD00280AD05FF03A
:106C4400080915F1060A15F10E0B4A465146584635
:106C540003F09AFD00206871DFF8D80C002180F859
:106C64006C10012180F85810FFE795F820000028E7
:106C740005D1012085F85100022085F8520095F8CD
:106C8400200080B2BDE8F28FE0570020AC5D002008
:106C940074470020F85B0020B0000020985D0020BD
:106CA400E0140020AC000020A45D0020B83D0020CA
:106CB4002DE9F64F83B004000D001E005FF00008BC
:106CC40000208DF801000020ADF80200DFF8687C98
:106CD4000020388041F230495FF0000ABB4652463A
:106CE4004946584603F07EFCDFF8500C40798DF895
:106CF40000009DF800001F2802D160788DF8000084
:106D04009DF8000041F226417854002041F22341CD
:106D1400785441F22448002007F80800BDF8109088
:106D24009DF80000042834D0212800F0678223282D
:106D340000F01081242800F0E584252800F0AA80C2
:106D4400262800F05981272800F0AC81282800F07B
:106D5400FF81292835D0362800F06084372800F0D8
:106D6400B584382800F09482392800F01D833A282D
:106D740000F0A6833B2800F0FA83F42800F0268173
:106D8400F52800F0D080F7286AD0F82875D000F0F4
:106D9400D6BC484680B2002811D12800C0B2FF28D2
:106DA40004D1012041F22341785402E0032007F882
:106DB40008003A0000210020FEF739FB388000F07B
:106DC400BEBC484680B2182848D12800C0B2FF286B
:106DD4003BD1162002900194DFF8F8ACD346029A16
:106DE4000199584603F0D0FC0722DFF8EC1C200080
:106DF40003F01EFD002824D10522DFF8E01C14F165
:106E04000F0003F015FD002808D00522DFF8D01C80
:106E140014F10F0003F00CFD002812D11622DFF844
:106E2400C41C504603F004FD002806D0022041F2A1
:106E34002341785403F087FC0AE0022007F8080095
:106E440006E0022007F8080002E0032007F8080023
:106E54003A0000210020FEF7EAFA388000F06FBC07
:106E6400484680B2142806D13A003221DFF8780C63
:106E7400FEF7DDFA388000F062BC484680B2002894
:106E840006D13A000C21DFF8640CFEF7D0FA388002
:106E940000F055BC484680B2052842D12800C0B253
:106EA400FF2835D120781F282EDADFF8440C002182
:106EB400817300214173417B00EB81014FF4C8725F
:106EC400C1F8A8202178427B024451740121427BFD
:106ED400024482F885100621427B024482F8651040
:106EE4000E21427B024482F83110417B491C4173DC
:106EF40004214170012101702078DFF8F81B81F82A
:106F04000801FEF759FA06E0022007F8080002E03B
:106F1400032007F808003A0000210020FEF787FA52
:106F2400388000F00CBC484680B2002811D12800FB
:106F3400C0B2FF2804D13800FEF700FC388008E016
:106F4400032007F808003A0000210020FEF76FFA3A
:106F54003880F4E3484680B2002836D12800C0B215
:106F6400FF2829D10120DFF8901B0870DFF8800B7F
:106F740000218173002141730F21427B024482F876
:106F84006510417B00EB81014FF4C872C1F8A82061
:106F94000221427B024451740121427B024482F863
:106FA40085100421427B024482F83110417B491C44
:106FB40041730421417002E0032007F808003A00FD
:106FC40000210020FEF733FA3880B8E3484680B247
:106FD40020280AD12800C0B2FF2803D1200000F0E5
:106FE400C6FB02E0032007F808003A000021002055
:106FF400FEF71DFA3880A2E3484680B2062850D135
:107004002800C0B2FF2843D1207801281CD1DFF822
:10701400EC0A817951F0080181716178C90709D5B9
:10702400DFF8DC1A8A8809680A61C17851F008011E
:10703400C17030E0DFF8C81A8A8809684A61C178EB
:1070440011F0F701C17026E0207800281CD1DFF888
:10705400AC0A817911F0F70181716178C90709D50A
:10706400DFF89C1A8A8809680A61C17851F008011E
:10707400C17010E0DFF8881A8A8809684A61C1780B
:1070840011F0F701C17006E0022007F8080002E0E1
:10709400032007F808003A0000210020FEF7C7F992
:1070A40038804CE3484680B2062850D12800C0B24C
:1070B400FF2843D1207801281CD1DFF8400A8179C8
:1070C40051F0020181716178C90709D5DFF8641DA7
:1070D4008A8809680A61C17851F00201C17030E000
:1070E400DFF8501D8A8809684A61C17811F0FD01F2
:1070F400C17026E0207800281CD1DFF8000A8179CD
:1071040011F0FD0181716178C90709D5DFF8241DEB
:107114008A8809680A61C17851F00201C17010E0DF
:10712400DFF8101D8A8809684A61C17811F0FD01F1
:10713400C17006E0022007F8080002E0032007F807
:1071440008003A0000210020FEF771F93880F6E2C9
:10715400484680B2062850D12800C0B2FF2843D147
:10716400207801281CD1DFF89409817951F00101BC
:1071740081716178C90709D5DFF8681D8A880968B3
:107184000A61C17851F00101C17030E0DFF8541D8B
:107194008A8809684A61C17811F0FE01C17026E04D
:1071A400207800281CD1DFF85409817911F0FE0100
:1071B40081716178C90709D5DFF8281D8A880968B3
:1071C4000A61C17851F00101C17010E0DFF8141DAB
:1071D4008A8809684A61C17811F0FE01C17006E02D
:1071E400022007F8080002E0032007F808003A002C
:1071F40000210020FEF71BF93880A0E2484680B247
:10720400062844D12800C0B2FF2837D120780128AD
:1072140016D1DFF8E808817951F0040181716178B1
:10722400C9072ED5DFF8C01C8A8809680A61C168BD
:1072340051F00401C160DFF8B41C0968816120E0E9
:107244002078002816D1DFF8B408817911F0FB0109
:1072540081716178C90714D5DFF88C1C8A880968A4
:107264000A61C16851F00401C160DFF8801C09683B
:10727400816106E0022007F8080002E0032007F815
:1072840008003A0000210020FEF7D1F8388056E2C9
:10729400484680B2052840F0868041F2284039589B
:1072A40051F0020139502800C0B2FF2851D0280003
:1072B400C0B200284DD0207810F0030F02D12078FE
:1072C400002821D1DFF8280C0321017002218170EC
:1072D400382180F894122900C9B2491E491001715D
:1072E400022180F8A2122900C9B2491C022291FB92
:1072F400F2F302FB131180F8A312217880F8A41290
:10730400310003F0EBFC48E0DFF8E40B03210170EB
:1073140002218170382180F894122900C9B2491ED3
:1073240049100171022180F8A2122900C9B2491C36
:10733400022291FBF2F302FB131180F8A3122178CD
:1073440080F8A412310003F0C9FC022007F80800F9
:1073540023E0DFF89C0B03210170022181703821A6
:1073640080F894122900C9B2491E49100171022102
:1073740080F8A2122900C9B2491C022291FBF2F33F
:1073840002FB131180F8A312217880F8A4123100B3
:1073940003F0A4FC032007F808003A0000210020B1
:1073A400FEF745F83880CAE1484680B2052840F027
:1073B400868041F22840395851F0020139502800A2
:1073C400C0B2FF2851D02800C0B200284DD0207888
:1073D40010F0030F02D12078002821D1DFF8100B20
:1073E4000321017002218170392180F8941229004F
:1073F400C9B2491E49100171022180F8A212290064
:10740400C9B2491C022291FBF2F302FB131180F86A
:10741400A312217880F8A412310003F05FFC48E045
:10742400DFF8CC0A0321017002218170392180F830
:1074340094122900C9B2491E49100171022180F831
:10744400A2122900C9B2491C022291FBF2F302FBE9
:10745400131180F8A312217880F8A412310003F0EC
:107464003DFC022007F8080023E0DFF8840A03212A
:10747400017002218170392180F894122900C9B267
:10748400491E49100171022180F8A2122900C9B2D3
:10749400491C022291FBF2F302FB131180F8A312A0
:1074A400217880F8A412310003F018FC032007F8B7
:1074B40008003A0000210020FDF7B9FF38803EE1C2
:1074C400484680B20A2851D141F22840395851F037
:1074D400040139502800C0B2FF2836D02800C0B2B9
:1074E400002832D0DFF8180D0570DFF804AA681EF2
:1074F4008AF8030002208AF8020003208AF80000B8
:107504003A208AF894022800C0B2401E40108AF83B
:1075140004002800C0B2401C022190FBF1F201FBE0
:1075240012008AF8A30207208AF8A2020620029019
:1075340001941AF5297B029A0199584603F024F91B
:107544003100504603F0CAFB0AE0DFF8A409417990
:10755400022905D0310003F0C1FB032007F808001D
:107564003A0000210020FDF762FF3880E7E048463A
:1075740080B20A2851D141F22840395851F008010B
:1075840039502800C0B2FF2836D02800C0B20028E5
:1075940032D0DFF86C0C0570DFF854A9681E8AF845
:1075A400030002208AF8020003208AF800003B202E
:1075B4008AF894022800C0B2401E40108AF80400E1
:1075C4002800C0B2401C022190FBF1F201FB120022
:1075D4008AF8A30207208AF8A202062002900194E6
:1075E4001AF5297B029A0199584603F0CDF8310027
:1075F400504603F073FB0AE0DFF8F40841790229EE
:1076040005D0310003F06AFB032007F808003A00B4
:1076140000210020FDF70BFF388090E0484680B23F
:107624000B2852D141F22840395851F00201395007
:107634002800C0B2FF283AD02800C0B2002836D0B3
:10764400DFF8ACA89AF80500022838D0681E8AF83A
:10765400030002208AF8020003208AF80000362082
:107664008AF894022800C0B2401E40108AF8040030
:107674002800C0B2401C022190FBF1F201FB120071
:107684008AF8A30260788AF8A40208208AF8A20281
:107694000720029001941AF5297B029A0199584611
:1076A40003F072F83100504603F018FB07E0310094
:1076B400DFF83C0803F012FB032007F808003A0047
:1076C40000210020FDF7B3FE388038E0484680B240
:1076D400052816D12078002802D02078FF2807D169
:1076E4003A002178681EC0B2FEF74AF9388008E0F3
:1076F400022007F808003A0000210020FDF797FE59
:1077040038801CE0484680B20C280FD15FF0080A8C
:107714000194DFF858BD52460199584603F034F8F5
:10772400002007F80800FDF766FE02E0012007F8D4
:1077340008003A0000210020FDF779FE38803888DF
:10774400002810D19DF8010000280CD1012041F23D
:1077540023417854042007F808003A00002100204F
:10776400FDF765FE3880388805B0BDE8F08F70B548
:10777400040001250026DF493000C0B2205CA1F8D6
:107784000E01761C3000C0B2205CA1F81201761CF8
:107794003000C0B2205CA1F81001761C3000C0B2E9
:1077A400205C81F80C01761C3000C0B2205C000221
:1077B400A1F81401761CB1F814213000C0B2205C89
:1077C4000243A1F81421761C3000C0B2205C0002F0
:1077D400A1F8F200761CB1F8F2203000C0B2205CAF
:1077E4000243A1F8F220761C3000C0B2205C0002F3
:1077F400A1F8F400761CB1F8F4203000C0B2205C8B
:107804000243A1F8F420761C3000C0B2205C0002D0
:10781400A1F8F600761CB1F8F6203000C0B2205C66
:107824000243A1F8F620761C3000C0B2205C0002AE
:10783400A1F8F800761CB1F8F8203000C0B2205C42
:107844000243A1F8F820761C3000C0B2205C00028C
:10785400A1F8FA00761CB1F8FA203000C0B2205C1E
:107864000243A1F8FA20761C3000C0B2205C00026A
:10787400A1F8FC00761CB1F8FC203000C0B2205CFA
:107884000243A1F8FC20761C3000C0B2205C000248
:10789400A1F8FE00761CB1F8FE203000C0B2205CD6
:1078A4000243A1F8FE20761C3000C0B2205C000226
:1078B400A1F80001761CB1F800213000C0B2205CB0
:1078C4000243A1F80021761C3000C0B2205C000203
:1078D400A1F80201761CB1F802213000C0B2205C8C
:1078E4000243A1F80221761C3000C0B2205C0002E1
:1078F400A1F80401761CB1F804213000C0B2205C68
:107904000243A1F80421761C3000C0B2205C0002BE
:10791400A1F80601761CB1F806213000C0B2205C43
:107924000243A1F80621761CFDF746FD2800C0B2EB
:1079340070BD0000385A0020B00000201459002007
:107944002DE9F04704000D00002600275FF0000930
:10795400DFF8CC8B98F8A40810F0810F40F08380F6
:10796400E088052811DB14F19E0003F0B7FA002823
:107974000BD0E088204480890600E188891E14F138
:107984000E0002F0BFFC070008E0E088002803D1E5
:10799400FF2007003E0001E0FF2006003000390010
:1079A40080B289B2884231D12B00E288217914F166
:1079B4000E00FFF77DF98146484680B2002852D078
:1079C400DFF8600B007810F00E0F4CD198F800002F
:1079D40008EB80006421C0F81017012098F800100B
:1079E400414481F8AC06052098F80010414481F820
:1079F4006C0098F80000401C88F80000D8F8A4082F
:107A0400002802D12020C8F8A4082CE0DFF8F4AC48
:107A1400012041F224410AF80100524600210020CD
:107A2400FDF705FDAAF8000098F8000008EB8000B7
:107A34006421C0F81017012098F80010414481F81F
:107A4400AC06052098F80010414481F86C0098F8C1
:107A54000000401C88F80000D8F8A408002802D1CF
:107A64002020C8F8A408BDE8F0872DE9F043ADF55F
:107A7400006D81B005000E0017009846DDF820481F
:107A84004FF4006100220DF10409484602F0AAFDFA
:107A9400220092B2310001A802F08BFC01A80090F0
:107AA40023009BB22A00DFF8801A404603F032FA22
:107AB400404603F013FA0090DFF8703ADFF8702ABA
:107AC400DFF8281D380003F025FA0DF5006D01B02C
:107AD400BDE8F083165D00209C160108A416010879
:107AE400AC160108005D002000500008E8F7FF1FF5
:107AF4009C560020E0570020985D0020545D002033
:107B04000C1701082DE9F34F83B00500002600206F
:107B1400ADF8080000271F20310089B26854761C94
:107B24000498000E310089B26854761C0498000C45
:107B3400310089B26854761C0498000A310089B275
:107B44006854761C0498310089B26854761CFF206E
:107B5400310089B26854761CDFF8AC0B017832002E
:107B640092B2A954761C4178320092B2A954761C80
:107B74008178320092B2A954761CC178320092B254
:107B8400A954761C0179320092B2A954761C417929
:107B9400320092B2A954761C8179320092B2A9546F
:107BA400761CC07910F0F000310089B26854761C5C
:107BB4005FF00808DFF8544B14F10709300080B275
:107BC40005EB000A42464946504602F0DDFD083600
:107BD4005FF0060A300080B205EB000B524621002C
:107BE400584602F0D1FDB61D3020310089B26854E8
:107BF400761C3020310089B26854761CDFF8100BF3
:107C04008168090E320092B2A954761C8168090C6D
:107C1400320092B2A954761C8168090A320092B2E9
:107C2400A954761C8068310089B26854761CDFF848
:107C3400C80BD0F89410320092B2A954761CD0F834
:107C4400E800310089B26854761C0020DFF8AC1BD0
:107C5400CA78920701D5012210000022CB781B07B5
:107C640001D501231A000023CC78E40701D50124AF
:107C74002300741C097911F01F0151EA431151EAE0
:107C8400821151EAC011B6B2A9550020210089B26F
:107C94006854641C0020210089B26854641C0020CC
:107CA400210089B26854641C0020210089B2685400
:107CB400641C0020210089B26854641C0026300032
:107CC400C0B20C2880F29280701C210089B26854E2
:107CD400641C8427DFF8BC8B3000C0B2784318F8EA
:107CE4000000002873D0082001903000C0B278430F
:107CF400404409300090200080B205EB0009019A4D
:107D04000099484602F040FD08345FF0080930004D
:107D1400C0B27843404410F1110A200080B205EB50
:107D2400000B4A465146584602F02EFD08343000F6
:107D3400C0B278434044407F210089B26854641C37
:107D44003000C0B278434044807FC0F3C0013000AB
:107D5400C0B278434044807FC0F38000800050EA82
:107D6400C1003100C9B279434144897FC1F3400164
:107D740050EA41003100C9B279434144897F11F08E
:107D840001010843210089B26854641C3000C0B268
:107D94007843404490F82000210089B26854641C60
:107DA4003000C0B27843404490F82E00210089B2DC
:107DB4006854641C3000C0B207FB00F708EB0700EE
:107DC40090F86C00210089B26854641C0CE01527FB
:107DD400FF200090200080B205EB0008009A3900D3
:107DE400404602F0FFFB1534761C68E7DFF8540DBB
:107DF40090F87A03210089B26854641C00202100A1
:107E040089B26854641C210089B2280002F07AFA0D
:107E14000100200080B22954641C080080B2000ACA
:107E2400220092B2A854641C200080B205B0BDE8C0
:107E3400F08F000044170108DFF8C019087910F02A
:107E4400220F0ED08879C00719D4C878C00716D479
:107E54002448828800680261C87850F00100C87024
:107E64000DE08879C0070AD4C878C00707D51D4833
:107E7400828800684261C87810F0FE00C8700879F2
:107E840010F0060F19D0DFF8A42A1078002804D0C7
:107E94000879800701D5002010708879800720D4E4
:107EA400C87880071DD5DFF8400D828800684261DC
:107EB400C87810F0FD00C87013E08879800710D4EA
:107EC400DFF8680A007800280BD0C878800708D447
:107ED400DFF8140D828800680261C87850F002004F
:107EE400C87070473C17010804170108AC5D0020F6
:107EF4007447002070B40C00E4B2012C40F0E6801A
:107F04001400E4B2002C57D11C00E4B2002C05D0BC
:107F1400022C2AD028D3032C4DD06EE1DFF8104A6E
:107F24000025A573002565730F25667B264486F816
:107F34006550657B04EB85054FF4C866C5F8A860F9
:107F44000325667B264475740125667B264486F8E2
:107F540085500525667B264486F83150657B6D1C6B
:107F640065730425657048E147E1DFF8C4490025DD
:107F7400A573002565730F25667B264486F8655036
:107F8400657B04EB85054FF4C866C5F8A860042535
:107F9400667B264475740125667B264486F88550E5
:107FA4000325667B264486F83150657B6D1C65731A
:107FB4000425657021E120E11400E4B2012C30D1E4
:107FC4001C00E4B2002C02D0012C29D015E1DFF80A
:107FD40060490025A573002565730F25667B26443B
:107FE40086F86550657B04EB85054FF4C866C5F8D3
:107FF400A860DFF8B05CED786D1C667B2644757470
:108004000125667B264486F885500125667B264437
:1080140086F83150657B6D1C657304256570ECE052
:10802400EBE01400E4B2022C40F0E7801C00E4B260
:10803400012C06D0022C0CD0042C12D0FF2C3DD0E5
:10804400DBE0DFF8604C6578022D01D00225657015
:10805400D3E0DFF8505C6C78002C01D000246C7005
:10806400CBE0DFF8404C6578032D26D003256570FE
:10807400DFF8BC480025A573002565730F25667BD2
:10808400264486F86550657B04EB85054FF4C86685
:10809400C5F8A8600925667B264475740125667BAE
:1080A400264486F885500B25667B264486F8315095
:1080B400657B6D1C6573042565709EE0DFF8E45BE9
:1080C4006C78002C01D000246C7096E00C00E4B2B3
:1080D400022C40F092801400E4B2002C31D11C0038
:1080E400E4B2002C05D0022C29D027D3032C27D0AE
:1080F40083E0DFF83C480025A573002565730F2550
:10810400667B264486F86550657B04EB8505C826A6
:10811400C5F8A8600225667B264475740125667B34
:10812400264486F885500425667B264486F831501B
:10813400657B6D1C6573042565705EE05DE05CE045
:108144005BE01400E4B2012C30D11C00E4B2002C3A
:1081540002D0012C29D050E0DFF8D4470025A573C4
:10816400002565730F25667B264486F86550657B7C
:1081740004EB85054FF4C866C5F8A860DFF8245BF6
:10818400ED786D1C667B264475740125667B264458
:1081940086F885500225667B264486F83150657B37
:1081A4006D1C65730425657027E026E01400E4B2B5
:1081B400022C22D11C00E4B2012C06D0022C0CD0DB
:1081C400042C12D0FF2C11D017E0DFF8D84A6578C0
:1081D400012D01D0012565700FE0DFF8C85A6C78D5
:1081E400002C01D000246C7007E006E0DFF8B45ADC
:1081F4006C78002C01D000246C7070BC70470000B7
:10820400F85B00202DE9F44F04000D000026DFF890
:1082140098BADFF8981A584602F07CFEDFF8907A94
:10822400DFF8901A380002F075FEDFF88C8ADFF868
:108234008C1A404602F06EFEDFF8849A14F534720C
:10824400DFF8801A484602F065FEDFF87CAADFF802
:108254007C1A504602F05EFE5946280002F07AFE6F
:10826400002835D0242715F1390814F534793A005B
:108274004146484602F088FA94F8D8022D2824D1C1
:1082840094F8DD022D2820D194F8E2022D281CD187
:1082940094F8E7022D2818D1DFF8347A0120F87019
:1082A4005FF0800815F1600914F53D7A42464946AD
:1082B400504602F069FA15F16001380001F0DCFC67
:1082C40000284CD00120060049E00020060046E0CA
:1082D4003900280002F03EFE00280BD001200600E1
:1082E4000020DFF8141581F80A010220DFF8E019F4
:1082F400C87034E04146280002F02CFE002806D065
:10830400002006000220DFF8C819C87027E049469B
:10831400280002F01FFE002806D0012006000220DB
:10832400DFF8AC19C8701AE05146280002F012FEBA
:10833400002814D0012006000220DFF89419C87028
:108344004AF6AA20DFF8D41B888002F0FCF9052045
:10835400FCF7ACFEDFF8C80BDFF8C81B0860300080
:10836400C0B2BDE8F28FF8B504000D0000206178BA
:10837400214491F86C603100C9B201290AD0022964
:1083840025D0032937D0042949D005295AD02329D7
:1083940018D067E0DFF8900B016814F1D000FFF704
:1083A400B1FBE080DFF8847BE0880090DFF8803B5D
:1083B4003A0014F1D0012800FFF757FB380002F00F
:1083C4009FFE4FE0DFF86C0B02F09AFE4AE0DFF804
:1083D4005C7BDFF8540B00680090DFF8C808C378B2
:1083E400DFF84C2B3900DFF8500B00F0B6F93800F9
:1083F40002F086FE36E0DFF8347BDFF82C0B0068F1
:108404000090DFF8A008C378DFF8242B3900DFF8E8
:108414002C0B00F0F5F9380002F072FE22E0DFF8D0
:10842400200BDFF8087BDFF8001B09680091037854
:10843400DFF8FC2A3900443000F02EFA380002F04C
:108444005FFE0FE0DFF8E47AAE4801880091DFF8C0
:10845400E03A3A00811CDFF8EC0A00F009F8380031
:1084640002F04EFEC4F8A058F1BD0000DB5B002012
:108474002DE9F043ADF5006D85B005000E00170041
:108484009846DDF830484FF4006100220DF11409DC
:10849400484602F0A7F8042100220DF110094846CD
:1084A40002F0A0F8022100220DF10C09484602F066
:1084B40099F800208DF80C0020008DF80D002200A2
:1084C40092B2310005A801F074FF022203A904A8A6
:1084D40001F06FFFDFF8F80705A9029104A90191E3
:1084E40010F19801009110F1960310F18E02DFF85B
:1084F400581A404602F00EFD404602F0EFFC01908F
:1085040015F534700090094B094ADFF8401A380019
:1085140002F000FD0DF5006D05B0BDE8F08300002C
:10852400E0140020D8140020C8120108845D002043
:10853400B41601082DE9F04704000D0000200026C0
:108544006178214491F86C703900C9B201290AD0CC
:10855400022930D003293BD0042946D0052951D023
:1085640023290DD0BAE0A2A1280002F0F3FC0028D0
:1085740005D001200600DFF8B80902F0C1FDADE026
:108584009CA1280002F0E6FC002813D0012006007C
:10859400DFF8B0850A22022115F1080001F038FF46
:1085A40088F87A030A22022115F10B0001F030FF4A
:1085B40088F87B0392E08EA1280002F0CBFC00280F
:1085C40005D001200600DFF8680902F099FD85E076
:1085D40087A1280002F0BEFC002805D00120060077
:1085E400DFF84C0902F08CFD78E081A1280002F04C
:1085F400B1FC002805D001200600DFF8340902F0A0
:108604007FFD6BE07AA1280002F0A4FC002865D06D
:1086140001200600DFF8180902F072FD41F226403D
:1086240038490A5C042A2DD141F223428A5C012A8A
:1086340028D145F25550DFF8E418888002F083F819
:1086440000284BD0DFF80809818800684161DFF811
:1086540004098188006841614FF4FA70FCF726FD33
:108664004FF4FA70FCF722FD4FF4FA70FCF71EFD8C
:108674004FF4FA70FCF71AFDDFF8A408DFF8A41829
:1086840008602BE0085C292828D141F22340085CCB
:10869400022823D141F21110DFF88018888002F0FB
:1086A40052F800281AD0DFF8A808818800684161D0
:1086B400DFF8A0088188006841614FF4FA70FCF784
:1086C400F5FC4FF4FA70FCF7F1FC4FF4FA70FCF788
:1086D400EDFCDFF84C08DFF84C1808600020DFF8E8
:1086E400641481F87D034FF400685FF00009DFF83B
:1086F40040A84A464146504601F074FF3000C0B2DB
:10870400BDE8F087B0000020705D00200050000834
:10871400684A002010B400214278024492F86C2088
:108724001300DBB25B1E042B01D9223B13D18178E9
:10873400002908D100214378034483F8AC1641781A
:10874400491C417007E000214378034483F8AC16C8
:108754004178491C417010BC70472DE9F041ADF5DA
:10876400006D82B004000D0016001F004FF400617C
:1087740000220DF10808404601F034FF02210022D6
:108784000DF10608404601F02DFF012100220DF1F4
:108794000408404601F026FF781C8DF804000122ED
:1087A40001A90DF1060001F004FE0722210002A830
:1087B40001F0FFFD02A800900DF10603DDF820286A
:1087C400DFF89417300002F0A5FB300002F086FBBE
:1087D4000090DFF88837DFF888270449280002F082
:1087E40099FB0DF5006D02B0BDE8F0810811010898
:1087F4003E0000004F4B0000E0570020545D002075
:108804002DE9F041ADF5006D82B004000D001600B5
:108814001F004FF4006100220DF10808404601F0EA
:10882400E1FE022100220DF10608404601F0DAFEC5
:10883400012100220DF10408404601F0D3FE781C0A
:108844008DF80400012201A90DF1060001F0B1FD2B
:108854000722210002A801F0ACFD02A800900DF14E
:108864000603DDF82028DFF8FC16300002F052FB86
:10887400300002F033FB0090DFF8E036DFF8E0264A
:10888400DFF8E416280002F045FB0DF5006D02B098
:10889400BDE8F081B83D00202DE9F041ADF5006D53
:1088A40082B004000D0016001F004FF40061002286
:1088B4000DF10808404601F095FE022100220DF159
:1088C4000608404601F08EFE012100220DF1040845
:1088D400404601F087FE781C8DF80400012201A9AE
:1088E4000DF1060001F065FD0922210002A801F046
:1088F40060FD02A800900DF10603DDF82028DFF8E2
:108904006C16300002F006FB300002F0E7FA00902B
:10891400DFF84836DFF84826DFF84C16280002F066
:10892400F9FA0DF5006D02B0BDE8F081AD0000204C
:108934009C5600202DE9F84F00242000C0B20C28DA
:1089440080F2A280002004002000C0B20C2880F233
:108954009B80DFF81C965FF0840ADFF818B60122CA
:108964002000C0B20AFB00F0584410F11E0123009D
:10897400DBB20320434309EB0300801C01F058FFE2
:10898400002824D101222000C0B20AFB00F0584480
:1089940010F120012300DBB20320434309EB030061
:1089A40001F046FF002812D101222000C0B20AFBC8
:1089B40000F0584410F16C012300DBB20320434360
:1089C40009EB0300401C01F033FF00285AD00120BA
:1089D40000902000C0B20AFB00F0584410F11E05BC
:1089E4002100C9B20320414309EB0100861C009A0F
:1089F4002900300001F0C8FE01262000C0B20AFBA5
:108A040000F0584410F120072100C9B2032041436B
:108A140009EB010832003900404601F0B5FE5FF071
:108A240001082000C0B20AFB00FA0BEB0A0010F1A7
:108A34006C0A2100C9B20320414309EB010010F183
:108A4400010942465146484601F09EFEDFF82815CA
:108A5400087801EB80001422C0F8102701200A785E
:108A64000A4482F8AC0601200A780A4482F86C00B1
:108A74000878401C0870D1F8A408002802D12020EE
:108A8400C1F8A408641C5FE70021DFF8F004C27891
:108A9400920701D5012211000022C3781B0701D5DA
:108AA40001231A000023C578ED0701D501252B0009
:108AB400C579067916F01F06DBB256EA4316D2B220
:108AC40056EA8216C9B256EAC116B54237D0002119
:108AD400C278920701D5012211000022C3781B0736
:108AE40001D501231A000023C578ED0701D501251E
:108AF4002B00057915F01F0555EA431555EA821533
:108B040055EAC115C571DFF87014087801EB8000CF
:108B14001422C0F8102701200A780A4482F8AC060F
:108B240001200A780A4482F86C000878401C087016
:108B3400D1F8A408002802D12020C1F8A408BDE877
:108B4400F18F0000E84300202DE9F84F00200024B5
:108B54002000C0B20C2844DA012000908425DFF8FC
:108B640014642000C0B26843304410F11E07DFF8DB
:108B740000842100C9B20320414308EB010010F135
:108B84000209009A3900484601F0FEFD5FF0010930
:108B94002000C0B26843304410F1200A2100C9B259
:108BA4000320414308EB010B4A465146584601F065
:108BB400EBFD5FF0010B2000C0B205FB00F506EBF6
:108BC400050010F16C052100C9B20320414308EBF4
:108BD4000100461C5A462900300001F0D5FD641CF2
:108BE400B6E7BDE8F18F000044170108E3480079B7
:108BF400800726D5E2484178090722D400218173F1
:108C0400002141730F21427B024482F86510417BAD
:108C140000EB81014FF41672C1F8A8200B21427BAE
:108C2400024451740121427B024482F885100D21D3
:108C3400427B024482F83110417B491C4173042178
:108C44004170704700207FF00901CE4AD2F8943079
:108C54008B4203DBD2F8E8208A4205DACA498A78D3
:108C640052F001028A7004E0C7498A7812F0FE02C9
:108C74008A70C649896811F1010F05D1C2498A7801
:108C840052F002028A7004E0BF498A7812F0FD02B1
:108C94008A70BD498978002901D101210800C0B238
:108CA40070470000744700209C4C0020D015010838
:108CB4009C4E0020881501089C500020A015010836
:108CC4009C520020E41401089C5400202016010842
:108CD400145900202DE9F84F86B005000024002027
:108CE400ADF81400002000215FF0000800220126E6
:108CF40015F50E777E23A4461FFA8CFC07F80C307A
:108D0400641C5523A4461FFA8CFC07F80C30641C21
:108D14000023A4461FFA8CFC07F80C30641C0023C3
:108D2400A4461FFA8CFC07F80C30641C0023A446EC
:108D34001FFA8CFC07F80C30641C23009BB2FE5411
:108D4400641C33009BB21B0AA4461FFA8CFC07F870
:108D54000C30641C5223A4461FFA8CFC07F80C3018
:108D6400641C0023A4461FFA8CFC07F80C30641C16
:108D74005FF000094846C0B2062810DA8448494624
:108D8400C9B200EB8100D0F87C02152804D201207E
:108D940010FA09F050EA080819F10109EAE720007D
:108DA40080B207F80080641C08200490794803907E
:108DB400200080B207EB000A049A0399504601F0A0
:108DC400E3FC083408200290DFF8CCA11AF1070074
:108DD4000190200080B207EB000B029A01995846DB
:108DE40001F0D2FC08345FF0060BCDF800A020009F
:108DF40080B207EB000A5A460099504601F0C4FCC1
:108E0400A41D3020210089B27854641C3020210034
:108E140089B27854641C61480079042805DA00207A
:108E2400210089B27854641C04E0FF20210089B237
:108E34007854641C434890F87D03152805DA002013
:108E4400210089B27854641C04E0FF20210089B217
:108E54007854641C4D488168220092B2B954641C51
:108E64008168090A220092B2B954641C8168090C11
:108E7400220092B2B954641C8068000E210089B2A9
:108E84007854641C3F48D0F89410220092B2B9542C
:108E9400641CD0F8E800210089B27854641C0020D6
:108EA4003649CA78920701D5012210000022CB78F6
:108EB4001B0701D501231A00002391F803C05FEAC0
:108EC400CC7C02D55FF0010C634614F1010A0979E8
:108ED40011F01F0151EA431151EA821151EAC01104
:108EE400A4B239555046401EB870514689B2891E05
:108EF400B81C01F007FA514689B278541AF1010AF4
:108F0400010089B2090A524692B2B9541AF1010A0F
:108F1400A5F878A207B0BDE8F08F0000F85C002047
:108F24000400FA050CED00E0AC5D0020B82D002033
:108F3400B8350020BC160108FC5B00201C5C002036
:108F4400F85B0020E843002040110108901001085C
:108F5400D4170108CC17010878110108845D00209A
:108F6400B4160108B011010808110108E81101083C
:108F7400305D0020B83D0020E0140020545D002046
:108F84009C560020E0570020985D0020684A00208D
:108F940074470020705D002000500008385A0020FB
:108FA40080B55FF4E13001F0EBFF02F04BF80021F3
:108FB400012002F058F801BD2DE9F04705000E002C
:108FC400170000244FF463785FF00009AA464A466C
:108FD4004146504601F006FB3000C0B2012840F083
:108FE4009E81C8202100C9B205EB8101C1F8DC00D3
:108FF40002202100C9B2294481F86C020120210019
:10900400C9B2294481F87800641CC8202100C9B27F
:1090140005EB8101C1F8DC0002202100C9B229441A
:1090240081F86C0202202100C9B2294481F8780039
:10903400641CC8202100C9B205EB8101C1F8DC0021
:1090440019202100C9B2294481F86C020B202100A7
:10905400C9B2294481F87800641CC8202100C9B22F
:1090640005EB8101C1F8DC0002202100C9B22944CA
:1090740081F86C020C202100C9B2294481F87800DF
:10908400641CC8202100C9B205EB8101C1F8DC00D1
:109094000A202100C9B2294481F86C020D20210064
:1090A400C9B2294481F87800641CC8202100C9B2DF
:1090B40005EB8101C1F8DC000A202100C9B2294472
:1090C40081F86C021B202100C9B2294481F8780080
:1090D400641CC8202100C9B205EB8101C1F8DC0081
:1090E40002202100C9B2294481F86C021220210017
:1090F400C9B2294481F87800641CC8202100C9B28F
:1091040005EB8101C1F8DC0028202100C9B2294403
:1091140081F86C0204202100C9B2294481F8780046
:10912400641CC8202100C9B205EB8101C1F8DC0030
:10913400B4202100C9B2294481F86C020520210021
:10914400C9B2294481F87800641CC8202100C9B23E
:1091540005EB8101C1F8DC00B4202100C9B2294427
:1091640081F86C0206202100C9B2294481F87800F4
:10917400641C4FF448702100C9B205EB8101C1F8A9
:10918400DC0002212200D2B22A4482F86C120821A7
:109194002200D2B22A4482F87810641C40F6B83116
:1091A4002200D2B205EB8202C2F8DC1002212200B6
:1091B400D2B22A4482F86C1209212200D2B22A4483
:1091C40082F87810641C2100C9B205EB8101C1F852
:1091D400DC0004212200D2B22A4482F86C12152148
:1091E4002200D2B22A4482F87810641C2100C9B249
:1091F40005EB8101C1F8DC0004212200D2B22A442B
:1092040082F86C1220212200D2B22A4482F878100B
:10921400641C2100C9B205EB8101C1F8DC003221D4
:109224002200D2B22A4482F86C121F212200D2B248
:109234002A4482F87810641C2100C9B205EB81012C
:10924400C1F8DC0002212200D2B22A4482F86C1256
:1092540016212200D2B22A4482F87810641C21001C
:10926400C9B205EB8101C1F8DC0005212200D2B2AC
:109274002A4482F86C1218212200D2B22A4482F8BD
:109284007810641C2100C9B205EB8101C1F8DC002F
:1092940032212200D2B22A4482F86C121C2122000C
:1092A400D2B22A4482F87810641C2100C9B205EBBA
:1092B4008101C1F8DC0032212200D2B22A4482F8B2
:1092C4006C121D212200D2B22A4482F87810641C48
:1092D4002100C9B205EB8101C1F8DC003221220072
:1092E400D2B22A4482F86C1222212200D2B22A4439
:1092F40082F87810641C2100C9B205EB8101C1F821
:10930400DC0032202100C9B2294481F86C022120FA
:109314002100C9B2294481F87800641C51E04FF45B
:10932400FA602100C9B205EB8101C1F8DC0001201B
:109334002100C9B2294481F86C0210202100C9B26D
:10934400294481F87800641CB4202100C9B205EBDB
:109354008101C1F8DC0001202100C9B2294481F84F
:109364006C0203202100C9B2294481F87800641CEE
:109374004FF4C8702100C9B205EB8101C1F8DC00CB
:1093840001202100C9B2294481F86C020F20210078
:10939400C9B2294481F87800641C14202100C9B2A0
:1093A40005EB8101C1F8DC0001202100C9B2294488
:1093B40081F86C0200202100C9B2294481F87800A8
:1093C400641C0220A5F87E0385F87C6385F8784345
:1093D4005FF04808B946AA4642464946504601F05D
:1093E400D3F9BDE8F087F0B5ADF5006D83B00400A6
:1093F4000D0000274FF40061002203AE300001F09D
:10940400F1F894F87903204490F878603000C0B201
:10941400002853D001285CD0022865D0032863D0EB
:10942400042800F08980052800F08B80062800F0CD
:109434008D80072800F08F80082800F0918009288B
:1094440000F093800A2800F0A2800B2852D00C2848
:1094540054D00D285CD00E2864D00F282DD01028AD
:1094640000F08D80122862D0132800F08380152824
:1094740000F0AD80162800F0C580182800F0C780E1
:109484001A2800F015811B2847D01C2800F0CF8033
:109494001D2800F0D9801E2800F0E3801F2800F06A
:1094A400AC80202800F0A480212800F0E780222846
:1094B40000F0F180232826D003E102E1DFF84C0913
:1094C400818800684161DFF848098188006841614A
:1094D400F7E0DFF83809818800684161DFF8300976
:1094E400818800684161ECE0DFF824098188006824
:1094F4000161E6E076A001F003FEE2E0DFF8140982
:1095040001F0FEFDDDE0DFF8100901F0F9FDD8E01F
:10951400DFF8080901F0F4FDD3E0DFF8040901F0F5
:10952400EFFDCEE0DFF8FC0801F0EAFDC9E0DFF86A
:10953400F80801F0E5FDC4E0DFF8F00801F0E0FD13
:10954400BFE0DFF8EC0801F0DBFDBAE0DFF8E40887
:1095540001F0D6FDB5E0DFF8E00801F0D1FDB0E0A0
:10956400DFF8D80801F0CCFDABE0DFF8D40801F057
:10957400C7FDA6E0DFF8CC0801F0C2FDA1E00A2097
:1095840001F092FDDFF8C00801F0BAFD99E094F80B
:10959400470000280ED1A0880290E0780190A078BE
:1095A400009063782278DFF8A418DFF8A40801F0AB
:1095B400B1FC07E0A388A21DDFF89818DFF8900833
:1095C40001F0A8FCDFF8880801F09AFD79E0DFF8E3
:1095D400880801F095FDDFF8840801F091FDDFF8BB
:1095E400800801F08DFDDFF87C0801F089FD68E05A
:1095F400DFF8740801F084FD63E0DFF8700801F01F
:109604007FFD5EE0DFF8680801F07AFD59E0DFF8DD
:1096140064080090DFF86038DFF86028DFF860182D
:1096240003A801F077FC03A801F06AFD49E0DFF824
:109634004C38DFF84428DFF84C1803A801F06AFC22
:1096440003A801F05DFD3CE0DFF83038DFF828289E
:10965400DFF8341803A801F05DFC03A801F050FD05
:109664002FE0DFF81838DFF81028DFF8201803A8F7
:1096740001F050FC03A801F043FD22E0DFF8FC37C1
:10968400DFF8F427DFF8081803A801F043FC03A867
:1096940001F036FD15E0DFF8E437DFF8DC27DFF80A
:1096A400F41703A801F036FC03A801F029FD08E033
:1096B400DFF8E41703A801F02DFCDFF8E00701F060
:1096C4001FFDC4F884530DF5006D03B0F0BD000018
:1096D400415400002DE9F84FADF5016D04000D0073
:1096E400002700264FF4006100220DF110084046C7
:1096F40000F078FF94F87903204490F878008DF80E
:1097040000009DF800000028022833D9001F00F053
:10971400DC80401E00F0E380401E00F0F480401E18
:10972400022828D9C01E00F00281401E012822D937
:10973400801E57D0401E00F0AD80401E1AD0401E3F
:1097440019D0801E17D0401E00F09480801E01287E
:1097540040F2ED80C01E012840F2E980801E00F036
:10976400EF80401E73D0401E062840F2E080C01FE8
:109774000AD0FAE0F9E0B4A1280001F0EBFB0028DC
:1097840001D001200600F0E0AFA1280001F0E2FBC7
:10979400002826D001200600022715F1080814F538
:1097A4005D793A004146484600F0EEFF5FF0020959
:1097B40015F10B0A04F2763B4A465146584600F02E
:1097C400E3FF0A22022114F55D7000F021FE84F803
:1097D4007A030A22022104F2763000F019FE84F89A
:1097E4007B03C2E098A1280001F0B4FB00282DD02F
:1097F4001127A81C039014F148083A000399404625
:1098040000F0C2FF5FF01108A81C0290DFF86C960C
:10981400CA4642460299504600F0B6FF5FF0110A6C
:10982400A81C0190DFF878B652460199584600F01A
:10983400ABFF14F1590114F1480000F087FDDFF883
:109844006416484600F082FD012006008DE07EA1EA
:10985400280001F07FFB00280BD0112715F1020826
:1098640014F161093A004146484600F08DFF012099
:1098740006007AE074A1280001F06CFB002808D0EF
:10988400DFF82416280001F065FB002801D0012030
:1098940006006AE06CA1280001F05CFB002813D0EC
:1098A40014F172021C21280000F0D4F8002809D118
:1098B40006275FF0000814F1720942463900484651
:1098C40000F090FE012006004FE0DFF8E0152800CC
:1098D40001F040FB002801D00120060045E0DFF83C
:1098E400D015280001F036FB00280BD057A1280022
:1098F40001F030FB4178312902D04178352901D17A
:1099040001210E0031E0DFF8AC15280001F022FB44
:1099140000280BD04DA1280001F01CFB417831290F
:1099240002D04178352901D101210E001DE046A164
:10993400280001F00FFB002801D00120060014E0EC
:1099440043A1280001F006FB00280ED0DFF84815DB
:1099540004A801F0DFFA282104A801F0AEFB2821B5
:1099640004A801F0AAFB012006000020DFF8481536
:1099740081F87D033000C0B20DF5006D05B0BDE87F
:10998400F08F10B4002190F87923024492F87820E3
:109994001300DBB2002B012B21D99B1E012B0FD905
:1099A4009B1E0A2B2AD90B3B012B18D9DB1E012B3A
:1099B40024D9DB1E012B21D9DB1E0B2B1ED92CE055
:1099C400002190F87933034483F86C1290F87913EA
:1099D400491C80F87913002180F888131DE00021C8
:1099E40090F87933034483F86C1290F87913491C86
:1099F40080F87913002180F888130EE090F888131A
:109A040000290AD1002190F87933034483F86C12B9
:109A140090F87913491C80F8791310BC704710B57D
:109A24000400DFF89814200001F094FA002806D10D
:109A3400DFF88C14200001F08DFA002801D00120F9
:109A440000E0002010BD00004F4B00002C0000007F
:109A54003E0000002DE9F84F04000D0016005FF0F1
:109A6400000A5FF000095FF0010B002722232A009F
:109A7400D2B292B25046010089B2200000F098FDA3
:109A840080465846C0B200281DD0B8F1000F1AD441
:109A9400002083460A22022104EB0800401C00F047
:109AA400B7FC070018F103083800C0B215280ADB18
:109AB4003800C0B2642806DA4846C0B2375419F1F7
:109AC4000109012083462F232A00D2B292B24046D4
:109AD400010089B2200000F06BFD82465846C0B2F6
:109AE40000281DD0BAF1000F1AD4002083460A22A0
:109AF400022104EB0A00401C00F08AFC07001AF162
:109B0400030A3800C0B200280AD03800C0B20D28B9
:109B140006DA4846C0B2375419F1010901208346D8
:109B24002F232A00D2B292B25046010089B22000FB
:109B340000F03EFD80465846C0B200281DD0B8F162
:109B4400000F1AD4002083460A22022104EB0800E5
:109B5400401C00F05DFC070018F103083800C0B297
:109B640000280AD03800C0B2202806DA4846C0B21D
:109B7400375419F10109012083462C232A00D2B25B
:109B840092B24046010089B2200000F011FD8246E5
:109B94005846C0B2002819D0BAF1000F16D40020DC
:109BA40083460A22022104EB0A00401C00F030FC28
:109BB40007001AF1030A3800C0B2182806DA48462A
:109BC400C0B2375419F10109012083463A232A000F
:109BD400D2B292B25046010089B2200000F0E8FCF3
:109BE40080465846C0B2002819D0B8F1000F16D4E8
:109BF400002083460A22022104EB0800401C00F0E6
:109C040007FC070018F103083800C0B23C2806DA44
:109C14004846C0B2375419F10109012083463A235A
:109C24002A00D2B292B24046010089B2200000F06C
:109C3400BFFC82465846C0B2002819D0BAF1000FC2
:109C440016D4002083460A22022104EB0A00401C99
:109C540000F0DEFB07001AF1030A3800C0B23C280A
:109C640006DA4846C0B2375419F101090120834687
:109C74005846C0B2BDE8F28F2DE9F04F87B004001A
:109C84000D000026E078012840F09A80022100228D
:109C94006F46380000F0A6FC4FF492700690002046
:109CA40005902700059A0699380000F09BFC0827C8
:109CB400A81D049014F18E083A000499404600F05F
:109CC40063FD5FF0020815F12500039014F1960975
:109CD40042460399484600F057FD5FF0020915F12A
:109CE4002700029014F1980A4A460299504600F05F
:109CF4004BFD5FF0040A15F12900019014F19A0B51
:109D040052460199584600F03FFDDFF8B8B11BF107
:109D14000A0114F18E0000F019FB1BF1040114F187
:109D2400960000F013FB1BF1050114F1980000F0FC
:109D34000DFB694614F19A0000F008FB69469DF892
:109D44000020487850EA022000282CD09DF800001A
:109D5400497851EA0021ABF80610BBF806008028C8
:109D640014DA01200600BBF80600470015F12D089F
:109D740014F19E093A004146484600F005FD1BF1E6
:109D84000E0114F19E0000F0E1FA39E00120060012
:109D940080275FF000081BF10E094246390048464F
:109DA40000F020FC2CE00120060080275FF0000872
:109DB4001BF10E0942463900484600F013FC1FE02F
:109DC400E07804281CD14FF492775FF00008DFF8A4
:109DD400F490CA4642463900504600F003FC5FF056
:109DE400080AA81D019014F18E0B52460199584699
:109DF40000F0CAFC19F10A0114F18E0000F0A6FA71
:109E04003000C0B207B0BDE8F08F0000D4170108DD
:109E1400CC1701086C170108741701087C17010896
:109E2400841701082C1601088C170108381601083C
:109E3400441601085016010850140108E0150108E1
:109E44005C16010870140108F0150108901301084C
:109E54005C5C002090140108001501081C15010821
:109E640038150108FC0F010854150108B81501083C
:109E7400BC130108980F010894170108845D0020A1
:109E84000C140108301301082012010858120108AB
:109E9400CC10010860130108901201084C1001084D
:109EA400E35B0020705D00209C170108A4170108E3
:109EB400AC170108B4170108E8430020681601082C
:109EC400741601081459002038B504002100C9B2E1
:109ED4004FF4165001F026F9012001F093F9544D86
:109EE400E96915F1240001F0A4F9D5F82C1115F550
:109EF400987001F0E6F95FF400104E4908604FF4E1
:109F040090704D4908604D48016851F001010160AD
:109F14000020287031BD2DE9F84304000D0016001F
:109F24001F005FF000095FF0000801204946C9B234
:109F3400785419F101094846C0B23C5419F1010999
:109F4400280080B2000A4946C9B2785419F10109BF
:109F54004846C0B23D5419F10109300080B2000AEC
:109F64004946C9B2785419F101094846C0B23E5471
:109F740019F101094946C9B2380000F012F801008C
:109F84004846C0B2395419F10109080080B2000AE8
:109F94004A46D2B2B85419F101094846C0B2BDE8E4
:109FA400F28370B403000022002600244FF6FF70F1
:109FB40000252A000E00F6B292B2B6B2B24218D20E
:109FC4002A0092B29A5C5040002214002200D2B2BD
:109FD400082A0CDAC20706D580B202004AF2010050
:109FE40090EA520001E080B24008641CEEE76D1C68
:109FF400DFE780B270BC704738B504000C4D002018
:10A004002870032028764FF4804028840220688436
:10A0140014F10C03628921892078FFF77CFFE86141
:10A02400E96989B215F1240001F0CDF931BD0000D0
:10A03400684A002004000240700002406C000240A4
:10A04400F8B5040000256068092818D30026002705
:10A054006068811EC9B214F10800FFF7A2FF6168AD
:10A064002144CA7912026168214489790A430100B2
:10A07400130089B29BB2994201D101210D0028003D
:10A08400C0B2F2BDF0B401000C00E40F0A00D20D1E
:10A094004B025B0A2000C0B2002802D05FF0FF3000
:10A0A40013E07F3A4FF47A75012612F10A008640D4
:10A0B4006E434FF4806096FBF0F0D2F10D061F0062
:10A0C400F74005FB07F510EB9520F0BC70472DE930
:10A0D400F04104000D0016005FF00108002728007D
:10A0E40080B2002860D001F0C7F9002801D1002017
:10A0F40080464046C0B2002808D0A02001F051FAA2
:10A1040001F02EFA002801D1002080464046C0B25A
:10A11400002808D0200080B2000AC0B201F041FA41
:10A1240001F01EFA80464046C0B2002806D0200046
:10A13400C0B201F036FA01F013FA80464046C0B2CC
:10A14400002805D001F098F9002801D100208046AC
:10A154004046C0B2002808D0A12001F022FA01F044
:10A16400FFF9002801D1002080466D1E4046C0B290
:10A17400002817D0002007003800290080B289B2D7
:10A18400884208D201F032FA390089B2705401F0E1
:10A19400B7F97F1CF0E701F029FA390089B270544D
:10A1A40001F0C6F901F094F94046C0B2BDE8F0816F
:10A1B4002DE9F04104000D00160000275FF00108AE
:10A1C400280080B2002842D001F056F9002801D1BD
:10A1D400002080464046C0B2002808D0A02001F0EC
:10A1E400E0F901F0BDF9002801D100208046404685
:10A1F400C0B2002808D0200080B2000AC0B201F02A
:10A20400D0F901F0ADF980464046C0B2002806D02E
:10A214002000C0B201F0C5F901F0A2F98046002087
:10A2240007003800290080B289B288420DD2404626
:10A23400C0B2002807D0380080B2305C01F0B1F918
:10A2440001F08EF980467F1CEBE701F041F905200F
:10A2540001F009F94046C0B2BDE8F0812DE9F047AC
:10A2640004000D00160000275FF000085FF0000AEC
:10A27400200010F01F0F1BD014F01F00D0F120009D
:10A2840007002800390080B289B2884200D22F002A
:10A29400404680B206EB0002390089B218EB040094
:10A2A40080B2FFF785FF8146ED1B17EB080801E03C
:10A2B4005FF001094846C0B200281FD0280080B2D0
:10A2C40000281BD0202007002800390080B289B262
:10A2D400884200D22F00404680B206EB00023900CB
:10A2E40089B218EB040080B2FFF762FF8146ED1BD0
:10A2F40017EB08084846C0B20028DFD14846C0B270
:10A30400BDE8F08770B403000022002400264FF655
:10A31400FF7000258D4214D25A5D50400022160071
:10A32400082E0CD2C20706D580B2020048F20840BB
:10A3340090EA520001E080B24008761CF0E76D1C00
:10A34400E8E780B2C04380B270BC70472DE9F041A9
:10A3540004000D005FF0000800260027002C24D024
:10A36400200000F0BBFD01004FF6FE70014000200C
:10A37400060030000A0080B292B2904210D2224805
:10A38400320092B2A25C825C120133009BB223447D
:10A394005B78C05C024317002F706D1CB61CE8E7A5
:10A3A40088461FFA88F85FEA5808404680B2BDE83C
:10A3B400F081F0B400250023002425001600ADB27E
:10A3C400B6B2B5421DD22500ADB24D5DEDB22D0938
:10A3D4000E4E2F00FFB2F75DA4461FFA8CFC00F866
:10A3E4001C702700BFB2CF5D17F00F073B001F00A2
:10A3F400FFB2F65D2700BFB200EB47077E70641C16
:10A40400DBE7F0BC70470000E00C0108001601080F
:10A41400F0B403000020002500260027002B00F0E4
:10A42400C5801400E4B2022C09D0082C24D00A2CD4
:10A434003FD0102C00F07F80112C58D0B6E01D00C6
:10A44400002427003C008C46E4B25FFA8CFC64458F
:10A4540011D22C7826003400E4B2302C03D034001E
:10A46400E4B2312C07D140003400E4B2303C20186F
:10A474007F1C6D1CE6E799E01D00002427003C00CA
:10A484008C46E4B25FFA8CFC644511D22C78260029
:10A494003400E4B2302C0BDB3400E4B2382C07DA9D
:10A4A400C0003400E4B2303C20187F1C6D1CE6E789
:10A4B4007CE01D00002427003C008C46E4B25FFAD7
:10A4C4008CFC644512D22C7826003400E4B2302C83
:10A4D4000CDB3400E4B23A2C08DA0A24604334007A
:10A4E400E4B2303C20187F1C6D1CE5E75EE01D00E3
:10A4F400002427003C008C46E4B25FFA8CFC6445DF
:10A5040018D22C7826003400E4B2302C0ADB340054
:10A51400E4B23A2C06DA0A2460433400E4B2303C54
:10A52400201804E03400E4B22E2C00D002E07F1C9A
:10A534006D1CDFE73AE01D00002427003C008C4638
:10A54400E4B25FFA8CFC64452FD22C7826003400E8
:10A55400E4B2302C09DB3400E4B23A2C05DA000111
:10A564003400E4B2303C20181CE03400E4B2612C26
:10A5740009DB3400E4B2672C05DA00013400E4B2EC
:10A58400573C20180EE03400E4B2412C09DB3400BF
:10A59400E4B2472C05DA00013400E4B2373C201859
:10A5A40000E002E07F1C6D1CC8E7FFE7F0BC7047C9
:10A5B40070B404005FF0FF300D001600ADB2B6B207
:10A5C400B5420CD20D00ADB2655D1E00F6B2B542C7
:10A5D40003D10D00ADB2280001E0491CECE770BCCA
:10A5E4007047000062F30F2262F31F42401810F01C
:10A5F400030308D0C91A1FD3DB0748BF00F8012D95
:10A6040028BF20F8022D130030B414461546103923
:10A6140028BF20E93C00FAD8490728BF20E90C00EC
:10A6240048BF40F8042D890028BF20F8022D48BFF8
:10A6340000F8012D30BC7047C91818BF00F8012D6F
:10A64400CB0728BF00F8012D704700002DE9F8431F
:10A654005FF00008002441F6CA75DFF82861320073
:10A6640036212800FFF733FD07003800C0B2002868
:10A6740010D05FF000085FF0000934213000FFF7CC
:10A6840041FEB18E02000B0092B29BB29A4201D0FD
:10A6940000221700320036214FF4F050FFF717FD67
:10A6A40080464046C0B200280FD000245FF0000965
:10A6B40034213000FFF726FEB18E02000B0092B267
:10A6C4009BB29A4201D00022904658EA0700C0B2D9
:10A6D40000280FD136240025B1462A00210048461F
:10A6E400FFF780FF0120F0804AF6AA20B08000F036
:10A6F4002AF826E03800C0B201280FD14046C0B283
:10A7040000280BD1320036212800FFF7E0FC32008C
:10A7140036214FF4F050FFF7A1FD12E03800C0B22B
:10A7240000280ED14046C0B201280AD13200362199
:10A734004FF4F050FFF7CBFC320036212800FFF72E
:10A744008DFDBDE8F18338B500240E4D0020A886A8
:10A7540034212800FFF7D6FDA8862A00362141F6C9
:10A76400CA70FFF77BFD012809D12A0036214FF476
:10A77400F050FFF773FD012801D1012004002000EF
:10A78400C0B232BDF85C002062B38B0708D0521E01
:10A7940011F8013B00F8013B00F024808B07F6D14F
:10A7A400830740F0208000BF103A07D330B4B1E8EB
:10A7B4003810103AA0E83810F9D230BC530724BF3F
:10A7C400B1E80810A0E8081044BF51F8043B40F871
:10A7D400043BD20724BF31F8022B20F8022B44BFDC
:10A7E4000B7803707047121F17D35B0009D151F81F
:10A7F400043B20F8023B1B0C121F20F8023BF6D24C
:10A804000BE051F8043B00F8013B1B0A20F8023B23
:10A814001B0C121F00F8013BF3D238BF121D521E4D
:10A8240024BF11F8013B00F8013BF8D87047000041
:10A834000300002013F0030F09D0521E22BF13F8A7
:10A84400010B11F801CBB0EB0C00F3D0704711F001
:10A85400030F14D1121F22BF53F8040B51F804CB79
:10A864006045F7D0121D0AD200BA9CFA8CFCB0EBFA
:10A874000C0038BF6FF0000088BF01207047521EE3
:10A8840022BF13F8010B11F801CBB0EB0C00F6D08A
:10A89400521C08BF104670472DE9F84F04000D0004
:10A8A40000208DF800005FF4E13000F0CBFE0120C1
:10A8B40000F02FFFDFF8006616F50E7B40215846A6
:10A8C40000F03EFF16F114094FF40871484600F0F9
:10A8D40089FF002030700020B0700020307100200B
:10A8E400B0604FF409775FF00008424639004846EB
