:020000040800F2
:10400000F06100208908010859FA00085BFA0008ED
:104010005DFA00085FFA000861FA0008000000007D
:1040200000000000000000000000000063FA00082B
:1040300065FA00080000000067FA000869FA000845
:10404000950A0108990A01089D0A010809FB000860
:10405000A10A0108A50A0108A90A0108AD0A010878
:10406000B10A0108B50A0108B90A0108BD0A010828
:1040700011FC0008EBFB0008C10A0108C50A010891
:104080006FFB000895FB0008ADFC0008C90A010899
:10409000CD0A0108D10A0108D50A0108D90A010888
:1040A000DD0A0108E10A0108E50A0108E90A010838
:1040B000ED0A0108F10A0108F50A0108F90A0108E8
:1040C000FD0A0108010B0108050B0108090B010895
:1040D0000D0B0108D3FA000833FB0008AFFB000802
:1040E000110B0108150B0108190B01081D0B010824
:1040F000210B0108250B0108290B01082D0B0108D4
:10410000310B0108350B0108390B01083D0B010883
:104110000DFD000851FC0008410B0108450B01088A
:10412000490B01084D0B0108AFFC0008D5FC000845
:1041300030B4002513E050F8042BD30744BFA9F195
:1041400001039A18091F042942F8045BFAD21346A6
:104150008C0744BF15809B1CC90748BF1D7050F8D1
:10416000041B0029E7D130BC7047B1F5807F02D332
:104170004FF0FF3070470170012070470078401EFB
:104180008041C043C00F70470268531C0360117028
:1041900070472E0012000130010101000131077348
:1041A00001000120020102030404F00908060708C7
:1041B000090204060816A8000452FF01E392411404
:1041C00020040000CE96000857F003162C000020B3
:0D41D0000001127D48212C436B413C210170
:1050000020534D3530303120323330363038303265
:105010002047323330323030000000000000000002
:105020000000000000000000000000000000000080
:0250300000007E
:1050340080B500F00CF800F0BAF801BD4FF4C0419F
:105044004843401C0100481E0029FBD170472DE94C
:10505400F84300260027DFF8C04822004FF48E7181
:10506400002003F07FFB05002800C0B200280DD00B
:1050740000265FF000084FF48C71200003F08EFCD2
:10508400D4F81811884201D00022150022004FF4F0
:105094008E714FF4007003F065FB06003000C0B25F
:1050A40000280DD000275FF000084FF48C71200019
:1050B40003F074FCD4F81811884201D000221600C1
:1050C40056EA0500C0B2002838D14FF48E775FF05D
:1050D4000008A14642463900484603F0CFFD0120AE
:1050E400A4F810010520A4F814010620A4F8120164
:1050F4005020A4F8FA001E20A4F8FC005F20A4F8B5
:10510400FE000A20A4F800015A20A4F802014FF47A
:105114001670A4F80401A4F8060140F2B220A4F821
:1051240008014FF47A71A4F80A11A4F80C014FF4A1
:105134002F70A4F80E0100F0AFF82AE02800C0B2E6
:10514400012811D13000C0B200280DD122004FF443
:105154008E71002003F006FB22004FF48E714FF491
:10516400007003F0C6FB14E02800C0B2002810D180
:105174003000C0B201280CD122004FF48E714FF4DC
:10518400007003F0EFFA22004FF48E71002003F058
:10519400B0FB03F0A7FD45F25550DFF880170A88ED
:1051A400824202D0088003F011FEBDE8F1832DE9AC
:1051B400F84300270024DFF868572A00B4214FF48D
:1051C400806003F0CFFA06003000C0B200280CD093
:1051D40000275FF00008B021280003F0DFFBD5F8BA
:1051E400B010884201D0002216002A00B4214FF4E6
:1051F400C06003F0B7FA07003800C0B200280CD032
:1052040000245FF00008B021280003F0C7FBD5F8A4
:10521400B010884201D00022170057EA0600C0B23D
:1052240000280ED16324DFF8FC8615F10109220061
:105234004146484603F0ECFD6320287000F04AF82C
:1052440028E03000C0B2012810D13800C0B20028D4
:105254000CD12A00B4214FF4806003F083FA2A00B1
:10526400B4214FF4C06003F044FB13E03000C0B23B
:1052740000280FD13800C0B201280BD12A00B42174
:105284004FF4C06003F06EFA2A00B4214FF480603A
:1052940003F02FFBBDE8F18370B50024DFF87866D6
:1052A4000020C6F818014FF48C71300003F076FB2F
:1052B400C6F8180132004FF48E71002003F019FB78
:1052C400050032004FF48E714FF4007003F011FBAF
:1052D400C0B270BD70B50024DFF844660020C6F883
:1052E400B000B021300003F059FBC6F8B000320022
:1052F400B4214FF4806003F0FCFA05003200B421BD
:105304004FF4C06003F0F5FAC0B270BD2DE9F84F58
:1053140005000E00170000245FF000081F20210084
:1053240089B239448870641C3000C0B2F1281BDB98
:10533400200080B238448670641C0020210089B2A9
:1053440039448870641CB1465FFA89F9AA46200082
:1053540080B2384410F1020B4A465146584603F0D5
:1053640057FD54FA86F438E041F22340385C0028B3
:105374000ED1B1465FFA89F9AA46200080B23844BA
:1053840010F1020B4A465146584603F041FD0EE027
:10539400B1465FFA89F95FF0000A200080B2384410
:1053A40010F1020B52464946584603F067FC54FA82
:1053B40086F441F22440385C210089B23944887073
:1053C400641C0020210089B239448870641C0020C8
:1053D400210089B239448870641C210089B2B81C48
:1053E40003F0DCFA0100200080B238448170641CB0
:1053F400080080B2000A220092B23A449070641C01
:105404003C80200080B2BDE8F28F70B50400002615
:1054140000251F20310089B26054761CDFF8F00E9D
:1054240090F8E812320092B2A154761C90F8E90286
:10543400310089B26054761C0020310089B2605476
:10544400761C0020310089B26054761C310089B288
:10545400200003F0A3FA0100300080B22154761C2E
:10546400080080B2000A320092B2A054761C3000C8
:1054740080B270BD70B50400002600251F203100E5
:1054840089B26054761CDFF8880E90F8E01232007E
:1054940092B2A154761C90F8E102310089B26054B2
:1054A400761C0020310089B26054761C0020310043
:1054B40089B26054761C310089B2200003F06EFA80
:1054C4000100300080B22154761C080080B2000A2A
:1054D400320092B2A054761C300080B270BD2DE927
:1054E400F84F05000E00170098460A9CDDF82C9032
:1054F4005FF0000B5FF0000A1F20594689B2685420
:105504001BF1010B3000C0B2FF281BD14846000E2E
:10551400594689B268541BF1010B4846000C5946A0
:1055240089B268541BF1010B4846000A594689B2F6
:1055340068541BF1010B584680B205F800901BF12A
:10554400010B15E00020594689B268541BF1010B88
:10555400584680B22F541BF1010B584680B205F80F
:1055640000801BF1010B584680B22C541BF1010B37
:105574000020594689B268541BF1010B002059469A
:1055840089B268541BF1010B594689B2280003F013
:1055940005FA0100584680B229541BF1010B08009A
:1055A40080B2000A5A4692B2A8541BF1010B584625
:1055B40080B2BDE8F28FF8B504000D000027002684
:1055C4001F20390089B2214488707F1C2800C0B292
:1055D4003B2810D1DFF8380D90F8E0123A0092B26F
:1055E400224491707F1C90F8E102390089B2214471
:1055F40088707F1C13E02800C0B23A280FD1DFF86E
:10560400100D90F8E8123A0092B2224491707F1C77
:1056140090F8E902390089B2214488707F1C002087
:10562400390089B2214488707F1C0020390089B276
:10563400214488707F1C390089B2A01C03F0AEF9A4
:105644000100380080B2204481707F1C080080B2C1
:10565400000A3A0092B2224490707F1C27803800DE
:1056640080B2F2BD2DE9F84F04000D0016005FF082
:10567400000A00271F20514689B2214488701AF17C
:10568400010AB0465FFA88F8A946504680B2204421
:1056940010F1020B42464946584603F0B9FB5AFA48
:1056A40086FA0020514689B2214488701AF1010A11
:1056B4000020514689B2214488701AF1010A5146EA
:1056C40089B2A01C03F06AF90100504680B220445C
:1056D40081701AF1010A080080B2000A524692B29F
:1056E400224490701AF1010AA4F800A0504680B236
:1056F400BDE8F28F70B50400002600251F2031009C
:1057040089B221448870761C8348B0F810113200A5
:1057140092B222449170761CB0F81411320092B205
:1057240022449170761CB0F81211320092B22244D5
:105734009170761C90F8F010320092B2224491706D
:10574400761CB0F8F21089B2090A320092B22244EF
:105754009170761CB0F8F210320092B2224491702B
:10576400761CB0F8FA1089B2090A320092B22244C7
:105774009170761CB0F8FA10320092B22244917003
:10578400761CB0F8FC1089B2090A320092B22244A5
:105794009170761CB0F8FC10320092B222449170E1
:1057A400761CB0F8FE1089B2090A320092B2224483
:1057B4009170761CB0F8FE10320092B222449170BF
:1057C400761CB0F8001189B2090A320092B2224460
:1057D4009170761CB0F80011320092B2224491709C
:1057E400761CB0F8021189B2090A320092B222443E
:1057F4009170761CB0F80211320092B2224491707A
:10580400761CB0F8041189B2090A320092B222441B
:105814009170761CB0F80411320092B22244917057
:10582400761CB0F8061189B2090A320092B22244F9
:105834009170761CB0F80611320092B22244917035
:10584400761CB0F8081189B2090A320092B22244D7
:105854009170761CB0F80811320092B22244917013
:10586400761CB0F80A1189B2090A320092B22244B5
:105874009170761CB0F80A11320092B222449170F1
:10588400761CB0F80C1189B2090A320092B2224493
:105894009170761CB0F80C11320092B222449170CF
:1058A400761CB0F80E1189B2090A320092B2224471
:1058B4009170761CB0F80E01310089B221448870D1
:1058C400761C41F22440205C310089B22144887066
:1058D400761C0020310089B221448870761C002097
:1058E400310089B221448870761C310089B2A01C31
:1058F40003F054F80100300080B220448170761C1B
:10590400080080B2000A320092B222449070761CE1
:105914002680300080B270BD804B0020BC4F002038
:105924009C4D0020C00101082DE9F34F83B0050010
:10593400160000240020ADF8080000275FF00008DE
:105944001F20210089B231448870641C9DF8100026
:10595400002840F0C2822800C0B20D2880F29B8447
:105964005FF08409DFF8BCAA2800C0B209FB00F08C
:105974005044407F210089B231448870641C28005F
:10598400C0B209FB00F05044807FC0F3C00128007E
:10599400C0B209FB00F05044807FC0F38000800057
:1059A40050EAC1002900C9B209FB01F15144897FC1
:1059B400C1F3400150EA41002900C9B209FB01F1D9
:1059C4005144897F11F001010843210089B2314417
:1059D4008870641C2800C0B209FB00F0504490F8A1
:1059E4002000210089B231448870641C2800C0B2B0
:1059F40009FB00F05044408C80B2000A210089B2B7
:105A040031448870641C2800C0B209FB00F0504483
:105A1400408C210089B231448870641C2800C0B2D3
:105A240009FB00F05044808C80B2000A210089B246
:105A340031448870641C2800C0B209FB00F0504453
:105A4400808C210089B231448870641C0620019046
:105A54002800C0B209FB00F050442630009020001A
:105A640080B2304410F1020B019A0099584603F0B9
:105A7400CFF9A41D2800C0B209FB00F05044808D6A
:105A840080B2000A210089B231448870641C280065
:105A9400C0B209FB00F05044808D210089B231442A
:105AA4008870641C2800C0B209FB00F0504490F8D0
:105AB4002E00210089B231448870641C2800C0B2D1
:105AC40009FB00F05044008E80B2000A210089B224
:105AD40031448870641C2800C0B209FB00F05044B3
:105AE400008E210089B231448870641C2800C0B241
:105AF40009FB00F0504490F83200210089B231448F
:105B04008870641C2800C0B209FB00F05044808EE9
:105B140080B2000A210089B231448870641C2800D4
:105B2400C0B209FB00F05044808E210089B2314498
:105B34008870641C2800C0B209FB00F05044C08E79
:105B440080B2000A210089B231448870641C2800A4
:105B5400C0B209FB00F05044C08E210089B2314428
:105B64008870641C2800C0B209FB00F05044008F08
:105B740080B2000A210089B231448870641C280074
:105B8400C0B209FB00F05044008F210089B23144B7
:105B94008870641C2800C0B209FB00F05044408F98
:105BA40080B2000A210089B231448870641C280044
:105BB400C0B209FB00F05044408F210089B2314447
:105BC4008870641C2800C0B209FB00F0504490F8AF
:105BD4003C00210089B231448870641C2800C0B2A2
:105BE40009FB00F0504490F83D00210089B2314493
:105BF4008870641C2800C0B209FB00F0504490F87F
:105C04003E00210089B231448870641C2800C0B26F
:105C140009FB00F0504490F83F00210089B2314460
:105C24008870641C2800C0B209FB00F0504490F84E
:105C34004000210089B231448870641C2800C0B23D
:105C440009FB00F0504490F84100210089B231442E
:105C54008870641C2800C0B209FB00F0504490F81E
:105C64004200210089B231448870641C00208046BF
:105C74004046C0B2142824DA2800C0B209FB00F060
:105C840050444146C9B200EB4100B0F8440080B230
:105C9400000A210089B231448870641C2800C0B213
:105CA40009FB00F050444146C9B200EB4100B0F892
:105CB4004400210089B231448870641C18F1010841
:105CC400D6E72800C0B209FB00F0504490F86C00FD
:105CD400210089B231448870641C0420019028009A
:105CE400C0B209FB00F050446D300090200080B237
:105CF400304410F1020B019A0099584603F088F8D9
:105D0400241D2800C0B209FB00F05044B0F8720012
:105D140080B2000A210089B231448870641C2800D2
:105D2400C0B209FB00F05044B0F87200210089B2FF
:105D340031448870641C2800C0B209FB00F0504450
:105D4400B0F8740080B2000A210089B2314488702E
:105D5400641C2800C0B209FB00F05044B0F8740081
:105D6400210089B231448870641C2800C0B209FB48
:105D740000F05044B0F8760080B2000A210089B2E5
:105D840031448870641C2800C0B209FB00F0504400
:105D9400B0F87600210089B231448870641C280070
:105DA400C0B209FB00F05044B0F8780080B2000A99
:105DB400210089B231448870641C2800C0B209FBF8
:105DC40000F05044B0F87800210089B23144887062
:105DD400641C2800C0B209FB00F05044B0F87A00FB
:105DE40080B2000A210089B231448870641C280002
:105DF400C0B209FB00F05044B0F87A00210089B227
:105E040031448870641C2800C0B209FB00F050447F
:105E1400B0F87C0080B2000A210089B23144887055
:105E2400641C2800C0B209FB00F05044B0F87C00A8
:105E3400210089B231448870641C2800C0B209FB77
:105E440000F05044B0F87E0080B2000A210089B20C
:105E540031448870641C2800C0B209FB00F050442F
:105E6400B0F87E00210089B231448870641C280097
:105E7400C0B209FB00F05044B0F8800080B2000AC0
:105E8400210089B231448870641C2800C0B209FB27
:105E940000F05044B0F88000210089B23144887089
:105EA400641C2800C0B209FB00F05044B0F8820022
:105EB40080B2000A210089B231448870641C280031
:105EC400C0B209FB00F90AEB0900B0F88200210016
:105ED40089B231448870641CDDE100200700380079
:105EE400C0B20C2880F2D781781C210089B23144D9
:105EF4008870641C5FF08409DFF828A53800C0B2FC
:105F040009FB00F05044407F210089B2314488707D
:105F1400641C3800C0B209FB00F05044807FC0F319
:105F2400C0013800C0B209FB00F05044807FC0F3C8
:105F34008000800050EAC1003900C9B209FB01F1B8
:105F44005144897FC1F3400150EA41003900C9B28C
:105F540009FB01F15144897F11F00101084321003B
:105F640089B231448870641C3800C0B209FB00F067
:105F7400504490F82000210089B231448870641C98
:105F8400062001903800C0B209FB00F050442630CE
:105F94000090200080B2304410F1020B019A009965
:105FA400584602F035FFA41D3800C0B209FB00F0CA
:105FB4005044808D80B2000A210089B23144887037
:105FC400641C3800C0B209FB00F05044808D2100ED
:105FD40089B231448870641C3800C0B209FB00F0F7
:105FE400504490F82E00210089B231448870641C1A
:105FF4003800C0B209FB00F05044008E80B2000AA1
:10600400210089B231448870641C3800C0B209FB95
:1060140000F05044008E210089B231448870641C21
:106024003800C0B209FB00F0504490F8320021005F
:1060340089B231448870641C3800C0B209FB00F096
:106044005044008F80B2000A210089B23144887024
:10605400641C3800C0B209FB00F05044008F2100DA
:1060640089B231448870641C3800C0B209FB00F066
:106074005044408F80B2000A210089B231448870B4
:10608400641C3800C0B209FB00F05044408F21006A
:1060940089B231448870641C3800C0B209FB00F036
:1060A400504490F83C00210089B231448870641C4B
:1060B4003800C0B209FB00F0504490F83D002100C4
:1060C40089B231448870641C3800C0B209FB00F006
:1060D400504490F83E00210089B231448870641C19
:1060E4003800C0B209FB00F0504490F83F00210092
:1060F40089B231448870641C3800C0B209FB00F0D6
:10610400504490F84000210089B231448870641CE6
:106114003800C0B209FB00F0504490F8410021005F
:1061240089B231448870641C3800C0B209FB00F0A5
:10613400504490F84200210089B231448870641CB4
:106144003800C0B209FB00F0504490F86C00210004
:1061540089B231448870641C3800C0B209FB00F075
:106164005044B0F8780080B2000A210089B231446A
:106174008870641C3800C0B209FB00F05044B0F8C9
:106184007800210089B231448870641C3800C0B2A0
:1061940009FB00F05044B0F87A0080B2000A2100F4
:1061A40089B231448870641C3800C0B209FB00F025
:1061B4005044B0F87A00210089B231448870641CDC
:1061C4003800C0B209FB00F05044B0F87C0080B243
:1061D400000A210089B231448870641C3800C0B2BE
:1061E40009FB00F05044B0F87C00210089B231442E
:1061F4008870641C3800C0B209FB00F05044B0F849
:106204007E0080B2000A210089B231448870641C87
:106214003800C0B209FB00F05044B0F87E00210001
:1062240089B231448870641C3800C0B209FB00F0A4
:106234005044B0F8800080B2000A210089B2314491
:106244008870641C3800C0B209FB00F05044B0F8F8
:106254008000210089B231448870641C3800C0B2C7
:1062640009FB00F05044B0F8820080B2000A21001B
:1062740089B231448870641C3800C0B209FB00F94B
:106284000AEB0900B0F88200210089B23144887019
:10629400641C7F1C23E60020210089B231448870ED
:1062A400641C0020210089B231448870641C2100E0
:1062B40089B2B01C02F072FB0100200080B23044AD
:1062C4008170641C080080B2000A220092B2324439
:1062D4009070641C3480200080B205B0BDE8F08F5B
:1062E4001CB5042100226C46200002F0C7FC0320E8
:1062F4008DF8020004208DF80300DFF81C07818864
:10630400ADF800106946006802F0D6FD13BD000028
:10631400084200202DE9F74F82B004005FF0000826
:1063240000200021002500260027424692B2A25CEC
:106334008DF8002018F101085FF0000948469DF827
:106344000010C0B2884269D2404680B220440600A0
:10635400049800794000B178401805005FF0840A81
:10636400DFF8C0B02800C0B20AFB00F058441A306D
:1063740007002800C0B20AFB00F05844007A002845
:106384000ED02800C0B20AFB00F05844002101726C
:1063940001202900C9B20AFB01FA0BF80A002FE018
:1063A4000122391D301D02F043FE002809D1B079C5
:1063B400B979884205D196F8520097F8521088426C
:1063C40007D001202900C9B20AFB01FA0BF80A0020
:1063D40016E02800C0B20AFB00F058444068DFF819
:1063E4003C16B1F814114018DFF8341609688842D5
:1063F40006D201202900C9B20AFB01FA0BF80A00EF
:106404005FF06A0A0196BB4652460199584602F06B
:10641400FFFC18F16A0819F101098FE705B0BDE81E
:10642400F08F0000D83B00202DE9F44F88B0040021
:106434000D00002600275FF000080020B4F80310C8
:10644400ADF80010BDF800102A79521C914240F0BA
:106454009382207A95F89412884240F08D8201202C
:106464000600A078002805D114F10C00070060890B
:10647400804605E014F10A000700A0780B38804636
:1064840095F89402362800F04B82372812D0382829
:1064940017D039283FD03A2864D03B2800F02A810D
:1064A4003C2800F0EC813D2800F03982F72800F008
:1064B400208161E22A00414689B23800FFF72AFFB1
:1064C4005AE241F22840DFF8341D0A5832F0020241
:1064D4000A50DFF82C0D90F89602C0071AD4DFF8A2
:1064E400240D017800EB81016422C1F844260121C6
:1064F4000278024482F8221605210278024482F8C6
:1065040026100178491C0170D0F8C81651F02001FA
:10651400C0F8C81630E241F22840DFF8E01C0A58FF
:1065240032F002020A50002085F89D02DFF8D40CF4
:10653400017800EB81016422C1F84426012102782C
:10654400024482F8221605210278024482F82610B9
:106554000178491C0170D0F8C81651F02001C0F828
:10656400C81609E2404680B2022840F0BC8041F2DD
:106574002840DFF8889C19F8001049072FD539788E
:1065840085F8E812797885F8E91259F8001031F0A5
:10659400040149F80010022068713A214846FFF7C7
:1065A4000AF8A9F80000DFF85C0C017800EB81011F
:1065B4006422C1F8442601210278024482F822169A
:1065C40005210278024482F826100178491C0170E2
:1065D400D0F8C81651F02001C0F8C81677E0387812
:1065E400002835D101200600DFF834040068C5F81E
:1065F400EC02387885F8E802787885F8E902012019
:106604006871DFF8049C19F10400FEF7FEFE89F8B6
:106614000100DFF8F00B017800EB81016422C1F87E
:10662400442601210278024482F8221602210278CB
:10663400024482F826100178491C0170D0F8C8166B
:1066440051F02001C0F8C816002085F89D023EE0F4
:1066540095F8E8023978884204D195F8E902797806
:1066640088422FD0DFF8B8030068C5F8EC02387808
:1066740085F8E802787885F8E90202206871DFF885
:10668400889B19F10400FEF7C0FE89F80100DFF8C9
:10669400740B017800EB81016422C1F844260121C6
:1066A4000278024482F8221602210278024482F817
:1066B40026100178491C0170D0F8C81651F0200149
:1066C400C0F8C81600200600D5480068A86095F8F0
:1066D400E93295F8E8220121DFF8240BC07880B272
:1066E40001F092F904E000200600CD480068A8609B
:1066F40042E141E1404680B2022840F0BA8041F2D2
:106704002840DFF8F89A19F8001009072FD53978CE
:1067140085F8E012797885F8E11259F8001031F023
:10672400080149F80010022068713B214846FEF731
:1067340042FFA9F80000DFF8CC0A017800EB8101E0
:106744006422C1F8442601210278024482F8221608
:1067540005210278024482F826100178491C017050
:10676400D0F8C81651F02001C0F8C81675E0387882
:10677400002834D101200600002085F89D023878D5
:1067840085F8E002787885F8E102A5480068C5F844
:10679400E40201206871DFF8709A19F12400FEF711
:1067A40069FE89F80200DFF85C0A017800EB8101D8
:1067B4006422C1F8442601210278024482F8221698
:1067C40003210278024482F826100178491C0170E2
:1067D400D0F8C81651F02001C0F8C8163DE095F86D
:1067E400E0023978884204D195F8E1027978884248
:1067F4002ED08B480068C5F8E402387885F8E002AA
:10680400787885F8E10202206871DFF8FC9919F1C3
:106814002400FEF72FFE89F80200DFF8E80901786A
:1068240000EB81016422C1F844260121027802446C
:1068340082F8221603210278024482F82610017895
:10684400491C0170D0F8C81651F02001C0F8C816D0
:106854000020060072480068A86095F8E13295F8B7
:10686400E0220221DFF89809C07880B201F0CCF868
:1068740004E0002006006A480068A8607CE0404606
:1068840080B200284AD0082007900697DFF8949138
:10689400BDF800104FF48470414309EB0100B0F1DE
:1068A400FF0A079A0699504602F0B2FA08200590AA
:1068B40004975FF0840ABDF8000040000AFB00F072
:1068C4004844B0F17B0B059A0499584602F0A0FAAB
:1068D4000820039017F108000290BDF800104FF44F
:1068E4008470414309EB0100B0F1F70B039A02995C
:1068F400584602F08DFA5FF0080B17F1080001907A
:10690400BDF8000040000AFB00FA09EB0A00B0F1F0
:1069140073095A460199484602F07AFA2CE02BE0B2
:1069240041F22840DFF8D49859F8001031F0020100
:1069340049F80010012239004846FEF793FEA9F8F1
:106944000000DFF8C008017800EB81016422C1F87F
:10695400442601210278024482F822160521027895
:10696400024482F826100178491C0170D0F8C81638
:1069740051F02001C0F8C8163000C0B209B0BDE81B
:10698400F08F2DE9F84F04000D00160000210020BF
:10699400277A85F84870002285F84520002285F87A
:1069A400462000222A75B6F10B083A00D2B2302AEA
:1069B40004D0522A22D0532A21D020E04046C0B22B
:1069C40000281AD0082214F11401281D02F030FB0B
:1069D40000280AD05FF0080914F1140A15F1040B19
:1069E4004A465146584602F013FADFF8480C002193
:1069F40080F86010012180F84C1000E0FFE7287D4A
:106A0400002805D1012085F84500022085F84600BC
:106A1400287D80B2BDE8F28F64090108804B002014
:106A2400D04F0020D83B00202DE9F64F85B004005C
:106A34000D001E005FF0000800208DF80200002009
:106A4400ADF8040000208DF80100DFF8B0770020D5
:106A5400388041F230495FF0000ABB46524649464D
:106A6400584602F00BF9DFF8D00B40798DF800009E
:106A74009DF800001F2802D160788DF800009DF871
:106A8400000041F226417854002041F22341785419
:106A940041F22448002007F8080020788DF801000E
:106AA400BDF818909DF80000042823D0212800F098
:106AB400C68023286AD0242800F06E83362800F08C
:106AC400F882372800F04C83382800F0CF8039282A
:106AD40000F058813A2800F0E1813B2800F03C8224
:106AE400F42800F09680F52839D0F7281FD0F8282C
:106AF40029D06AE3484680B2002817D12800C0B2E2
:106B0400FF280AD13A0000210020FEF7FFFB38805D
:106B1400012041F22341785402E0032007F80800E1
:106B24003A0000210020FEF7F1FB38804DE348468F
:106B340080B2142806D13A003221DFF8000BFEF7A8
:106B4400E5FB388041E3484680B2002806D13A008C
:106B54000C21DFF8EC0AFEF7D9FB388035E3484610
:106B640080B2002811D12800C0B2FF2804D1380017
:106B7400FEF7C0FD388008E0032007F808003A005B
:106B840000210020FEF7C2FB38801EE3484680B295
:106B940000283DD12800C0B2FF282AD10120DFF807
:106BA400601681F89602DFF89C0A002181730021A7
:106BB40041730F21427B024482F86510417B00EB54
:106BC40081014FF4C872C1F8A8200221427B02441B
:106BD40051740121427B024482F885100421427BD6
:106BE400024482F83110417B491C41730421017035
:106BF40008E0032007F808003A0000210020FEF70F
:106C040085FB38803A0000210020FEF77FFB3880A6
:106C1400DBE2484680B220280AD12800C0B2FF280F
:106C240003D1200000F0F2FA02E0032007F8080084
:106C34003A0000210020FEF769FB3880C5E248468F
:106C440080B2052811D12800C0B2FF2804D19DF8D4
:106C5400010000F060FC02E0032007F808003A009D
:106C640000210020FEF752FB3880AEE2484680B295
:106C7400052840F0868041F22840395851F002013D
:106C840039502800C0B2FF2851D02800C0B20028D3
:106C94004DD0207810F0030F02D12078002821D1A4
:106CA400DFF85C050321017003218170382180F82D
:106CB40094122900C9B2491E49100171022180F8B9
:106CC4009E122900C9B2491C022291FBF2F302FB75
:106CD400131180F89F12217880F8A012310002F07D
:106CE400C9FB48E0DFF81805032101700321817016
:106CF400382180F894122900C9B2491E4910017143
:106D0400022180F89E122900C9B2491C022291FB7B
:106D1400F2F302FB131180F89F12217880F8A0127D
:106D2400310002F0A7FB022007F8080023E0DFF897
:106D3400D0040321017003218170382180F894125A
:106D44002900C9B2491E49100171022180F89E121E
:106D54002900C9B2491C022291FBF2F302FB131170
:106D640080F89F12217880F8A012310002F082FB93
:106D7400032007F808003A0000210020FEF7C6FAB5
:106D8400388022E2484680B2052840F0868041F2ED
:106D94002840395851F0020139502800C0B2FF2868
:106DA40051D02800C0B200284DD0207810F0030F35
:106DB40002D12078002821D1DFF844040321017096
:106DC40003218170392180F894122900C9B2491E27
:106DD40049100171022180F89E122900C9B2491C90
:106DE400022291FBF2F302FB131180F89F12217827
:106DF40080F8A012310002F03DFB48E0DFF8000407
:106E04000321017003218170392180F89412290033
:106E1400C9B2491E49100171022180F89E1229004D
:106E2400C9B2491C022291FBF2F302FB131180F850
:106E34009F12217880F8A012310002F01BFB02207F
:106E440007F8080023E0DFF8B803032101700321E9
:106E54008170392180F894122900C9B2491E491061
:106E64000171022180F89E122900C9B2491C022234
:106E740091FBF2F302FB131180F89F12217880F842
:106E8400A012310002F0F6FA032007F808003A00D5
:106E940000210020FEF73AFA388096E1484680B295
:106EA4000A2858D141F22840395851F00401395088
:106EB4002800C0B2FF2841D02800C0B200283DD02D
:106EC400DFF83CA39AF8050002283ED0681E8AF831
:106ED400030003208AF8020003208AF800003A2005
:106EE4008AF894022800C0B2401E40108AF80400B8
:106EF4002800C0B2401C022190FBF1F201FB1200F9
:106F04008AF89F0207208AF89E02062004900394C0
:106F14001AF5287B049A0399584601F079FF062054
:106F240002900194DFF8D4BA029A0199584601F00C
:106F34006FFF3100504602F09DFA06E03100B04880
:106F440002F098FA032007F808003A000021002014
:106F5400FEF7DCF9388038E1484680B20A2840F070
:106F6400A78041F22840395851F0080139502800CF
:106F7400C0B2FF2800F08F802800C0B2002800F0C3
:106F84008A800020002100221000C0B20C281FDAE1
:106F94008423DFF86CCA1000C0B25843604490F8F0
:106FA4002600002812D01000C0B25843604490F864
:106FB400270000280AD01000C0B203FB00F30CEB3A
:106FC400030090F82B00002800D0491C521CDBE77A
:106FD400C9B2002939D0DFF828A2681E8AF8030054
:106FE40003208AF8020003208AF800003B208AF874
:106FF40094022800C0B2401E40108AF80400280001
:10700400C0B2401C022190FBF1F201FB12008AF88D
:107014009F0207208AF89E020620049003941AF522
:10702400287B049A0399584601F0F2FE0620029048
:107034000194DFF8D0B9029A0199584601F0E8FEAC
:107044003100504602F016FA2CE0DFF8F805002172
:107054008173002141730F21427B024482F8651041
:10706400417B00EB81014FF4C862C1F8A8200121E3
:10707400427B024451740121427B024482F8851010
:107084000321427B024482F83110417B491C417345
:107094000421017006E03100594802F0EBF90320A5
:1070A40007F808003A0000210020FEF72FF9388085
:1070B4008BE0484680B20B2851D141F22840395820
:1070C40051F0020139502800C0B2FF283AD02800FC
:1070D400C0B2002836D0DFF828A19AF805000228AB
:1070E40037D0681E8AF8030003208AF802000320C0
:1070F4008AF8000036208AF894022800C0B2401EA4
:1071040040108AF804002800C0B2401C022190FB01
:10711400F1F201FB12008AF89F0260788AF8A0025B
:1071240008208AF89E020720029001941AF5287B11
:10713400029A0199584601F06BFE3100504602F064
:1071440099F906E031002E4802F094F9032007F87B
:1071540008003A0000210020FEF7D8F8388034E017
:10716400484680B2052816D12078002802D020781D
:10717400FF2807D13A002178681EC0B2FEF7D4FB7D
:10718400388008E0022007F808003A0000210020B7
:10719400FEF7BCF8388018E0484680B20C2814D1B9
:1071A4005FF0080A0194DFF810BD52460199584671
:1071B40001F02EFE002007F80800FEF78BF83A00D5
:1071C40000210020FEF7A2F838803888002810D16A
:1071D4009DF8020000280CD1012041F2234178548B
:1071E400042007F808003A0000210020FEF78EF87A
:1071F4003880388807B0BDE8F08F0000AC0000206C
:10720400084200200C350020504E002070B50400C8
:1072140001250026DFF8A41C3000C0B2205CA1F8D0
:107224001001761C3000C0B2205CA1F81401761C59
:107234003000C0B2205CA1F81201761C3000C0B24C
:10724400205C81F8F000761C3000C0B2205C0002A3
:10725400A1F8F200761CB1F8F2203000C0B2205C34
:107264000243A1F8F220761C3000C0B2205C000278
:10727400A1F8FA00761CB1F8FA203000C0B2205C04
:107284000243A1F8FA20761C3000C0B2205C000250
:10729400A1F8FC00761CB1F8FC203000C0B2205CE0
:1072A4000243A1F8FC20761C3000C0B2205C00022E
:1072B400A1F8FE00761CB1F8FE203000C0B2205CBC
:1072C4000243A1F8FE20761C3000C0B2205C00020C
:1072D400A1F80001761CB1F800213000C0B2205C96
:1072E4000243A1F80021761C3000C0B2205C0002E9
:1072F400A1F80201761CB1F802213000C0B2205C72
:107304000243A1F80221761C3000C0B2205C0002C6
:10731400A1F80401761CB1F804213000C0B2205C4D
:107324000243A1F80421761C3000C0B2205C0002A4
:10733400A1F80601761CB1F806213000C0B2205C29
:107344000243A1F80621761C3000C0B2205C000282
:10735400A1F80801761CB1F808213000C0B2205C05
:107364000243A1F80821761C3000C0B2205C000260
:10737400A1F80A01761CB1F80A213000C0B2205CE1
:107384000243A1F80A21761C3000C0B2205C00023E
:10739400A1F80C01761CB1F80C213000C0B2205CBD
:1073A4000243A1F80C21761C3000C0B2205C00021C
:1073B400A1F80E01761CB1F80E213000C0B2205C99
:1073C4000243A1F80E21761CFDF766FF2800C0B227
:1073D40070BD2DE9F84304000D005FF0000800269D
:1073E400E088052810DB14F19E0002F053F9002810
:1073F4000AD0E08820448789E188891E14F10E00B0
:1074040001F0CCFA060007E0E088002803D1FF2051
:107414000600370000E0FF273800310080B289B24F
:1074240088424DD15FF00008DFF8449C99F8C80603
:1074340010F0810F07D12B00E288217914F10E009E
:10744400FFF7F2FA8046404680B2002861D0DFF8A8
:10745400640B41F22841415C11F00E0F59D199F8A7
:10746400001009EB81016422C1F84426012199F836
:1074740000204A4482F82216052199F800204A4443
:1074840082F8261099F80010491C89F80010D9F8E0
:10749400C81651F02001C9F8C81641F22641415CD2
:1074A400042936D141F22341405C012831D1052021
:1074B400FDF7C4FDDFF8000BDFF8001B086028E0CF
:1074C400DFF8F08A012041F2244108F80100424625
:1074D40000210020FDF71AFFA8F80000DFF8900B48
:1074E400017800EB81016422C1F84426012102786D
:1074F400024482F8221605210278024482F82610FA
:107504000178491C0170D0F8C81651F02001C0F868
:10751400C816BDE8F183C1070BD5DFF8581B8A886C
:1075240009680A61DFF8281C0A6852F040020A6000
:107534000AE0DFF8401B8A8809684A61DFF8101CFA
:107544000A6832F040020A6081070BD5DFF8281B75
:107554008A8809680A61DFF8F81B0A6852F0040295
:107564000A600AE0DFF8101B8A8809684A61DFF8BC
:10757400E01B0A6832F004020A60410705D5DFF80F
:10758400FC1A8A8809680A6104E0DFF8F01A8A881C
:1075940009684A6101070BD5DFF8E41A8A8809688B
:1075A4000A61DFF8AC1B0A6852F080020A600AE044
:1075B400DFF8CC1A8A8809684A61DFF8941B0A68E4
:1075C40032F080020A6070472DE9F043ADF5006D9A
:1075D40081B005000E0017009846DDF820484FF4EE
:1075E400006100220DF10409484601F047FB220026
:1075F40092B2310001A801F028FA01A800902300FA
:107604009BB22A00DFF84C1B404602F05FF840466C
:1076140002F040F80090DFF8403BDFF8402BDFF841
:10762400A81C380002F052F80DF5006D01B0BDE859
:10763400F08300009C4C00205C4A002000500008AD
:10764400E8F7FF1F184900202DE9F34F83B0050028
:1076540000240020ADF8080000271F20210089B273
:107664006854641C0498000E210089B26854641C98
:107674000498000C210089B26854641C0498000A20
:10768400210089B26854641C0498210089B26854AA
:10769400641CFF20210089B26854641CDFF82C0CA0
:1076A4000178220092B2A954641C4178220092B25B
:1076B400A954641C8178220092B2A954641CC17834
:1076C400220092B2A954641C0179220092B2A954F6
:1076D400641C4179220092B2A954641C817922006D
:1076E40092B2A954641CC07910F0F000210089B250
:1076F4006854641C5FF00808DFF8D49B200080B253
:1077040005EB000642464946300001F081FB08348F
:107714005FF0080ADFF8BCBB200080B205EB00066E
:1077240052465946300001F073FB0834DFF8A80BC9
:107734008168090E220092B2A954641C8168090C64
:10774400220092B2A954641C8168090A220092B2F0
:10775400A954641C8068210089B26854641CDFF851
:107764005C07D0F89410220092B2A954641CD0F89B
:10777400E800210089B26854641CDFF8D409807BD6
:10778400210089B26854641C0020210089B2685425
:10779400641C0020210089B26854641C002021006C
:1077A40089B26854641C0020210089B26854641CA6
:1077B4000020210089B26854641C00263000C0B245
:1077C4000C2880F28B80701C210089B26854641CE0
:1077D4008427DFF82C823000C0B2784318F8000008
:1077E40000286CD008200190DFF8880B009020005E
:1077F40080B205EB0009019A0099484601F008FBA4
:1078040008345FF00809DFF870AB200080B205EBA4
:10781400000B4A465146584601F0FAFA0834300043
:10782400C0B278434044407F210089B26854641C4C
:107834003000C0B278434044807FC0F3C0013000C0
:10784400C0B278434044807FC0F38000800050EA97
:10785400C1003100C9B279434144897FC1F3400179
:1078640050EA41003100C9B279434144897F11F0A3
:1078740001010843210089B26854641C3000C0B27D
:107884007843404490F82000210089B26854641C75
:107894003000C0B27843404490F82E00210089B2F1
:1078A4006854641C3000C0B207FB00F708EB070003
:1078B40090F86C00210089B26854641C0CE0152710
:1078C400FF200090200080B205EB0008009A3900E8
:1078D400404601F0D3F91534761C6FE700202100EF
:1078E40089B26854641C0020210089B26854641C65
:1078F400210089B2280001F051F80100200080B273
:107904002954641C080080B2000A220092B2A854D0
:10791400641C200080B205B0BDE8F08F70B5DFF8BC
:107924009C4514F14805DFF8546A31880905090DAE
:10793400280001F0EBFE280001F00FFF14F19C0574
:1079440071880905090D280001F0E0FE280001F006
:1079540004FFD4F894003C2803DAD4F8E8003C2867
:1079640006DBDFF81C0A816851F00101816005E043
:10797400DFF80C0A816849084900816070BDDFF8AE
:10798400D0170A7A12F0030F02D10A7812071CD515
:107994000A7A12F0030F0BD00A78520708D4DFF8E2
:1079A400D8269388126813610A6852F004020A60A8
:1079B4000A78120621D5DFF8C82693881268536125
:1079C4000A6832F080020A6017E00A78120608D4C6
:1079D400DFF8AC269388126813610A6852F08002BB
:1079E4000A600A78520708D5DFF88C269388126853
:1079F40053610A6832F004020A607047AC4F0020F9
:107A0400D83B0020B44F002070B40C00E4B2012C29
:107A140040F0E6801400E4B2002C57D11C00E4B21C
:107A2400002C05D0022C2AD028D3032C4DD06EE193
:107A3400DFF850490025A573002565730F25667B83
:107A4400264486F86550657B04EB85054FF4C866CB
:107A5400C5F8A8600325667B264475740125667BFA
:107A6400264486F885500525667B264486F83150E1
:107A7400657B6D1C65730425257048E147E1DFF8DB
:107A840004490025A573002565730F25667B2644EC
:107A940086F86550657B04EB85054FF4C866C5F828
:107AA400A8600425667B264475740125667B2644FC
:107AB40086F885500325667B264486F83150657B1D
:107AC4006D1C65730425257021E120E11400E4B2E6
:107AD400012C30D11C00E4B2002C02D0012C29D09E
:107AE40015E1DFF8A0480025A573002565730F256F
:107AF400667B264486F86550657B04EB85054FF468
:107B0400C866C5F8A860DFF8905BED786D1C667BED
:107B1400264475740125667B264486F88550012524
:107B2400667B264486F83150657B6D1C657304259D
:107B34002570ECE0EBE01400E4B2022C40F0E780A6
:107B44001C00E4B2012C06D0022C0CD0042C12D060
:107B5400FF2C3DD0DBE0DFF8404B6578022D01D0EF
:107B640002256570D3E0DFF8305B6C78002C01D01F
:107B740000246C70CBE0DFF8204B6578032D26D011
:107B840003256570DFF8FC470025A57300256573A0
:107B94000F25667B264486F86550657B04EB8505D6
:107BA4004FF4C866C5F8A8600925667B2644757439
:107BB4000125667B264486F885500B25667B264482
:107BC40086F83150657B6D1C6573042525709EE035
:107BD400DFF8C45A6C78002C01D000246C7096E055
:107BE4000C00E4B2022C40F092801400E4B2002CA9
:107BF40031D11C00E4B2002C05D0022C29D027D3AB
:107C0400032C27D083E0DFF87C470025A5730025EB
:107C140065730F25667B264486F86550657B04EB07
:107C24008505C826C5F8A8600225667B26447574B8
:107C34000125667B264486F885500425667B264408
:107C440086F83150657B6D1C6573042525705EE0F4
:107C54005DE05CE05BE01400E4B2012C30D11C0078
:107C6400E4B2002C02D0012C29D050E0DFF81447F4
:107C74000025A573002565730F25667B264486F8C9
:107C84006550657B04EB85054FF4C866C5F8A860AC
:107C9400DFF8045AED786D1C667B26447574012563
:107CA400667B264486F885500225667B264486F842
:107CB4003150657B6D1C65730425257027E026E033
:107CC4001400E4B2022C22D11C00E4B2012C06D030
:107CD400022C0CD0042C12D0FF2C11D017E0DFF8AA
:107CE400B8496578012D01D0012565700FE0DFF8F2
:107CF400A8596C78002C01D000246C7007E006E0D1
:107D0400DFF894596C78002C01D000246C7070BC9E
:107D140070472DE9F84FADF5206D05000E001700F2
:107D24005FF000084FF40074210000220DF5006993
:107D3400484600F0A3FF210000220DF5C069484623
:107D440000F09CFF210000220DF58069484600F0F8
:107D540095FF210000220DF50079484600F08EFFC2
:107D6400210000226C46200000F088FFDFF888190B
:107D74000DF5006001F0AAFCDFF880190DF5C06074
:107D840001F0A4FCDFF878190DF5806001F09EFC89
:107D940015F59C72DFF86C1980A801F097FCDFF8E8
:107DA4006819684601F092FC0DF50061300001F09D
:107DB400F1FC002832D0242416F1390915F59C7AF7
:107DC40022004946504601F023F895F840012D2839
:107DD4006AD195F845012D2866D195F84A012D28D8
:107DE40062D195F84F012D285ED1DFF8204901209A
:107DF400E0705FF0800916F1600A15F5AE7B4A4623
:107E04005146584601F004F816F16001200002F0D2
:107E140015FB002848D00120804645E00DF5C061DF
:107E2400300001F0B7FC00280AD001208046002071
:107E3400224981F8F5000220DFF8D018C87033E039
:107E44000DF58061300001F0A5FC002806D000206B
:107E540080460220DFF8B418C87025E080A93000FD
:107E640001F098FC002806D0012080460220DFF8AB
:107E74009C18C87018E06946300001F08BFC00289B
:107E840012D0012080460220DFF88018C8704AF61C
:107E9400AA20DFF87C18088000F098FF0520FDF781
:107EA400CDF84548454908604046C0B20DF5206DFF
:107EB40001B0BDE8F08F0000334E0020804B00205D
:107EC400F8B504000D0000206178214491F8266083
:107ED4003100C9B2012907D069D3032930D01BD39B
:107EE400052954D040D362E0DFF82808016814F172
:107EF4004600FFF7A9FBA080DFF81C78A08800905B
:107F0400DFF818383A0014F146012800FFF75CFB4B
:107F1400380002F06DFC4AE0DFF8FC77DFF8F40784
:107F240000680090DFF87007C378DFF8F0273900A5
:107F3400DFF8EC0700F035F9380002F059FC36E0C0
:107F4400DFF8D477DFF8CC0700680090DFF8480743
:107F5400C378DFF8C8273900DFF8C80700F06AF9EA
:107F6400380002F045FC22E0DFF8BC07DFF8A87710
:107F7400DFF8A017096800910378DFF8A02739001B
:107F8400443000F0ABF9380002F032FC0FE0DFF8C7
:107F94008877084801880091DFF880373A00811C0F
:107FA400DFF8880700F00CF8380002F021FCC4F870
:107FB400C456F1BDAC0000200400FA050CED00E04D
:107FC4002DE9F043ADF5006D85B005000E001700F6
:107FD4009846DDF830484FF4006100220DF1140991
:107FE400484600F04BFE042100220DF110094846DA
:107FF40000F044FE022100220DF10C09484600F075
:108004003DFE00208DF80C0020008DF80D002200AC
:1080140092B2310005A800F018FD022203A904A8B9
:1080240000F013FDDFF8E40605A9029104A901910B
:1080340010F19801009110F1960310F18E02DFF80F
:10804400F016404601F042FB404601F023FB01904C
:1080540015F59C700090404B404ADFF8D816380064
:1080640001F034FB0DF5006D05B0BDE8F0830000B0
:108074000C350020B4090108E4090108AC09010821
:10808400EC0901082DE9F04704000D00002000264A
:108094006178214491F826703900C9B2012907D0CA
:1080A40046D303291ED010D3052935D027D33FE06A
:1080B400AFA1280001F06EFB002805D001200600C6
:1080C400DFF8580602F094FB32E0A9A1280001F081
:1080D40061FB002805D001200600DFF8400602F00D
:1080E40087FB25E0A2A1280001F054FB002805D05D
:1080F40001200600DFF8240602F07AFB18E09CA1B8
:10810400280001F047FB002805D001200600DFF815
:108114000C0602F06DFB0BE095A1280001F03AFB80
:10812400002805D001200600DFF8F00502F060FB0E
:108134004FF400685FF00009DFF8E0A54A464146C5
:10814400504600F09BFD3000C0B2BDE8F08700004F
:108154009C4F002054050108884F00205C09010849
:1081640010B400214278024492F826201300DBB2B6
:108174005B1E042B13D88178002908D10021437891
:10818400034483F822164178491C417007E000211A
:108194004378034483F822164178491C417010BC8B
:1081A40070472DE9F041ADF5006D82B004000D007B
:1081B40016001F004FF4006100220DF1080840462C
:1081C40000F05CFD022100220DF10608404600F09B
:1081D40055FD012100220DF10408404600F04EFD3A
:1081E400781C8DF80400012201A90DF1060000F0AD
:1081F4002CFC0722210002A800F027FC02A8009012
:108204000DF10603DDF82028DFF82C15300001F00D
:108214005DFA300001F03EFA0090DFF82035DFF817
:1082240020252949280001F051FA0DF5006D02B00E
:10823400BDE8F0812DE9F041ADF5006D82B0040098
:108244000D0016001F004FF4006100220DF1080814
:10825400404600F013FD022100220DF106084046BD
:1082640000F00CFD012100220DF10408404600F04D
:1082740005FD781C8DF80400012201A90DF106000A
:1082840000F0E3FB0722210002A800F0DEFB02A8B5
:1082940000900DF10603DDF82028DFF8A814300063
:1082A40001F014FA300001F0F5F90090DFF88C3495
:1082B400DFF88C240449280001F008FA0DF5006D5C
:1082C40002B0BDE8F081000094030108744F00205F
:1082D40098080108A4080108F84400202DE9F04199
:1082E400ADF5006D82B004000D0016001F004FF4C0
:1082F400006100220DF10808404600F0BFFC022195
:1083040000220DF10608404600F0B8FC01210022CD
:108314000DF10408404600F0B1FC781C8DF804000F
:10832400012201A90DF1060000F08FFB09222100B2
:1083340002A800F08AFB02A800900DF10603DDF804
:108344002028DFF80414300001F0C0F9300001F0F7
:10835400A1F90090DFF8E433DFF8E423DFF8EC134D
:10836400280001F0B3F90DF5006D02B0BDE8F0810D
:108374003E000000B0080108BC080108C44F0020FA
:108384009C4F0020184900202DE9FE4F00242000B6
:10839400C0B20C2880F2E780002004002000C0B2A4
:1083A4000C2880F2E080DFF8B0535FF0840ADFF835
:1083B400ACB301222000C0B20AFB00F0584410F113
:1083C4001E012300DBB20320434305EB0300801CA2
:1083D40000F02EFE002825D101222000C0B20AFBA5
:1083E40000F0584410F120012300DBB20320434382
:1083F40005EB030000F01CFE002813D1012220002D
:10840400C0B20AFB00F0584410F16C012300DBB247
:108414000320434305EB0300401C00F009FE002841
:1084240000F09F80012002902000C0B20AFB00F0FF
:10843400584410F11E062100C9B20320414305EB44
:108444000100871C029A3100380000F0E1FC01278A
:108454002000C0B20AFB00F0584410F120082100AB
:10846400C9B20320414305EB01093A00414648469D
:1084740000F0CEFC5FF001092000C0B20AFB00FA54
:108484000BEB0A0010F16C0A2100C9B2032041432E
:1084940005EB010010F1010B4A465146584600F025
:1084A400B7FCDFF884B28BF8004000200190210073
:1084B400C9B20320414305EB01004078009021003C
:1084C400C9B2032041436B5C2100C9B2032041437C
:1084D40005EB01008078C0F3C0012200D2B2032072
:1084E400424305EB02008078C0F38002920052EA16
:1084F400C1022100C9B20320414305EB0100807889
:10850400C0F3400052EA40022100C9B203204143B3
:1085140005EB0100807810F001000243D2B205217E
:108524001BF14400FCF7DBFF8BF80300DFF82402A7
:10853400017800EB81016422C1F84426012102780C
:10854400024482F8221604210278024482F826109A
:108554000178491C0170D0F8C81651F02001C0F808
:10856400C816641C1AE7DFF8E88118F1040704222E
:108574004146380000F05CFD002832D00425464610
:108584002A003100380000F043FCDFF89C71FE2023
:108594003870D8F8040001900020009000230022D5
:1085A400FF2117F14400FCF79AFFF870DFF8A401EB
:1085B400017800EB81016422C1F84426012102788C
:1085C400024482F8221604210278024482F826101A
:1085D4000178491C0170D0F8C81651F02001C0F888
:1085E400C816BDE8F78F2DE9F84F002000242000BD
:1085F400C0B20C2844DA012000908425DFF85C61C5
:108604002000C0B26843304410F11E07DFF84881EF
:108614002100C9B20320414308EB010010F1020913
:10862400009A3900484600F0F3FB5FF0010920008E
:10863400C0B26843304410F1200A2100C9B20320BB
:10864400414308EB010B4A465146584600F0E0FB13
:108654005FF0010B2000C0B205FB00F506EB05003E
:1086640010F16C052100C9B20320414308EB01005D
:10867400461C5A462900300000F0CAFB641CB6E7C9
:108684000425DFF8CC000600071D2A00310038005D
:1086940000F0BEFBBDE8F18F08420020DFF8B00017
:1086A4000078800727D5DFF8B8000178090722D4BD
:1086B40000218173002141730F21427B024482F81F
:1086C4006510417B00EB81014FF41672C1F8A820BC
:1086D4000B21427B024451740121427B024482F803
:1086E40085100D21427B024482F83110417B491CE4
:1086F400417304210170704748080108000801080B
:108704001808010890070108C80801085C4A0020FD
:10871400BC4F0020D04F00200C2500200C2D002041
:10872400544E0020744E0020504E00202C47002050
:10873400CC0301081C03010804040108884F00202D
:108744005C0901083C04010874040108940301084D
:108754009C4F00200C350020504F0020D83B0020B7
:10876400184900202DE9F04104000D0016005FF0C7
:1087740001080027280080B2002860D002F078F8B1
:10878400002801D1002080464046C0B2002808D00D
:10879400A02002F002F902F0DFF8002801D1002045
:1087A40080464046C0B2002808D0200080B2000AAB
:1087B400C0B202F0F2F802F0CFF880464046C0B2F0
:1087C400002806D02000C0B202F0E7F802F0C4F896
:1087D40080464046C0B2002805D002F049F800287F
:1087E40001D1002080464046C0B2002808D0A12014
:1087F40002F0D3F802F0B0F8002801D1002080463E
:108804006D1E4046C0B2002817D000200700380073
:10881400290080B289B2884208D202F0E3F8390014
:1088240089B2705402F068F87F1CF0E702F0DAF8BD
:10883400390089B2705402F077F802F045F84046E6
:10884400C0B2BDE8F0812DE9F04104000D0016002E
:1088540000275FF00108280080B2002842D002F00F
:1088640007F8002801D1002080464046C0B2002805
:1088740008D0A02002F091F802F06EF8002801D18F
:10888400002080464046C0B2002808D0200080B2B4
:10889400000AC0B202F081F802F05EF88046404659
:1088A400C0B2002806D02000C0B202F076F802F070
:1088B40053F88046002007003800290080B289B2AE
:1088C40088420DD24046C0B2002807D0380080B29A
:1088D400305C02F062F802F03FF880467F1CEBE760
:1088E40001F0F2FF052001F0BAFF4046C0B2BDE836
:1088F400F0812DE9F04704000D00160000275FF019
:1089040000085FF0000A200010F01F0F1BD014F0C5
:108914001F00D0F1200007002800390080B289B27E
:10892400884200D22F00404680B206EB0002390094
:1089340089B218EB040080B2FFF785FF8146ED1B76
:1089440017EB080801E05FF001094846C0B20028AF
:108954001FD0280080B200281BD020200700280048
:10896400390080B289B2884200D22F00404680B2DA
:1089740006EB0002390089B218EB040080B2FFF75D
:1089840062FF8146ED1B17EB08084846C0B2002879
:10899400DFD14846C0B2BDE8F087000070B40300E0
:1089A4000022002400264FF6FF7000258D4214D2C9
:1089B4005A5D504000221600082E0CD2C20706D57C
:1089C40080B2020048F2084090EA520001E080B20E
:1089D4004008761CF0E76D1CE8E780B2C04380B223
:1089E40070BC70472DE9F04104000D005FF00008F1
:1089F40000260027002C24D0200000F04BFE0100AC
:108A04004FF6FE7001400020060030000A0080B2DC
:108A140092B2904210D22248320092B2A25C825C9E
:108A2400120133009BB223445B78C05C02431700FD
:108A34002F706D1CB61CE8E788461FFA88F85FEAB9
:108A44005808404680B2BDE8F081F0B40025002308
:108A5400002425001600ADB2B6B2B5421DD22500E1
:108A6400ADB24D5DEDB22D090E4E2F00FFB2F75D94
:108A7400A4461FFA8CFC00F81C702700BFB2CF5D1F
:108A840017F00F073B001F00FFB2F65D2700BFB2CF
:108A940000EB47077E70641CDBE7F0BC7047000006
:108AA40094FF000878080108F0B4030000200025B2
:108AB40000260027002B00F0C5801400E4B2022C2D
:108AC40009D0082C24D00A2C3FD0102C00F07F8031
:108AD400112C58D0B6E01D00002427003C008C4621
:108AE400E4B25FFA8CFC644511D22C782600340081
:108AF400E4B2302C03D03400E4B2312C07D140006E
:108B04003400E4B2303C20187F1C6D1CE6E799E089
:108B14001D00002427003C008C46E4B25FFA8CFC64
:108B2400644511D22C7826003400E4B2302C0BDBDF
:108B34003400E4B2382C07DAC0003400E4B2303C2C
:108B440020187F1C6D1CE6E77CE01D000024270034
:108B54003C008C46E4B25FFA8CFC644512D22C785B
:108B640026003400E4B2302C0CDB3400E4B23A2C9E
:108B740008DA0A2460433400E4B2303C20187F1C35
:108B84006D1CE5E75EE01D00002427003C008C46D8
:108B9400E4B25FFA8CFC644518D22C7826003400C9
:108BA400E4B2302C0ADB3400E4B23A2C06DA0A24AC
:108BB40060433400E4B2303C201804E03400E4B2F2
:108BC4002E2C00D002E07F1C6D1CDFE73AE01D0074
:108BD400002427003C008C46E4B25FFA8CFC644518
:108BE4002FD22C7826003400E4B2302C09DB340078
:108BF400E4B23A2C05DA00013400E4B2303C201827
:108C04001CE03400E4B2612C09DB3400E4B2672CCC
:108C140005DA00013400E4B2573C20180EE03400B9
:108C2400E4B2412C09DB3400E4B2472C05DA00013C
:108C34003400E4B2373C201800E002E07F1C6D1CD5
:108C4400C8E7FFE7F0BC704770B404005FF0FF3082
:108C54000D001600ADB2B6B2B5420CD20D00ADB2E5
:108C6400655D1E00F6B2B54203D10D00ADB2280019
:108C740001E0491CECE770BC7047000062F30F226E
:108C840062F31F42401810F0030308D0C91A1FD31F
:108C9400DB0748BF00F8012D28BF20F8022D130080
:108CA40030B414461546103928BF20E93C00FAD8E0
:108CB400490728BF20E90C0048BF40F8042D89006B
:108CC40028BF20F8022D48BF00F8012D30BC7047A2
:108CD400C91818BF00F8012DCB0728BF00F8012DD3
:108CE400704700002DE9F8435FF00008002441F6C6
:108CF400F875464E320008212800FFF733FD0700BF
:108D04003800C0B2002810D05FF000085FF00009FE
:108D140006213000FFF742FEF18802000B0092B2F8
:108D24009BB29A4201D000221700320008214FF46E
:108D3400F050FFF717FD80464046C0B200280FD020
:108D440000245FF0000906213000FFF727FEF188B8
:108D540002000B0092B29BB29A4201D000229046CC
:108D640058EA0700C0B2002807D10120B0804AF6B3
:108D7400AA20308000F02AF826E03800C0B201288A
:108D84000FD14046C0B200280BD132000821280080
:108D9400FFF7E8FC320008214FF4F050FFF7A9FD7B
:108DA40012E03800C0B200280ED14046C0B20128FB
:108DB4000AD1320008214FF4F050FFF7D3FC3200FF
:108DC40008212800FFF795FDBDE8F18338B500249C
:108DD4000E4D0020E88006212800FFF7DFFDE88023
:108DE4002A00082141F6F870FFF783FD012809D114
:108DF4002A0008214FF4F050FFF77BFD012801D130
:108E0400012004002000C0B232BD0000BC4F00208D
:108E140062B38B0708D0521E11F8013B00F8013BE6
:108E240000F024808B07F6D1830740F0208000BF38
:108E3400103A07D330B4B1E83810103AA0E838102B
:108E4400F9D230BC530724BFB1E80810A0E80810D9
:108E540044BF51F8043B40F8043BD20724BF31F827
:108E6400022B20F8022B44BF0B7803707047121FAB
:108E740017D35B0009D151F8043B20F8023B1B0CCB
:108E8400121F20F8023BF6D20BE051F8043B00F825
:108E9400013B1B0A20F8023B1B0C121F00F8013B8C
:108EA400F3D238BF121D521E24BF11F8013B00F843
:108EB400013BF8D870470000F0B5002200230024DD
:108EC40000250026002791F803C01CF00F0C91F830
:108ED40003E05FEACE6E02D58A7852EA0C0C0A7877
:108EE40012062AD00268160000221400082C23D28D
:108EF4005FF0010E1EFA04F215000A882A401300DE
:108F0400AB4217D1A20015000F22AA401700BE439E
:108F14001CFA05F21643CA78282A04D11EFA04FE64
:108F2400C0F814E006E0CA78482A03D11EFA04FE09
:108F3400C0F810E0641CD9E706600A88B2F5807FA7
:108F44002EDB4268160000221400082C27D25FF0A2
:108F5400010E14F108021EFA02F215000A882A40D2
:108F64001300AB4219D1A20015000F22AA4017002A
:108F7400BE431CFA05F21643CA78282A04D114F118
:108F840008021EFA02F24261CA78482A05D114F195
:108F940008021EFA02FEC0F810E0641CD5E7466021
:108FA400F0BDF0B40022002300250027002802D5DC
:108FB4001D4C246801E01D4C2468C0F3034586B2AF
:108FC40010F4401CBCF5401F07D134F07064174AFC
:108FD400176837F07067176011E0C20206D50322E4
:108FE400AA4013009C4354F0706408E00200520D40
:108FF400D2B2120116FA02F2944354F070640A00D9
:10900400D2B2002A06D00200520DD2B2120116FAD0
:1090140002F21443002802D5034A146001E0034A13
:109024001460F0BC704700001C00014004000140C3
:109034000300002013F0030F09D0521E22BF13F8BF
:10904400010B11F801CBB0EB0C00F3D0704711F019
:10905400030F14D1121F22BF53F8040B51F804CB91
:109064006045F7D0121D0AD200BA9CFA8CFCB0EB12
:109074000C0038BF6FF0000088BF01207047521EFB
:1090840022BF13F8010B11F801CBB0EB0C00F6D0A2
:10909400521C08BF104670472DE9F84F04000D001C
:1090A40000208DF800005FF4E13001F0C7FC0120DE
:1090B40001F02BFDDFF8646516F50E7B4021584660
:1090C40001F03AFD16F114094FF40871484601F015
:1090D40085FD002030700020B07000203071002029
:1090E400B0604FF409775FF0000842463900484603
:1090F400FFF7C4FD5FF042095FF0000A524649469B
:109104005846FFF7BBFD002086F89402002086F83D
:109114009502002030700020B070B560C6F8984207
:1091240000263000C0B20C281BDA84275FF0000848
:109134005FF08409DFF8E8A43000C0B209FB00F056
:109144000AEB000B424639005846FFF797FD300002
:10915400C0B209FB00F90AEB0900FF210172761C79
:10916400DFE7BDE8F18F10B50024DFF8B80401682B
:10917400490849000160DFF8B00401684908490062
:109184000160002001F0C1FC002240F224412000D3
:1091940001F061FE00228021200001F094FE0022F3
:1091A4004021200001F08FFE0021200001F044FE48
:1091B400200001F083FD10BD2DE9F84F04000D00DF
:1091C4002078002831D1DFF854640020307000206A
:1091D400B070002030710020B0604FF409775FF068
:1091E400000816F11409424639004846FFF746FDC7
:1091F4005FF042095FF0000A16F50E7B52464946BD
:109204005846FFF73BFD002086F89402002086F8BC
:109214009502002084F89502012020700220A0709D
:109224003C2084F89402A560A1E02078012802D0B3
:10923400207802286BD194F89D0200282FD0DFF803
:10924400DC63002030700020B070002030710020FA
:10925400B0604FF409775FF0000816F11409424634
:1092640039004846FFF70AFD5FF042095FF0000A43
:1092740016F50E7B524649465846FFF7FFFC002080
:1092840086F89402002086F89502032020700220BC
:10929400A07094F89D0284F89402A56067E0207998
:1092A400401C2071002084F89502207906285EDB9A
:1092B400DFF86863002030700020B0700020307147
:1092C4000020B0604FF409775FF0000816F114092C
:1092D400424639004846FFF7D1FC5FF042095FF08F
:1092E400000A16F50E7B524649465846FFF7C6FC5F
:1092F400002086F89402002086F89502022020704F
:109304000220A070372084F89402A5602FE0207812
:1093140003282CD1C14E002030700020B0700020F2
:1093240030710020B0604FF409775FF0000816F147
:109334001409424639004846FFF7A0FC5FF0420991
:109344005FF0000A16F50E7B524649465846FFF771
:1093540095FC002086F89402002086F895020220ED
:1093640020700220A070372084F89402A560BDE824
:10937400F18F2DE9FE4F04000D0016005FF0000A86
:109384000020ADF80400002002900020ADF8000099
:1093940027797F1C14F50E787E20514689B208F88F
:1093A40001001AF1010A5520514689B208F801005A
:1093B4001AF1010A0020514689B208F801001AF195
:1093C400010A0020514689B208F801001AF1010A85
:1093D4000020514689B208F801001AF1010A5046EA
:1093E40080B208F800701AF1010A380080B2000A4D
:1093F400514689B208F801001AF1010A94F894025E
:10940400514689B208F801001AF1010A00205146B8
:1094140089B208F801001AF1010AB1461FFA89F964
:109424000095504680B208EB000B4A460099584616
:10943400FFF7EEFC16EB0A0A5046401E88F80200BD
:10944400514689B2891E18F10200FFF7A7FA514666
:1094540089B208F801001AF1010A010089B2090A67
:10946400524692B208F802101AF1010AA4F878A23E
:10947400BDE8F78F38B504000D00207801281BD112
:109484001822D4F898122000FFF773FF67488188E8
:109494000068016166486749086014F50E70664902
:1094A4000860B4F87802654908605F48016851F0C3
:1094B40001010160A5603EE0207802281AD1002253
:1094C40000212000FFF755FF58488188006801619A
:1094D40057485849086014F50E7057490860B4F8A5
:1094E4007802564908605048016851F00101016052
:1094F400A56020E0207803281DD194F89E2292B222
:1095040004F29F212000FFF734FF48488188006857
:10951400016147484749086014F50E7046490860E0
:10952400B4F87802454908603F48016851F00101E8
:109534000160A560E56031BD2DE9F04704000D0030
:1095440000260027B4F820020E2863DBB4F82002BA
:10955400390089B20E3188425CDB380080B2205C6D
:109564007E2855D1380080B22044407855284FD108
:1095740000215FF000085FF00009380080B2204449
:109584008078002807D0380080B2204490F802A0E8
:109594001AF1030A0EE0380080B2204490F80BA0C0
:1095A4005FEA0A2A380080B22044807A50EA0A0A24
:1095B4001AF10E0A504680B20E2829DBB4F82002B4
:1095C400514689B211FA87F1884221DB514689B2AA
:1095D400091F380080B22044801CFFF7DFF9514690
:1095E40089B211FA87F1214411F8012C1202514673
:1095F40089B211FA87F1214411F8021C0A430100CF
:10960400130089B29BB2994202D12F8001210E002E
:109614007F1C9BE73000C0B2BDE8F0870842002001
:10962400D83B00203004024058040240A409010839
:109634000000021004040240640402405C0402407E
:109644002DE9F84F04000D0016001F005FF04308D9
:109654005FF00009A2464A4641465046FFF70EFB1A
:1096640025703B206070A078411CA170C0B22044DA
:10967400C6705FF0060A0097A078204410F1030B2F
:10968400524600995846FFF7C3FBA078801DA0708E
:10969400BDE8F18F00F10103810704D010F8011B2C
:1096A400820781B1FAD10268A2F10131914311F02C
:1096B400803104BF50F8042FF6E709BAB1FA81F1FA
:1096C40000EBD100401CC01A704743000CB430B505
:1096D40083B00A4606A90291044600250194009528
:1096E40002AB01A9084878441E3001F057FC019AE6
:1096F400157000284EBF04460198041B204603B091
:1097040030BC5DF80CFB00BF7DAAFFFF8268521CD1
:1097140082600368027A12F00F0200EB8202D268C0
:109724009B1A03608268002A01D110228260027AA7
:1097340012F00F0200EB8202D16002688A18026004
:109744008268102A03D302681209426004E00268A6
:109754008368B2FBF3F24260704710B400217FF0DB
:109764001302C26400221100C9B25A2909DA4168FD
:10977400074B1400E4B233F81430994201D3521C5D
:10978400F1E7C16C51FA82F1C16410BC704700006A
:109794009400010870B50D462C7834B970BD11F8E9
:1097A400013F1678B34206D0401C214602F05AFC11
:1097B40028B101462A4612F8013F002BEFD170BDB3
:1097C40080B55FF4E13000F053FF00F0B3FF0021F7
:1097D400012000F0C0FF01BD2DE9F04705000E0097
:1097E400170000244FF4F6785FF00009AA464A46B1
:1097F40041465046FFF742FA3000C0B2012840F01B
:10980400B181C8202100C9B205EB8101C1F89800DB
:1098140002202100C9B2294481F818010120210045
:10982400C9B2294481F87800641CC8202100C9B257
:1098340005EB8101C1F8980002202100C9B2294436
:1098440081F8180102202100C9B2294481F8780066
:10985400641CC8202100C9B205EB8101C1F898003D
:1098640019202100C9B2294481F818010B202100D4
:10987400C9B2294481F87800641CC8202100C9B207
:1098840005EB8101C1F8980002202100C9B22944E6
:1098940081F818010C202100C9B2294481F878000C
:1098A400641CC8202100C9B205EB8101C1F89800ED
:1098B4000A202100C9B2294481F818010D20210091
:1098C400C9B2294481F87800641CC8202100C9B2B7
:1098D40005EB8101C1F898000A202100C9B229448E
:1098E40081F818011B202100C9B2294481F87800AD
:1098F400641CC8202100C9B205EB8101C1F898009D
:1099040002202100C9B2294481F818011220210043
:10991400C9B2294481F87800641CC8202100C9B266
:1099240005EB8101C1F8980028202100C9B229441F
:1099340081F8180104202100C9B2294481F8780073
:10994400641CC8202100C9B205EB8101C1F898004C
:10995400B4202100C9B2294481F81801052021004E
:10996400C9B2294481F87800641CC8202100C9B216
:1099740005EB8101C1F89800B4202100C9B2294443
:1099840081F8180106202100C9B2294481F8780021
:10999400641C4FF448702100C9B205EB8101C1F881
:1099A400980002212200D2B22A4482F81811082118
:1099B4002200D2B22A4482F87810641C40F6B831EE
:1099C4002200D2B205EB8202C2F8981002212200D2
:1099D400D2B22A4482F8181109212200D2B22A44B0
:1099E40082F87810641C2100C9B205EB8101C1F82A
:1099F400980004212200D2B22A4482F818111521B9
:109A04002200D2B22A4482F87810641C2100C9B220
:109A140005EB8101C1F8980004212200D2B22A4446
:109A240082F8181120212200D2B22A4482F8781038
:109A3400641C2100C9B205EB8101C1F898003221F0
:109A44002200D2B22A4482F818111F212200D2B275
:109A54002A4482F87810641C2100C9B205EB810104
:109A6400C1F8980002212200D2B22A4482F81811C7
:109A740016212200D2B22A4482F87810641C2100F4
:109A8400C9B205EB8101C1F8980005212200D2B2C8
:109A94002A4482F8181118212200D2B22A4482F8EA
:109AA4007810641C2100C9B205EB8101C1F898004B
:109AB40032212200D2B22A4482F818111C21220039
:109AC400D2B22A4482F87810641C2100C9B205EB92
:109AD4008101C1F8980032212200D2B22A4482F8CE
:109AE40018111D212200D2B22A4482F87810641C75
:109AF4002100C9B205EB8101C1F89800322122008E
:109B0400D2B22A4482F818111E212200D2B22A4469
:109B140082F87810641C2100C9B205EB8101C1F8F8
:109B2400980032212200D2B22A4482F8181121214D
:109B34002200D2B22A4482F87810641C2100C9B2EF
:109B440005EB8101C1F8980032202100C9B22944F3
:109B540081F8180122202100C9B2294481F8780033
:109B6400641C51E04FF4FA602100C9B205EB810195
:109B7400C1F8980001202100C9B2294481F81801D4
:109B840010202100C9B2294481F87800641CB42053
:109B94002100C9B205EB8101C1F898000120210020
:109BA400C9B2294481F8180103202100C9B229440B
:109BB40081F87800641C4FF4C8702100C9B205EB29
:109BC4008101C1F8980001202100C9B2294481F81B
:109BD40018010F202100C9B2294481F87800641CBF
:109BE40014202100C9B205EB8101C1F898000120BD
:109BF4002100C9B2294481F8180100202100C9B20A
:109C0400294481F87800641C0220A5F8DE0185F857
:109C1400E06185F8DC415FF04808B946AA4642464F
:109C240049465046FFF7F4F8BDE8F087F0B5ADF5C6
:109C3400006D83B004000D0000274FF40061002282
:109C440003AE3000FFF71AF894F8DD01204490F8D1
:109C540078603000C0B2002850D0012859D00228C2
:109C640062D0032860D0042800F08180052800F029
:109C74008380062800F08580072800F08780082864
:109C840000F08980092800F08B800A2800F09A806F
:109C94000B284FD00C2851D00D2854D00E285CD05E
:109CA4000F282AD0102800F0858012285AD01328B3
:109CB4007BD0152800F0A680162800F0BE80182856
:109CC40000F0C0801A2800F00E811B2840D01C2808
:109CD40000F0C8801D2800F0D2801E2800F0DC802F
:109CE4001F2800F0A580202800F09D80212800F086
:109CF400E080222800F0EA80FEE0FDE0DFF8BC0806
:109D0400818800684161DFF8B80881880068416192
:109D1400F2E0DFF8A808818800684161DFF8A00854
:109D2400818800684161E7E0DFF894088188006871
:109D34000161E1E073A000F05BFDDDE0DFF8840881
:109D440000F056FDD8E0DFF8800800F051FDD3E0C4
:109D5400DFF8780800F04CFDCEE0DFF8740800F07E
:109D640047FDC9E0DFF86C0800F042FDC4E0DFF80D
:109D7400680800F03DFDBFE0DFF8600800F038FD42
:109D8400BAE0DFF85C0800F033FDB5E0DFF8540812
:109D940000F02EFDB0E0DFF8500800F029FDABE044
:109DA400DFF8480800F024FDA6E0DFF8440800F0DE
:109DB4001FFDA1E00A2000F0EFFCDFF8380800F0F6
:109DC40017FD99E094F8470000280ED1A08802906E
:109DD400E0780190A078009063782278DFF8181872
:109DE400DFF81808FFF772FC07E0A388A21DDFF86C
:109DF4001018DFF80808FFF769FCDFF8000800F026
:109E0400F7FC79E0DFF8FC0700F0F2FCDFF8F80774
:109E140000F0EEFCDFF8F40700F0EAFCDFF8F007EE
:109E240000F0E6FC68E0DFF8EC0700F0E1FC63E03A
:109E3400DFF8E40700F0DCFC5EE0DFF8E00700F0A8
:109E4400D7FC59E0DFF8D8070090DFF8D837DFF8FF
:109E5400D827DFF8D81703A8FFF738FC03A800F0C9
:109E6400C7FC49E0DFF8C037DFF8B827DFF8C017D0
:109E740003A8FFF72BFC03A800F0BAFC3CE0DFF8D2
:109E8400A837DFF8A027DFF8AC1703A8FFF71EFCFC
:109E940003A800F0ADFC2FE0DFF88C37DFF884274F
:109EA400DFF8941703A8FFF711FC03A800F0A0FC47
:109EB40022E0DFF87437DFF86C27DFF8801703A897
:109EC400FFF704FC03A800F093FC15E0DFF8583713
:109ED400DFF85027DFF8681703A8FFF7F7FB03A89C
:109EE40000F086FC08E0DFF85C1703A8FFF7EEFB40
:109EF400DFF8540700F07CFCC4F8E4510DF5006D64
:109F040003B0F0BD415400002DE9F84FADF5016DEB
:109F140004000D00002700264FF4006100220DF11B
:109F240010084046FEF7AAFE94F8DD01204490F89C
:109F340078008DF800009DF80000002802282FD931
:109F4400001F00F0AA80401E00F0B180401E00F007
:109F5400C280401E022824D9C01E00F0D080401EBA
:109F640001281ED9801E25D0401E7BD0401E17D04C
:109F7400401E16D0801E14D0401E63D0801E0128BF
:109F840040F2BD80C01E012840F2B980801E00F05E
:109F9400BF80401E43D0401E062840F2B080CCE073
:109FA400CBE09AA12800FFF7F5FB002801D001209F
:109FB4000600C2E095A12800FFF7ECFB00282DD095
:109FC4001127A81C039014F148083A00039940464D
:109FD400FEF71EFF5FF01108A81C0290DFF84896F8
:109FE400CA46424602995046FEF712FF5FF0110A34
:109FF400A81C0190DFF854B6524601995846FEF762
:10A0040007FF14F1590114F14800FEF7EBFCDFF8E7
:10A0140040164846FEF7E6FC012006008DE07BA1D1
:10A024002800FFF7B7FB00280BD0112715F1020811
:10A0340014F161093A0041464846FEF7E9FE012061
:10A0440006007AE071A12800FFF7A4FB002808D0DD
:10A05400DFF800162800FFF79DFB002801D001203F
:10A0640006006AE069A12800FFF794FB002813D0DA
:10A0740014F172021C21280000F0CEF8002809D146
:10A0840006275FF0000814F1720942463900484679
:10A09400FEF7F4FD012006004FE0DFF8BC152800B0
:10A0A400FFF778FB002801D00120060045E0DFF827
:10A0B400AC152800FFF76EFB00280BD054A1280034
:10A0C400FFF768FB4178312902D04178352901D165
:10A0D40001210E0031E0DFF888152800FFF75AFB54
:10A0E40000280BD04AA12800FFF754FB41783129FE
:10A0F40002D04178352901D101210E001DE043A190
:10A104002800FFF747FB002801D00120060014E0D7
:10A1140040A12800FFF73EFB00280ED0DFF82415ED
:10A1240004A8FFF7D3FA282104A800F03EFB282155
:10A1340004A800F03AFB012006003000C0B20DF57F
:10A14400006D05B0BDE8F08F10B4002190F8DD215A
:10A15400024492F878201300DBB2002B012B21D9A2
:10A164009B1E012B0FD99B1E0A2B2AD90B3B012BBB
:10A1740018D9DB1E012B24D9DB1E012B21D9DB1EB0
:10A184000A2B1ED92CE0002190F8DD31034483F81A
:10A19400181190F8DD11491C80F8DD11002180F8B8
:10A1A400E8111DE0002190F8DD31034483F8181113
:10A1B40090F8DD11491C80F8DD11002180F8E811C8
:10A1C4000EE090F8E81100290AD1002190F8DD3161
:10A1D400034483F8181190F8DD11491C80F8DD114F
:10A1E40010BC704710B50400DFF878142000FFF7A6
:10A1F400D1FA002806D1DFF870142000FFF7CAFA5C
:10A20400002801D0012000E0002010BD4F4B0000C9
:10A214002C0000003E0000002DE9F84F04000D0062
:10A2240016005FF0000A5FF000095FF0010B0027E1
:10A2340022232A00D2B292B25046010089B22000F1
:10A24400FEF702FD80465846C0B200281DD0B8F182
:10A25400000F1AD4002083460A22022104EB0800CE
:10A26400401CFEF721FC070018F103083800C0B2B7
:10A2740015280ADB3800C0B2642806DA4846C0B2A2
:10A28400375419F10109012083462F232A00D2B241
:10A2940092B24046010089B22000FEF7D5FC824606
:10A2A4005846C0B200281DD0BAF1000F1AD40020BD
:10A2B40083460A22022104EB0A00401CFEF7F4FB49
:10A2C40007001AF1030A3800C0B200280AD0380087
:10A2D400C0B20D2806DA4846C0B2375419F1010954
:10A2E400012083462F232A00D2B292B250460100A5
:10A2F40089B22000FEF7A8FC80465846C0B2002868
:10A304001DD0B8F1000F1AD4002083460A2202217E
:10A3140004EB0800401CFEF7C7FB070018F1030814
:10A324003800C0B200280AD03800C0B2202806DAAB
:10A334004846C0B2375419F10109012083462C2341
:10A344002A00D2B292B24046010089B22000FEF740
:10A354007BFC82465846C0B2002819D0BAF1000FDF
:10A3640016D4002083460A22022104EB0A00401C72
:10A37400FEF79AFB07001AF1030A3800C0B2182846
:10A3840006DA4846C0B2375419F101090120834660
:10A394003A232A00D2B292B25046010089B2200078
:10A3A400FEF752FC80465846C0B2002819D0B8F1D6
:10A3B400000F16D4002083460A22022104EB080071
:10A3C400401CFEF771FB070018F103083800C0B207
:10A3D4003C2806DA4846C0B2375419F10109012075
:10A3E40083463A232A00D2B292B24046010089B28F
:10A3F4002000FEF729FC82465846C0B2002819D036
:10A40400BAF1000F16D4002083460A22022104EB7D
:10A414000A00401CFEF748FB07001AF1030A380043
:10A42400C0B23C2806DA4846C0B2375419F10109D3
:10A43400012083465846C0B2BDE8F28F2DE9F04FA3
:10A4440087B004000D000026E078012840F08F80DA
:10A45400022100226F463800FEF710FC4FF4927080
:10A464000690002005902700059A06993800FEF70B
:10A4740005FC0827A81D049014F18E083A000499DD
:10A484004046FEF7C5FC5FF0020815F12500039075
:10A4940014F19609424603994846FEF7B9FC5FF069
:10A4A400020915F12700029014F1980A4A4602990C
:10A4B4005046FEF7ADFC5FF0040A15F12900019047
:10A4C40014F19A0B524601995846FEF7A1FCDFF8A5
:10A4D4009CB11BF10A0114F18E00FEF783FA1BF103
:10A4E400040114F19600FEF77DFA1BF1050114F145
:10A4F4009800FEF777FA694614F19A00FEF772FAAB
:10A5040069469DF80020487850EA0220002821D0AE
:10A514009DF80000497851EA0021ABF80610BBF819
:10A52400060040F60801884241DA01200600BBF823
:10A534000600470015F12D0814F19E093A00414622
:10A544004846FEF765FC1BF10E0114F19E00FEF770
:10A5540049FA2CE00120060080275FF000081BF177
:10A564000E09424639004846FEF788FB1FE0E078B2
:10A5740004281CD14FF492775FF00008DFF8EC90C8
:10A58400CA46424639005046FEF778FB5FF0080A97
:10A59400A81D019014F18E0B524601995846FEF7FE
:10A5A40037FC19F10A0114F18E00FEF71BFA300092
:10A5B400C0B207B0BDE8F08F00000000740A0108C3
:10A5C4006C0A0108140A01081C0A0108240A01087B
:10A5D400EC0801082C0A0108F8080108040901081C
:10A5E40010090108DC060108580801081C090108C3
:10A5F400FC060108680801081C060108B44E002086
:10A604001C070108AC070108C8070108E407010892
:10A61400880201083C0701083008010848060108BF
:10A6240024020108340A0108884F00209806010812
:10A63400BC050108AC040108E4040108580301083E
:10A64400EC0501081C050108D80201083B4E002056
:10A65400744F00203C0A0108440A01084C0A01080E
:10A66400540A010828090108340901085C4A002039
:10A6740030B585B00400042100226D462800FEF7A1
:10A68400FDFA1021002201AD2800FEF7F7FA102090
:10A694008DF8030003208DF802004F4DA888ADF813
:10A6A400000069462868FEF707FCA8882968486105
:10A6B4004A4DA888ADF8000069462868FEF7FCFBFF
:10A6C400A88829680861464D280000F0F7FA454833
:10A6D4008188ADF8001003218DF8021018218DF83F
:10A6E400031069460068FEF7E7FB3F488188ADF830
:10A6F400001004218DF8031069460068FEF7DCFBA6
:10A7040001940020ADF808000020ADF80A000020F4
:10A71400ADF80C000020ADF810000C20ADF80E00D0
:10A7240001A9280000F012FB0121280000F084FB9D
:10A7340005B030BD80B535208DF8000000208DF8BF
:10A74400010002208DF8020001208DF80300684604
:10A7540001F099FC01BD70B504000D00204E40F2DB
:10A764002771300000F006FC2200D2B240F22551DD
:10A77400300000F070FB2A00D2B240F226613000B3
:10A7840000F069FB70BD164909880906FBD5010074
:10A79400C9B2164A118070474FF460514843401CB7
:10A7A4000100481E0029FBD1704710B40022002389
:10A7B4001A000C0092B2A4B2A2420AD2084A128829
:10A7C4001206FBD51A0092B2825C084C22805B1CF4
:10A7D400EEE710BC704700006C0A0108740A010817
:10A7E400005000405C0A0108640A0108045000405B
:10A7F40010B504002000FEF74DFF010089B22000CF
:10A80400FFF7D3FF0D20FFF7BEFF0A20FFF7BBFFC2
:10A8140010BD00001CB5042100226C462000FEF788
:10A824002DFA03208DF8020014208DF803008148CE
:10A834008188ADF8001069460068FEF73DFB7E484C
:10A844008188ADF8001069460068FEF735FB13BD3A
:10A85400002064210800411E0028FBD170474FF4FA
:10A8640020514843401C0100481E0029FBD1704779
:10A8740010B5704CA088216808616F488188006811
:10A884000161FFF7E5FF20688068002801D10120FD
:10A8940000E00020217911F00101084201D00020DC
:10A8A40011E0A08821684861FFF7D2FF2068806822
:10A8B400A188084201D0002005E0A08821684861F1
:10A8C400FFF7C6FF012010BD38B55B4CA088216896
:10A8D4004861FFF7BDFF574DA88829684861FFF715
:10A8E400B7FFA08821680861FFF7B2FFA88829682C
