:020000040800F2
:20000000705A00206D3C0008A9370008AB370008AD370008AF370008B137000800000000A9
:20002000000000000000000000000000B3370008B537000800000000B7370008B9370008EC
:20004000A13C0008A53C0008A93C0008AD3C0008B13C0008B53C0008B93C0008BD3C000808
:20006000C13C0008C53C0008C93C00089D380008CD3C0008D13C0008D53C0008D93C00082C
:20008000DD3C0008E13C0008E53C0008E93C0008ED3C0008F13C0008F53C0008F93C0008E8
:2000A000FD3C0008013D0008053D0008093D00080D3D0008113D0008153D0008193D0008C1
:2000C0001D3D0008213D0008253D0008293D00082D3D0008313D0008353D0008393D0008A0
:2000E0003D3D0008413D0008453D0008493D00084D3D0008513D0008553D0008593D000880
:200100005D3D0008613D0008653D0008693D00084D380008FB3700086D3D0008713D000810
:20012000753D0008793D00087D3D0008813D000800EB40014903491C0846411E0028FBD141
:20014000704780B500F0FCFD4FF4803000F011FE00F029FE01282BD1002000F054FE00201A
:2001600000F05FFE4FF4806000F054FE4FF4404000F062FE002000F05CFE022000F00AFF35
:20018000102000F00FFF4FF400114FF4803000F023FE012000F028FE392000F0CBFE002868
:2001A000FAD0022000F023FE00F028FE0828FBD101BD10B5044621463D2000F08FFE2146BB
:2001C0004FF4E210BDE8104000F093BE80B500214FF0006000F0D2FF4FF4A060BDE80240D4
:2001E00000F09ABF1CB50121DFF8D40A01F038F810208DF8030003208DF802000220ADF8C4
:200200000000DFF8C04A6946204600F0DBFF0820ADF800006946204600F0D4FF13BD38B5BC
:20022000FFF78FFFFFF7D2FF0120FFF7C2FF72B6FFF7D8FFDFF8904A0220206001F048F822
:2002400001F018F901F0E4F901F064FA4FF4E13001F0A2FB012001F0F5FB0021012001F068
:2002600006FCDFF8680A808845F2555188420CD001F044FCDFF8585ADFF8582A0121284605
:2002800001F049FC0220A5F81E0101F0B8FF0220606062B631BDDFF8400A81688A0712D538
:2002A00021F0020181604169491C4161DFF8180AC90704D50221416008214160704702218E
:2002C000016008210160704710B572B602461468DFF8043ADFF8041A0C40B4F1005F09D197
:2002E000001D0068D8619861106880F308889869804705E0012098600020DFF8E4190860AA
:2003000062B610BDF8B5DFF8DC49DFF8DC590721284602F063F8002818D00721284602F0C8
:2003200064F80021084601F0A2FB002240F61441204602F09FF84FF4E13001F02DFB01203A
:2003400001F080FB0021012001F091FBDFF88869B068800440F1A080DFF890793878052800
:2003600001D0062808D1384602F022F9002240F60C01384602F07EF804F60C45A87900283B
:2003800030D104F50067DFF8440939898278914220D200213980F98029602971DFF84019B1
:2003A000096831614078401EB88004F60A024FF4806180B2401E800201F0A0FA0420287168
:2003C0003989491C89B2204602F06BF938800120A871F1BDB16821F40051B16048F6880108
:2003E0008180F1BD012814D1002240F60C01384602F040F804F500663188204601F057FB72
:2004000000203080DFF8D808006828600320A871F1BD03280AD1286800F57A70DFF8C01857
:200420000968884238D28420A871F1BD010633D500F07F00A871042810D10020A87168794E
:200440000146062907DB04F500600189491C018100206871F1BD401C6871F1BD04F5006691
:200460002879022808D104F60A024FF48061F088801E800201F042FA3946204602F018F802
:20048000002068713088401E8041C043C00FA8710A20BDE8F2404BE6F1BD70B5DFF82C4851
:2004A000A088DFF83458296A0246914266D045F25551884203D047F27772904202D101206B
:2004C000A86057E041F21116B04203D04AF6AA22904208D1A86840F08040A8600120DFF807
:2004E0001018C87046E043F23332904204D1A86840F48050A8603DE044F24442904217D186
:20050000A86840F48050A8602278012A08D140F00040A860DFF8DC07E86000F04DFD29E064
:20052000022A03D140F40050A86023E0A18021E048F6880188421DD1162204F11E0104F14A
:20054000080002F089F900202080A68001F011F8DFF8A4078188006841610820DFF89C17F8
:2005600008604FF4FA70FFF7E3FDDFF89407DFF894170860A088286200F0FBFFA868C107C0
:2005800007D5DFF85C170968292902D340F08000A860287A000613D50220DFF8601708607D
:2005A000A86820F08000A86000F04AF8002804D0DFF84007FFF788FE02E04AF6AA20A080BF
:2005C000A868C10412D520F48050A86002F04CFC002808D02078012801D0022806D144F270
:2005E0004440A08002E047F27770A080286900F5EA30C030DFF8E816096888421FD216226C
:2006000004F11E0104F1080002F026F90020208041F21110A08000F0ACFFDFF8DC06818827
:20062000006841610820DFF8D41608604FF4FA70FFF77EFDDFF8C806DFF8C816086070BD52
:2006400038B50024DFF8C05606220FF2E061284602F0C0FC002812D1062100E0491C084651
:20066000C0B2322807DA15F8010BA0F12002602AF4D30028F2D0C9B2322900D101242000DA
:2006800009D108220FF2AC61DFF8800602F0A2FC002800D10124204632BDF8B5DFF83846E6
:2006A000A068400500F1C180DFF82006808845F25551884200F0B980DFF8545607212846CF
:2006C00001F08CFE00280DD00721284601F08DFE4FF4E13002F0B2FC02F005FD002101205E
:2006E00002F012FDDFF8E86506F58E75DFF824763878052801D006281AD1A878400717D54C
:200700007A88D2B2B91D304601F06AFB00280AD00020287308206880002240F60C01384601
:2007200001F0A8FE04E0802038700020C7F808086988880715D54FF6FD70014069806878E1
:20074000297888420DD2002240F60C01384601F091FEDFF88C050168304601F097FA2420DF
:200760006880A87880061FD56978AA6806EB8100C06F8218DFF868050068824214D206F17C
:20078000FC00425C521E42546978405C002809D169884FF6DF700140698008206880022059
:2007A000287301E002206880698808073DD54FF6F77001406980304601F0DEFB287B0028C0
:2007C00020D1022068806878297888422DD1A16821F08051A1602879012809D140206880FD
:2007E00041F48061A1608020DFF82C150870F1BD00281AD1DFF800058188006841610120E1
:200800006880F1BD2879012808D1DFF8C8240021304601F080F902206880F1BD012068801A
:20082000DFF8D404818800684161F1BDF8B5DFF8A854A868400540F1D380DFF8D4440721D8
:20084000204601F0CBFD00280DD00721204601F0CCFD4FF4E13002F0F1FB02F044FC0021A7
:20086000012002F051FCDFF8AC643078DFF8AC44052801D0062831D12079400714D5B11DFD
:20088000204602F045F9002804D00020A0700820A08006E00120A070802030700020C6F819
:2008A00008086078401C6070B01D01F095FB00280ED0DFF81C74DFF81C240021384601F0C2
:2008C0002AF90220A7F81E01A86820F48060A860002240F60C01304601F0CCFDA188DFF874
:2008E0001054880718D54FF6FD700140A18060782178884210D2002240F60C01304601F01B
:20090000B9FDDFF8DC030168204602F002F8A879401CA8710520A0802079C00721D56178A6
:20092000D4F8E82104EB8100D0F868018218DFF8B0030068824214D204F24710425C521EB0
:2009400042546178405C002809D1A1884FF6FE700140A1800820A0800220A07001E00220CF
:20096000A080A188080725D54FF6F7700140A180204602F047F9E878032815D1A0780028CE
:2009800012D1284602F0E2F900280BD028796979884202D30520E87006E00221E970401CD9
:2009A000287101E00420E87060782178884201D300202080A879142812DD0120DFF810130B
:2009C000A1F81E01DFF830038188006841614FF4FA70FFF7ADFBDFF82803DFF8281308607B
:2009E000F1BD30B4DFF83803BB498A680240824277D1087802460A2A64DB00200870BC4838
:200A0000C278012A19D14878401C4870C34800F5B4720378C82442F82340012200F5A4735A
:200A200004781A55032200F1280304781A550278521C02700222828046E0022A01D0032ACF
:200A40001FD10822A04B1A600322C270A44800680861B24800F5B47203784FF4C87442F8BA
:200A60002340012200F5A47304781A55042200F1280304781A550278521C0270022282804C
:200A800022E0042A0AD14878401C48709448006808614AF6AA208D4A908015E0052A0ED1D6
:200AA0000820894A50608E4800680861886820F08040886043F23330844A908004E00122BF
:200AC000C27001E0401C087048780A2805DB0020487047F277707D4A9080886820F400602A
:200AE00088608A6802F40440B0F5044F4FD1804B03F61F046078002845D02078002842D0FC
:200B0000A07800283FD0E07800283CD010053ED5887804460A2C27DB00208870D8780528BB
:200B200001D0002819D1C878401CC8707B4800F5B4730478C82543F82450012300F5A474D6
:200B400005786355062300F128040578635503785B1C03700223838008E0072806D145F233
:200B600055505A4B988001E0401C8870C8780A2805DB0020C87045F25550544B988022F48B
:200B800000628A6003E041F211105049888030BC7047F8B5504CA068002840F190804B4D3C
:200BA0002978012940F08B80410440F1888020F48040A060207902287BD1002020714C4988
:200BC000887800282BD14B4A607902EB802072D3E26882426FD108223B4B1A6000F5806262
:200BE000E2606A784F4B03EB8223834211D301F010FE002806D06079401C60713848006810
:200C0000206137E000206071E0604AF6AA20A88030E000206071E060012088704BE001282B
:200C200049D162791046800232490E188E4242D33D4F6978914221D30821234A11603A46A6
:200C40004FF4806100F05AFE002813D04FF480623946304601F0E6FD002806D06079401CFC
:200C600060711F480068206104E0002060714AF6AA20A8800820144948601CE000F0A5F995
:200C80007878397841EA00211A4802F08FFAF978BA7842EA0122824203D148F68800A88012
:200CA00002E04AF6AA20A880A06820F00040A06001E0401C2071A06820F48040A060F1BD70
:200CC00000023000000C0140100C01400448002090460020BC4700203C4800200000FE2FE2
:200CE00060480020480E0020004C0040682200201400002000400008883C0008140C0140D7
:200D00000400FA050CED00E00050000880500008005000405C1A002080320020A4440020C7
:200D2000000C004000440008A43C0020534D353030310000474433323233303200000000FE
:200D40008549086840F0010008604A68834802404A600A68824802400A60086820F4802047
:200D60000860486820F4FE0048604FF41F008860704779490A6822F480320A600A6822F4B2
:200D800080220A60B0F5803F03D0B0F5802F05D07047086840F4803008607047086840F419
:200DA000A020086070471CB5002000900446312000F0C0F80099491C009100994FF6FF72B2
:200DC000914201D00028F2D0312000F0B3F8002800D00124204616BD624A136823F47C1376
:200DE00018430843106070475F49086070475D490A68920850EA82000860704759480068C9
:200E000000F00C00704757490A6822F0F00210430860704753490A6822F4E0621043086076
:200E2000704750490A6822F4605242EAC0020A6070474E49086070474A490A6822F44042C6
:200E400010430860704710B4464A116801F00C01042902D0082903D01BE0454901601AE06E
:200E6000136803F47013116801F480319B0C9B1C002903D13F494B4303600CE01168890399
:200E800003D53D494B43036005E039494B43036001E03A490160116801F0F001384B0909F6
:200EA000595C0468CC404460116801F4E061090A595CCC408460116801F46051C90A595C53
:200EC0004468CC40C460116801F4404103EB9131097CB4FBF1F1016110BC7047294A002900
:200EE000116802D008431060704721EA000010607047254A0029116802D0084310607047AE
:200F000021EA000010607047204A0029116802D008431060704721EA0000106070471C4AB7
:200F20000029116802D008431060704721EA00001060704701464009074A012801D1106845
:200F400004E0022801D1106A00E0506A01F01F01C84000F001007047001002400000FFF893
:200F6000FFFFF6FE0410024060004242D8004242001BB70000093D00808D5B0000127A00DD
:200F800000000020181002401C1002400C10024010100240DFF80C110A6802F038021043B4
:200FA00008607047DFF8FC100A6822F010020A600A68104308607047DFF8EC00DFF8EC10B5
:200FC0000160DFF8EC1001607047DFF8E800016841F080010160704738B504464FF0FF302E
:200FE00000F06CF80146042916D1DFF8C850286840F0020028606C60286840F040002860B5
:201000004FF0FF3000F05AF80146052904D02A6841F6FD710A402A6032BD7CB504460D460F
:20102000002000904FF0FF3000F048F80146042925D1204E306840F00100306025804FF04D
:20104000FF3000F03BF80146042911D1A41C00942D0C009805804FF0FF3000F02FF8014672
:2010600005290CD0326841F6FE710A40326076BD052904D0326841F6FE710A40326076BDC6
:2010800004200D490A68D20701D5012070470A68520701D5022070470968C90600D503202B
:2010A00070470000002002400420024023016745AB89EFCD102002400C20024010B5044602
:2010C000FFF7DEFF02E0FFF7DBFF641E0146012901D1002CF7D1002C00D1052010BD30B4FF
:2010E000002513E050F8042BD30744BFA9F101039A18091F042942F8045BFAD213468C078E
:2011000044BF15809B1CC90748BF1D7050F8041B0029E7D130BC70472249084322490860A8
:20112000704770B403781C460122C17800291BD01D490B6803F4E063C3F5E0631B0A457897
:20114000C3F104018D4081780F26DE4031400D432D0116490D55017801F01F008240144866
:20116000491140F8212007E003F01F0302FA03F31048641140F8243070BC70470E4A1140C9
:2011800008430E49086070470D490428086803D140F004000860704720F004000860704742
:2011A000000000000000FA050CED00E000E400E000E100E080E100E080FFFF1F08ED00E01F
:2011C00010E000E0F0B40024CA78134603F00F03D20601D58A7813430A88D2B2002A1AD0A7
:2011E000026815E0482D12D1066110E00126A6400D883540B5420AD1A5000F27AF40BA4331
:2012000003FA05F52A43CD78282DEBD14661641C082CEBD302600A88B2F5807F1EDB4468BC
:20122000002218E0012602F1080506FA05F50E882E40AE420ED196000F27B740BC4303FAE1
:2012400006F63443CE78282E00D14561CE78482E00D10561521C082AE4D34460F0BC7047B7
:2012600070B41A4A002801D5936900E01368C0F3034485B200F44016B6F5401F06D123F022
:201280007063146824F07064146010E0C60206D5032606FA04F4A34343F0706307E00446D2
:2012A000640D240105FA04F4A34343F07063002904D00146490D09018D402B43002801D5D8
:2012C000936100E0136070BC70470000040001401CB503208DF8020014208DF803008020C8
:2012E000ADF80000604C69462046FFF76BFF4020ADF8000069462046FFF764FF13BDC821FC
:201300000846411E0028FBD1704700EB40014903491C0846411E0028FBD1704710B5534CDC
:201320008020A0604020A060FFF7E9FF20688020E060FFF7E4FF2068000601D5002010BD3D
:201340008020E060FFF7DBFF012010BD10B5484C40206060FFF7D3FF80206060FFF7CFFF8A
:2013600040202060FFF7CBFF80202060BDE81040C5E710B53E4C40206060FFF7C0FF802048
:201380006060FFF7BCFF40202060FFF7B8FF40206060BDE81040B2E710B5354C402060603B
:2013A000FFF7ADFF80202060FFF7A9FF40202060FFF7A5FF40206060BDE810409FE710B5F3
:2013C0002A4C4020E060FFF79AFF8020A060FFF796FF4020A060FFF792FF2068000603D5F0
:2013E0004020E060002010BD4020E060012010BD70B5054608261E4C0FE08020606005E096
:20140000402060602806F8D580202060FFF777FF40202060FFF773FF6D003046461EC0B224
:201420000028EDD14020606070BD70B5082500260E4C8020A0600DE076004020E060FFF70E
:201440005EFF4020A060FFF75AFF2068000601D546F001062846451EC0B20028ECD1402057
:20146000E0603046C0B270BD000C0140080C0140100C0140F8B58EB000223621684600F016
:20148000F9FF00255B4E3246362141F6CA7001F07FFF040036D13220FFF737FF6D1C284657
:2014A000C0B20328EFDB00276A4636214FF4F05001F06EFF050030D13220FFF726FF7F1CA8
:2014C0003846C0B20328EFDB54EA050005D0307A00282ED1707A00282BD100223621304641
:2014E00000F0C8FF0120F0804AF6AA20B080162241A106F1080001F0BFF900F03AF800F096
:201500005DF824E03421304601F050FEB18E884201D00024C7E70124C5E73421684601F0F7
:2015200045FEBDF83410884201D00025CCE70125CAE7002D02D100F041F808E0002C06D111
:2015400036226946304601F097F900F012F8307A00280CD1707A002809D1162226A106F102
:20156000080001F089F900F004F800F027F80FB0F0BD70B500241F4D2046A886342128467D
:2015800001F014FEA8862A46362141F6CA7001F09DFF060006D02A4636214FF4F05001F03E
:2015A00095FF0646300007D13220FFF7AEFE641C2046C0B20328E6DB304670BD70B500241F
:2015C0000C4D2046A8863421284601F0EFFDA8862A4636214FF4F05001F078FF060007D1C0
:2015E0003220FFF792FE641C2046C0B20328EFDB304670BD04480020534D353030315F30C2
:20160000303030303030305F464646460000000038B586B00022122101A800F02BFF0022A6
:201620000421684600F026FF03208DF8020010208DF803004FF480542046ADF800002D4DC4
:2016400069462846FFF7BEFD2C616C612C614FF46040ADF8000018208DF803006946284670
:20166000FFF7B0FD244C0021204601F083FF0020ADF804004FF48270ADF806000020029002
:20168000ADF80C004FF40070ADF80E001020ADF810000020ADF812000720ADF8140001A9ED
:2016A000204601F04BFF0121204601F063FF07B030BD38B50446104D0121284601F06BFF8B
:2016C000012802D1284601F064FF0221284601F062FF0028F9D02146284601F058FF012139
:2016E000284601F058FF0028F9D0284601F051FFC0B232BD000C01400038004005E04FF446
:20170000907211464A1E0029FBD10146481E0029F5D1704738B59F48848805686C61042082
:20172000FFF7C7FF2C6131BD2DE9F0470446884615464FF00009CA469648868807687E6120
:201740000520FFF7B6FF0A20FFF7D8FF0AF1010AFF20FFF7AEFF810703D5514689B2C829D7
:20176000F1DB3E6180073ED47E610620FFF7A1FF3E610A20FFF7C2FFCA467E610520FFF740
:2017800098FF0A20FFF7BAFF0AF1010AFF20FFF790FF810703D4514689B2C829F1DB3E61A2
:2017A000800720D57E610220FFF783FF2046000CC0B2FFF77EFF2046000AC0B2FFF779FF8D
:2017C0002046C0B2FFF775FF06E0484680B2285CFFF76FFF09F10109484680B24045F4D329
:2017E0003E614FF001094846BDE8F0872DE9F04104460D4616460027E0050FD02746C7F305
:201800000807C7F58077BFB22846B84200DA074639462046FFF788FFED1B00E0012001009A
:2018200016D0294689B2002912D04FF48078284680B2B0F5807F00DA8046F219414638190B
:20184000FFF772FFA5EB08054744BFB20100E8D1BDE8F0812DE9F04104460025A8464D487F
:20186000868807687E610520FFF723FF0A20FFF745FF08F10108FF20FFF71BFF810703D5DA
:20188000414689B2C829F1DB3E61800733D47E610620FFF70EFF3E610A20FFF72FFFA846B9
:2018A0007E610520FFF705FF0A20FFF727FF08F10108FF20FFF7FDFE810703D4414689B2B1
:2018C000C829F1DB3E61800715D5A40CA4047E61D820FFF7EEFE2046000CC0B2FFF7E9FE69
:2018E0002046000AC0B2FFF7E4FE2046C0B2FFF7E0FE3E6101252846BDE8F0812DE9F84FDC
:2019000004460D4616460027B846BB462148B0F80490D0F800A0CAF814900520FFF7C9FE53
:201920000A20FFF7EBFE0BF1010BFF20FFF7C1FE810703D5594689B2C829F1DBCAF8109069
:2019400010F0030F23D1CAF814900320FFF7B1FE2046000CC0B2FFF7ACFE2046000AC0B2ED
:20196000FFF7A7FE2046C0B2FFF7A3FE06E0FF20FFF79FFE394689B270547F1C38462946BF
:2019800080B28842F3D3CAF810904FF001084046BDE8F28F983C000878B585B00546002284
:2019A0000421684600F066FD0022102101A800F061FD10208DF8030003208DF802004FF412
:2019C00080742046ADF80000484E69463046FFF7F9FB7461464C204600F02CFC4FF480605B
:2019E000ADF8000003208DF8020018208DF80300404E69463046FFF7E5FB4FF40060ADF807
:201A0000000048208DF8030069463046FFF7DAFB019500200290ADF80C00ADF810000C200C
:201A2000ADF80E0001A9204600F051FC0121204600F0AAFC012240F22441204600F0B1FCCB
:201A400006B070BD1CB5044600220421684600F011FD34208DF8000000208DF801008DF891
:201A600002008DF803406846FFF75BFB13BD70B504460D461E4E40F2A551304600F0DBFC3F
:201A8000224640F22551304600F08BFC2A4640F226613046BDE8704000F083BC00EB4001FA
:201AA0004903491C0846411E0028FBD170472DE9F04104460D4600260F4F4FF48078C7F8BB
:201AC00000800120FFF7EAFF094805E0A15D818001880906FCD5761CAE42F7D30120FFF785
:201AE000DDFFC7F80480BDE8F0810000000C0140004C004000100140100C014080B54FF4B2
:201B0000E13001F09BFA01F0EEFA00210120BDE8044001F0F9BAF8B504460D4616460022BE
:201B20004FF4967100F0A6FC04F1590004F1FC0104F17C022B46012B40F08080C8231360EB
:201B400002230B7001230370C823536002234B704370C823936019238B700B238370C823FC
:201B6000D3600223CB700C23C370C82313610A230B710D230371C82353610A234B711B23FE
:201B80004371C82393610A238B7112238371C823D3612823CB710423C371C8231362B42328
:201BA0000B7205230372C8235362B4234B7206234372C82393620A238B72072383724FF48D
:201BC0004873D3620223CB720823C37240F6B833136302270F7309270773536302234B73CE
:201BE0002B234373C823936302238B732C238373C823D3630223CB732D23C373C82313642C
:201C000002230B7430230374C823536402234B742E234374C823936402238B743223837476
:201C2000C823D3640223CB743323C374C823136502220A750A21017515201AE04FF4FA631B
:201C4000136001230B7010230370B423536001234B70032343704FF4C873936001238B70FA
:201C60000F2383701423D3600122CA700021C170042004F58E7102224A800D7108704822BC
:201C800031462046BDE8F84000F0E6BD38B504460D4694F81D01204490F85900332800F231
:201CA0009C80DFE800F01A1A2323454A4F54595E92282C313B9A719A406C9A9A9A9A9A9AAF
:201CC0009A369A9A9A9A9A9A9A9A689A9A9A9A9A9A63797E889A839A8D96A148818800684A
:201CE0004161A04881880068416176E09D4881880068016171E097A001F048FA6DE00FF230
:201D0000FC2001F043FA68E00FF2F82001F03EFA63E00FF2F82001F039FA5EE00FF2F4201C
:201D200001F034FA59E00FF2F82001F02FFA54E00FF2F42001F02AFA4FE00FF2F82001F081
:201D400025FA4AE00FF2F82001F020FA45E00FF2FC2001F01BFA40E00FF2103001F016FA6C
:201D60003BE00FF2183001F011FA36E00FF2183001F00CFA31E07C4801F008FA2DE00FF2D7
:201D8000143001F003FA28E00A2001F0DAF90FF2243001F0FBF920E00FF2283001F0F6F9A8
:201DA0001BE00FF23C3001F0F1F916E00FF2503001F0ECF911E00FF2643001F0E7F90CE050
:201DC0000FF2783001F0E2F907E0684801F0DEF903E00FF27C3001F0D9F9C4F8245131BDBD
:201DE00070B506460D46002496F81D01304490F85900001F2F2800F2AA80DFE800F06169E7
:201E00007A1818188C181821A8A818A81853A8A8A8A8A8A8A837A8A8A8A8A8A8A8A895956F
:201E2000A8A8A8A8A845959595A895A89D954AA1284601F0B7FB002800F08980012486E097
:201E400045A1284601F0AEFB002800F08080484C04F5C0660F22A91C304600F0FDFC04F57B
:201E6000BE61304601F0C2F9012470E03AA1284601F098FB00286AD01122A91C06F1480046
:201E800000F0EAFC012462E033A1284601F08AFB00285CD0102205F11101364800F0DCFC79
:201EA000012454E02CA1284601F07CFB00284ED0ABA1284601F076FB002848D0012446E039
:201EC000A9A1284601F06EFB002840D001243EE0A7A1284601F066FB002838D01FA128460F
:201EE00001F060FB4078312801D035282FD101242DE000BFA0A1284601F054FB002826D059
:201F000016A1284601F04EFB4078312801D035281DD101241BE000BF99A1284601F042FB80
:201F2000002814D0012412E00BA1284601F03AFB00280CD001240AE091A1284601F032FB6D
:201F4000002804D0012400BF8FA001F01FF9204670BD0000415400004F4B00002C0000007B
:201F6000903C0008883C0008383B00086C3B0008803200206038002000F21D110A78024425
:201F800092F85900032814D9001F0A281AD90B3801280ED9C01E012814D9093812D0093857
:201FA00002280FD9C01F05280CD9C01F012809D97047002082F8FC000878401C0870002073
:201FC000C8727047C87A002805D1002082F8FC000878401C0870704710B5044671A101F01D
:201FE000E1FA002840F0068071A1204601F0DAFA002801D0012010BD002010BD415445300D
:202000000000000041542B47534E000041542B43494D490041542B43434C4B3F000000001A
:20202000415426443100000041542B4350494E3F0000000041542B435245473F0000000027
:2020400041542B43475245473F00000041542B5149435347503D312C312C22434D4E455402
:20206000222C22222C22222C3100000041542B514944454143543D310000000041542B51C7
:20208000494143543D31000041542B51494143543F00000041542B514E54503D312C22324F
:2020A00030322E3131322E31302E3336222C31323300000041542B5149434C4F53453D31B4
:2020C0000000000041542B51485454504346473D22636F6E746578746964222C310000002F
:2020E00041542B51485454504346473D2272657175657374686561646572222C310000006F
:2021000041542B51485454504346473D22636F6E74656E7474797065222C300041542B51F3
:20212000485454504346473D22726573706F6E7365686561646572222C31000041542B51C8
:202140004854545055524C3D32372C363030300041542B514854545055524C3F0000000031
:20216000514E54500000000052454144590000002B435245470000002B43475245470000C8
:20218000434F4E4E45435400687474703A2F2F696F742D6170692E6865636C6F7564732E77
:2021A000636F6D00636C6F7365640D0A0000000070647064656163740D0A000009010200E7
:2021C00002D4174881547047164802F00F02104400F8041C704710B5401EB0F1807F01D323
:2021E000012010BD104C60600F214FF0FF30FFF7E5FF0020A06007202060002010BD80B574
:202200000420FEF7C1FF0948FFF7E5FF08480021016041600F214FF0FF30BDE80440CDE70C
:2022200000E400E018ED00E010E000E0C02709006048002080B54F4988420BD101214FF495
:202240008040FEF761FE00214FF48040BDE80440FEF75ABE484988420BD101214FF4003084
:20226000FEF75DFE00214FF40030BDE80440FEF756BE424988420BD101214FF48020FEF75D
:202280004EFE00214FF48020BDE80440FEF747BE3B4988420BD101214FF40020FEF73FFE2A
:2022A00000214FF40020BDE80440FEF738BE354988420BD101214FF48010FEF730FE002169
:2022C0004FF48010BDE80440FEF729BE01BD30B585B004460D46218A4CF6FF700140E888E4
:2022E00001432182A1894EF6F3100140A88801432889014368890143A181A18A4FF6FF40D6
:202300000140A8890143A1826846FEF79CFD1948844201D1039900E002992A681920414349
:20232000A089000403D55200B1FBF2F202E09200B1FBF2F26420B2FBF0F109010B461B0921
:2023400000FB1322A089000408D5D20032326420B2FBF0F000F00700014307E01201323263
:202360006420B2FBF0F000F00F000143218105B030BD000000380140004400400048004040
:20238000004C004000500040002904D0818941F400518181704782894DF6FF710A408281D0
:2023A000704710B40B46DBB25B09012401F01F0104FA01F1012B01D10C3004E0022B01D11D
:2023C000103000E01430002A026802D01143016002E022EA0101016010BC70470246002042
:2023E00012880A4200D001207047C9430180704730B4024600200C46E4B26409012501F053
:202400001F0305FA03F3012C02D19489234006E0022C02D1148A234001E0948A2340090AC8
:2024200005FA01F112881140002B02D0002900D0284630BC70470122090A02FA01F189B25A
:20244000C9430180704730B40EE00268436802440830DC0744BFA9F10104E31852F8045BAA
:2024600043F8045B091FF9D150F8041B0029ECD130BC704762F30F2262F31F4200B500BF30
:20248000130096469446103928BFA0E80C50FAD85FEA417C28BF0CC048BF40F8042BC90796
:2024A00028BF20F8022B48BF00F8012B00BD00001CB590F8101C491E042974D8DFE801F0EB
:2024C0000F466E031C00012180F8101C00F500642189491C89B200F001F9208063E00521BE
:2024E00080F8101C00F50064E2882189491C89B200F011F9208056E000F50064E288521C2A
:20250000E2801146A38889B299420AD2052180F8101CE2882189491C89B200F0FCF82080E3
:2025200041E092B2521E9202022180F8101C454900914FF4806302F1006202F5804221896E
:20254000491C89B200F00DF920802CE000F50064E1884A1EE280114689B2002914D092B2CA
:20256000521E9202022180F8101C364900914FF4806302F1006202F580422189491C89B202
:2025800000F0EFF820800EE0032180F8101C2189491C89B200F020F9208004E000F50060E2
:2025A0000189491C01816420BDE81640FFF776BA70B50546244C40F60C022946204600F01C
:2025C0005BF9618860180279407912EB0026091F04F1080000F0EAFDB6B2864230D1A17BA6
:2025E000B5F80B0000282BD10846401E042827D8DFE800F0031403030A00144802788A42A8
:202600001ED18221817070BD10480178052917D1217C012914D18221817070BD0C4800F56D
:202620004165297802290BD140F2094200F1090104F1100000F0CEFC002801D18220A87061
:2026400070BD000052160020742A0020581A0020480E002030B4024600244FF6FF7000E01B
:20266000641C23460D469BB2AB4216D223469BB2D35C584000231D46ADB2082DF0DA054650
:202680006D10C007284601D480B204E080F4044080F0080080B25B1CEDE7C04380B230BCCF
:2026A000704710B504467E202070552060700820A0700020E07020716171090AA17104208D
:2026C000E07100202072A078411E89B2A01CFFF7C1FF60720012A0720B2010BD10B50446D6
:2026E0007E202070552060700820A0700020E07020716171090AA1710120E0710020207213
:20270000A078411E89B2A01CFFF7A4FF60720012A0720B2010BD10B504467E202070552012
:2027200060700C20A0700020E07020716171090AA1710520E0710020207262721046000A39
:20274000A0721046000CE072120E2273A078411E89B2A01CFFF77EFF60730012A0730F20F6
:2027600010BD38B504461D467E202070552060700020A070E07020716171090AA171022055
:20278000E0710020207201206072A2721046000AE0721046000C2073120E6273A57328460D
:2027A000000AE0732846000C20742846000E60742A46049904F1120000F04EF8123528465F
:2027C000811E89B2A01CFFF745FF60556D1C001260556D1C284632BD10B504467E20207001
:2027E000552060700820A0700020E07020716171090AA1710320E07100202072A078411EC7
:2028000089B2A01CFFF726FF60720012A0720B2010BD80B5FEF7E0FB042801D1012002BDD5
:20282000002002BD2DE9F04104460D46164600274FF0010800E03F1DB7420AD238468008F3
:2028400055F820103819FEF7E8FB0428F3D04FF000084046BDE8F08162B38B0708D0521E11
:2028600011F8013B00F8013B00F024808B07F6D1830740F0208000BF103A07D330B4B1E838
:202880003810103AA0E83810F9D230BC530724BFB1E80810A0E8081044BF51F8043B40F8CE
:2028A000043BD20724BF31F8022B20F8022B44BF0B7803707047121F17D35B0009D151F839
:2028C000043B20F8023B1B0C121F20F8023BF6D20BE051F8043B00F8013B1B0A20F8023BCE
:2028E0001B0C121F00F8013BF3D238BF121D521E24BF11F8013B00F8013BF8D8704700000E
:2029000000EB40014903491C0846411E0028FBD170472DE9F043A5B004460D460022802184
:2029200005A8FFF7A7FD002214216846FFF7A2FD6078204490F82800032805D0042844D08A
:20294000062800F09880DEE0DFF86065002240F2DC513046FFF78EFDDFF8547539463046DA
:2029600000F036FE0FF2705100F032FEA3A1304600F02EFEDFF83C1500F02AFE0FF2605189
:20298000304600F025FEDFF8301500F021FE0FF26851304600F01CFE07F12C0100F018FE1E
:2029A0000FF26051304600F013FE07F1500100F00FFE93A1304600F00BFE0FF2585100F06B
:2029C00007FE304600F0E2FB9DE0DFF8F06406F65807002240F2DC513846FFF74BFD707986
:2029E0003179884243D3DFF8C8844146384600F0EFFD0FF2E44100F0EBFD0FF20029494692
:202A0000384600F0E5FDDFF8AC1400F0E1FD4946384600F0DDFD06F61F0100F0D9FD0FF247
:202A20001051384600F0D4FD08F12C0100F0D0FD0FF21451384600F0CBFD08F1500100F03D
:202A4000C7FD0FF2BC184146384600F0C1FD3179684600F0B3F90146384600F0B9FD414644
:202A600000F0B6FD0FF2AC41384600F0B1FD384600F08CFB47E0DFF8448408F65806002270
:202A800040F2DC513046FFF7F5FCDFF8247407F1B401304600F09CFD0FF23C4100F098FD5C
:202AA0000FF258194946304600F092FDDFF8041400F08EFD4946304600F08AFD08F61F011C
:202AC00000F086FD0FF29041304600F081FD0FF2784100F07DFD07F15001304600F078FD85
:202AE00047A100F075FD07F12C01304600F070FD0FF2784100F06CFD0FF21841304600F0C1
:202B000067FD00F043FBC4F8E85125B0BDE8F08370B50C4600254178084490F82800C01E12
:202B2000032866D8DFE800F00212545D0FF25041204600F037FD00285BD0DFF88013204671
:202B400000F072F8002854D0012552E00FF24041204600F027FD002806D10FF224412046B0
:202B600000F020FD002844D0204600F062F9DFF8505340F2144221182846FFF76DFEDFF87A
:202B80003C4320796179884208D1A87DE97D10EB01261421A81C00F009FB0AE005F21240D3
:202BA0000178407811EB00264FF48261A81C00F0FDFAB6B2864207D14FF4806205F11201BB
:202BC000C048FFF749FE01E00420E070012510E00FF2CC31204600F0E5FC002809D00125E9
:202BE00007E00FF2BC31204600F0DCFC002800D001250020B1498871284670BD2F000000D7
:202C00000D0A00004178421892F82810491E042908D88178002905D1002182F848114178AF
:202C2000491C41707047000070B505460C460026324640F658012046FFF71CFC0FF26831CA
:202C4000284600F0AFFC002873D00FF26831284600F0A8FC002877D0142205F58F7104F6CB
:202C60000900FFF7F9FD062205F59D7104F61F00FFF7F2FD062205F5A47104F62700FFF7E3
:202C8000EBFD202205F5A97104F62F00FFF7E4FD204600F083F83046FEF7DCFD4FF47A70B4
:202CA000FFF72EFE4FF48030FEF7D4FD4FF47A70FFF726FE84486179417004F619010A7805
:202CC000312A0FD14B78302B0CD18B78302B09D1CB78302B06D1012101700846607002203E
:202CE000E07024E0302A0ED14B78312B0BD18B78302B08D1CB78302B05D1022101700846BF
:202D00006070E07013E0302A0FD14A78302A0CD18A78312A09D1C978302906D10321017030
:202D2000084660700220E07001E00720E07001260AE000BFA1A1284600F034FC002803D010
:202D400047F2777060498880304670BDF8B5044600255E4E2A464FF48061304600F048FCF9
:202D6000584F3A464FF4806120798002FEF73EFD002811D032464FF4806120798002FEF708
:202D8000BDFD002808D04FF480623146384600F021F9002800D101252846F2BD10B504460A
:202DA0000A22062104F6270000F040FA4849086040F21441B0FBF1F0607110BD7FB504464D
:202DC0000D460022062102A8FFF754FB002206216846FFF74FFB40F2144010FB05F5374827
:202DE00001794079814202D105F1170601E005F213460623002202A9284600F098FA0623B7
:202E000000226946304600F092FA00BF6FA1204600F0DEFB02A9204600F0DAFB22A12046F2
:202E200000F0D6FB6946204600F0D2FB204604B070BD10B401460022104601E00020521CC6
:202E4000B2F5806F0ED28B181C780D2CF7D15C780A2CF4D198780D28F0D1D8780A28EDD1AF
:202E6000121D104610BC704738B50024154D2A464FF480614FF48050FEF740FD002811D0F5
:202E800011480078012808D106221249284600F0A1F8002806D1012404E0022801D00328B7
:202EA00000D10124204632BD2D0000006C080020583A0008803800200C48002014000020EC
:202EC00090380020A43C002004480020A44000206848002000500008353938323433000033
:202EE0002F636865636B3F747970653D312676657273696F6E3D000020485454502F312EDF
:202F0000310D0A00617574686F72697A6174696F6E3A0000686F73743A696F742D617069F3
:202F20002E6865636C6F7564732E636F6D0D0A002F646F776E6C6F616420485454502F3141
:202F40002E310D0A00000000617574686F72697A6174696F6E3A20002F737461747573201D
:202F6000485454502F312E310D0A0000646174613A207B737465703A2039397D0D0A0000B0
:202F8000485454502F312E312032303000000000485454502F312E312032303600000000C9
:202FA000434F4E4E4543540022636F6465223A3000000000534D353030315F0022636F64A1
:202FC00065223A31323031320000000052616E67653A20000300002013F0030F09D0521E72
:202FE00022BF13F8010B11F801CBB0EB0C00F3D0704711F0030F14D1121F22BF53F8040B7F
:2030000051F804CB6045F7D0121D0AD200BA9CFA8CFCB0EB0C0038BF6FF0000088BF0120E4
:203020007047521E22BF13F8010B11F801CBB0EB0C00F6D0521C08BF1046704730B585B0D3
:203040000546002204216846FFF714FA0022102101A8FFF70FFA10208DF8030003208DF8D1
:2030600002001020ADF80000444C69462046FEF7A9F8102060612020ADF800006946204653
:20308000FEF7A0F8202020613D4C2046FFF7D2F84FF48050ADF8000003208DF80200182099
:2030A0008DF8030069463748FEF78CF80420ADF800008DF8030069463348FEF783F8019560
:2030C00000200290ADF80C00ADF810000C20ADF80E0001A92046FFF7FAF801212046FFF783
:2030E00053F905B030BD80B535208DF8000001208DF8010000208DF8020001208DF80300DC
:203100006846FEF70EF801BD70B504460D461C4E40F227713046FFF78EF9224640F225514F
:203120003046FFF73EF92A4640F226613046BDE87040FFF736B912490A881206FCD5888035
:203140007047C0EBC001C902491C0846411E0028FBD1704710B4002208E0094B1C882406D4
:20316000FBD51446A4B2045D9C80521C13460C469BB2A342F1D310BC70470000000C014073
:2031800000500040001001400014014010B5044600F062FA014689B22046FFF7DBFF0D20B9
:2031A000FFF7C9FF0A20BDE81040C4E730B4024600244FF6FF7000E0641C8C4212D2135D01
:2031C00058400023082BF7D205466D10C007284601D480B204E080F4044080F0080080B2EE
:2031E0005B1CEFE7C04380B230BC704770B504460D460020002C16D0204600F02DFA4FF6F4
:20320000FE71084000210BE0074A635CD35C66187678925D42EA031205F8012B891C89B207
:203220008142F1DB400870BDA836000830B400231C46002878D0022A08D0082A18D00A2A79
:2032400027D0102A54D0112A36D06DE022460D46D2B2AA4268D20278302A01D0312A63D1F2
:203260001D461346303B03EB4503641C401CEDE722460D46D2B2AA4256D20278A2F13005AC
:20328000082D51D2303A02EBC3021346641C401CEEE722460D46D2B2AA4245D20278A2F161
:2032A00030050A2D40D203EB8305303A02EB45021346641C401CECE722460D46D2B2AA4249
:2032C00032D20278A2F130050A2D02D32E2A2BD105E003EB8305303A02EB45021346641C76
:2032E000401CE9E7373A02EB03121346641C401C22460D46D2B2AA4216D20278A2F13005A5
:203300000A2D04D2303A02EB03121346EEE7A2F16105062D04D2573A02EB03121346E5E74C
:20332000A2F14105062DDDD3184630BC7047F0B40446002901D1002028E09A1A18464D1E42
:20334000002818D00A26B4FBF6F6374607EB870CA4EB4C0430342C543446461E1746FFB2E1
:20336000BE4204D130462E260746FFB2EE55401EC0B2002CE4D11B1A30224C1E02E0225473
:20338000401EC0B20028FAD11846C0B2F0BC70472DE9F04180460F461446012600253800F7
:2033A0004DD0FDF7BBFF002800D12E46300007D0A020FEF71DF8FEF702F8002800D12E46A8
:2033C000300006D04046000AFEF712F8FDF7F7FF0646300006D04046C0B2FEF709F8FDF73A
:2033E000EEFF0646300004D0FDF798FF002800D12E46300007D0A120FDF7FAFFFDF7DFFF11
:20340000002800D12E467F1E300007D115E0FEF70CF804F80800FDF7ACFF6D1CA8461FFA79
:2034200088F82846394680B289B28842EFD3FDF7FCFF04F80800FDF7AFFFFDF787FF3046A1
:20344000BDE8F0812DE9F04107460C46904600250126200034D0FDF761FF002800D12E4669
:20346000300007D0A020FDF7C3FFFDF7A8FF002800D12E46300006D03846000AFDF7B8FF8E
:20348000FDF79DFF0646300013D03846C0B2FDF7AFFFFDF794FF06460BE0300008D0284677
:2034A00080B218F80000FDF7A3FFFDF788FF06466D1C2846214680B28842EED3FDF746FF19
:2034C0000520FDF722FF3046BDE8F0812DE9F04104460E461546002710F01F0F0ED004F0BF
:2034E0001F00C0F12000374680B2874200D9074639462046FFF7A6FFF61B00E001200100AB
:2035000019D0314689B2002915D04FF02008304680B2202800D2B046384680B22A1841466A
:2035200089B2381980B2FFF78DFFA6EB080617FA88F70100E5D1BDE8F0810000038803F4CD
:2035400041530A8813434A8813438A881343CA8813430A8913434A8913438A891343CA89E9
:2035600013430380838B4FF2FF7213408383098A01827047002904D0018841F04001018013
:20358000704702884FF6BF710A400280704781817047808970470246002012890A4200D05A
:2035A0000120704770B50D462C7834B970BD11F8013F1678B34206D0401C214600F068F848
:2035C00028B101462A4612F8013F002BEFD170BD034600E05B1C1A78002AFBD111F801CBFC
:2035E00083F800C013F8012B002AF7D17047000062F30F2262F31F42401810F0030308D03E
:20360000C91A1FD3DB0748BF00F8012D28BF20F8022D130030B414461546103928BF20E9B3
:203620003C00FAD8490728BF20E90C0048BF40F8042D890028BF20F8022D48BF00F8012DDC
:2036400030BC7047C91818BF00F8012DCB0728BF00F8012D7047000000F10103810704D002
:2036600010F8011B820781B1FAD10268A2F10131914311F0803104BF50F8042FF6E709BA0D
:20368000B1FA81F100EBD100401CC01A70470000C9B202788A421AB11CBF10F8012FF9E7E5
:2036A00018BF0020704700000000000000000000000000000000000000000000000000005C
:2036C0000000000000000000000000000000000000000000000000000001020304050607CE
:2036E0000809000000000000000A0B0C0D0E0F00000000000000000000000000000000006E
:203700000000000000000000000A0B0C0D0E0F00000000000000000000000000000000005E
:20372000000000000000000000000000000000000000000000000000000000000000000089
:20374000000000000000000000000000000000000000000000000000000000000000000069
:20376000000000000000000000000000000000000000000000000000000000000000000049
:20378000000000000000000000000000000000000000000000000000000000000000000029
:2037A00000000000000000007047FEE7FEE7FEE7FEE770477047704730480168491C0160F2
:2037C00000681521B0FBF1F201FB1200002806D12B48016841F4904141F0020101602948C8
:2037E0000178090608D5D0F80818491DC0F80818322901D305210170704710B5224C40F25C
:2038000025512046FEF7F4FD002819D01F49A08808701C4809784288024491714188491CA8
:20382000418089B2B1F5006F04DA017841F08001017001E0062101700021C0F8081800E0AB
:20384000A088208800F47C40208010BD10B5104C40F225512046FEF7CBFD002807D00D483B
:20386000A18801700C49007800F019F800E0A088208800F47C40208010BD0000604800204B
:20388000444800205C1A0020005000406C480020004C00406D4800206822002070470A783E
:2038A000002A06D0812A0BD0822A19D0842A32D057E07E2855D1812008707E20887150E05A
:2038C0000246552A04D1822008705520C87148E07E2802D18120087043E00020087040E0EF
:2038E0000246083AE92A08D284220A700246D21C8A8008720320488033E0002808D18420D4
:20390000087015208880002008720320488028E00020087025E00A7A002A17D14A880F2A27
:2039200003D18A8812188A8010E0102A05D18A88034612EB03228A8008E0112A02D18A88DE
:203940008A8003E0122A01D18A888A804A88531C4B808B1D985448888A88904201D3062002
:2039600008700020C1F80808704700003649086840F0010008604A68344802404A600A681B
:20398000334802400A60086820F480200860486820F4FE0048604FF41F00886000E00000E0
:2039A00000BF82B00020009001902749086840F4803008604FF6FF72086800F400300190CE
:2039C0000098401C00900198002802D100989042F2D10868400C00F00100019001980128A2
:2039E00030D11C48026842F0100202600268920892000260026842F0020202604868486000
:203A000048684860486840F480604860486820F47C104860486840F4A0204860086840F0FE
:203A20008070086008688001FCD54868800880004860486840F002004860486800F00C00D6
:203A40000828FAD102B07047001002400000FFF8FFFFF6FE002002404745542068747470A5
:203A60003A2F2F696F742D6170692E6865636C6F7564732E636F6D2F667573652D6F7461B6
:203A80002F000000436F6E74656E742D547970653A206170706C69636174696F6E2F6A7353
:203AA0006F6E0D0A0000000076657273696F6E3D323032322D30352D3031267265733D75C7
:203AC00073657269642532463333323138362665743D32353939383831323430266D657443
:203AE000686F643D6D6435267369676E3D71544A59307A70493834795169686242545A67A9
:203B0000697741253344253344000000504F535420687474703A2F2F696F742D6170692EAD
:203B20006865636C6F7564732E636F6D2F667573652D6F74612F000041542B5149444E5300
:203B40004346473D312C223131342E3131342E3131342E313134222C223131342E3131342D
:203B60002E3131352E3131352200000041542B51494F50454E3D312C312C22544350222CBF
:203B800022696F742D6170692E6865636C6F7564732E636F6D222C38302C302C32000000EE
:203BA00010B5074979441831064C7C44163404E00A68081D114488470146A142F8D110BD2F
:203BC0002C0000004C00000080B5FCF728FBFCF762FBFCF797FBFCF760FCFCF75EFDFCF7BD
:203BE00025FEFCF7FEFEFCF7D4FFF0E7F3D4FFFF5C48000014000020000000004BE8FFFF48
:203C00001400000054000000000000200000000000F00DF8002801D0FFF7C2FFAFF3008055
:203C20000020AFF30080FFF7CFFF00F002F80120704700F001B800000746384600F002F85E
:203C4000FBE7000080B5AFF30080024A11001820ABBEFBE726000200000000000102030419
:203C600001020304060708090204060801488047014800476D3900087D3C0008AFF30080D7
:203C8000AFF30080FFF7C4FF000C014010000000000C014020000000000C01400010000022
:203CA000FFF7FEBFFFF7FEBFFFF7FEBFFFF7FEBFFFF7FEBFFFF7FEBFFFF7FEBFFFF7FEBF6C
:203CC000FFF7FEBFFFF7FEBFFFF7FEBFFFF7FEBFFFF7FEBFFFF7FEBFFFF7FEBFFFF7FEBF4C
:203CE000FFF7FEBFFFF7FEBFFFF7FEBFFFF7FEBFFFF7FEBFFFF7FEBFFFF7FEBFFFF7FEBF2C
:203D0000FFF7FEBFFFF7FEBFFFF7FEBFFFF7FEBFFFF7FEBFFFF7FEBFFFF7FEBFFFF7FEBF0B
:203D2000FFF7FEBFFFF7FEBFFFF7FEBFFFF7FEBFFFF7FEBFFFF7FEBFFFF7FEBFFFF7FEBFEB
:203D4000FFF7FEBFFFF7FEBFFFF7FEBFFFF7FEBFFFF7FEBFFFF7FEBFFFF7FEBFFFF7FEBFCB
:203D6000FFF7FEBFFFF7FEBFFFF7FEBFFFF7FEBFFFF7FEBFFFF7FEBFFFF7FEBFFFF7FEBFAB
:043D8000FFF7FEBF8C
:2040000098720020691D0108D90E0108DB0E0108DD0E0108DF0E0108E10E01080000000023
:20402000000000000000000000000000E30E0108E50E010800000000E70E0108E90E01088C
:204040005D1F0108611F0108651F0108890F0108691F01086D1F0108711F0108751F0108C8
:20406000791F01087D1F0108811F0108851F0108B510010891100108891F01088D1F0108C6
:20408000EF0F0108151001084B110108911F0108951F0108991F01089D1F0108A11F0108C1
:2040A000A51F0108A91F0108AD1F0108B11F0108B51F0108B91F0108BD1F0108C11F010828
:2040C000C51F0108C91F0108CD1F0108D11F0108D51F0108530F0108B30F01085710010871
:2040E000D91F0108DD1F0108E11F0108E51F0108E91F0108ED1F0108F11F0108F51F010848
:20410000F91F0108FD1F01080120010805200108AB110108EF100108092001080D200108CC
:2041200011200108152001084D1101087311010830B4002513E050F8042BD30744BFA9F129
:2041400001039A18091F042942F8045BFAD213468C0744BF15809B1CC90748BF1D7050F808
:20416000041B0029E7D130BC7047B1F5807F02D34FF0FF3070470170012070470078401EDE
:204180008041C043C00F70470268531C03601170704712000130010101000131077301006E
:2041A0000120020102030404F0090806070809020406084AC6000452FF01E362B714200401
:2041C0000000A6B9000857F003162C000020000120027D4100082C436B413C210103010165
:20500000534D353030312032333038323330312047443332323330320000000000000000A0
:125020000000000000000000000000000000000000007E
:2050340038B500F044F800F03CF9DFF81C090021817300214173417B00EB81014FF4487212
:20505400C1F8A820DFF8044994F80811427B024451740121427B024482F885100621427B12
:20507400024482F865100E21427B024482F83110417B491C41730421417001210170DFF8E5
:20509400D05822000121280004F094F80220A5F87E0394F8090105F003F831BD4FF4C041F0
:2050B4004843401C0100481E0029FBD170472DE9F04700260027DFF8944822004FF49A7125
:2050D4004FF4807005F009F905002800C0B200280DD000265FF000084FF49871200005F010
:2050F40017FAD4F83011884201D00022150022004FF49A714FF4407005F0EFF80600300037
:20511400C0B200280DD000275FF000084FF49871200005F0FDF9D4F83011884201D0002265
:2051340016002800C0B2002803D13000C0B2002804D0200000F09BF8002841D04FF49A77E1
:205154005FF00008A14642463900484605F050FB012084F80B010F2084F80801002084F875
:2051740009010120A4F80E010520A4F812010620A4F810015020A4F8F2001E20A4F8F400D2
:205194005F20A4F8F6000A20A4F8F8005A20A4F8FA004FF41670A4F8FC00A4F8FE0040F2EF
:2051B400B220A4F800014FF47A71A4F80211A4F804014FF42F70A4F8060100F0F1F82CE084
:2051D4002800C0B2012812D13000C0B200280ED122004FF49A714FF4807005F07EF822003C
:2051F4004FF49A714FF4407005F03EF915E02800C0B2002811D13000C0B201280DD12200CA
:205214004FF49A714FF4407005F067F822004FF49A714FF4807005F027F905F01DFBDFF849
:205234003477387A00280FD1787A00280CD15FF01608DFF8249717F1080A42464946504638
:2052540005F0A8FB05F085FB45F25550B988814205D1B978B4F8102189B2914205D0B4F8DA
:205274001011B970B88005F074FBBDE8F0870200002092F80B1101290FD1B2F81011002952
:205294000BD0B2F80E11152907DA92F808111F2903DAB2F8F410292901DB01210800C0B2F7
:2052B40070472DE9F84F00260027DFF8B0462200B4214FF4A06005F010F805002800C0B2D6
:2052D40000280CD000265FF00008B021200005F01FF9D4F8B010884201D0002215002200BB
:2052F400B4214FF4E06004F0F8FF06003000C0B200280CD000275FF00008B021200005F047
:2053140007F9D4F8B010884201D00022160056EA0500C0B2002818D1B4275FF00008A14639
:2053340042463900484605F063FA5FF06309DFF830A614F1010B4A465146584605F02AFB60
:205354006320207000F04BF828E02800C0B2012810D13000C0B200280CD12200B4214FF466
:20537400A06004F0BAFF2200B4214FF4E06005F07BF813E02800C0B200280FD13000C0B253
:2053940001280BD12200B4214FF4E06004F0A5FF2200B4214FF4A06005F066F8BDE8F18F30
:2053B40070B50024DFF8A4650020C6F830014FF49871300005F0ACF8C6F8300132004FF428
:2053D4009A714FF4807005F04FF8050032004FF49A714FF4407005F047F8C0B270BD70B5CF
:2053F4000024DFF878650020C6F8B000B021300005F08EF8C6F8B0003200B4214FF4A060FF
:2054140005F032F805003200B4214FF4E06005F02BF8C0B270BD2DE9F84F05000E0017008C
:2054340000245FF000081F20210089B239448870641C3000C0B2F1281BDB200080B23844CE
:205454008670641C0020210089B239448870641CB1465FFA89F9AA46200080B2384410F1C0
:20547400020B4A465146584605F094FA54FA86F438E041F22340385C00280ED1B1465FFA62
:2054940089F9AA46200080B2384410F1020B4A465146584605F07EFA0EE0B1465FFA89F9B8
:2054B4005FF0000A200080B2384410F1020B52464946584605F09CF954FA86F441F22440F5
:2054D400385C210089B239448870641C0020210089B239448870641C0020210089B2394469
:2054F4008870641C210089B2B81C05F011F80100200080B238448170641C080080B2000A6E
:20551400220092B23A449070641C3C80200080B2BDE8F28F70B50400002600251F203100FB
:2055340089B26054761CDFF83C0490F8EC12320092B2A154761C90F8ED02310089B26054A5
:20555400761C0020310089B26054761C0020310089B26054761C310089B2200004F0D8FFAA
:205574000100300080B22154761C080080B2000A320092B2A054761C300080B270BD70B5B9
:205594000400002600251F20310089B26054761CDFF8D00390F8E412320092B2A154761C92
:2055B40090F8E502310089B26054761C0020310089B26054761C0020310089B26054761C12
:2055D400310089B2200004F0A3FF0100300080B22154761C080080B2000A320092B2A0547D
:2055F400761C300080B270BDF8B504000D00002700261F20390089B2214488707F1C280098
:20561400C0B23B2810D1DFF85C0390F8E4123A0092B2224491707F1C90F8E502390089B2A9
:20563400214488707F1C12E02800C0B23A280ED1CC4890F8EC123A0092B2224491707F1C77
:2056540090F8ED02390089B2214488707F1C0020390089B2214488707F1C0020390089B233
:20567400214488707F1C390089B2A01C04F050FF0100380080B2204481707F1C080080B216
:20569400000A3A0092B2224490707F1C2780380080B2F2BD2DE9F84F04000D0016005FF0DA
:2056B400000A00271F20514689B2214488701AF1010AB0465FFA88F8A946504680B2204437
:2056D40010F1020B42464946584605F063F95AFA86FA0020514689B2214488701AF1010A69
:2056F4000020514689B2214488701AF1010A514689B2A01C04F00CFF0100504680B2204477
:2057140081701AF1010A080080B2000A524692B2224490701AF1010AA4F800A0504680B2CE
:20573400BDE8F28F70B50400002600251F20310089B221448870761CDFF8840DB0F80E11F2
:20575400320092B222449170761CB0F81211320092B222449170761CB0F81011320092B24D
:2057740022449170761C90F80C11320092B222449170761CB0F8141189B2090A320092B277
:2057940022449170761CB0F81411320092B222449170761CB0F8F21089B2090A320092B252
:2057B40022449170761CB0F8F210320092B222449170761CB0F8F41089B2090A320092B253
:2057D40022449170761CB0F8F410320092B222449170761CB0F8F61089B2090A320092B22F
:2057F40022449170761CB0F8F610320092B222449170761CB0F8F81089B2090A320092B20B
:2058140022449170761CB0F8F810320092B222449170761CB0F8FA1089B2090A320092B2E6
:2058340022449170761CB0F8FA10320092B222449170761CB0F8FC1089B2090A320092B2C2
:2058540022449170761CB0F8FC10320092B222449170761CB0F8FE1089B2090A320092B29E
:2058740022449170761CB0F8FE10320092B222449170761CB0F8001189B2090A320092B279
:2058940022449170761CB0F80011320092B222449170761CB0F8021189B2090A320092B254
:2058B40022449170761CB0F80211320092B222449170761CB0F8041189B2090A320092B230
:2058D40022449170761CB0F80411320092B222449170761CB0F8061189B2090A320092B20C
:2058F40022449170761CB0F80601310089B221448870761C0020310089B221448870761C16
:205914000020310089B221448870761C0020310089B221448870761C310089B2A01C04F061
:20593400F7FD0100300080B220448170761C080080B2000A320092B222449070761C2680BD
:20595400300080B270BD00009C560020E0570020E84300208C5C0020C81C0108385A002049
:205974008C160108744700202DE9F34F83B00500160000240020ADF8080000275FF0000878
:205994001F20210089B231448870641C9DF81000002840F0C782DFF8280BB0F81001400022
:2059B4002900C9B28842C0F2C7845FF08409DFF814AB2800C0B209FB00F05044407F2100F4
:2059D40089B231448870641C2800C0B209FB00F05044807FC0F3C0012800C0B209FB00F068
:2059F4005044807FC0F38000800050EAC1002900C9B209FB01F15144897FC1F3400150EAEC
:205A140041002900C9B209FB01F15144897F11F001010843210089B231448870641C28003B
:205A3400C0B209FB00F0504490F82000210089B231448870641C2800C0B209FB00F0504445
:205A5400408C80B2000A210089B231448870641C2800C0B209FB00F05044408C210089B297
:205A740031448870641C2800C0B209FB00F05044808C80B2000A210089B231448870641C72
:205A94002800C0B209FB00F05044808C210089B231448870641C062001902800C0B209FB26
:205AB40000F0504426300090200080B2304410F1020B019A0099584604F06CFFA41D28007A
:205AD400C0B209FB00F05044808D80B2000A210089B231448870641C2800C0B209FB00F098
:205AF4005044808D210089B231448870641C2800C0B209FB00F0504490F82E00210089B274
:205B140031448870641C2800C0B209FB00F05044008E80B2000A210089B231448870641C4F
:205B34002800C0B209FB00F05044008E210089B231448870641C2800C0B209FB00F0504436
:205B540090F83200210089B231448870641C2800C0B209FB00F05044808E80B2000A2100A1
:205B740089B231448870641C2800C0B209FB00F05044808E210089B231448870641C280048
:205B9400C0B209FB00F05044C08E80B2000A210089B231448870641C2800C0B209FB00F096
:205BB4005044C08E210089B231448870641C2800C0B209FB00F05044008F80B2000A210098
:205BD40089B231448870641C2800C0B209FB00F05044008F210089B231448870641C280067
:205BF400C0B209FB00F05044408F80B2000A210089B231448870641C2800C0B209FB00F0B5
:205C14005044408F210089B231448870641C2800C0B209FB00F0504490F83C00210089B282
:205C340031448870641C2800C0B209FB00F0504490F83D00210089B231448870641C28000B
:205C5400C0B209FB00F0504490F83E00210089B231448870641C2800C0B209FB00F0504405
:205C740090F83F00210089B231448870641C2800C0B209FB00F0504490F84000210089B2BA
:205C940031448870641C2800C0B209FB00F0504490F84100210089B231448870641C2800A7
:205CB400C0B209FB00F0504490F84200210089B231448870641C002080464046C0B21428A9
:205CD40024DA2800C0B209FB00F050444146C9B200EB4100B0F8440080B2000A210089B2DE
:205CF40031448870641C2800C0B209FB00F050444146C9B200EB4100B0F84400210089B20B
:205D140031448870641C18F10108D6E72800C0B209FB00F0504490F86C00210089B23144CC
:205D34008870641C042001902800C0B209FB00F050446D300090200080B2304410F1020BFF
:205D5400019A0099584604F025FE241D2800C0B209FB00F05044B0F8720080B2000A21006C
:205D740089B231448870641C2800C0B209FB00F05044B0F87200210089B231448870641C62
:205D94002800C0B209FB00F05044B0F8740080B2000A210089B231448870641C2800C0B292
:205DB40009FB00F05044B0F87400210089B231448870641C2800C0B209FB00F05044B0F818
:205DD400760080B2000A210089B231448870641C2800C0B209FB00F05044B0F87600210053
:205DF40089B231448870641C2800C0B209FB00F05044B0F8780080B2000A210089B2314418
:205E14008870641C2800C0B209FB00F05044B0F87800210089B231448870641C2800C0B2D1
:205E340009FB00F05044B0F87A0080B2000A210089B231448870641C2800C0B209FB00F091
:205E54005044B0F87A00210089B231448870641C2800C0B209FB00F05044B0F87C0080B2B7
:205E7400000A210089B231448870641C2800C0B209FB00F05044B0F87C00210089B23144A4
:205E94008870641C2800C0B209FB00F05044B0F87E0080B2000A210089B231448870641CA9
:205EB4002800C0B209FB00F05044B0F87E00210089B231448870641C2800C0B209FB00F0AF
:205ED4005044B0F8800080B2000A210089B231448870641C2800C0B209FB00F05044B0F8A3
:205EF4008000210089B231448870641C2800C0B209FB00F05044B0F8820080B2000A21001C
:205F140089B231448870641C2800C0B209FB00F90AEB0900B0F88200210089B231448870BD
:205F3400641C09E2002007003800C0B2DFF89015B1F81011B0EB410F80F2FE815FF0840913
:205F5400DFF880A53800C0B209FB00F05044007A002808D03800C0B209FB00F05044407A99
:205F7400002840F0D281781C210089B231448870641C3800C0B209FB00F05044407F210073
:205F940089B231448870641C3800C0B209FB00F05044807FC0F3C0013800C0B209FB00F082
:205FB4005044807FC0F38000800050EAC1003900C9B209FB01F15144897FC1F3400150EA16
:205FD40041003900C9B209FB01F15144897F11F001010843210089B231448870641C380056
:205FF400C0B209FB00F0504490F82000210089B231448870641C062001903800C0B209FB3D
:2060140000F0504426300090200080B2304410F1020B019A0099584604F0BCFCA41D3800B7
:20603400C0B209FB00F05044808D80B2000A210089B231448870641C3800C0B209FB00F022
:206054005044808D210089B231448870641C3800C0B209FB00F0504490F82E00210089B2FE
:2060740031448870641C3800C0B209FB00F05044008E80B2000A210089B231448870641CDA
:206094003800C0B209FB00F05044008E210089B231448870641C3800C0B209FB00F05044B1
:2060B40090F83200210089B231448870641C3800C0B209FB00F05044008F80B2000A2100AB
:2060D40089B231448870641C3800C0B209FB00F05044008F210089B231448870641C380042
:2060F400C0B209FB00F05044408F80B2000A210089B231448870641C3800C0B209FB00F0A0
:206114005044408F210089B231448870641C3800C0B209FB00F0504490F83C00210089B26D
:2061340031448870641C3800C0B209FB00F0504490F83D00210089B231448870641C3800E6
:20615400C0B209FB00F0504490F83E00210089B231448870641C3800C0B209FB00F05044F0
:2061740090F83F00210089B231448870641C3800C0B209FB00F0504490F84000210089B2A5
:2061940031448870641C3800C0B209FB00F0504490F84100210089B231448870641C380082
:2061B400C0B209FB00F0504490F84200210089B231448870641C3800C0B209FB00F050448C
:2061D40090F86C00210089B231448870641C3800C0B209FB00F05044B0F8780080B2000AE0
:2061F400210089B231448870641C3800C0B209FB00F05044B0F87800210089B23144887027
:20621400641C3800C0B209FB00F05044B0F87A0080B2000A210089B231448870641C3800D9
:20623400C0B209FB00F05044B0F87A00210089B231448870641C3800C0B209FB00F05044B3
:20625400B0F87C0080B2000A210089B231448870641C3800C0B209FB00F05044B0F87C002B
:20627400210089B231448870641C3800C0B209FB00F05044B0F87E0080B2000A210089B2D1
:2062940031448870641C3800C0B209FB00F05044B0F87E00210089B231448870641C380024
:2062B400C0B209FB00F05044B0F8800080B2000A210089B231448870641C3800C0B209FB75
:2062D40000F05044B0F88000210089B231448870641C3800C0B209FB00F05044B0F8820059
:2062F40080B2000A210089B231448870641C3800C0B209FB00F90AEB0900B0F88200210015
:2063140089B231448870641C14E0781C210089B231448870641C5FF027094FF0FF0A200089
:2063340080B2304410F1020B52464946584604F05FFA27347F1CF7E50020210089B23144C0
:206354008870641C0020210089B231448870641C210089B2B01C04F0DBF80100200080B206
:2063740030448170641C080080B2000A220092B232449070641C3480200080B205B0BDE824
:20639400F08F2DE9F74F82B004005FF0000800200021002500260027424692B2A25C8DF87F
:2063B400002018F101085FF0000948469DF80010C0B2884278D2404680B2204406000498C8
:2063D40000794000B178401805005FF0840ADFF8F4B02800C0B20AFB00F058441A30070096
:2063F4002800C0B20AFB00F05844007A00280ED02800C0B20AFB00F05844002101720120FE
:206414002900C9B20AFB01F10BF801002EE00122391D301D04F012FB002809D1B079B97997
:20643400884205D196F8520097F85210884207D001202900C9B20AFB01F10BF8010015E081
:206454002800C0B20AFB00F0584440681C49B1F812114018DFF8D4180968884206D20120D5
:206474002900C9B20AFB01F10BF801002800C0B20AFB00F05844407A002807D02800C0B2EB
:206494000AFB00FA0BEB0A00002141725FF06A0A0196BB4652460199584604F07BFA18F178
:2064B4006A0819F1010980E7DFF88408017900EB81000021C0F87C1205B0BDE8F08F000052
:2064D400E0570020B83D00202DE9F44F88B004000D00002600275FF0000800200021DFF8DE
:2064F40054A89AF80090B9F101095FEA690919F10109B4F80320ADF80020BDF800202B79DA
:206514005B1C9A4204D1207A95F89412884213D04846BDF8001080B2884202D1207A3A28A7
:206534000AD04846BDF8001080B2884240F03C83207A3B2840F0388301200600A0780028E0
:2065540005D114F10C0007006089804605E014F10A000700A0780B388046207A3A2803D19E
:206574003A2085F8940205E0207A3B2802D13B2085F8940295F89402362800F0E98237283C
:2065940012D0382817D039283FD03A2865D03B2800F07B813C2800F08B823D2800F0D78259
:2065B400F72800F07181FFE22A00414689B23800FFF7E7FEF8E241F22840DFF87C170A58A5
:2065D40032F002020A50DFF874070078C0071BD4DFF86C17087801EB80006422C0F81027EC
:2065F40001200A780A4482F8AC0605200A780A4482F86C000878401C0870D1F8A40800289E
:2066140002D12020C1F8A408CEE241F22840DFF828170A5832F002020A50002085F8A1026B
:20663400DFF81C17087801EB80006422C0F8102701200A780A4482F8AC0605200A780A44C9
:2066540082F86C000878401C0870D1F8A408002802D12020C1F8A408A6E2404680B202286D
:2066740040F00B8141F22840DFF8CCB61BF80010490737D5397885F8EC12797885F8ED123E
:206694005BF8001031F004014BF80010DFF8B4160878002803D000200870042068713A21FE
:2066B4005846FEF7A1FFABF80000DFF89416087801EB80006422C0F8102701200A780A441D
:2066D40082F8AC0605200A780A4482F86C000878401C0870D1F8A408002802D12020C1F8E2
:2066F400A408B9E0DFF844B6DBF80000DFF858160860387800286BD101200600DBF80000E2
:20671400C5F8F0020120DFF83C160870387885F8EC02787885F8ED02012068711AF1040074
:20673400FEF7F8FE8AF80100DFF81416087801EB80006422C0F8102701200A780A4482F80A
:20675400AC0602200A780A4482F86C000878401C0870D1F8A408002802D12020C1F8A40832
:20677400087801EB80006422C0F8102701200A780A4482F8AC0602200A780A4482F86C00AF
:206794000878401C0870D1F8A408002802D12020C1F8A408087801EB80006422C0F810271B
:2067B40001200A780A4482F8AC0602200A780A4482F86C000878401C0870D1F8A4080028DF
:2067D40002D12020C1F8A408002085F8A10243E095F8EC023978884204D195F8ED02797892
:2067F400884234D0DBF80000C5F8F002387885F8EC02787885F8ED02DFF8481508780028E2
:2068140003D000200870042068711AF10400FEF781FE8AF80100DFF82815087801EB8000F6
:206834006422C0F8102701200A780A4482F8AC0602200A780A4482F86C000878401C087086
:20685400D1F8A408002802D12020C1F8A40800200600DBF80000A8600020DFF8D41481F8B6
:20687400980295F8ED3295F8EC2201219AF80000401E80B201F0B0FB05E000200600DFF861
:20689400AC040068A8608FE18EE1404680B2022840F0088141F22840DFF89CB41BF8001065
:2068B400090737D5397885F8E412797885F8E5125BF8001031F008014BF80010DFF88414D0
:2068D4000878002803D000200870042068713B215846FEF789FEABF80000DFF864140878AC
:2068F40001EB80006422C0F8102701200A780A4482F8AC0605200A780A4482F86C0008782B
:20691400401C0870D1F8A408002802D12020C1F8A408B7E0DFF814B4DBF80000DFF828145E
:206934000860387800286BD101200600002085F8A1020120DFF80C140870387885F8E402BD
:20695400787885F8E502DBF80000C5F8E802012068711AF12400FEF712FE8AF80200DFF8CC
:20697400E013087801EB80006422C0F8102701200A780A4482F8AC0603200A780A4482F825
:206994006C000878401C0870D1F8A408002802D12020C1F8A408087801EB80006422C0F8E4
:2069B400102701200A780A4482F8AC0603200A780A4482F86C000878401C0870D1F8A408CD
:2069D400002802D12020C1F8A408087801EB80006422C0F8102701200A780A4482F8AC0685
:2069F40003200A780A4482F86C000878401C0870D1F8A408002802D12020C1F8A40841E020
:206A140095F8E4023978884204D195F8E5027978884232D0DBF80000C5F8E802387885F8C7
:206A3400E402787885F8E502C6490878002803D000200870042068711AF12400FEF79FFD29
:206A54008AF80200BE49087801EB80006422C0F8102701200A780A4482F8AC0603200A7874
:206A74000A4482F86C000878401C0870D1F8A408002802D12020C1F8A40800200600DBF86C
:206A94000000A8600020AA4981F8980295F8E53295F8E42202219AF80000401E80B201F047
:206AB4009BFA04E000200600A0480068A8607BE0404680B2002849D0082007900697DFF844
:206AD4008CA2BDF800104FF4847041430AEB0100B0F1FE0B079A0699584603F05BFF082001
:206AF40005900497BDF800004100842041430AEB0100B0F17A0B059A0499584603F04AFF02
:206B14000820039017F109000290BDF800104FF4847041430AEB0100B0F1F60B039A0299B3
:206B3400584603F037FF5FF0080B17F109000190BDF800004100842041430AEB0100B0F1C1
:206B5400720A5A460199504603F024FF2CE02BE041F22840DFF8E0A15AF8001031F002012F
:206B74004AF80010012239005046FEF793FDAAF800007349087801EB80006422C0F8102779
:206B940001200A780A4482F8AC0605200A780A4482F86C000878401C0870D1F8A4080028F8
:206BB40002D12020C1F8A4083000C0B209B0BDE8F08F30B45E4A5F4B1B785B1E5B10137199
:206BD400032393700323137082F894020B00DBB2022493FBF4F504FB153382F8A3320123D0
:206BF40082F8A23230BC70472DE9F84F04000D00160000275FF000095FF00008A8780028EE
:206C140007D1207A0700B6F10B008146002028770BE0A878032802D0A878012805D16078B0
:206C34000700B01E8146002068773800C0B201283FD0052845D0302869D14846C0B20028C7
:206C540036D0082214F1140115F10C0003F0F6FE00280ED05FF0080A14F11400009015F1C7
:206C74000C0B52460099584603F094FE0020687102E06879401C68716879032816DB08227D
:206C940015F10C0115F1140003F0D8FE00280BD05FF0080A15F10C00009015F1140B524627
:206CB4000099584603F076FE00206871012080462DE04846C0B2002802D0200004F0CCF962
:206CD40025E04846C0B2002821D041F228401A490A5832F002020A501949087801EB800054
:206CF4006422C0F8102701200A780A4482F8AC0605200A780A4482F86C000878401C0870BF
:206D1400D1F8A408002802D12020C1F8A40895F82600002805D1012085F85700022085F805
:206D340058004046C0B2BDE8F28F0000785D0020744700208C5B0020B0000020645D002041
:206D5400E0140020AC000020705D0020B83D00202DE9FC4F83B004000D00002700208DF8CC
:206D740001000020ADF804005FF000090020ADF8020041F230485FF0000ADFF8586CB3467E
:206D940052464146584603F033FDDFF84C0C40798DF800009DF800001F2802D160788DF886
:206DB40000009DF8000041F226417054002041F22341705441F224470020F055BDF80C800D
:206DD4009DF80000042836D0212800F08382232800F0F280242800F06E84252800F08E8074
:206DF400262800F05781272800F0B481282800F01182292836D02A2800F080842B2800F042
:206E1400BE84362800F0E483372800F03984382800F0A882392800F0EF823A2800F0368314
:206E34003B2800F08483F42800F01F81F52800F0AC8000F0D6BC404680B2002810D1280094
:206E5400C0B2FF2804D1012041F22341705401E00320F055320000210020FEF7DCFA3080FD
:206E740000F0BFBC404680B2182845D12800C0B2FF2839D1162002900194DFF890ACD34631
:206E9400029A0199584603F085FD0722DFF8EC1C200003F0D3FD002823D10522DFF8E01C94
:206EB40014F10F0003F0CAFD002808D00522DFF8D41C14F10F0003F0C1FD002811D11622FB
:206ED400DFF8C41C504603F0B9FD002806D0022041F22341705403F03CFD07E00220F055B3
:206EF40004E00220F05501E00320F055320000210020FEF790FA308000F073BC404680B271
:206F1400052840D12800C0B2FF2834D120781F282EDADFF8780C0021817300214173417B71
:206F340000EB81014FF4C872C1F8A8202178427B024451740121427B024482F88510062116
:206F5400427B024482F865100E21427B024482F83110417B491C4173042141700121017000
:206F74002078DFF82C1C81F80801FEF719FA04E00220F05501E00320F055320000210020B5
:206F9400FEF749FA308000F02CBC404680B2002810D12800C0B2FF2804D13000FEF7C2FBE4
:206FB400308007E00320F055320000210020FEF732FA308000F015BC404680B2002853D1B5
:206FD4002800C0B2FF2847D1DFF8C80B0121017001214170DFF8C01B03220A7002228A7045
:206FF400382281F894224278521E52100A71022281F8A2224078401C022290FBF2F302FBE7
:20701400130081F8A302022081F8A402DFF87C0B00218173002141730F21427B024482F8F5
:207034006510417B00EB81014FF4C872C1F8A8200221427B024451740121427B024482F816
:2070540085100421427B024482F83110417B491C41730421417001E00320F055320000215D
:207074000020FEF7D8F93080BBE3404680B2202809D12800C0B2FF2803D1200000F0C8FB86
:2070940001E00320F055320000210020FEF7C3F93080A6E3404680B206285AD12800C0B28B
:2070B400FF284ED12078012822D1DFF8F01A887950F0080088716078C00709D5DFF8E00A61
:2070D400828800680261C87850F00800C8703AE06078002809D1DFF8C80A82880068426155
:2070F400C87810F0F700C8702DE00220F0552AE02078002822D1DFF8A41A887910F0F7004F
:2071140088716078C00709D5DFF8940A828800680261C87850F00800C87014E060780028E7
:2071340009D1DFF87C0A828800684261C87810F0F700C87007E00220F05504E00220F055E7
:2071540001E00320F055320000210020FEF763F9308046E3404680B206285AD12800C0B28A
:20717400FF284ED12078012822D1DFF8301A887950F0020088716078C00709D5DFF8240A22
:20719400828800680261C87850F00200C8703AE06078002809D1DFF80C0A82880068426156
:2071B400C87810F0FD00C8702DE00220F0552AE02078002822D1DFF8E419887910F0FD0043
:2071D40088716078C00709D5DFF8D809828800680261C87850F00200C87014E060780028EA
:2071F40009D1DFF8C009828800684261C87810F0FD00C87007E00220F05504E00220F055DE
:2072140001E00320F055320000210020FEF703F93080E6E2404680B206285AD12800C0B28A
:20723400FF284ED12078012822D1DFF87019887950F0010088716078C00709D5DFF8D80C6D
:20725400828800680261C87850F00100C8703AE06078002809D1DFF8C00C828800684261E0
:20727400C87810F0FE00C8702DE00220F0552AE02078002822D1DFF82419887910F0FE0040
:2072940088716078C00709D5DFF88C0C828800680261C87850F00100C87014E06078002873
:2072B40009D1DFF8740C828800684261C87810F0FE00C87007E00220F05504E00220F05565
:2072D40001E00320F055320000210020FEF7A3F8308086E2404680B2062842D12800C0B2A3
:2072F400FF2836D12078012816D1DFF8B008817951F0040181716178C9072CD5DFF8CC1C7A
:207314008A8809680A61C16851F00401C160DFF8C01C096881611EE02078002816D1DFF859
:207334007C08817911F0FB0181716178C90712D5DFF8981C8A8809680A61C16851F0040154
:20735400C160DFF88C1C0968816104E00220F05501E00320F055320000210020FEF75BF8D7
:2073740030803EE2404680B2052844D12800C0B2002838D02800C0B20D2834DA207810F0F0
:20739400030F02D1207800282AD1DFF80C08002180F895120321017002218170382180F894
:2073B40094122900C9B2491E49100171022180F8A2122900C9B2491C022291FBF2F302FB53
:2073D400131180F8A312217880F8A41241F22841725852F002027250049904F09DF804E009
:2073F4000220F05501E00320F055320000210020FEF711F83080F4E1404680B2052844D1D9
:207414002800C0B2002838D02800C0B20D2834DA207810F0030F02D1207800282AD1DFF8A2
:207434007807002180F895120321017002218170392180F894122900C9B2491E4910017182
:20745400022180F8A2122900C9B2491C022291FBF2F302FB131180F8A312217880F8A41216
:2074740041F22841725852F002027250049904F053F804E00220F05501E00320F0553200E8
:2074940000210020FDF7C7FF3080AAE1404680B20A284BD12800C0B200283FD02800C0B231
:2074B4000D283BDADFF8F0A600208AF89502DFF8240B0570681E8AF8030002208AF802009C
:2074D40003208AF800003A208AF894022800C0B2401E40108AF804002800C0B2401C02219A
:2074F40090FBF1F201FB12008AF8A30207208AF8A2020620029001941AF5297B029A019952
:20751400584603F047FA41F22840315851F0040131500499504603F0FFFF01E00320F0552D
:20753400320000210020FDF776FF308059E1404680B20A284BD12800C0B200283FD0280072
:20755400C0B20D283BDADFF850A600208AF89502DFF8800A0570681E8AF8030002208AF8D0
:20757400020003208AF800003B208AF894022800C0B2401E40108AF804002800C0B2401C19
:20759400022190FBF1F201FB12008AF8A30207208AF8A2020620029001941AF5297B029A28
:2075B4000199584603F0F6F941F22840315851F0080131500499504603F0AEFF01E00320D7
:2075D400F055320000210020FDF725FF308008E1404680B20B2852D12800C0B2002846D048
:2075F4002800C0B20D2842DADFF8ACA59AF80500022839D000208AF89502681E8AF8030056
:2076140002208AF8020003208AF8000036208AF894022800C0B2401E40108AF804002800A7
:20763400C0B2401C022190FBF1F201FB12008AF8A30260788AF8A40208208AF8A20207202D
:20765400029001941AF5297B029A0199584603F0A1F941F22840315851F002013150049955
:20767400504603F059FF04E00320F05501E00320F055320000210020FDF7CDFE3080B0E00E
:20769400404680B2052815D12078002802D02078FF2807D132002178681EC0B2FEF764F9CD
:2076B400308007E00220F055320000210020FDF7B2FE308095E0404680B20C2815D1280082
:2076D400C0B2FF280ED15FF0080A0194DFF830BC52460199584603F05DF90020F055FDF7F3
:2076F4007EFE04E00320F05501E00120F055320000210020FDF78FFE308072E0404680B2B9
:20771400062833D12800C0B2FF282CD120780E2826DA6078002802D1607800281DD1DFF8FF
:20773400E40B052180F85A100221A0F85C10217889B28900A0F8601061780902A0F85E10C8
:2077540003218170002101710821017041F22840315851F0100131500AE00220F05507E0A4
:207774000320F05504E00320F05501E00120F055320000210020FDF74EFE308031E0404600
:2077940080B2002824D100212800C0B2FF281CD1002081464846C0B20E280EDADFF8680B68
:2077B4004A46D2B210F82200002803D0012010FA09F0014319F10109ECE7080080B2000AE9
:2077D40050EA0120ADF8020004E00320F05501E00120F055320002210DF10200FDF71BFE9E
:2077F4003080308800280FD19DF8010000280BD1012041F2234170540420F0553200002133
:207814000020FDF708FE3080308805B0BDE8F08F70B5040001250026DD493000C0B2205C40
:20783400A1F80E01761C3000C0B2205CA1F81201761C3000C0B2205CA1F81001761C300014
:20785400C0B2205C81F80C01761C3000C0B2205C0002A1F81401761CB1F814213000C0B22E
:20787400205C0243A1F81421761C3000C0B2205C0002A1F8F200761CB1F8F2203000C0B239
:20789400205C0243A1F8F220761C3000C0B2205C0002A1F8F400761CB1F8F4203000C0B238
:2078B400205C0243A1F8F420761C3000C0B2205C0002A1F8F600761CB1F8F6203000C0B212
:2078D400205C0243A1F8F620761C3000C0B2205C0002A1F8F800761CB1F8F8203000C0B2EC
:2078F400205C0243A1F8F820761C3000C0B2205C0002A1F8FA00761CB1F8FA203000C0B2C6
:20791400205C0243A1F8FA20761C3000C0B2205C0002A1F8FC00761CB1F8FC203000C0B29F
:20793400205C0243A1F8FC20761C3000C0B2205C0002A1F8FE00761CB1F8FE203000C0B279
:20795400205C0243A1F8FE20761C3000C0B2205C0002A1F80001761CB1F800213000C0B251
:20797400205C0243A1F80021761C3000C0B2205C0002A1F80201761CB1F802213000C0B22A
:20799400205C0243A1F80221761C3000C0B2205C0002A1F80401761CB1F804213000C0B204
:2079B400205C0243A1F80421761C3000C0B2205C0002A1F80601761CB1F806213000C0B2DE
