:020000040800F2
:1040000008620020FD090108CDFB0008CFFB000875
:10401000D1FB0008D3FB0008D5FB0008000000001E
:10402000000000000000000000000000D7FB0008B6
:10403000D9FB000800000000DBFB0008DDFB0008E6
:10404000F90B0108FD0B0108010C01087DFC0008BB
:10405000050C0108090C01080D0C0108110C0108E0
:10406000150C0108190C01081D0C0108210C010890
:1040700085FD00085FFD0008250C0108290C0108DA
:10408000E3FC000809FD000821FE00082D0C0108D2
:10409000310C0108350C0108390C01083D0C0108F0
:1040A000410C0108450C0108490C01084D0C0108A0
:1040B000510C0108550C0108590C01085D0C010850
:1040C000610C0108650C0108690C01086D0C010800
:1040D000710C010847FC0008A7FC000823FD00083C
:1040E000750C0108790C01087D0C0108810C010890
:1040F000850C0108890C01088D0C0108910C010840
:10410000950C0108990C01089D0C0108A10C0108EF
:1041100081FE0008C5FD0008A50C0108A90C0108D6
:10412000AD0C0108B10C010823FE000849FE00088F
:1041300030B4002513E050F8042BD30744BFA9F195
:1041400001039A18091F042942F8045BFAD21346A6
:104150008C0744BF15809B1CC90748BF1D7050F8D1
:10416000041B0029E7D130BC7047B1F5807F02D332
:104170004FF0FF3070470170012070470078401EFB
:104180008041C043C00F70470268531C0360117028
:1041900070472E0012000130010101000131077348
:1041A00001000120020102030404F00908060708C7
:1041B000090204060896A9000452FF01E392411483
:1041C00020040000FEA6000857F003162C00002073
:0D41D0000001127D48212C436B413C210170
:10500000534D3530303130305F3233303631393016
:105010003120474433323233303200000000000088
:105020000000000000000000000000000000000080
:0250300000007E
:1050340010B50020DFF88C19087000F03CF800F07F
:105044000CF9DFF88449DFF884290121200003F0FA
:1050540055FC0220A4F8DE01DFF8740900218173F5
:10506400002141730F21427B024482F86510417B89
:1050740000EB81014FF4C872C1F8A8200C21427BD7
:10508400024451740121427B024482F885100421B8
:10509400427B024482F83110417B491C4173042154
:1050A400417010BD4FF4C0414843401C0100481EEC
:1050B4000029FBD170472DE9F84300270026DFF8CB
:1050C4000C4922004FF48E71002004F063FB0500AC
:1050D4002800C0B200280DD000275FF000084FF46C
:1050E4008C71200004F072FCD4F81811884201D0AD
:1050F4000022150022004FF48E714FF4007004F06A
:1051040049FB07003800C0B200280DD000265FF02C
:1051140000084FF48C71200004F058FCD4F81811E6
:10512400884201D00022170057EA0500C0B20028C7
:1051340038D14FF48E765FF00008A1464246310024
:10514400484604F0B3FD0120A4F810010520A4F89A
:1051540014010620A4F812015020A4F8FA001E201D
:10516400A4F8FC005F20A4F8FE000A20A4F80001C3
:105174005A20A4F802014FF41670A4F80401A4F80C
:10518400060140F2B220A4F808014FF47A71A4F8A1
:105194000A11A4F80C014FF42F70A4F80E0100F0CA
:1051A400D1F82AE02800C0B2012811D13800C0B2D9
:1051B40000280DD122004FF48E71002004F0EAFA89
:1051C40022004FF48E714FF4007004F0AAFB14E037
:1051D4002800C0B2002810D13800C0B201280CD178
:1051E40022004FF48E714FF4007004F0D3FA2200C1
:1051F4004FF48E71002004F094FB04F08BFD00F05A
:1052040016F8002811D01124DFF8C867DFF8C88722
:1052140018F1060922003100484604F011FE45F257
:105224005550A8F8020004F0E9FDBDE8F18338B553
:105234000024DFF8A4571122DFF89817A81D04F002
:1052440053FE002804D1688845F25551884201D0A4
:10525400012004002000C0B232BD2DE9F84300272C
:105264000024DFF878572A00B4214FF4806004F05A
:1052740091FA06003000C0B200280CD000275FF07D
:105284000008B021280004F0A1FBD5F8B010884232
:1052940001D0002216002A00B4214FF4C06004F0AB
:1052A40079FA07003800C0B200280CD000245FF05F
:1052B4000008B021280004F089FBD5F8B01088421A
:1052C40001D00022170057EA0600C0B200280ED110
:1052D4006324DFF80C8715F1010922004146484692
:1052E40004F0AEFD6320287000F04AF828E0300096
:1052F400C0B2012810D13800C0B200280CD12A0055
:10530400B4214FF4806004F045FA2A00B4214FF42C
:10531400C06004F006FB13E03000C0B200280FD1D7
:105324003800C0B201280BD12A00B4214FF4C06068
:1053340004F030FA2A00B4214FF4806004F0F1FA4A
:10534400BDE8F18370B50024DFF880660020C6F85C
:1053540018014FF48C71300004F038FBC6F81801C2
:1053640032004FF48E71002004F0DBFA05003200A5
:105374004FF48E714FF4007004F0D3FAC0B270BDD4
:1053840070B50024DFF854660020C6F8B000B021E0
:10539400300004F01BFBC6F8B0003200B4214FF417
:1053A400806004F0BEFA05003200B4214FF4C060FE
:1053B40004F0B7FAC0B270BD2DE9F84F05000E0035
:1053C400170000245FF000081F20210089B239442F
:1053D4008870641C3000C0B2F1281BDB200080B24E
:1053E40038448670641C0020210089B239448870D6
:1053F400641CB1465FFA89F9AA46200080B2384499
:1054040010F1020B4A465146584604F019FD54FA6D
:1054140086F438E041F22340385C00280ED1B146CE
:105424005FFA89F9AA46200080B2384410F1020BD1
:105434004A465146584604F003FD0EE0B1465FFA71
:1054440089F95FF0000A200080B2384410F1020BA1
:1054540052464946584604F029FC54FA86F441F26F
:105464002440385C210089B239448870641C0020CF
:10547400210089B239448870641C0020210089B25B
:1054840039448870641C210089B2B81C04F09EFA67
:105494000100200080B238448170641C080080B28E
:1054A400000A220092B23A449070641C3C802000AE
:1054B40080B2BDE8F28F70B50400002600251F20DD
:1054C400310089B26054761CDFF8000F90F8E812BE
:1054D400320092B2A154761C90F8E902310089B2EC
:1054E4006054761C0020310089B26054761C002080
:1054F400310089B26054761C310089B2200004F076
:1055040065FA0100300080B22154761C080080B294
:10551400000A320092B2A054761C300080B270BDF2
:1055240070B50400002600251F20310089B26054A4
:10553400761CDFF8980E90F8E012320092B2A15473
:10554400761C90F8E102310089B26054761C002088
:10555400310089B26054761C0020310089B2605455
:10556400761C310089B2200004F030FA01003000CA
:1055740080B22154761C080080B2000A320092B234
:10558400A054761C300080B270BD2DE9F84F0500A0
:105594000E00170098460A9CDDF82C905FF0000B73
:1055A4005FF0000A1F20594689B268541BF1010BB1
:1055B4003000C0B2FF281BD14846000E594689B2BC
:1055C40068541BF1010B4846000C594689B26854D3
:1055D4001BF1010B4846000A594689B268541BF175
:1055E400010B584680B205F800901BF1010B15E041
:1055F4000020594689B268541BF1010B584680B209
:105604002F541BF1010B584680B205F800801BF1A2
:10561400010B584680B22C541BF1010B0020594653
:1056240089B268541BF1010B0020594689B26854B1
:105634001BF1010B594689B2280004F0C7F9010097
:10564400584680B229541BF1010B080080B2000AAD
:105654005A4692B2A8541BF1010B584680B2BDE8D9
:10566400F28FF8B504000D00002700261F20390032
:1056740089B2214488707F1C2800C0B23B2810D115
:10568400DFF8480D90F8E0123A0092B2224491708B
:105694007F1C90F8E102390089B2214488707F1C94
:1056A40013E02800C0B23A280FD1DFF8200D90F89B
:1056B400E8123A0092B2224491707F1C90F8E902F9
:1056C400390089B2214488707F1C0020390089B2D6
:1056D400214488707F1C0020390089B221448870DD
:1056E4007F1C390089B2A01C04F070F90100380055
:1056F40080B2204481707F1C080080B2000A3A0006
:1057040092B2224490707F1C2780380080B2F2BD90
:105714002DE9F84F04000D0016005FF0000A002781
:105724001F20514689B2214488701AF1010AB046FB
:105734005FFA88F8A946504680B2204410F1020B63
:1057440042464946584604F07BFB5AFA86FA002042
:10575400514689B2214488701AF1010A0020514649
:1057640089B2214488701AF1010A514689B2A01CF9
:1057740004F02CF90100504680B2204481701AF1E3
:10578400010A080080B2000A524692B22244907084
:105794001AF1010AA4F800A0504680B2BDE8F28FC5
:1057A40070B50400002600251F20310089B2214471
:1057B4008870761C8548B0F81011320092B22244E9
:1057C4009170761CB0F81411320092B22244917098
:1057D400761CB0F81211320092B222449170761CF9
:1057E40090F8F010320092B222449170761CB0F816
:1057F400F21089B2090A320092B222449170761CE6
:10580400B0F8F210320092B222449170761CB0F8D3
:10581400FA1089B2090A320092B222449170761CBD
:10582400B0F8FA10320092B222449170761CB0F8AB
:10583400FC1089B2090A320092B222449170761C9B
:10584400B0F8FC10320092B222449170761CB0F889
:10585400FE1089B2090A320092B222449170761C79
:10586400B0F8FE10320092B222449170761CB0F867
:10587400001189B2090A320092B222449170761C56
:10588400B0F80011320092B222449170761CB0F844
:10589400021189B2090A320092B222449170761C34
:1058A400B0F80211320092B222449170761CB0F822
:1058B400041189B2090A320092B222449170761C12
:1058C400B0F80411320092B222449170761CB0F800
:1058D400061189B2090A320092B222449170761CF0
:1058E400B0F80611320092B222449170761CB0F8DE
:1058F400081189B2090A320092B222449170761CCE
:10590400B0F80811320092B222449170761CB0F8BB
:105914000A1189B2090A320092B222449170761CAB
:10592400B0F80A11320092B222449170761CB0F899
:105934000C1189B2090A320092B222449170761C89
:10594400B0F80C11320092B222449170761CB0F877
:105954000E1189B2090A320092B222449170761C67
:10596400B0F80E01310089B221448870761C41F2EE
:105974002440205C310089B221448870761C0020C8
:10598400310089B221448870761C0020310089B22C
:1059940021448870761C310089B2A01C04F016F8EA
:1059A4000100300080B220448170761C080080B26F
:1059B400000A320092B222449070761C2680300095
:1059C40080B270BDFC4F00202C470020804B00208B
:1059D4001849002000500008744F00209C4D0020FE
:1059E400340301082DE9F34F83B0050016000024A9
:1059F4000020ADF8080000275FF000081F202100F8
:105A040089B231448870641C9DF81000002840F06D
:105A1400C2822800C0B20D2880F29B845FF0840902
:105A2400DFF8BCAA2800C0B209FB00F05044407F54
:105A3400210089B231448870641C2800C0B209FB7B
:105A440000F05044807FC0F3C0012800C0B209FBBD
:105A540000F05044807FC0F38000800050EAC10011
:105A64002900C9B209FB01F15144897FC1F3400106
:105A740050EA41002900C9B209FB01F15144897F70
:105A840011F001010843210089B231448870641C7B
:105A94002800C0B209FB00F0504490F82000210017
:105AA40089B231448870641C2800C0B209FB00F03C
:105AB4005044408C80B2000A210089B2314488707D
:105AC400641C2800C0B209FB00F05044408C210043
:105AD40089B231448870641C2800C0B209FB00F00C
:105AE4005044808C80B2000A210089B2314488700D
:105AF400641C2800C0B209FB00F05044808C2100D3
:105B040089B231448870641C062001902800C0B218
:105B140009FB00F0504426300090200080B230444D
:105B240010F1020B019A0099584604F089F9A41D5A
:105B34002800C0B209FB00F05044808D80B2000AF6
:105B4400210089B231448870641C2800C0B209FB6A
:105B540000F05044808D210089B231448870641C67
:105B64002800C0B209FB00F0504490F82E00210038
:105B740089B231448870641C2800C0B209FB00F06B
:105B84005044008E80B2000A210089B231448870EA
:105B9400641C2800C0B209FB00F05044008E2100B0
:105BA40089B231448870641C2800C0B209FB00F03B
:105BB400504490F83200210089B231448870641C4A
:105BC4002800C0B209FB00F05044808E80B2000A65
:105BD400210089B231448870641C2800C0B209FBDA
:105BE40000F05044808E210089B231448870641CD6
:105BF4002800C0B209FB00F05044C08E80B2000AF5
:105C0400210089B231448870641C2800C0B209FBA9
:105C140000F05044C08E210089B231448870641C65
:105C24002800C0B209FB00F05044008F80B2000A83
:105C3400210089B231448870641C2800C0B209FB79
:105C440000F05044008F210089B231448870641CF4
:105C54002800C0B209FB00F05044408F80B2000A13
:105C6400210089B231448870641C2800C0B209FB49
:105C740000F05044408F210089B231448870641C84
:105C84002800C0B209FB00F0504490F83C00210009
:105C940089B231448870641C2800C0B209FB00F04A
:105CA400504490F83D00210089B231448870641C4E
:105CB4002800C0B209FB00F0504490F83E002100D7
:105CC40089B231448870641C2800C0B209FB00F01A
:105CD400504490F83F00210089B231448870641C1C
:105CE4002800C0B209FB00F0504490F840002100A5
:105CF40089B231448870641C2800C0B209FB00F0EA
:105D0400504490F84100210089B231448870641CE9
:105D14002800C0B209FB00F0504490F84200210072
:105D240089B231448870641C002080464046C0B269
:105D3400142824DA2800C0B209FB00F0504441467C
:105D4400C9B200EB4100B0F8440080B2000A21005F
:105D540089B231448870641C2800C0B209FB00F089
:105D640050444146C9B200EB4100B0F84400210060
:105D740089B231448870641C18F10108D6E7280000
:105D8400C0B209FB00F0504490F86C00210089B2C5
:105D940031448870641C042001902800C0B209FBBF
:105DA40000F050446D300090200080B2304410F177
:105DB400020B019A0099584604F042F8241D280069
:105DC400C0B209FB00F05044B0F8720080B2000A7F
:105DD400210089B231448870641C2800C0B209FBD8
:105DE40000F05044B0F87200210089B23144887048
:105DF400641C2800C0B209FB00F05044B0F87400E1
:105E040080B2000A210089B231448870641C2800E1
:105E1400C0B209FB00F05044B0F87400210089B20C
:105E240031448870641C2800C0B209FB00F050445F
:105E3400B0F8760080B2000A210089B2314488703B
:105E4400641C2800C0B209FB00F05044B0F876008E
:105E5400210089B231448870641C2800C0B209FB57
:105E640000F05044B0F8780080B2000A210089B2F2
:105E740031448870641C2800C0B209FB00F050440F
:105E8400B0F87800210089B231448870641C28007D
:105E9400C0B209FB00F05044B0F87A0080B2000AA6
:105EA400210089B231448870641C2800C0B209FB07
:105EB40000F05044B0F87A00210089B2314488706F
:105EC400641C2800C0B209FB00F05044B0F87C0008
:105ED40080B2000A210089B231448870641C280011
:105EE400C0B209FB00F05044B0F87C00210089B234
:105EF40031448870641C2800C0B209FB00F050448F
:105F0400B0F87E0080B2000A210089B23144887062
:105F1400641C2800C0B209FB00F05044B0F87E00B5
:105F2400210089B231448870641C2800C0B209FB86
:105F340000F05044B0F8800080B2000A210089B219
:105F440031448870641C2800C0B209FB00F050443E
:105F5400B0F88000210089B231448870641C2800A4
:105F6400C0B209FB00F05044B0F8820080B2000ACD
:105F7400210089B231448870641C2800C0B209FB36
:105F840000F90AEB0900B0F88200210089B231441B
:105F94008870641CDDE1002007003800C0B20C28C2
:105FA40080F2D781781C210089B231448870641C46
:105FB4005FF08409DFF828A53800C0B209FB00F0BF
:105FC4005044407F210089B231448870641C3800F9
:105FD400C0B209FB00F05044807FC0F3C001380018
:105FE400C0B209FB00F05044807FC0F38000800001
:105FF40050EAC1003900C9B209FB01F15144897F5B
:10600400C1F3400150EA41003900C9B209FB01F172
:106014005144897F11F001010843210089B23144C0
:106024008870641C3800C0B209FB00F0504490F83A
:106034002000210089B231448870641C062001903C
:106044003800C0B209FB00F0504426300090200014
:1060540080B2304410F1020B019A0099584603F0C3
:10606400EFFEA41D3800C0B209FB00F05044808D3F
:1060740080B2000A210089B231448870641C38005F
:10608400C0B209FB00F05044808D210089B2314434
:106094008870641C3800C0B209FB00F0504490F8CA
:1060A4002E00210089B231448870641C3800C0B2CB
:1060B40009FB00F05044008E80B2000A210089B22E
:1060C40031448870641C3800C0B209FB00F05044AD
:1060D400008E210089B231448870641C3800C0B23B
:1060E40009FB00F0504490F83200210089B2314499
:1060F4008870641C3800C0B209FB00F05044008F63
:1061040080B2000A210089B231448870641C3800CE
:10611400C0B209FB00F05044008F210089B2314421
:106124008870641C3800C0B209FB00F05044408FF2
:1061340080B2000A210089B231448870641C38009E
:10614400C0B209FB00F05044408F210089B23144B1
:106154008870641C3800C0B209FB00F0504490F809
:106164003C00210089B231448870641C3800C0B2FC
:1061740009FB00F0504490F83D00210089B23144FD
:106184008870641C3800C0B209FB00F0504490F8D9
:106194003E00210089B231448870641C3800C0B2CA
:1061A40009FB00F0504490F83F00210089B23144CB
:1061B4008870641C3800C0B209FB00F0504490F8A9
:1061C4004000210089B231448870641C3800C0B298
:1061D40009FB00F0504490F84100210089B2314499
:1061E4008870641C3800C0B209FB00F0504490F879
:1061F4004200210089B231448870641C3800C0B266
:1062040009FB00F0504490F86C00210089B231443D
:106214008870641C3800C0B209FB00F05044B0F828
:10622400780080B2000A210089B231448870641C6D
:106234003800C0B209FB00F05044B0F878002100E7
:1062440089B231448870641C3800C0B209FB00F084
:106254005044B0F87A0080B2000A210089B2314477
:106264008870641C3800C0B209FB00F05044B0F8D8
:106274007A00210089B231448870641C3800C0B2AD
:1062840009FB00F05044B0F87C0080B2000A210001
:1062940089B231448870641C3800C0B209FB00F034
:1062A4005044B0F87C00210089B231448870641CE9
:1062B4003800C0B209FB00F05044B0F87E0080B250
:1062C400000A210089B231448870641C3800C0B2CD
:1062D40009FB00F05044B0F87E00210089B231443B
:1062E4008870641C3800C0B209FB00F05044B0F858
:1062F400800080B2000A210089B231448870641C95
:106304003800C0B209FB00F05044B0F8800021000E
:1063140089B231448870641C3800C0B209FB00F0B3
:106324005044B0F8820080B2000A210089B231449E
:106334008870641C3800C0B209FB00F90AEB09003C
:10634400B0F88200210089B231448870641C7F1C3B
:1063540023E60020210089B231448870641C0020A7
:10636400210089B231448870641C210089B2B01CB8
:1063740003F02CFB0100200080B230448170641CC7
:10638400080080B2000A220092B232449070641C69
:106394003480200080B205B0BDE8F08F1CB5042124
:1063A40000226C46200003F081FC03208DF80200DB
:1063B40004208DF80300DFF818078188ADF8001079
:1063C4006946006803F0C4FD13BD000008420020C4
:1063D4002DE9F74F82B004005FF00008002000218F
:1063E400002500260027424692B2A25C8DF80020C8
:1063F40018F101085FF0000948469DF80010C0B28A
:10640400884269D2404680B220440600049800794C
:106414004000B178401805005FF0840ADFF8C0B08E
:106424002800C0B20AFB00F058441A3007002800C4
:10643400C0B20AFB00F05844007A00280ED02800AD
:10644400C0B20AFB00F05844002101720120290067
:10645400C9B20AFB01FA0BF80A002FE00122391D28
:10646400301D03F041FD002809D1B079B979884283
:1064740005D196F8520097F85210884207D00120AF
:106484002900C9B20AFB01FA0BF80A0016E0280039
:10649400C0B20AFB00F058444068DFF83816B1F87F
:1064A40014114018DFF830160968884206D201201A
:1064B4002900C9B20AFB01FA0BF80A005FF06A0A64
:1064C4000196BB4652460199584603F0B9FC18F1AF
:1064D4006A0819F101098FE705B0BDE8F08F0000E3
:1064E400D83B00202DE9F44F88B004000D000026AD
:1064F40000275FF000080020B4F80310ADF8001086
:10650400BDF800102A79521C914240F09182207A01
:1065140095F89412884240F08B8201200600A078FE
:10652400002805D114F10C0007006089804605E0BD
:1065340014F10A000700A0780B38804695F89402FD
:10654400362800F04982372812D0382817D0392845
:106554003FD03A2864D03B2800F029813C2800F041
:10656400EA813D2800F03782F72800F01F815FE2BE
:106574002A00414689B23800FFF72AFF58E241F267
:106584002840DFF858150A5832F002020A50DFF8A2
:10659400500590F89602C0071AD4DFF8B40D0178BC
:1065A40000EB81016422C1F84426012102780244EF
:1065B40082F8221605210278024482F82610017816
:1065C400491C0170D0F8C81651F02001C0F8C81653
:1065D4002EE241F22840DFF804150A5832F0020294
:1065E4000A50002085F89D02DFF8640D017800EB65
:1065F40081016422C1F8442601210278024482F810
:10660400221605210278024482F826100178491CDA
:106614000170D0F8C81651F02001C0F8C81607E27E
:10662400404680B2022840F0BB8041F22840DFF8A7
:10663400AC9419F8001049072FD5397885F8E81279
:10664400797885F8E91259F8001031F0040149F815
:106654000010022068713A214846FFF702F8A9F8B1
:106664000000DFF8EC0C017800EB81016422C1F832
:10667400442601210278024482F822160521027878
:10668400024482F826100178491C0170D0F8C8161B
:1066940051F02001C0F8C81677E03878002835D1C9
:1066A40001200600DFF830040068C5F8EC023878F1
:1066B40085F8E802787885F8E90201206871DFF846
:1066C400949C19F10400FEF7F6FE89F80100DFF846
:1066D400800C017800EB81016422C1F84426012179
:1066E4000278024482F8221602210278024482F8D7
:1066F40026100178491C0170D0F8C81651F0200109
:10670400C0F8C816002085F89D023EE095F8E8021E
:106714003978884204D195F8E902797888422FD0F3
:10672400DFF8B4030068C5F8EC02387885F8E802AD
:10673400787885F8E90202206871DFF8189C19F16D
:106744000400FEF7B8FE89F80100DFF8040C0178B4
:1067540000EB81016422C1F844260121027802443D
:1067640082F8221602210278024482F82610017867
:10677400491C0170D0F8C81651F02001C0F8C816A1
:1067840000200600D4480068A86095F8E93295F81E
:10679400E8220121D248C07880B201F0D3F904E0A4
:1067A40000200600CC480068A86041E140E1404672
:1067B40080B2022840F0B98041F22840DFF81C93EF
:1067C40019F8001009072FD5397885F8E01279787F
:1067D40085F8E11259F8001031F0080149F8001069
:1067E400022068713B214846FEF73BFFA9F80000F0
:1067F400DFF85C0B017800EB81016422C1F84426C8
:1068040001210278024482F822160521027802440A
:1068140082F826100178491C0170D0F8C81651F08E
:106824002001C0F8C81675E03878002834D101205A
:106834000600002085F89D02387885F8E002787813
:1068440085F8E102A4480068C5F8E40201206871F3
:10685400DFF8009B19F12400FEF762FE89F80200BC
:10686400DFF8EC0A017800EB81016422C1F84426C8
:1068740001210278024482F822160321027802449C
:1068840082F826100178491C0170D0F8C81651F01E
:106894002001C0F8C8163DE095F8E0023978884236
:1068A40004D195F8E102797888422ED08A480068AC
:1068B400C5F8E402387885F8E002787885F8E102D2
:1068C40002206871DFF88C9A19F12400FEF728FE83
:1068D40089F80200DFF8780A017800EB810164226C
:1068E400C1F8442601210278024482F822160321C9
:1068F4000278024482F826100178491C0170D0F80D
:10690400C81651F02001C0F8C816002006007248CD
:106914000068A86095F8E13295F8E02202217048F9
:10692400C07880B201F00EF904E0002006006A4845
:106934000068A8607CE0404680B200284AD0082065
:1069440007900697DFF89C91BDF800104FF484700F
:10695400414309EB0100B0F1FF0A079A069950463A
:1069640003F06EFA0820059004975FF0840ABDF8DE
:10697400000040000AFB00F04844B0F17B0B059A8C
:106984000499584603F05CFA0820039017F10800B4
:106994000290BDF800104FF48470414309EB0100EC
:1069A400B0F1F70B039A0299584603F049FA5FF0E5
:1069B400080B17F108000190BDF8000040000AFB25
:1069C40000FA09EB0A00B0F173095A4601994846E6
:1069D40003F036FA2CE02BE041F22840DFF8FC907B
:1069E40059F8001031F0020149F800100122390071
:1069F4004846FEF78DFEA9F80000DFF85409017837
:106A040000EB81016422C1F844260121027802448A
:106A140082F8221605210278024482F826100178B1
:106A2400491C0170D0F8C81651F02001C0F8C816EE
:106A34003000C0B209B0BDE8F08F2DE9F84F040072
:106A44000D00160000210020277A85F848700022E6
:106A540085F84520002285F8462000222A75B6F1E3
:106A64000B083A00D2B2302A04D0522A22D0532A38
:106A740021D020E04046C0B200281AD0082214F1E8
:106A84001401281D03F030FA00280AD05FF0080929
:106A940014F1140A15F1040B4A465146584603F002
:106AA400CFF9DFF8B40C002180F86010012180F8E0
:106AB4004C1000E0FFE7287D002805D1012085F86F
:106AC4004500022085F84600287D80B2BDE8F28F9B
:106AD400C00A0108804B0020E44F0020AC000020D5
:106AE40008420020D83B00202DE9F64F85B0040071
:106AF4000D001E005FF0000800208DF80200002049
:106B0400ADF8040000208DF80100DFF8507C00206F
:106B1400388041F230495FF0000ABB46524649468C
:106B2400584603F0C3F8DFF8380C40798DF80000BC
:106B34009DF800001F2802D160788DF800009DF8B0
:106B4400000041F226417854002041F22341785458
:106B540041F22448002007F8080020788DF801004D
:106B6400BDF818909DF80000042826D0212800F0D4
:106B74000A81232800F0AE80242800F0B883252859
:106B840050D0362800F03F83372800F0948338280B
:106B940000F01481392800F09D813A2800F0268203
:106BA4003B2800F08282F42800F0D780F5287AD0C0
:106BB400F7281FD0F82829D0B2E3484680B200282D
:106BC40017D12800C0B2FF280AD13A0000210020C2
:106BD400FEF7F2FB3880012041F22341785402E0B1
:106BE400032007F808003A0000210020FEF7E4FB28
:106BF400388095E3484680B2142806D13A00322101
:106C0400DFF8600BFEF7D8FB388089E3484680B292
:106C1400002806D13A000C21DFF84C0BFEF7CCFB20
:106C240038807DE3484680B205283BD12800C0B2B5
:106C3400FF282ED120781F2827DADFF8300B002117
:106C4400817300214173417B00EB81014FF4C872D1
:106C5400C1F8A8202178427B024451740121427B6F
:106C6400024482F885100621427B024482F86510B2
:106C74000E21427B024482F83110417B491C41734E
:106C8400042141700121017006E0022007F8080088
:106C940002E0032007F808003A0000210020FEF774
:106CA4008BFB38803CE3484680B2002811D1280091
:106CB400C0B2FF2804D13800FEF772FD388008E026
:106CC400032007F808003A0000210020FEF774FBB7
:106CD400388025E3484680B200283DD12800C0B260
:106CE400FF282AD10120DFF8881A81F89602DFF8FC
:106CF4007C0A00218173002141730F21427B0244ED
:106D040082F86510417B00EB81014FF4C872C1F831
:106D1400A8200221427B024451740121427B024497
:106D240082F885100421427B024482F83110417BB1
:106D3400491C41730421417008E0032007F808004E
:106D44003A0000210020FEF737FB38803A0000218A
:106D54000020FEF731FB3880E2E2484680B220286A
:106D64000AD12800C0B2FF2803D1200000F0F4FAB1
:106D740002E0032007F808003A0000210020FEF793
:106D84001BFB3880CCE2484680B2052815D1280088
:106D9400C0B2FF2808D19DF8010000F04EFC01208C
:106DA400DFF8A41C087002E0032007F808003A008A
:106DB40000210020FEF700FB3880B1E2484680B293
:106DC400052840F0868041F22840395851F00201EC
:106DD40039502800C0B2FF2851D02800C0B2002882
:106DE4004DD0207810F0030F02D12078002821D153
:106DF400DFF87C090321017003218170382180F8B8
:106E040094122900C9B2491E49100171022180F867
:106E14009E122900C9B2491C022291FBF2F302FB23
:106E2400131180F89F12217880F8A012310003F02A
:106E340039FB48E0DFF83809032101700321817030
:106E4400382180F894122900C9B2491E49100171F1
:106E5400022180F89E122900C9B2491C022291FB2A
:106E6400F2F302FB131180F89F12217880F8A0122C
:106E7400310003F017FB022007F8080023E0DFF8D5
:106E8400F0080321017003218170382180F89412E5
:106E94002900C9B2491E49100171022180F89E12CD
:106EA4002900C9B2491C022291FBF2F302FB13111F
:106EB40080F89F12217880F8A012310003F0F2FAD2
:106EC400032007F808003A0000210020FEF774FAB6
:106ED400388025E2484680B2052840F0868041F299
:106EE4002840395851F0020139502800C0B2FF2817
:106EF40051D02800C0B200284DD0207810F0030FE4
:106F040002D12078002821D1DFF864080321017020
:106F140003218170392180F894122900C9B2491ED5
:106F240049100171022180F89E122900C9B2491C3E
:106F3400022291FBF2F302FB131180F89F122178D5
:106F440080F8A012310003F0ADFA48E0DFF8200821
:106F54000321017003218170392180F894122900E2
:106F6400C9B2491E49100171022180F89E122900FC
:106F7400C9B2491C022291FBF2F302FB131180F8FF
:106F84009F12217880F8A012310003F08BFA0220BE
:106F940007F8080023E0DFF8D80703210170032174
:106FA4008170392180F894122900C9B2491E491010
:106FB4000171022180F89E122900C9B2491C0222E3
:106FC40091FBF2F302FB131180F89F12217880F8F1
:106FD400A012310003F066FA032007F808003A0013
:106FE40000210020FEF7E8F9388099E1484680B294
:106FF4000A2859D141F22840395851F00401395036
:107004002800C0B2FF2841D02800C0B200283DD0DB
:10701400DFF85CA79AF8050002283FD0681E8AF8BA
:10702400030003208AF8020003208AF800003A20B3
:107034008AF894022800C0B2401E40108AF8040066
:107044002800C0B2401C022190FBF1F201FB1200A7
:107054008AF89F0207208AF89E020620049003946F
:107064001AF5287B049A0399584602F0E9FE062093
:1070740002900194DFF8C0BA029A0199584602F0CE
:10708400DFFE3100504603F00DFA07E03100DFF86F
:10709400E00603F007FA032007F808003A0000218D
:1070A4000020FEF789F938803AE1484680B20A2880
:1070B40040F0A88041F22840395851F00801395075
:1070C4002800C0B2FF2800F08F802800C0B200283A
:1070D40000F08A800020002100221000C0B20C2899
:1070E4001FDA8423DFF854CA1000C0B25843604446
:1070F40090F82600002812D01000C0B25843604413
:1071040090F8270000280AD01000C0B203FB00F357
:107114000CEB030090F82B00002800D0491C521CF3
:10712400DBE7C9B2002939D0DFF844A6681E8AF823
:10713400030003208AF8020003208AF800003B20A1
:107144008AF894022800C0B2401E40108AF8040055
:107154002800C0B2401C022190FBF1F201FB120096
:107164008AF89F0207208AF89E020620049003945E
:107174001AF5287B049A0399584602F061FE06200A
:1071840002900194DFF8B8B9029A0199584602F0C6
:1071940057FE3100504603F085F92DE0DFF8CC05A9
:1071A40000218173002141730F21427B024482F844
:1071B4006510417B00EB81014FF4C862C1F8A8203F
:1071C4000121427B024451740121427B024482F832
:1071D40085100321427B024482F83110417B491C13
:1071E40041730421417007E03100DFF8840503F0A6
:1071F40059F9032007F808003A0000210020FEF79F
:10720400DBF838808CE0484680B20B2852D141F23A
:107214002840395851F0020139502800C0B2FF28E3
:107224003AD02800C0B2002836D0DFF844A59AF836
:107234000500022838D0681E8AF8030003208AF863
:10724400020003208AF8000036208AF894022800FD
:10725400C0B2401E40108AF804002800C0B2401C8E
:10726400022190FBF1F201FB12008AF89F02607880
:107274008AF8A00208208AF89E020720029001944E
:107284001AF5287B029A0199584602F0D9FD31007B
:10729400504603F007F907E03100DFF8D40403F0A7
:1072A40001F9032007F808003A0000210020FEF746
:1072B40083F8388034E0484680B2052816D1207817
:1072C400002802D02078FF2807D13A002178681ED0
:1072D400C0B2FEF787FB388008E0022007F80800F8
:1072E4003A0000210020FEF767F8388018E048468D
:1072F40080B20C2814D15FF0080A0194DFF8F8BCBE
:1073040052460199584602F09BFD002007F80800F8
:10731400FEF736F83A0000210020FEF74DF83880D9
:107324003888002810D19DF8020000280CD10120D3
:1073340041F223417854042007F808003A00002160
:107344000020FEF739F83880388807B0BDE8F08FA0
:107354000C350020504E002070B504000125002695
:10736400DFF8981C3000C0B2205CA1F81001761C34
:107374003000C0B2205CA1F81401761C3000C0B209
:10738400205CA1F81201761C3000C0B2205C81F8A8
:10739400F000761C3000C0B2205C0002A1F8F200BC
:1073A400761CB1F8F2203000C0B2205C0243A1F890
:1073B400F220761C3000C0B2205C0002A1F8FA0072
:1073C400761CB1F8FA203000C0B2205C0243A1F868
:1073D400FA20761C3000C0B2205C0002A1F8FC0048
:1073E400761CB1F8FC203000C0B2205C0243A1F846
:1073F400FC20761C3000C0B2205C0002A1F8FE0024
:10740400761CB1F8FE203000C0B2205C0243A1F823
:10741400FE20761C3000C0B2205C0002A1F80001FE
:10742400761CB1F800213000C0B2205C0243A1F800
:107434000021761C3000C0B2205C0002A1F80201D9
:10744400761CB1F802213000C0B2205C0243A1F8DE
:107454000221761C3000C0B2205C0002A1F80401B5
:10746400761CB1F804213000C0B2205C0243A1F8BC
:107474000421761C3000C0B2205C0002A1F8060191
:10748400761CB1F806213000C0B2205C0243A1F89A
:107494000621761C3000C0B2205C0002A1F808016D
:1074A400761CB1F808213000C0B2205C0243A1F878
:1074B4000821761C3000C0B2205C0002A1F80A0149
:1074C400761CB1F80A213000C0B2205C0243A1F856
:1074D4000A21761C3000C0B2205C0002A1F80C0125
:1074E400761CB1F80C213000C0B2205C0243A1F834
:1074F4000C21761C3000C0B2205C0002A1F80E0101
:10750400761CB1F80E213000C0B2205C0243A1F811
:107514000E21761CFDF716FF2800C0B270BD2DE9C0
:10752400F84304000D005FF000080026E0880528F9
:1075340010DB14F19E0003F0C5F800280AD0E0889F
:1075440020448789E188891E14F10E0002F03EFA76
:10755400060007E0E088002803D1FF20060037007A
:1075640000E0FF273800310080B289B2884239D167
:107574005FF00008DFF8349C99F8C80610F0810F1A
:1075840007D12B00E288217914F10E00FFF7ACFA41
:107594008046404680B200284DD0DFF85C0B00786E
:1075A40010F00E0F47D199F8000009EB8000642118
:1075B400C0F84416012099F80010494481F82206C5
:1075C400052099F80010494481F8260099F8000034
:1075D400401C89F80000D9F8C80650F02000C9F80A
:1075E400C80628E0DFF87481012041F2244108F83C
:1075F4000100424600210020FDF7DEFEA8F800004D
:10760400DFF8A80B017800EB81016422C1F844265D
:1076140001210278024482F82216052102780244EC
:1076240082F826100178491C0170D0F8C81651F070
:107634002001C0F8C816BDE8F183C1070BD5DFF8F7
:10764400701B8A8809680A61DFF8841C0A6852F092
:1076540040020A600AE0DFF8581B8A8809684A6118
:10766400DFF86C1C0A6832F040020A6081070BD50F
:10767400DFF8401B8A8809680A61DFF8541C0A682D
:1076840052F004020A600AE0DFF8281B8A880968BD
:107694004A61DFF83C1C0A6832F004020A604107C0
:1076A40005D5DFF8141B8A8809680A6104E0DFF84D
:1076B400081B8A8809684A6101070BD5DFF8FC1AA0
:1076C4008A8809680A61DFF8081C0A6852F0800297
:1076D4000A600AE0DFF8E41A8A8809684A61DFF878
:1076E400F01B0A6832F080020A6070472DE9F0430B
:1076F400ADF5006D81B005000E0017009846DDF869
:1077040020484FF4006100220DF10409484602F0BC
:10771400CDFA220092B2310001A802F0AEF901A81C
:10772400009023009BB22A00DFF8941A404602F02E
:10773400E5FF404602F0C6FF0090DFF8883ADFF824
:10774400882ADFF8641C380002F0D8FF0DF5006DBC
:1077540001B0BDE8F08300009C4C0020AC00002088
:107764005C4A002000500008E8F7FF1F1849002079
:10777400084200202DE9F34F83B0050000240020C7
:10778400ADF8080000271F20210089B26854641C4A
:107794000498000E210089B26854641C0498000CFB
:1077A400210089B26854641C0498000A210089B23B
:1077B4006854641C0498210089B26854641CFF2036
:1077C400210089B26854641CDFF8E00B01782200C0
:1077D40092B2A954641C4178220092B2A954641C48
:1077E4008178220092B2A954641CC178220092B21A
:1077F400A954641C0179220092B2A954641C4179F1
:10780400220092B2A954641C8179220092B2A95434
:10781400641CC07910F0F000210089B26854641C23
:107824005FF00808DFF888BB1BF10909200080B26B
:1078340005EB000642464946300002F001FB0834DD
:107844005FF0080A200080B205EB00065246594654
:10785400300002F0F5FA0834DFF8EC0B8168090E09
:10786400220092B2A954641C8168090C220092B2CD
:10787400A954641C8168090A220092B2A954641CA8
:107884008068210089B26854641CDFF87007D0F85E
:107894009410220092B2A954641CD0F8E80021008C
:1078A40089B26854641CDFF8280A807B210089B2FD
:1078B4006854641C0020210089B26854641C0020B0
:1078C400210089B26854641C0020210089B26854E4
:1078D400641C0020210089B26854641C002021002B
:1078E40089B26854641C00263000C0B20C2880F2AF
:1078F4008B80701C210089B26854641C8427DFF8D3
:107904003C823000C0B2784318F8000000286CD0E4
:1079140008200190DFF8D00B0090200080B205EB26
:107924000009019A0099484602F08AFA08345FF087
:107934000809DFF8B8AB200080B205EB000B4A461B
:107944005146584602F07CFA08343000C0B27843FD
:107954004044407F210089B26854641C3000C0B2A6
:1079640078434044807FC0F3C0013000C0B2784304
:107974004044807FC0F38000800050EAC1003100A1
:10798400C9B279434144897FC1F3400150EA4100BF
:107994003100C9B279434144897F11F001010843A0
:1079A400210089B26854641C3000C0B2784340445A
:1079B40090F82000210089B26854641C3000C0B2E1
:1079C4007843404490F82E00210089B26854641C26
:1079D4003000C0B207FB00F708EB070090F86C001A
:1079E400210089B26854641C0CE01527FF20009024
:1079F400200080B205EB0008009A3900404602F0EE
:107A040055F91534761C6FE70020210089B26854BB
:107A1400641C0020210089B26854641C210089B2CE
:107A2400280001F0D3FF0100200080B22954641C17
:107A3400080080B2000A220092B2A854641C2000FC
:107A440080B205B0BDE8F08FFC4F002070B5DFF8C0
:107A5400AC4514F14805DFF8986A31880905090D29
:107A6400280002F06BFE280002F08FFE14F19C0542
:107A740071880905090D280002F060FE280002F053
:107A840084FED4F89400B4F8FC10884205DAD4F8E3
:107A9400E800B4F8FC10884206DBDFF8B00981681E
:107AA40051F00101816005E0DFF8A009816849080F
:107AB4004900816070BDDFF83C1A097800293AD189
:107AC400DFF80C180A7A12F0030F02D10A781207B1
:107AD40019D50A7A12F0030F08D0DFF8D826938854
:107AE400126813610A6852F004020A600A781206E6
:107AF40021D5DFF8C8269388126853610A6832F0EA
:107B040080020A6017E00A78120608D4DFF8AC266F
:107B14009388126813610A6852F080020A600A7836
:107B2400520708D5DFF88C269388126853610A68D7
:107B340032F004020A607047C84F0020D83B00208E
:107B4400D04F002070B40C00E4B2012C40F0E68069
:107B54001400E4B2002C57D11C00E4B2002C05D070
:107B6400022C2AD028D3032C4DD06EE1DFF88849AB
:107B74000025A573002565730F25667B264486F8CA
:107B84006550657B04EB85054FF4C866C5F8A860AD
:107B94000325667B264475740125667B264486F896
:107BA40085500525667B264486F83150657B6D1C1F
:107BB40065730425657048E147E1DFF83C49002519
:107BC400A573002565730F25667B264486F86550EA
:107BD400657B04EB85054FF4C866C5F8A8600425E9
:107BE400667B264475740125667B264486F8855099
:107BF4000325667B264486F83150657B6D1C6573CE
:107C04000425657021E120E11400E4B2012C30D197
:107C14001C00E4B2002C02D0012C29D015E1DFF8BD
:107C2400D8480025A573002565730F25667B264477
:107C340086F86550657B04EB85054FF4C866C5F886
:107C4400A860DFF8145BED786D1C667B26447574C0
:107C54000125667B264486F885500125667B2644EB
:107C640086F83150657B6D1C657304256570ECE006
:107C7400EBE01400E4B2022C40F0E7801C00E4B214
:107C8400012C06D0022C0CD0042C12D0FF2C3DD099
:107C9400DBE0DFF8C44A6578022D01D00225657067
:107CA400D3E0DFF8B45A6C78002C01D000246C7057
:107CB400CBE0DFF8A44A6578032D26D00325657050
:107CC400DFF834480025A573002565730F25667B0E
:107CD400264486F86550657B04EB85054FF4C86639
:107CE400C5F8A8600925667B264475740125667B62
:107CF400264486F885500B25667B264486F8315049
:107D0400657B6D1C6573042565709EE0DFF8485A39
:107D14006C78002C01D000246C7096E00C00E4B266
:107D2400022C40F092801400E4B2002C31D11C00EB
:107D3400E4B2002C05D0022C29D027D3032C27D061
:107D440083E0DFF8B4470025A573002565730F258C
:107D5400667B264486F86550657B04EB8505C8265A
:107D6400C5F8A8600225667B264475740125667BE8
:107D7400264486F885500425667B264486F83150CF
:107D8400657B6D1C6573042565705EE05DE05CE0F9
:107D94005BE01400E4B2012C30D11C00E4B2002CEE
:107DA40002D0012C29D050E0DFF84C470025A57300
:107DB400002565730F25667B264486F86550657B30
:107DC40004EB85054FF4C866C5F8A860DFF8885948
:107DD400ED786D1C667B264475740125667B26440C
:107DE40086F885500225667B264486F83150657BEB
:107DF4006D1C65730425657027E026E01400E4B269
:107E0400022C22D11C00E4B2012C06D0022C0CD08E
:107E1400042C12D0FF2C11D017E0DFF83C49657810
:107E2400012D01D0012565700FE0DFF82C596C7825
:107E3400002C01D000246C7007E006E0DFF818592C
:107E44006C78002C01D000246C7070BC70472DE954
:107E5400F84FADF5206D05000E0017005FF0000827
:107E64004FF40074210000220DF50069484601F02A
:107E74001DFF210000220DF5C069484601F016FFE0
:107E8400210000220DF58069484601F00FFF210012
:107E940000220DF50079484601F008FF2100002278
:107EA4006C46200001F002FFDFF8C0190DF50060F8
:107EB40002F024FCDFF8B8190DF5C06002F01EFCD6
:107EC400DFF8B0190DF5806002F018FC15F59C720E
:107ED400DFF8A41980A802F011FCDFF8A0196846A5
:107EE40002F00CFC0DF50061300002F06BFC002880
:107EF40032D0242416F1390915F59C7A220049461A
:107F0400504601F09DFF95F840012D286CD195F85D
:107F140045012D2868D195F84A012D2864D195F89A
:107F24004F012D2860D1DFF858490120E0705FF03F
:107F3400800916F1600A15F5AE7B4A46514658464B
:107F440001F07EFF16F16001200001F009FB00281A
:107F54004AD00120804647E00DF5C061300002F0B0
:107F640031FC00280AD0012080460020234981F8F2
:107F7400F5000220DFF80819C87035E00DF58061BE
:107F8400300002F01FFC002806D0002080460220AA
:107F9400DFF8EC18C87027E080A9300002F012FC6A
:107FA400002806D0012080460220DFF8D418C870CB
:107FB4001AE06946300002F005FC002814D00120C4
:107FC40080460220DFF8B818C8704AF6AA20DFF805
:107FD400B418488001F012FF0520FDF763F8DFF8BC
:107FE400A808DFF8C01808604046C0B20DF5206D3F
:107FF40001B0BDE8F08F0000334E0020804B00201C
:10800400F8B504000D0000206178214491F8266041
:108014003100C9B2012907D06AD3032930D01BD358
:10802400052954D040D363E0DFF86008016814F1F7
:108034004600FFF79FFBA080DFF85478A0880090EB
:10804400DFF850383A0014F146012800FFF74EFBE0
:10805400380002F08DFC4BE0DFF83478DFF82C08B0
:1080640000680090DFF8F006C378DFF828283900AC
:10807400DFF8240800F04FF9380002F079FC37E00B
:10808400DFF80C78DFF8040800680090DFF8C80611
:10809400C378DFF800283900DFF8000800F08AF917
:1080A400380002F065FC23E0DFF8F407DFF8E0773E
:1080B400DFF8D817096800910378DFF8D82739006A
:1080C400443000F0C5F9380002F052FC10E0DFF84B
:1080D400C077DFF8D40701880091DFF8B8373A0099
:1080E400811CDFF8C80700F009F8380002F040FCF2
:1080F400C4F8C456F1BD0000D41400202DE9F043A7
:10810400ADF5006D85B005000E0017009846DDF84A
:1081140030484FF4006100220DF11409484601F083
:10812400C5FD042100220DF11009484601F0BEFDF1
:10813400022100220DF10C09484601F0B7FD002090
:108144008DF80C0020008DF80D00220092B2310051
:1081540005A801F092FC022203A904A801F08DFCF9
:10816400DFF81C0705A9029104A9019110F19801F7
:10817400009110F1960310F18E02DFF83417404697
:1081840002F0BCFA404602F09DFA019015F59C708D
:1081940000900C4B0C4ADFF81C17380002F0AEFAC2
:1081A4000DF5006D05B0BDE8F08300000C3500202E
:1081B400100B0108400B0108080B0108480B0108CB
:1081C400C8060108A44F0020B80A01082DE9F047A9
:1081D40004000D00002000266178214491F82670E7
:1081E4003900C9B2012907D063D303291ED010D3A3
:1081F400052935D027D35CE0BAA1280002F0E2FAC1
:10820400002805D001200600DFF8880602F0B0FB44
:108214004FE0B4A1280002F0D5FA002805D00120CF
:108224000600DFF8700602F0A3FB42E0ADA12800CF
:1082340002F0C8FA002805D001200600DFF8540631
:1082440002F096FB35E0A7A1280002F0BBFA002853
:1082540005D001200600DFF83C0602F089FB28E087
:10826400A0A1280002F0AEFA002822D001200600C6
:10827400DFF8200602F07CFBDFF82C0641F22641F1
:10828400415C042915D141F22341405C012810D1FD
:1082940041F21110DFF8EC15488001F0AFFD002821
:1082A40007D00520FCF7FEFEDFF8DC05DFF8F41547
:1082B40008604FF400685FF00009DFF8D8A54A466B
:1082C4004146504601F0F2FC3000C0B2BDE8F087F0
:1082D400B84F002010B400214278024492F82620BE
:1082E4001300DBB25B1E042B13D88178002908D15C
:1082F40000214378034483F822164178491C4170D5
:1083040007E000214378034483F822164178491C8E
:10831400417010BC70472DE9F041ADF5006D82B09D
:1083240004000D0016001F004FF4006100220DF13F
:108334000808404601F0BAFC022100220DF10608AB
:10834400404601F0B3FC012100220DF1040840462F
:1083540001F0ACFC781C8DF80400012201A90DF198
:10836400060001F08AFB0722210002A801F085FB28
:1083740002A800900DF10603DDF82028DFF8381577
:10838400300002F0BBF9300002F09CF90090DFF8F5
:108394002C35DFF82C250449280002F0AFF90DF53F
:1083A400006D02B0BDE8F08108050108904F00207F
:1083B400005000082DE9F041ADF5006D82B00400D5
:1083C4000D0016001F004FF4006100220DF1080893
:1083D400404601F06BFC022100220DF106084046E4
:1083E40001F064FC012100220DF10408404601F073
:1083F4005DFC781C8DF80400012201A90DF1060032
:1084040001F03BFB0722210002A801F036FB02A881
:1084140000900DF10603DDF82028DFF8A8143000E1
:1084240002F06CF9300002F04DF90090DFF88C3462
:10843400DFF88C24DFF89014280002F05FF90DF5C2
:10844400006D02B0BDE8F081F8440020B84F002070
:108454002DE9F041ADF5006D82B004000D00160069
:108464001F004FF4006100220DF10808404601F09E
:108474001DFC022100220DF10608404601F016FC05
:10848400012100220DF10408404601F00FFC781C84
:108494008DF80400012201A90DF1060001F0EDFAA6
:1084A4000922210002A801F0E8FA02A800900DF1C7
:1084B4000603DDF82028DFF81414300002F01EF95A
:1084C400300002F0FFF80090DFF8F033DFF8F0231B
:1084D400DFF8F413280002F011F90DF5006D02B075
:1084E400BDE8F0813E0000000C0A0108180A0108EA
:1084F400D84F0020FC4F0020184900202DE9FE4FE2
:1085040000242000C0B20C2880F2E7800020040080
:108514002000C0B20C2880F2E080DFF8BC535FF08A
:10852400840ADFF8B8B301222000C0B20AFB00F0CD
:10853400584410F11E012300DBB20320434305EB32
:108544000300801C01F0D0FC002825D1012220006A
:10855400C0B20AFB00F0584410F120012300DBB242
:108564000320434305EB030001F0BEFC002813D1B4
:1085740001222000C0B20AFB00F0584410F16C0143
:108584002300DBB20320434305EB0300401C01F04E
:10859400ABFC002800F09F80012002902000C0B2B4
:1085A4000AFB00F0584410F11E062100C9B2032052
:1085B400414305EB0100871C029A3100380001F0A9
:1085C4003FFC01272000C0B20AFB00F0584410F120
:1085D40020082100C9B20320414305EB01093A00F8
:1085E4004146484601F02CFC5FF001092000C0B26E
:1085F4000AFB00FA0BEB0A0010F16C0A2100C9B265
:108604000320414305EB010010F1010B4A4651469A
:10861400584601F015FCDFF888B28BF800400020C2
:1086240001902100C9B20320414305EB01004078C9
:1086340000902100C9B2032041436B5C2100C9B200
:108644000320414305EB01008078C0F3C001220000
:10865400D2B20320424305EB02008078C0F38002CB
:10866400920052EAC1022100C9B20320414305EB42
:1086740001008078C0F3400052EA40022100C9B2F0
:108684000320414305EB0100807810F00100024310
:10869400D2B205211BF14400FCF777FF8BF80300ED
:1086A400DFF83002017800EB81016422C1F844262E
:1086B40001210278024482F822160421027802443D
:1086C40082F826100178491C0170D0F8C81651F0C0
:1086D4002001C0F8C816641C1AE7DFF8F48118F109
:1086E400040704224146380001F0FEFB002831D083
:1086F400042546462A003100380001F0A1FB684FEA
:10870400FE203870D8F80400019000200090002367
:108714000022FF2117F14400FCF737FFF870DFF85F
:10872400B401017800EB81016422C1F844260121DF
:108734000278024482F8221604210278024482F864
:1087440026100178491C0170D0F8C81651F0200198
:10875400C0F8C816BDE8F78F084200202DE9F84F8D
:10876400002000242000C0B20C2844DA012000902C
:108774008425DFF868612000C0B26843304410F1FA
:108784001E07DFF854812100C9B20320414308EBDE
:10879400010010F10209009A3900484601F050FB2B
:1087A4005FF001092000C0B26843304410F1200A90
:1087B4002100C9B20320414308EB010B4A4651464C
:1087C400584601F03DFB5FF0010B2000C0B205FBF1
:1087D40000F506EB050010F16C052100C9B2032079
:1087E400414308EB0100461C5A462900300001F0C1
:1087F40027FB641CB6E70425DFF8D4000600071D38
:108804002A003100380001F01BFBBDE8F18FDFF8CE
:10881400C0000078800727D5DFF8C4004178090735
:1088240022D400218173002141730F21427B024431
:1088340082F86510417B00EB81014FF41672C1F898
:10884400A8200B21427B024451740121427B024443
:1088540082F885100D21427B024482F83110417B5D
:10886400491C41730421417070470000BC09010890
:10887400740901088C09010804090108240A010883
:108884005C4A0020744F00200400FA05E44F0020E5
:108894000C2500200C2D0020544E0020744E002086
:1088A400504E00200CED00E0AC0000202C470020CE
:1088B400400501089004010878050108A44F002030
:1088C400B80A0108B005010808050108E80501080F
:1088D400B84F00200C350020504F0020D83B00201A
:1088E4001849002080B55FF4E13001F081FF01F008
:1088F400E1FF0021012001F0EEFF01BD2DE9F04769
:1089040005000E00170000244FF4F6785FF000090C
:10891400AA464A464146504601F0C8F93000C0B262
:10892400012840F0B181C8202100C9B205EB8101C2
:10893400C1F8980002202100C9B2294481F8180125
:1089440001202100C9B2294481F87800641CC820A0
:108954002100C9B205EB8101C1F898000220210071
:10896400C9B2294481F8180102202100C9B229445E
:1089740081F87800641CC8202100C9B205EB81018C
:10898400C1F8980019202100C9B2294481F81801BE
:108994000B202100C9B2294481F87800641CC82046
:1089A4002100C9B205EB8101C1F898000220210021
:1089B400C9B2294481F818010C202100C9B2294404
:1089C40081F87800641CC8202100C9B205EB81013C
:1089D400C1F898000A202100C9B2294481F818017D
:1089E4000D202100C9B2294481F87800641CC820F4
:1089F4002100C9B205EB8101C1F898000A202100C9
:108A0400C9B2294481F818011B202100C9B22944A4
:108A140081F87800641CC8202100C9B205EB8101EB
:108A2400C1F8980002202100C9B2294481F8180134
:108A340012202100C9B2294481F87800641CC8209E
:108A44002100C9B205EB8101C1F89800282021005A
:108A5400C9B2294481F8180104202100C9B229446B
:108A640081F87800641CC8202100C9B205EB81019B
:108A7400C1F89800B4202100C9B2294481F8180132
:108A840005202100C9B2294481F87800641CC8205B
:108A94002100C9B205EB8101C1F89800B42021007E
:108AA400C9B2294481F8180106202100C9B2294419
:108AB40081F87800641C4FF448702100C9B205EBBA
:108AC4008101C1F8980002212200D2B22A4482F81E
:108AD400181108212200D2B22A4482F87810641CAA
:108AE40040F6B8312200D2B205EB8202C2F89810E7
:108AF40002212200D2B22A4482F81811092122004C
:108B0400D2B22A4482F87810641C2100C9B205EB61
:108B14008101C1F8980004212200D2B22A4482F8CB
:108B2400181115212200D2B22A4482F87810641C4C
:108B34002100C9B205EB8101C1F89800042122008B
:108B4400D2B22A4482F8181120212200D2B22A4437
:108B540082F87810641C2100C9B205EB8101C1F8C8
:108B6400980032212200D2B22A4482F818111F211F
:108B74002200D2B22A4482F87810641C2100C9B2BF
:108B840005EB8101C1F8980002212200D2B22A44E7
:108B940082F8181116212200D2B22A4482F87810E1
:108BA400641C2100C9B205EB8101C1F898000521BC
:108BB4002200D2B22A4482F8181118212200D2B21B
:108BC4002A4482F87810641C2100C9B205EB8101A3
:108BD400C1F8980032212200D2B22A4482F8181136
:108BE4001C212200D2B22A4482F87810641C21008D
:108BF400C9B205EB8101C1F8980032212200D2B23A
:108C04002A4482F818111D212200D2B22A4482F883
:108C14007810641C2100C9B205EB8101C1F89800E9
:108C240032212200D2B22A4482F818111E212200D5
:108C3400D2B22A4482F87810641C2100C9B205EB30
:108C44008101C1F8980032212200D2B22A4482F86C
:108C5400181121212200D2B22A4482F87810641C0F
:108C64002100C9B205EB8101C1F89800322021002E
:108C7400C9B2294481F8180122202100C9B229442B
:108C840081F87800641C51E04FF4FA602100C9B205
:108C940005EB8101C1F8980001202100C9B22944E3
:108CA40081F8180110202100C9B2294481F8780004
:108CB400641CB4202100C9B205EB8101C1F89800FD
:108CC40001202100C9B2294481F8180103202100A0
:108CD400C9B2294481F87800641C4FF4C87021009B
:108CE400C9B205EB8101C1F8980001202100C9B285
:108CF400294481F818010F202100C9B2294481F8C0
:108D04007800641C14202100C9B205EB8101C1F86C
:108D1400980001202100C9B2294481F818010020DB
:108D24002100C9B2294481F87800641C0220A5F806
:108D3400DE0185F8E06185F8DC415FF04808B9465A
:108D4400AA4642464946504601F07AF8BDE8F08703
:108D5400F0B5ADF5006D83B004000D0000274FF4AD
:108D64000061002203AE300000F0A0FF94F8DD01A2
:108D7400204490F878603000C0B2002850D0012818
:108D840059D0022862D0032860D0042800F08180E2
:108D9400052800F08380062800F08580072800F06D
:108DA4008780082800F08980092800F08B800A2831
:108DB40000F09A800B284FD00C2851D00D2854D0A5
:108DC4000E285CD00F282AD0102800F085801228A5
:108DD4005AD013287BD0152800F0A680162800F05E
:108DE400BE80182800F0C0801A2800F00E811B28CD
:108DF40040D01C2800F0C8801D2800F0D2801E2816
:108E040000F0DC801F2800F0A580202800F09D8061
:108E1400212800F0E080222800F0EA80FEE0FDE056
:108E2400DFF8BC08818800684161DFF8B8088188F0
:108E340000684161F2E0DFF8A808818800684161B8
:108E4400DFF8A008818800684161E7E0DFF8940852
:108E5400818800680161E1E073A001F089FDDDE033
:108E6400DFF8840801F084FDD8E0DFF8800801F021
:108E74007FFDD3E0DFF8780801F07AFDCEE0DFF87B
:108E8400740801F075FDC9E0DFF86C0801F070FDAD
:108E9400C4E0DFF8680801F06BFDBFE0DFF86008AC
:108EA40001F066FDBAE0DFF85C0801F061FDB5E0B1
:108EB400DFF8540801F05CFDB0E0DFF8500801F081
:108EC40057FDABE0DFF8480801F052FDA6E0DFF8FB
:108ED400440801F04DFDA1E00A2001F01DFDDFF87A
:108EE400380801F045FD99E094F8470000280ED1B8
:108EF400A0880290E0780190A078009063782278AE
:108F0400DFF81818DFF8180801F0F8FB07E0A38869
:108F1400A21DDFF81018DFF8080801F0EFFBDFF8F6
:108F2400000801F025FD79E0DFF8FC0701F020FDE1
:108F3400DFF8F80701F01CFDDFF8F40701F018FD75
:108F4400DFF8F00701F014FD68E0DFF8EC0701F04A
:108F54000FFD63E0DFF8E40701F00AFD5EE0DFF8EF
:108F6400E00701F005FD59E0DFF8D8070090DFF8CD
:108F7400D837DFF8D827DFF8D81703A801F0BEFBED
:108F840003A801F0F5FC49E0DFF8C037DFF8B827A3
:108F9400DFF8C01703A801F0B1FB03A801F0E8FC57
:108FA4003CE0DFF8A837DFF8A027DFF8AC1703A808
:108FB40001F0A4FB03A801F0DBFC2FE0DFF88C3701
:108FC400DFF88427DFF8941703A801F097FB03A8C0
:108FD40001F0CEFC22E0DFF87437DFF86C27DFF80D
:108FE400801703A801F08AFB03A801F0C1FC15E077
:108FF400DFF85837DFF85027DFF8681703A801F0C7
:109004007DFB03A801F0B4FC08E0DFF85C1703A8BB
:1090140001F074FBDFF8540701F0AAFCC4F8E45132
:109024000DF5006D03B0F0BD415400002DE9F84F7B
:10903400ADF5016D04000D00002700264FF400611A
:1090440000220DF11008404600F030FE94F8DD01D6
:10905400204490F878008DF800009DF80000002866
:1090640002282FD9001F00F0AA80401E00F0B18012
:10907400401E00F0C280401E022824D9C01E00F009
:10908400D080401E01281ED9801E25D0401E7BD0D2
:10909400401E17D0401E16D0801E14D0401E63D030
:1090A400801E012840F2BD80C01E012840F2B98014
:1090B400801E00F0BF80401E43D0401E062840F2B0
:1090C400B080CCE0CBE09AA1280001F07BFB002823
:1090D40001D001200600C2E095A1280001F072FB36
:1090E40000282DD01127A81C039014F148083A0039
:1090F4000399404600F0A4FE5FF01108A81C0290FA
:10910400DFF84896CA4642460299504600F098FE57
:109114005FF0110AA81C0190DFF854B65246019979
:10912400584600F08DFE14F1590114F1480000F086
:1091340071FCDFF84016484600F06CFC0120060084
:109144008DE07BA1280001F03DFB00280BD0112706
:1091540015F1020814F161093A004146484600F04D
:109164006FFE012006007AE071A1280001F02AFBBD
:10917400002808D0DFF80016280001F023FB00289F
:1091840001D0012006006AE069A1280001F01AFB61
:10919400002813D014F172021C21280000F0CEF82C
:1091A400002809D106275FF0000814F1720942462D
:1091B4003900484600F07AFD012006004FE0DFF850
:1091C400BC15280001F0FEFA002801D00120060099
:1091D40045E0DFF8AC15280001F0F4FA00280BD0C4
:1091E40054A1280001F0EEFA4178312902D04178E7
:1091F400352901D101210E0031E0DFF8881528005E
:1092040001F0E0FA00280BD04AA1280001F0DAFAB4
:109214004178312902D04178352901D101210E004C
:109224001DE043A1280001F0CDFA002801D001205F
:10923400060014E040A1280001F0C4FA00280ED072
:10924400DFF8241504A801F059FA282104A801F034
:109254006CFB282104A801F068FB01200600300003
:10926400C0B20DF5006D05B0BDE8F08F10B400215B
:1092740090F8DD21024492F878201300DBB2002B31
:10928400012B21D99B1E012B0FD99B1E0A2B2AD9F6
:109294000B3B012B18D9DB1E012B24D9DB1E012B20
:1092A40021D9DB1E0A2B1ED92CE0002190F8DD31D8
:1092B400034483F8181190F8DD11491C80F8DD117E
:1092C400002180F8E8111DE0002190F8DD3103440D
:1092D40083F8181190F8DD11491C80F8DD11002184
:1092E40080F8E8110EE090F8E81100290AD1002175
:1092F40090F8DD31034483F8181190F8DD11491C0E
:1093040080F8DD1110BC704710B50400DFF8781444
:10931400200001F057FA002806D1DFF8701420006D
:1093240001F050FA002801D0012000E0002010BD17
:109334004F4B00002C0000003E0000002DE9F84FC8
:1093440004000D0016005FF0000A5FF000095FF0F2
:10935400010B002722232A00D2B292B25046010008
:1093640089B2200000F088FC80465846C0B200282C
:109374001DD0B8F1000F1AD4002083460A2202211E
:1093840004EB0800401C00F0A7FB070018F10308D9
:109394003800C0B215280ADB3800C0B2642806DAE7
:1093A4004846C0B2375419F10109012083462F23DE
:1093B4002A00D2B292B24046010089B2200000F0E5
:1093C4005BFC82465846C0B200281DD0BAF1000F9B
:1093D4001AD4002083460A22022104EB0A00401C0E
:1093E40000F07AFB07001AF1030A3800C0B2002823
:1093F4000AD03800C0B20D2806DA4846C0B2375445
:1094040019F10109012083462F232A00D2B292B216
:109414005046010089B2200000F02EFC80465846D8
:10942400C0B200281DD0B8F1000F1AD40020834622
:109434000A22022104EB0800401C00F04DFB070047
:1094440018F103083800C0B200280AD03800C0B2AE
:10945400202806DA4846C0B2375419F10109012020
:1094640083462C232A00D2B292B24046010089B22C
:10947400200000F001FC82465846C0B2002819D0F2
:10948400BAF1000F16D4002083460A22022104EB0D
:109494000A00401C00F020FB07001AF1030A380000
:1094A400C0B2182806DA4846C0B2375419F1010987
:1094B400012083463A232A00D2B292B250460100D8
:1094C40089B2200000F0D8FB80465846C0B200287C
:1094D40019D0B8F1000F16D4002083460A220221C5
:1094E40004EB0800401C00F0F7FA070018F1030829
:1094F4003800C0B23C2806DA4846C0B2375419F1E5
:109504000109012083463A232A00D2B292B240468E
:10951400010089B2200000F0AFFB82465846C0B279
:10952400002819D0BAF1000F16D4002083460A226D
:10953400022104EB0A00401C00F0CEFA07001AF1E5
:10954400030A3800C0B23C2806DA4846C0B2375491
:1095540019F10109012083465846C0B2BDE8F28FD3
:109564002DE9F04F87B004000D000026E0780128B3
:1095740040F08F80022100226F46380000F096FBF5
:109584004FF492700690002005902700059A0699E2
:10959400380000F08BFB0827A81D049014F18E08F6
:1095A4003A000499404600F04BFC5FF0020815F1C4
:1095B4002500039014F1960942460399484600F0A9
:1095C4003FFC5FF0020915F12700029014F1980A9C
:1095D4004A460299504600F033FC5FF0040A15F144
:1095E4002900019014F19A0B52460199584600F053
:1095F40027FCDFF89CB11BF10A0114F18E0000F086
:1096040009FA1BF1040114F1960000F003FA1BF1AE
:10961400050114F1980000F0FDF9694614F19A006F
:1096240000F0F8F969469DF80020487850EA0220D5
:10963400002821D09DF80000497851EA0021ABF8B8
:109644000610BBF8060040F60801884241DA012002
:109654000600BBF80600470015F12D0814F19E0919
:109664003A004146484600F0EBFB1BF10E0114F1B1
:109674009E0000F0CFF92CE00120060080275FF067
:1096840000081BF10E0942463900484600F00EFB63
:109694001FE0E07804281CD14FF492775FF00008B3
:1096A400DFF8EC90CA4642463900504600F0FEFA14
:1096B4005FF0080AA81D019014F18E0B524601991F
:1096C400584600F0BDFB19F10A0114F18E0000F0B8
:1096D400A1F93000C0B207B0BDE8F08F000000006F
:1096E400D80B0108D00B0108780B0108800B010886
:1096F400880B0108480A0108900B0108540A010864
:10970400600A01086C0A010850080108CC09010824
:10971400780A010870080108DC09010890070108AB
:10972400B44E002090080108200901083C090108F2
:1097340058090108FC030108B0080108A40901083C
:10974400BC07010898030108980B0108A44F0020E6
:109754000C08010830070108200601085806010812
:10976400CC04010860070108900601084C040108B4
:109774003B4E0020904F0020A00B0108A80B0108CD
:10978400B00B0108B80B0108840A0108900A01080B
:109794005C4A00202DE9F04104000D0016005FF042
:1097A40001080027280080B2002860D001F020F9C9
:1097B400002801D1002080464046C0B2002808D0CD
:1097C400A02001F0AAF901F087F9002801D10020B6
:1097D40080464046C0B2002808D0200080B2000A6B
:1097E400C0B201F09AF901F077F980464046C0B260
:1097F400002806D02000C0B201F08FF901F06CF906
:1098040080464046C0B2002805D001F0F1F8002897
:1098140001D1002080464046C0B2002808D0A120D3
:1098240001F07BF901F058F9002801D100208046AD
:109834006D1E4046C0B2002817D000200700380033
:10984400290080B289B2884208D201F08BF939002C
:1098540089B2705401F010F97F1CF0E701F082F92D
:10986400390089B2705401F01FF901F0EDF8404657
:10987400C0B2BDE8F0812DE9F04104000D001600EE
:1098840000275FF00108280080B2002842D001F0D0
:10989400AFF8002801D1002080464046C0B200281D
:1098A40008D0A02001F039F901F016F9002801D1FF
:1098B400002080464046C0B2002808D0200080B274
:1098C400000AC0B201F029F901F006F980464046C9
:1098D400C0B2002806D02000C0B201F01EF901F089
:1098E400FBF88046002007003800290080B289B2C6
:1098F40088420DD24046C0B2002807D0380080B25A
:10990400305C01F00AF901F0E7F880467F1CEBE7D0
:1099140001F09AF8052001F062F84046C0B2BDE8B3
:10992400F0812DE9F04704000D00160000275FF0D8
:1099340000085FF0000A200010F01F0F1BD014F085
:109944001F00D0F1200007002800390080B289B23E
:10995400884200D22F00404680B206EB0002390054
:1099640089B218EB040080B2FFF785FF8146ED1B36
:1099740017EB080801E05FF001094846C0B200286F
:109984001FD0280080B200281BD020200700280008
:10999400390080B289B2884200D22F00404680B29A
:1099A40006EB0002390089B218EB040080B2FFF71D
:1099B40062FF8146ED1B17EB08084846C0B2002839
:1099C400DFD14846C0B2BDE8F087000070B40300A0
:1099D4000022002400264FF6FF7000258D4214D289
:1099E4005A5D504000221600082E0CD2C20706D53C
:1099F40080B2020048F2084090EA520001E080B2CE
:109A04004008761CF0E76D1CE8E780B2C04380B2E2
:109A140070BC70472DE9F04104000D005FF00008B0
:109A240000260027002C24D0200000F04BFE01006B
:109A34004FF6FE7001400020060030000A0080B29C
:109A440092B2904210D22248320092B2A25C825C5E
:109A5400120133009BB223445B78C05C02431700BD
:109A64002F706D1CB61CE8E788461FFA88F85FEA79
:109A74005808404680B2BDE8F081F0B400250023C8
:109A8400002425001600ADB2B6B2B5421DD22500A1
:109A9400ADB24D5DEDB22D090E4E2F00FFB2F75D54
:109AA400A4461FFA8CFC00F81C702700BFB2CF5DDF
:109AB40017F00F073B001F00FFB2F65D2700BFB28F
:109AC40000EB47077E70641CDBE7F0BC70470000C6
:109AD40008010108EC090108F0B403000020002586
:109AE40000260027002B00F0C5801400E4B2022CED
:109AF40009D0082C24D00A2C3FD0102C00F07F80F1
:109B0400112C58D0B6E01D00002427003C008C46E0
:109B1400E4B25FFA8CFC644511D22C782600340040
:109B2400E4B2302C03D03400E4B2312C07D140002D
:109B34003400E4B2303C20187F1C6D1CE6E799E049
:109B44001D00002427003C008C46E4B25FFA8CFC24
:109B5400644511D22C7826003400E4B2302C0BDB9F
:109B64003400E4B2382C07DAC0003400E4B2303CEC
:109B740020187F1C6D1CE6E77CE01D0000242700F4
:109B84003C008C46E4B25FFA8CFC644512D22C781B
:109B940026003400E4B2302C0CDB3400E4B23A2C5E
:109BA40008DA0A2460433400E4B2303C20187F1CF5
:109BB4006D1CE5E75EE01D00002427003C008C4698
:109BC400E4B25FFA8CFC644518D22C782600340089
:109BD400E4B2302C0ADB3400E4B23A2C06DA0A246C
:109BE40060433400E4B2303C201804E03400E4B2B2
:109BF4002E2C00D002E07F1C6D1CDFE73AE01D0034
:109C0400002427003C008C46E4B25FFA8CFC6445D7
:109C14002FD22C7826003400E4B2302C09DB340037
:109C2400E4B23A2C05DA00013400E4B2303C2018E6
:109C34001CE03400E4B2612C09DB3400E4B2672C8C
:109C440005DA00013400E4B2573C20180EE0340079
:109C5400E4B2412C09DB3400E4B2472C05DA0001FC
:109C64003400E4B2373C201800E002E07F1C6D1C95
:109C7400C8E7FFE7F0BC704770B404005FF0FF3042
:109C84000D001600ADB2B6B2B5420CD20D00ADB2A5
:109C9400655D1E00F6B2B54203D10D00ADB22800D9
:109CA40001E0491CECE770BC7047000062F30F222E
:109CB40062F31F42401810F0030308D0C91A1FD3DF
:109CC400DB0748BF00F8012D28BF20F8022D130040
:109CD40030B414461546103928BF20E93C00FAD8A0
:109CE400490728BF20E90C0048BF40F8042D89002B
:109CF40028BF20F8022D48BF00F8012D30BC704762
:109D0400C91818BF00F8012DCB0728BF00F8012D92
:109D1400704700002DE9F8435FF00008002441F685
:109D2400E675464E32001A212800FFF733FD07007E
:109D34003800C0B2002810D05FF000085FF00009BE
:109D440018213000FFF742FE318B02000B0092B263
:109D54009BB29A4201D00022170032001A214FF41C
:109D6400F050FFF717FD80464046C0B200280FD0E0
:109D740000245FF0000918213000FFF727FE318B23
:109D840002000B0092B29BB29A4201D0002290468C
:109D940058EA0700C0B2002807D10120B0804AF673
:109DA400AA20708000F02AF826E03800C0B201280A
:109DB4000FD14046C0B200280BD132001A2128002E
:109DC400FFF7E8FC32001A214FF4F050FFF7A9FD29
:109DD40012E03800C0B200280ED14046C0B20128BB
:109DE4000AD132001A214FF4F050FFF7D3FC3200AD
:109DF4001A212800FFF795FDBDE8F18338B500244A
:109E04000E4D0020288318212800FFF7DFFD28834A
:109E14002A001A2141F6E670FFF783FD012809D1D3
:109E24002A001A214FF4F050FFF77BFD012801D1DD
:109E3400012004002000C0B232BD0000744F002095
:109E440062B38B0708D0521E11F8013B00F8013BA6
:109E540000F024808B07F6D1830740F0208000BFF8
:109E6400103A07D330B4B1E83810103AA0E83810EB
:109E7400F9D230BC530724BFB1E80810A0E8081099
:109E840044BF51F8043B40F8043BD20724BF31F8E7
:109E9400022B20F8022B44BF0B7803707047121F6B
:109EA40017D35B0009D151F8043B20F8023B1B0C8B
:109EB400121F20F8023BF6D20BE051F8043B00F8E5
:109EC400013B1B0A20F8023B1B0C121F00F8013B4C
:109ED400F3D238BF121D521E24BF11F8013B00F803
:109EE400013BF8D8704700000300002013F0030F73
:109EF40009D0521E22BF13F8010B11F801CBB0EBAD
:109F04000C00F3D0704711F0030F14D1121F22BFBD
:109F140053F8040B51F804CB6045F7D0121D0AD254
:109F240000BA9CFA8CFCB0EB0C0038BF6FF0000058
:109F340088BF01207047521E22BF13F8010B11F88D
:109F440001CBB0EB0C00F6D0521C08BF1046704792
:109F5400F0B500220023002400250026002791F8F4
:109F640003C01CF00F0C91F803E05FEACE6E02D53B
:109F74008A7852EA0C0C0A7812062AD00268160073
:109F840000221400082C23D25FF0010E1EFA04F202
:109F940015000A882A401300AB4217D1A20015000D
:109FA4000F22AA401700BE431CFA05F21643CA78D2
:109FB400282A04D11EFA04FEC0F814E006E0CA7888
:109FC400482A03D11EFA04FEC0F810E0641CD9E745
:109FD40006600A88B2F5807F2EDB426816000022F4
:109FE4001400082C27D25FF0010E14F108021EFAA7
:109FF40002F215000A882A401300AB4219D1A200CC
:10A0040015000F22AA401700BE431CFA05F216439E
:10A01400CA78282A04D114F108021EFA02F2426115
:10A02400CA78482A05D114F108021EFA02FEC0F8C3
:10A0340010E0641CD5E74660F0BDF0B400220023B4
:10A0440000250027002802D51D4C246801E01D4C82
:10A054002468C0F3034586B210F4401CBCF5401FCD
:10A0640007D134F07064174A176837F070671760C7
:10A0740011E0C20206D50322AA4013009C4354F007
:10A08400706408E00200520DD2B2120116FA02F214
:10A09400944354F070640A00D2B2002A06D002003D
:10A0A400520DD2B2120116FA02F21443002802D55C
:10A0B400034A146001E0034A1460F0BC70470000D6
:10A0C4001C000140040001402DE9F84F04000D007C
:10A0D40000208DF800005FF4E13000F06FFD0120F6
:10A0E40000F0D3FDDFF8646516F50E7B4021584679
:10A0F40000F0E2FD16F114094FF40871484600F02F
:10A104002DFE002030700020B0700020307100203F
:10A11400B0604FF409775FF00008424639004846C2
:10A12400FFF7C4FD5FF042095FF0000A524649465A
:10A134005846FFF7BBFD002086F89402002086F8FD
:10A144009502002030700020B070B560C6F89842C7
:10A1540000263000C0B20C281BDA84275FF0000808
:10A164005FF08409DFF8E8A43000C0B209FB00F016
:10A174000AEB000B424639005846FFF797FD3000C2
:10A18400C0B209FB00F90AEB0900FF210172761C39
:10A19400DFE7BDE8F18F10B50024DFF8B8040168EB
:10A1A400490849000160DFF8B00401684908490022
:10A1B4000160002000F069FD002240F224412000EB
:10A1C40000F009FF00228021200000F03CFF002263
:10A1D4004021200000F037FF0021200000F0ECFEB9
:10A1E400200000F02BFE10BD2DE9F84F04000D00F7
:10A1F4002078002831D1DFF854640020307000202A
:10A20400B070002030710020B0604FF409775FF027
:10A21400000816F11409424639004846FFF746FD86
:10A224005FF042095FF0000A16F50E7B524649467C
:10A234005846FFF73BFD002086F89402002086F87C
:10A244009502002084F89502012020700220A0705D
:10A254003C2084F89402A560A1E02078012802D073
:10A26400207802286BD194F89D0200282FD0DFF8C3
:10A27400DC63002030700020B070002030710020BA
:10A28400B0604FF409775FF0000816F114094246F4
:10A2940039004846FFF70AFD5FF042095FF0000A03
:10A2A40016F50E7B524649465846FFF7FFFC002040
:10A2B40086F89402002086F895020320207002207C
:10A2C400A07094F89D0284F89402A56067E0207958
:10A2D400401C2071002084F89502207906285EDB5A
:10A2E400DFF86863002030700020B0700020307107
:10A2F4000020B0604FF409775FF0000816F11409EC
:10A30400424639004846FFF7D1FC5FF042095FF04E
:10A31400000A16F50E7B524649465846FFF7C6FC1E
:10A32400002086F89402002086F89502022020700E
:10A334000220A070372084F89402A5602FE02078D2
:10A3440003282CD1C14E002030700020B0700020B2
:10A3540030710020B0604FF409775FF0000816F107
:10A364001409424639004846FFF7A0FC5FF0420951
:10A374005FF0000A16F50E7B524649465846FFF731
:10A3840095FC002086F89402002086F895020220AD
:10A3940020700220A070372084F89402A560BDE8E4
:10A3A400F18F2DE9FE4F04000D0016005FF0000A46
:10A3B4000020ADF80400002002900020ADF8000059
:10A3C40027797F1C14F50E787E20514689B208F84F
:10A3D40001001AF1010A5520514689B208F801001A
:10A3E4001AF1010A0020514689B208F801001AF155
:10A3F400010A0020514689B208F801001AF1010A45
:10A404000020514689B208F801001AF1010A5046A9
:10A4140080B208F800701AF1010A380080B2000A0C
:10A42400514689B208F801001AF1010A94F894021D
:10A43400514689B208F801001AF1010A0020514678
:10A4440089B208F801001AF1010AB1461FFA89F924
:10A454000095504680B208EB000B4A4600995846D6
:10A46400FFF7EEFC16EB0A0A5046401E88F802007D
:10A47400514689B2891E18F10200FFF7A7FA514626
:10A4840089B208F801001AF1010A010089B2090A27
:10A49400524692B208F802101AF1010AA4F878A2FE
:10A4A400BDE8F78F38B504000D00207801281BD1D2
:10A4B4001822D4F898122000FFF773FF67488188A8
:10A4C4000068016166486749086014F50E706649C2
:10A4D4000860B4F87802654908605F48016851F083
:10A4E40001010160A5603EE0207802281AD1002213
:10A4F40000212000FFF755FF58488188006801615A
:10A5040057485849086014F50E7057490860B4F864
:10A514007802564908605048016851F00101016011
:10A52400A56020E0207803281DD194F89E2292B2E1
:10A5340004F29F212000FFF734FF48488188006817
:10A54400016147484749086014F50E7046490860A0
:10A55400B4F87802454908603F48016851F00101A8
:10A564000160A560E56031BD2DE9F04704000D00F0
:10A5740000260027B4F820020E2863DBB4F820027A
:10A58400390089B20E3188425CDB380080B2205C2D
:10A594007E2855D1380080B22044407855284FD1C8
:10A5A40000215FF000085FF00009380080B2204409
:10A5B4008078002807D0380080B2204490F802A0A8
:10A5C4001AF1030A0EE0380080B2204490F80BA080
:10A5D4005FEA0A2A380080B22044807A50EA0A0AE4
:10A5E4001AF10E0A504680B20E2829DBB4F8200274
:10A5F400514689B211FA87F1884221DB514689B26A
:10A60400091F380080B22044801CFFF7DFF951464F
:10A6140089B211FA87F1214411F8012C1202514632
:10A6240089B211FA87F1214411F8021C0A4301008E
:10A63400130089B29BB2994202D12F8001210E00EE
:10A644007F1C9BE73000C0B2BDE8F08708420020C1
:10A65400D83B00203004024058040240000B01089B
:10A664000000021004040240640402405C0402403E
:10A674002DE9F84F04000D0016001F005FF0430899
:10A684005FF00009A2464A4641465046FFF70EFBDA
:10A6940025703B206070A078411CA170C0B220449A
:10A6A400C6705FF0060A0097A078204410F1030BEF
:10A6B400524600995846FFF7C3FBA078801DA0704E
:10A6C400BDE8F18F00F10103810704D010F8011BEC
:10A6D400820781B1FAD10268A2F10131914311F0EC
:10A6E400803104BF50F8042FF6E709BAB1FA81F1BA
:10A6F40000EBD100401CC01A704743000CB430B5C5
:10A7040083B00A4606A902910446002501940095E7
:10A7140002AB01A9084878441E3000F0FFFC019AFE
:10A72400157000284EBF04460198041B204603B050
:10A7340030BC5DF80CFB00BF4D9AFFFF8268521CD1
:10A7440082600368027A12F00F0200EB8202D26880
:10A754009B1A03608268002A01D110228260027A67
:10A7640012F00F0200EB8202D16002688A180260C4
:10A774008268102A03D302681209426004E0026866
:10A784008368B2FBF3F24260704710B400217FF09B
:10A794001302C26400221100C9B25A2909DA4168BD
:10A7A400074B1400E4B233F81430994201D3521C1D
:10A7B400F1E7C16C51FA82F1C16410BC704700002A
:10A7C4000802010870B50D462C7834B970BD11F833
:10A7D400013F1678B34206D0401C214601F002FD29
:10A7E40028B101462A4612F8013F002BEFD170BD73
:10A7F40030B585B00400042100226D462800FFF71F
:10A8040055FA1021002201AD2800FFF74FFA10205D
:10A814008DF8030003208DF802004F4DA888ADF891
:10A82400000069462868FFF793FBA88829684861F7
:10A834004A4DA888ADF8000069462868FFF788FBF0
:10A84400A88829680861464D280000F0F7FA4548B1
:10A854008188ADF8001003218DF8021018218DF8BD
:10A86400031069460068FFF773FB3F488188ADF821
:10A87400001004218DF8031069460068FFF768FB97
:10A8840001940020ADF808000020ADF80A00002073
:10A89400ADF80C000020ADF810000C20ADF80E004F
:10A8A40001A9280000F012FB0121280000F084FB1C
:10A8B40005B030BD80B535208DF8000000208DF83E
:10A8C400010002208DF8020001208DF80300684683
:10A8D40001F099FC01BD70B504000D00204E40F25A
:10A8E4002771300000F006FC2200D2B240F225515C
