:020000040800F2
:1000000040360020F5330008513100085331000814
:100010005531000857310008593100080000000030
:100020000000000000000000000000005B3100083C
:100030005D310008000000005F31000861310008F8
:10004000293400082D340008313400083534000804
:10005000393400083D3400084134000845340008B4
:10006000493400084D3400085134000809320008B2
:1000700055340008593400085D3400086134000824
:1000800065340008693400086D34000871340008D4
:1000900075340008793400087D3400088134000884
:1000A00085340008893400088D3400089134000834
:1000B00095340008993400089D340008A1340008E4
:1000C000A5340008A9340008AD340008B134000894
:1000D000B5340008B9340008BD340008C134000844
:1000E000C5340008C9340008CD340008D1340008F4
:1000F000D5340008D9340008DD340008E1340008A4
:10010000E5340008E9340008ED340008F134000853
:10011000F5340008A3310008F9340008FD34000864
:100120000135000805350008093500080D350008BF
:1001300000EB40014903491C0846411E0028FBD141
:10014000704780B500F05AFC4FF4803000F06FFC2F
:1001500000F087FC01282BD1002000F0B2FC002029
:1001600000F0BDFC4FF4806000F0B2FC4FF4404062
:1001700000F0C0FC002000F0BAFC022000F068FD96
:10018000102000F06DFD4FF400114FF4803000F0AE
:1001900081FC012000F086FC392000F029FD0028B8
:1001A000FAD0022000F081FC00F086FC0828FBD188
:1001B00001BD10B5044621463D2000F0EDFC21466E
:1001C0004FF4A210BDE8104000F0F1BC80B5002152
:1001D0004FF0006000F030FE4FF4A060BDE8024038
:1001E00000F0F8BD80B50121DFF8980700F096FE19
:1001F00010208DF8030003208DF802000220ADF8D6
:1002000000006946DFF8800700F03AFE01BD10B536
:10021000FFF797FFFFF7DAFF0120FFF7CAFF72B67B
:10022000FFF7E0FFDFF864470220206000F0AEFE39
:1002300000F07EFF01F01CF801F09CF801F0DAF903
:1002400001F0FEF94FF4E13001F002FA01F051FA49
:100250000021012001F05EFA01F0A6FA0520FFF767
:1002600067FF1122DFF82817DFF8280701F0FCFDEF
:1002700001F085FE02206060DFF81C47DFF81C27D4
:100280000121204601F09DFA0220A4F81E0162B669
:1002900010BDDFF80C0741688A070ED521F0020176
:1002A00041600169491C0161DFF8E006C90702D518
:1002B00002214160704702210160704710B572B69B
:1002C00002461468DFF8D836DFF8D8160C40B4F1CF
:1002D000005F09D1001D006898615861106880F3C3
:1002E00008885869804705E0012058600020DFF841
:1002F000B816086062B610BD38B5DFF8B046608841
:10030000DFF89C56E9690246914239D045F25551D1
:10031000884207D048F68801884203D047F27771B7
:10032000884202D10120686026E041F21111884222
:1003300003D04AF6AA21884208D1686840F080407C
:1003400068600120DFF86816887015E043F23331E9
:10035000884204D1686840F4805068600CE044F240
:100360004441884208D1686840F000406860DFF886
:100370004406A86000F07EFC6088E86100F034FF6D
:100380006868C10707D5DFF820160968292902D354
:1003900040F080006860287900062DD50220DFF843
:1003A00018160860686820F08000686000F058F84F
:1003B00000281ED06868400516D5DFF800060178D1
:1003C00000EB8101C822C1F86821012102780244B2
:1003D00082F8481103210278024482F8281001783B
:1003E000491C017002218180DFF8C805FFF766FF14
:1003F00002E04AF6AA2060806868C10415D520F49E
:100400008050686002F056F800280BD044F2444057
:1004100060802078022801D0032806D145F255508B
:10042000608031BD47F27770608031BD10B5DFF874
:1004300090450721204602F0B7F900280FD0072188
:10044000204602F0B8F94FF4E13001F001F901F073
:1004500050F900210120BDE8104001F05BB910BD4A
:1004600038B50024DFF8285508220FF278512846C5
:1004700002F0D0F9002812D1082100E0491C0846FA
:10048000C0B2322807DA15F8010BA0F12002602A69
:10049000F4D30028F2D0C9B2322900D101242000BF
:1004A00009D108220FF24851DFF8180502F0B2F91D
:1004B000002800D10124204632BDF8B5DFF8E04421
:1004C0006068400500F1BD80DFF8FC540721284634
:1004D00002F06AF900280DD00721284602F06BF9D6
:1004E0004FF4E13002F0CAF902F01DFA00210120B8
:1004F00002F02AFADFF8A06406F58E75DFF8CC74F6
:100500003878052801D006281ED17988B81D01F059
:100510001EF9A878400717D57A88D2B2B91D30469F
:1005200001F0B4FA00280AD000202873082068805F
:10053000002240F60C01384602F058FA04E0802010
:1005400038700020C7F808086988880715D54FF665
:10055000FD70014069806878297888420DD20022B8
:1005600040F60C01384602F041FADFF83C0401681D
:10057000304601F0E1F924206880A87880061FD574
:100580006978AA6806EB8100C06F8218DFF818044A
:100590000068824214D206F1FC00425C521E4254B2
:1005A0006978405C002809D169884FF6DF70014006
:1005B0006980082068800220287301E0022068809A
:1005C000698808073DD54FF6F770014069803046CD
:1005D00001F028FB287B002820D102206880687861
:1005E000297888422DD1616821F080516160287995
:1005F000012809D14020688041F480616160802039
:10060000DFF8CC130870F1BD00281AD1DFF8C4035D
:1006100081880068416101206880F1BD2879012846
:1006200008D1DFF878230021304601F0CAF8022013
:100630006880F1BD01206880DFF898038188006838
:100640004161F1BDF8B5DFF858536868400540F1E5
:10065000B580DFF874430721204602F0A5F8002892
:100660000DD00721204602F0A6F84FF4E13002F049
:1006700005F902F058F90021012002F065F9DFF8D0
:100680004C633078DFF83443052801D006282FD199
:100690002079400714D5B11D204601F062FD0028E5
:1006A00004D00020A0700820A08006E00120A070E7
:1006B000802030700020C6F808086078401C607008
:1006C000B01D01F0DFFA00280CD0B34FB34A00216F
:1006D000384601F076F80220A7F81E01686820F479
:1006E00080606860002240F60C01304602F07EF91E
:1006F000A188880714D54FF6FD700140A18060786D
:10070000217888420CD2002240F60C01304602F0DB
:100710006DF9A5480168204601F055FC0520A08030
:100720002079C00720D56178D4F8E82104EB810056
:10073000D0F8680182189C480068824214D204F202
:100740004710425C521E42546178405C002809D137
:10075000A1884FF6FE700140A1800820A0800220F1
:10076000A07001E00220A080A188080726D54FF6DE
:10077000F7700140A180204601F036FD8C4DA8782D
:10078000032815D1A078002812D1284601F010FEC8
:1007900000280BD0E8782979884202D10520A8707A
:1007A00006E00221A970401CE87001E00420A87056
:1007B00060782178884201D300202080F1BD7848FC
:1007C0004168854A02EA0103934200D0704730B481
:1007D00002780A2A4CD100220270754A9378012BC4
:1007E00019D14278521C4270744A137802EB830389
:1007F000C824C3F86841012302F5A4741578635531
:10080000032302F128041578635513785B1C1370D9
:10081000022393802EE0022B19D103239370674AA1
:10082000137802EB83034FF4C874C3F868410123C3
:1008300002F5A47415786355042302F12804157891
:10084000635513785B1C13700223938012E0042B12
:1008500004D141F21112554B5A800BE0052B04D103
:1008600043F23332514B5A8004E00123937001E08C
:10087000521C027042780A2A05D10022427047F2C7
:1008800077724A4B5A8021F40061416030BC704756
:10089000F8B5434C6068002872D5444D2978012989
:1008A0006ED141046CD520F480406060A0780228AD
:1008B00060D10020A0703E494878002828D13D4AE8
:1008C000E07802EB802057D3A268824254D100F531
:1008D0008062A2606A78414B03EB8223834211D38A
:1008E00002F0A2F8002803D0E078401CE07043E05A
:1008F0000020E070A0600220244908604AF6AA2087
:10090000688039E00020E070A0600120487033E08A
:10091000012831D1E278900226490E188E422BD35D
:100920006978491C91421FDB2D4F3A464FF4806194
:1009300000F014FE002813D04FF480623946304690
:1009400002F07BF8002803D0E078401CE07007E05C
:100950000020E07002200D4908604AF6AA20688055
:1009600002200A49486007E000F08DF948F6880047
:10097000688001E0401CA070606820F480406060E6
:10098000F1BD000000023000000C0140100C0140DD
:10099000005000081C2400206C2200209823002016
:1009A000E02300200000FE2F30240020002400203F
:1009B0001400002000400008140C0140802000209A
:1009C000004800408050000800500040640A0020A9
:1009D0007012002010340008000C00400044000891
:1009E00080180020534D3530303130300000000089
:1009F0004744333232333032000000008549086802
:100A000040F0010008604A68834802404A600A6872
:100A1000824802400A60086820F480200860486824
:100A200020F4FE0048604FF41F0088607047794949
:100A30000A6822F480320A600A6822F480220A607E
:100A4000B0F5803F03D0B0F5802F05D0704708681F
:100A500040F4803008607047086840F4A0200860C7
:100A600070471CB5002000900446312000F0C0F80B
:100A70000099491C009100994FF6FF72914201D0F4
:100A80000028F2D0312000F0B3F8002800D0012473
:100A9000204616BD624A136823F47C1318430843AA
:100AA000106070475F49086070475D490A689208A6
:100AB00050EA8200086070475948006800F00C0056
:100AC000704757490A6822F0F002104308607047E7
:100AD00053490A6822F4E0621043086070475049A5
:100AE0000A6822F4605242EAC0020A6070474E4926
:100AF000086070474A490A6822F44042104308607F
:100B0000704710B4464A116801F00C01042902D064
:100B1000082903D01BE0454901601AE0136803F47B
:100B20007013116801F480319B0C9B1C002903D1C8
:100B30003F494B4303600CE01168890303D53D49ED
:100B40004B43036005E039494B43036001E03A49F8
:100B50000160116801F0F001384B0909595C046823
:100B6000CC404460116801F4E061090A595CCC4052
:100B70008460116801F46051C90A595C4468CC4032
:100B8000C460116801F4404103EB9131097CB4FB6E
:100B9000F1F1016110BC7047294A0029116802D0A7
:100BA00008431060704721EA000010607047254A32
:100BB0000029116802D008431060704721EA000044
:100BC00010607047204A0029116802D00843106065
:100BD000704721EA0000106070471C4A0029116824
:100BE00002D008431060704721EA0000106070478F
:100BF00001464009074A012801D1106804E0022893
:100C000001D1106A00E0506A01F01F01C84000F0F5
:100C100001007047001002400000FFF8FFFFF6FEE1
:100C20000410024060004242D8004242001BB7005C
:100C300000093D00808D5B0000127A00000000205A
:100C4000181002401C1002400C100240101002400C
:100C5000DFF80C110A6802F0380210430860704790
:100C6000DFF8FC100A6822F010020A600A681043DC
:100C700008607047DFF8EC00DFF8EC100160DFF887
:100C8000EC1001607047DFF8E800016841F0800176
:100C90000160704738B504464FF0FF3000F06CF843
:100CA0000146042916D1DFF8C850286840F0020038
:100CB00028606C60286840F0400028604FF0FF30EA
:100CC00000F05AF80146052904D02A6841F6FD7162
:100CD0000A402A6032BD7CB504460D4600200090D3
:100CE0004FF0FF3000F048F80146042925D1204E8E
:100CF000306840F00100306025804FF0FF3000F098
:100D00003BF80146042911D1A41C00942D0C009835
:100D100005804FF0FF3000F02FF8014605290CD078
:100D2000326841F6FE710A40326076BD052904D072
:100D3000326841F6FE710A40326076BD04200D49EA
:100D40000A68D20701D5012070470A68520701D509
:100D5000022070470968C90600D5032070470000CB
:100D6000002002400420024023016745AB89EFCDFB
:100D7000102002400C20024010B50446FFF7DEFFB1
:100D800002E0FFF7DBFF641E0146012901D1002CC0
:100D9000F7D1002C00D1052010BD30B4002513E0A0
:100DA00050F8042BD30744BFA9F101039A18091F77
:100DB000042942F8045BFAD213468C0744BF15801D
:100DC0009B1CC90748BF1D7050F8041B0029E7D1C0
:100DD00030BC70472249084322490860704770B40C
:100DE00003781C460122C17800291BD01D490B68DD
:100DF00003F4E063C3F5E0631B0A4578C3F1040123
:100E00008D4081780F26DE4031400D432D0116497B
:100E10000D55017801F01F0082401448491140F837
:100E2000212007E003F01F0302FA03F310486411C6
:100E300040F8243070BC70470E4A114008430E49F8
:100E4000086070470D490428086803D140F0040089
:100E50000860704720F00400086070470000000040
:100E60000000FA050CED00E000E400E000E100E025
:100E700080E100E080FFFF1F08ED00E010E000E0EF
:100E8000F0B40024CA78134603F00F03D20601D54C
:100E90008A7813430A88D2B2002A1AD0026815E071
:100EA000482D12D1066110E00126A6400D8835407C
:100EB000B5420AD1A5000F27AF40BA4303FA05F5A2
:100EC0002A43CD78282DEBD14661641C082CEBD346
:100ED00002600A88B2F5807F1EDB4468002218E0B9
:100EE000012602F1080506FA05F50E882E40AE42ED
:100EF0000ED196000F27B740BC4303FA06F63443E1
:100F0000CE78282E00D14561CE78482E00D10561DB
:100F1000521C082AE4D34460F0BC704770B41A4AEB
:100F2000002801D5936900E01368C0F3034485B23B
:100F300000F44016B6F5401F06D123F07063146824
:100F400024F07064146010E0C60206D5032606FA89
:100F500004F4A34343F0706307E00446640D2401E6
:100F600005FA04F4A34343F07063002904D001465A
:100F7000490D09018D402B43002801D5936100E004
:100F8000136070BC70470000040001401CB50320D2
:100F90008DF8020014208DF803008020ADF80000C9
:100FA000604C69462046FFF76BFF4020ADF800001B
:100FB00069462046FFF764FF13BDC8210846411E5D
:100FC0000028FBD1704700EB40014903491C08464B
:100FD000411E0028FBD1704710B5534C8020A06003
:100FE0004020A060FFF7E9FF20688020E060FFF765
:100FF000E4FF2068000601D5002010BD8020E060DD
:10100000FFF7DBFF012010BD10B5484C40206060A9
:10101000FFF7D3FF80206060FFF7CFFF4020206004
:10102000FFF7CBFF80202060BDE81040C5E710B57A
:101030003E4C40206060FFF7C0FF80206060FFF7FB
:10104000BCFF40202060FFF7B8FF40206060BDE893
:101050001040B2E710B5354C40206060FFF7ADFF9F
:1010600080202060FFF7A9FF40202060FFF7A5FF48
:1010700040206060BDE810409FE710B52A4C40203A
:10108000E060FFF79AFF8020A060FFF796FF402006
:10109000A060FFF792FF2068000603D54020E060C3
:1010A000002010BD4020E060012010BD70B5054655
:1010B00008261E4C0FE08020606005E04020606044
:1010C0002806F8D580202060FFF777FF40202060B9
:1010D000FFF773FF6D003046461EC0B20028EDD109
:1010E0004020606070BD70B5082500260E4C802041
:1010F000A0600DE076004020E060FFF75EFF40203A
:10110000A060FFF75AFF2068000601D546F00106EF
:101110002846451EC0B20028ECD14020E060304691
:10112000C0B270BD000C0140080C0140100C014021
:10113000F0B587B000221A21684601F057FC00265E
:101140004A4D2A461A2141F6E67001F090FC04004F
:1011500023D13220FFF737FF761C3046C0B2022879
:10116000EFDD00266A461A214FF4F05001F07FFCB3
:1011700007001DD13220FFF726FF761C3046C0B293
:101180000228EFDD54EA07001ED14AF6AA20688043
:1011900000F02AF800F04DF824E01821284601F06C
:1011A0003BFD298B884201D00024DAE70124D8E7EF
:1011B0001821684601F030FDBDF81810884201D0B2
:1011C0000027DFE70127DDE7002F02D100F031F82B
:1011D00008E0002C06D11A226946284600F054FE89
:1011E00000F002F807B0F0BD70B500241F4D204696
:1011F00028831821284601F00FFD28832A461A214A
:1012000041F6E67001F0D1FC060006D02A461A210C
:101210004FF4F05001F0C9FC0646300007D13220EF
:10122000FFF7D1FE641C2046C0B20328E6DB30463F
:1012300070BD70B500240D4D204628831821284626
:1012400001F0EAFC28832A461A214FF4F05001F0FD
:10125000ACFC060007D13220FFF7B5FE641C204627
:10126000C0B20328EFDB304670BD00000024002030
:1012700038B586B00022122101A801F0B7FB002288
:101280000421684601F0B2FB03208DF80200102013
:101290008DF803004FF480542046ADF800002D4D2A
:1012A00069462846FFF7ECFD2C616C612C614FF418
:1012B0006040ADF8000018208DF80300694628460C
:1012C000FFF7DEFD244C0021204601F0B3FD002095
:1012D000ADF804004FF48270ADF8060000200290D3
:1012E000ADF80C004FF40070ADF80E001020ADF812
:1012F00010000020ADF812000720ADF8140001A97D
:10130000204601F07BFD0121204601F093FD07B04E
:1013100030BD38B50446104D0121284601F09BFD33
:10132000012802D1284601F094FD0221284601F04F
:1013300092FD0028F9D02146284601F088FD0121C0
:10134000284601F088FD0028F9D0284601F081FDEB
:10135000C0B232BD000C01400038004005E04FF43F
:10136000907211464A1E0029FBD10146481E0029F1
:10137000F5D1704738B5B048848805686C610420A1
:10138000FFF7C7FF2C6131BD2DE9F04704468846C1
:1013900015464FF00009CA46A748868807687E614F
:1013A0000520FFF7B6FF0A20FFF7D8FF0AF1010A70
:1013B000FF20FFF7AEFF810703D5514689B2C82948
:1013C000F1DB3E6180073ED47E610620FFF7A1FF7E
:1013D0003E610A20FFF7C2FFCA467E610520FFF783
:1013E00098FF0A20FFF7BAFF0AF1010AFF20FFF772
:1013F00090FF810703D4514689B2C829F1DB3E61D1
:10140000800720D57E610220FFF783FF2046000C75
:10141000C0B2FFF77EFF2046000AC0B2FFF779FF97
:101420002046C0B2FFF775FF06E0484680B2285C50
:10143000FFF76FFF09F10109484680B24045F4D338
:101440003E614FF001094846BDE8F0872DE9F041C3
:1014500004460D4616460027E0050FD02746C7F381
:101460000807C7F58077BFB22846B84200DA0746BA
:1014700039462046FFF788FFED1B00E00120010000
:1014800016D0294689B2002912D04FF48078284618
:1014900080B2B0F5807F00DA8046F21941463819F3
:1014A000FFF772FFA5EB08054744BFB20100E8D182
:1014B000BDE8F0812DE9F04104460025A8465E48CC
:1014C000868807687E610520FFF723FF0A20FFF763
:1014D00045FF08F10108FF20FFF71BFF810703D537
:1014E000414689B2C829F1DB3E61800733D47E6171
:1014F0000620FFF70EFF3E610A20FFF72FFFA846E8
:101500007E610520FFF705FF0A20FFF727FF08F19E
:101510000108FF20FFF7FDFE810703D4414689B291
:10152000C829F1DB3E61800715D5A40CA4047E61B7
:10153000D820FFF7EEFE2046000CC0B2FFF7E9FE10
:101540002046000AC0B2FFF7E4FE2046C0B2FFF713
:10155000E0FE3E6101252846BDE8F0812DE9F84F07
:1015600004460D4616460027B846BB463248B0F83A
:101570000490D0F800A0CAF814900520FFF7C9FE27
:101580000A20FFF7EBFE0BF1010BFF20FFF7C1FE76
:10159000810703D5594689B2C829F1DBCAF81090F2
:1015A00010F0030F23D1CAF814900320FFF7B1FE07
:1015B0002046000CC0B2FFF7ACFE2046000AC0B2C5
:1015C000FFF7A7FE2046C0B2FFF7A3FE06E0FF200C
:1015D000FFF79FFE394689B270547F1C3846294672
:1015E00080B28842F3D3CAF810904FF00108404609
:1015F000BDE8F28F70B51048848805686C610A20D8
:10160000FFF7ACFE9020FFF784FE0020FFF781FE7D
:101610000020FFF77EFE0020FFF77BFE074EFF2035
:10162000FFF777FE00023080FF20FFF772FE31885F
:10163000084330802C6170BD203400083C24002019
:10164000024A4FF480610020FFF788BF8018002015
:1016500078B585B0044600220421684601F0C6F939
:101660000022102101A801F0C1F910208DF803001B
:1016700003208DF80200414D284600F0C1FF4FF4D1
:101680008060ADF8000003208DF8020018208DF86E
:1016900003003B4E69463046FFF7F2FB10208DF801
:1016A00003000120ADF8000069463046FFF7E8FB73
:1016B000012070614FF40060ADF8000004208DF847
:1016C000030069463046FFF7DBFB019400200290DF
:1016D000ADF80C00ADF810000C20ADF80E0001A91B
:1016E000284600F0DAFF0121284601F033F806B061
:1016F00070BD80B527208DF8000001208DF8010015
:1017000000208DF8020001208DF803006846FFF7E5
:1017100066FB01BD70B504460D46184E40F2A5515A
:10172000304601F06EF8224640F22551304601F075
:101730001EF82A4640F226613046BDE8704001F0AE
:1017400016B80E490A881206FCD588807047F8B58D
:1017500005460E4600270B4C0120206003E0E85DA3
:10176000FFF7EFFF7F1C30468742F8D3034800881D
:101770004006FBD501206060F1BD0000004800403C
:10178000000C0140100C014010B5044601F06AFB4A
:10179000014689B22046FFF7DAFF0D20FFF7D1FF9F
:1017A0000A20BDE81040CCE780B54FF4E13001F0ED
:1017B00065F801F0B8F800210120BDE8044001F00F
:1017C000C3B8F8B504460D46164600224FF496718C
:1017D00001F00CF904F1590004F1FC0104F17C0260
:1017E0002B46012B40F08080C823136002230B702E
:1017F00001230370C823536002234B704370C82336
:10180000936019238B700B238370C823D36002234A
:10181000CB700C23C370C82313610A230B710D23F3
:101820000371C82353610A234B711B234371C823DF
:1018300093610A238B7112238371C823D3612823F8
:10184000CB710423C371C8231362B4230B72052325
:101850000372C8235362B4234B7206234372C82316
:1018600093620A238B72072383724FF44873D36207
:101870000223CB720823C37240F6B83313630227E6
:101880000F7309270773536302234B732B2343738F
:10189000C823936302238B732C238373C823D363DE
:1018A0000223CB732D23C373C823136402230B7449
:1018B00030230374C823536402234B742E234374D0
:1018C000C823936402238B7432238374C823D364A4
:1018D0000223CB743323C374C823136502220A7511
:1018E0000A21017515201AE04FF4FA6313600123F1
:1018F0000B7010230370B423536001234B70032338
:1019000043704FF4C873936001238B700F2383706F
:101910001423D3600122CA700021C170042004F591
:101920008E7102224A800D7108704822314620468D
:10193000BDE8F84000F098BA38B504460D4694F872
:101940001D01204490F85900332800F29C80DFE804
:1019500000F01A1A2323454A4F54595E92282C311D
:101960003B9A719A406C9A9A9A9A9A9A9A369A9A4B
:101970009A9A9A9A9A9A689A9A9A9A9A9A63797E6D
:10198000889A839A8D96A148818800684161A04811
:1019900081880068416176E09D4881880068016126
:1019A00071E097A001F012F86DE00FF2FC2001F059
:1019B0000DF868E00FF2F82001F008F863E00FF28C
:1019C000F82001F003F85EE00FF2F42000F0FEFFD3
:1019D00059E00FF2F82000F0F9FF54E00FF2F42084
:1019E00000F0F4FF4FE00FF2F82000F0EFFF4AE0C4
:1019F0000FF2F82000F0EAFF45E00FF2FC2000F0C3
:101A0000E5FF40E00FF2103000F0E0FF3BE00FF2A6
:101A1000183000F0DBFF36E00FF2183000F0D6FF90
:101A200031E07C4800F0D2FF2DE00FF2143000F0DE
:101A3000CDFF28E00A2000F0A4FF0FF2243000F0D0
:101A4000C5FF20E00FF2283000F0C0FF1BE00FF2CE
:101A50003C3000F0BBFF16E00FF2503000F0B6FF54
:101A600011E00FF2643000F0B1FF0CE00FF27830BB
:101A700000F0ACFF07E0684800F0A8FF03E00FF2B9
:101A80007C3000F0A3FFC4F8245131BD70B5064688
:101A90000D46002496F81D01304490F85900001FAF
:101AA0002F2800F2AA80DFE800F061697A18181880
:101AB0008C181821A8A818A81853A8A8A8A8A8A8DE
:101AC000A837A8A8A8A8A8A8A8A89595A8A8A8A82D
:101AD000A845959595A895A89D954AA1284601F0F9
:101AE000DCF9002800F08980012486E045A1284621
:101AF00001F0D3F9002800F08080484C04F5C0665E
:101B00000F22A91C304600F0AFF904F5BE61304643
:101B100001F0A2F8012470E03AA1284601F0BDF9D5
:101B200000286AD01122A91C06F1480000F09CF997
:101B3000012462E033A1284601F0AFF900285CD00F
:101B4000102205F11101364800F08EF9012454E00D
:101B50002CA1284601F0A1F900284ED0ABA12846BF
:101B600001F09BF9002848D0012446E0A9A12846AD
:101B700001F093F9002840D001243EE0A7A12846B7
:101B800001F08BF9002838D01FA1284601F085F913
:101B90004078312801D035282FD101242DE000BF15
:101BA000A0A1284601F079F9002826D016A12846E0
:101BB00001F073F94078312801D035281DD1012476
:101BC0001BE000BF99A1284601F067F9002814D056
:101BD000012412E00BA1284601F05FF900280CD087
:101BE00001240AE091A1284601F057F9002804D009
:101BF000012400BF8FA000F0E9FE204670BD000068
:101C0000415400004F4B00002C0000001834000825
:101C100010340008C0320008F432000870120020AE
:101C20005018002000F21D110A78024492F8590061
:101C3000032814D9001F0A281AD90B3801280ED9F5
:101C4000C01E012814D9093812D0093802280FD92A
:101C5000C01F05280CD9C01F012809D970470020D2
:101C600082F8FC000878401C08700020C872704799
:101C7000C87A002805D1002082F8FC000878401CB2
:101C80000870704710B5044671A101F006F90028EC
:101C900040F0068071A1204601F0FFF8002801D035
:101CA000012010BD002010BD41544530000000004F
:101CB00041542B47534E000041542B43494D49009A
:101CC00041542B43434C4B3F0000000041542644F9
:101CD0003100000041542B4350494E3F00000000AA
:101CE00041542B435245473F0000000041542B43D1
:101CF000475245473F00000041542B514943534749
:101D0000503D312C312C22434D4E4554222C222261
:101D10002C22222C3100000041542B5149444541D2
:101D200043543D310000000041542B51494143547C
:101D30003D31000041542B51494143543F000000C4
:101D400041542B514E54503D312C223230322E31E1
:101D500031322E31302E3336222C31323300000016
:101D600041542B5149434C4F53453D310000000035
:101D700041542B51485454504346473D22636F6EA3
:101D8000746578746964222C3100000041542B5131
:101D9000485454504346473D2272657175657374CB
:101DA000686561646572222C3100000041542B513A
:101DB000485454504346473D22636F6E74656E74B9
:101DC00074797065222C300041542B514854545082
:101DD0004346473D22726573706F6E736568656137
:101DE000646572222C31000041542B5148545450E8
:101DF00055524C3D32372C363030300041542B5147
:101E00004854545055524C3F00000000514E54501D
:101E10000000000052454144590000002B43524548
:101E2000470000002B43475245470000434F4E4EAA
:101E300045435400687474703A2F2F696F742D6194
:101E400070692E6865636C6F7564732E636F6D00C7
:101E5000636C6F7365640D0A000000007064706449
:101E6000656163740D0A000062B38B0708D0521ECF
:101E700011F8013B00F8013B00F024808B07F6D1FC
:101E8000830740F0208000BF103A07D330B4B1E898
:101E90003810103AA0E83810F9D230BC530724BFEC
:101EA000B1E80810A0E8081044BF51F8043B40F81E
:101EB000043BD20724BF31F8022B20F8022B44BF89
:101EC0000B7803707047121F17D35B0009D151F8CC
:101ED000043B20F8023B1B0C121F20F8023BF6D2F9
:101EE0000BE051F8043B00F8013B1B0A20F8023BD1
:101EF0001B0C121F00F8013BF3D238BF121D521EFB
:101F000024BF11F8013B00F8013BF8D8704730B40A
:101F10000EE00268436802440830DC0744BFA9F1C0
:101F20000104E31852F8045B43F8045B091FF9D17C
:101F300050F8041B0029ECD130BC704709010200A5
:101F400002D4174881547047164802F00F0210441B
:101F500000F8041C704710B5401EB0F1807F01D31B
:101F6000012010BD104C60600F214FF0FF30FFF7D3
:101F7000E5FF0020A06007202060002010BD80B594
:101F80000420FEF75FFF0948FFF7E5FF084800213E
:101F9000016041600F214FF0FF30BDE80440CDE704
:101FA00000E400E018ED00E010E000E0C0270900C8
:101FB0003024002000EB40014903491C0846411E23
:101FC0000028FBD170472DE9F043ADF5057D0446AF
:101FD0000D464FF400780022414605A800F006FDAA
:101FE0006078204490F82800032802D0042851D0BB
:101FF000B1E0DFF8146500224146304600F0F6FCFF
:102000000022414605A800F0F1FCDFF800753946D2
:1020100005A800F058FF0FF2145100F054FF71A111
:1020200005A800F050FFDFF8E81400F04CFF0FF2B5
:10203000045105A800F047FFDFF8D81400F043FF73
:1020400005A800F00FFF0246D21E05A93046FFF793
:102050001BFF0FF2F841304600F035FF07F12C016D
:1020600000F031FF0FF2F041304600F02CFF07F195
:10207000500100F028FFCDA1304600F024FF0FF200
:10208000E84100F020FF3046FFF77EFB304600F0CD
:102090009DFC60E0DFF8806406F50567002241469C
:1020A000384600F0A3FC0022414605A800F09EFC43
:1020B00000221421684600F099FC3079F1788842BA
:1020C00043D3DFF848844146384600F0FCFE0FF267
:1020D0005C4100F0F8FE0FF20C194946384600F05A
:1020E000F2FEDFF82C1400F0EEFE4946384600F010
:1020F000EAFE06F61A0100F0E6FE0FF288413846C5
:1021000000F0E1FE08F12C0100F0DDFE0FF28C4141
:10211000384600F0D8FE08F1500100F0D4FE0FF26E
:102120008C284146384600F0CEFEF178684600F033
:1021300075F90146384600F0C6FE414600F0C3FE80
:102140000FF22441384600F0BEFE3846FFF71CFB74
:10215000384600F03BFCC4F8E8510DF5057DBDE8BC
:10216000F08338B50C4600254178084490F82800E3
:10217000032804D034D305282AD010D330E00FF23E
:102180002C41204600F089FE002829D0DFF8881372
:10219000204600F03BF8002822D0012520E00FF275
:1021A0001C41204600F079FE002806D10FF2FC31D8
:1021B000204600F072FE002812D0204600F05FF9A1
:1021C0004FF480622118D548FFF74EFE012507E045
:1021D0000FF2F831204600F060FE002800D0012503
:1021E000284632BD2F0000004178421892F828108E
:1021F000491E042908D88178002905D1002182F8D8
:1022000048114178491C41707047000070B505467F
:102210000C46002632464FF40561204600F0E6FBEE
:102220000FF2B031284600F038FE002800F0BC80E4
:102230000FF2AC31284600F030FE002838D01122D1
:1022400005F58F7104F60700FFF70EFE062205F272
:10225000371104F61A00FFF707FE062205F24511B2
:1022600004F62200FFF700FE202205F5A97104F60E
:102270002A00FFF7F9FD204600F0C2F83046FFF7CC
:1022800019F94FF47A70FFF795FE4FF48030FFF79D
:1022900011F94FF47A70FFF78DFEA1482179417052
:1022A00001210170084620700220A0700E467BE0DC
:1022B000CDA1284600F0F1FD002837D0112205F508
:1022C0008F7104F60700FFF7CFFD062205F23711E4
:1022D00004F61A00FFF7C8FD062205F2451104F6C0
:1022E0002200FFF7C1FD202205F5A97104F62A009E
:1022F000FFF7BAFD204600F083F83046FFF7DAF822
:102300004FF47A70FFF756FE4FF48030FFF7D2F8A3
:102310004FF47A70FFF74EFE814821794170022117
:10232000017008462070A07001263DE0B0A128464B
:1023300000F0B3FD002837D0112205F58F7104F6A7
:102340000700FFF791FD062205F2371104F61A0087
:10235000FFF78AFD062205F2451104F62200FFF779
:1023600083FD202205F5A97104F62A00FFF77CFD04
:10237000204600F045F83046FFF79CF84FF47A709D
:10238000FFF718FE4FF48030FFF794F84FF47A709F
:10239000FFF710FE62482179417003210170084661
:1023A00020700220A0700126304670BD0D0A00008A
:1023B000F8B5044600255B4E2A464FF4806130464E
:1023C00000F090FD554F3A464FF48061E07880026E
:1023D000FFF73CF8002811D032464FF48061E078D6
:1023E0008002FFF7BBF8002808D04FF48062314626
:1023F000384600F00FFA002800D101252846F2BD2A
:1024000010B504460A22062104F6220000F044FC1E
:1024100045490860800A207110BD000038B584B0BD
:1024200004460D460022062102A800F0DFFA002231
:102430000621684600F0DAFAAD020623002202A95E
:10244000284600F0AAFC06230022694605F2FF3563
:10245000284600F0A2FC00BF67A1204600F033FD33
:1024600002A9204600F02FFD26A1204600F02BFDFA
:102470006946204600F027FD204605B030BD10B467
:1024800001460022104601E00020521CB2F5806F88
:102490000ED28B181C780D2CF7D15C780A2CF4D155
:1024A00098780D28F0D1D8780A28EDD1121D104661
:1024B00010BC704770B50024184D2A464FF4806157
:1024C0004FF48050FFF74AF8002818D0144E3078A7
:1024D00001280FD10822B11D284600F09BF90028E1
:1024E0000DD11122B11D284600F094F9002806D024
:1024F000012404E0022801D0032800D10124204651
:1025000070BD00002D000000640800200C3200089F
:1025100070180020062400201400002080180020DD
:1025200000240020801C0020382400203539383257
:10253000343300002F636865636B3F747970653DC9
:10254000312676657273696F6E3D000020485454E1
:10255000502F312E310D0A00617574686F72697ADF
:102560006174696F6E3A0000686F73743A696F74D2
:102570002D6170692E6865636C6F7564732E636F6F
:102580006D0D0A002F646F776E6C6F616420485484
:1025900054502F312E310D0A00000000617574680F
:1025A0006F72697A6174696F6E3A200048545450B2
:1025B0002F312E312032303000000000485454506A
:1025C0002F312E312032303600000000434F4E4E66
:1025D0004543540022636F6465223A3000000000D6
:1025E000534D353030310000534D3530303200001E
:1025F000534D35303033000052616E67653A20002C
:1026000080B54F4988420BD101214FF48040FEF73D
:10261000D9FA00214FF48040BDE80440FEF7D2BA59
:10262000484988420BD101214FF40030FEF7D5FA1A
:1026300000214FF40030BDE80440FEF7CEBA424915
:1026400088420BD101214FF48020FEF7C6FA002109
:102650004FF48020BDE80440FEF7BFBA3B498842F2
:102660000BD101214FF40020FEF7B7FA00214FF4FF
:102670000020BDE80440FEF7B0BA354988420BD1CE
:1026800001214FF48010FEF7A8FA00214FF48010CA
:10269000BDE80440FEF7A1BA01BD30B585B00446DF
:1026A0000D46218A4CF6FF700140E88801432182E3
:1026B000A1894EF6F3100140A888014328890143FF
:1026C00068890143A181A18A4FF6FF400140A88992
:1026D0000143A1826846FEF714FA1948844201D1E9
:1026E000039900E002992A6819204143A089000457
:1026F00003D55200B1FBF2F202E09200B1FBF2F21C
:102700006420B2FBF0F109010B461B0900FB132208
:10271000A089000408D5D20032326420B2FBF0F068
:1027200000F00700014307E0120132326420B2FBDF
:10273000F0F000F00F000143218105B030BD000032
:10274000003801400044004000480040004C004078
:1027500000500040002904D0818941F4005181815A
:10276000704782894DF6FF710A408281704710B42C
:102770000B46DBB25B09012401F01F0104FA01F1F1
:10278000012B01D10C3004E0022B01D1103000E00C
:102790001430002A026802D01143016002E022EAEC
:1027A0000101016010BC70470246002012880A42F5
:1027B00000D001207047C9430180704730B4024601
:1027C00000200C46E4B26409012501F01F0305FA5C
:1027D00003F3012C02D19489234006E0022C02D19C
:1027E000148A234001E0948A2340090A05FA01F182
:1027F00012881140002B02D0002900D0284630BC9E
:1028000070470122090A02FA01F189B2C943018025
:10281000704700000300002013F0030F09D0521E80
:1028200022BF13F8010B11F801CBB0EB0C00F3D071
:10283000704711F0030F14D1121F22BF53F8040B7D
:1028400051F804CB6045F7D0121D0AD200BA9CFAA9
:102850008CFCB0EB0C0038BF6FF0000088BF01208B
:102860007047521E22BF13F8010B11F801CBB0EBD9
:102870000C00F6D0521C08BF1046704730B585B02A
:10288000054600220421684600F0B0F8002210211D
:1028900001A800F0ABF810208DF8030003208DF89C
:1028A00002001020ADF80000444C69462046FEF7B7
:1028B000E7FA102060612020ADF80000694620464C
:1028C000FEF7DEFA202020613D4C2046FFF798FEFF
:1028D0004FF48050ADF8000003208DF8020018205E
:1028E0008DF8030069463748FEF7CAFA0420ADF8B0
:1028F00000008DF8030069463348FEF7C1FA0195E0
:1029000000200290ADF80C00ADF810000C20ADF8DE
:102910000E0001A92046FFF7C0FE01212046FFF767
:1029200019FF05B030BD80B535208DF800000120BD
:102930008DF8010000208DF8020001208DF80300C1
:102940006846FEF74CFA01BD70B504460D461C4EB4
:1029500040F227713046FFF754FF224640F22551DE
:102960003046FFF704FF2A4640F226613046BDE8B4
:102970007040FFF7FCBE12490A881206FCD5888019
:102980007047C0EBC001C902491C0846411E00281F
:10299000FBD1704710B4002208E0094B1C882406C4
:1029A000FBD51446A4B2045D9C80521C13460C4611
:1029B0009BB2A342F1D310BC70470000000C014051
:1029C00000500040001001400014014010B50446C2
:1029D00000F048FA014689B22046FFF7DBFF0D20E0
:1029E000FFF7C9FF0A20BDE81040C4E762F30F22D9
:1029F00062F31F4200B500BF13009646944610399B
:102A000028BFA0E80C50FAD85FEA417C28BF0CC070
:102A100048BF40F8042BC90728BF20F8022B48BF45
:102A200000F8012B00BD000080B5FEF733F9042843
:102A300001D1012002BD002002BD2DE9F041044674
:102A40000D46164600274FF0010800E03F1DB74233
:102A50000AD23846800855F820103819FEF73BF99D
:102A60000428F3D04FF000084046BDE8F0812DE97E
:102A7000F04180460F4614460126002538004DD00F
:102A8000FEF7AAFA002800D12E46300007D0A02079
:102A9000FEF70CFBFEF7F1FA002800D12E463000BD
:102AA00006D04046000AFEF701FBFEF7E6FA0646AE
:102AB000300006D04046C0B2FEF7F8FAFEF7DDFA65
:102AC0000646300004D0FEF787FA002800D12E46D3
:102AD000300007D0A120FEF7E9FAFEF7CEFA002871
:102AE00000D12E467F1E300007D115E0FEF7FBFA1D
:102AF00004F80800FEF79BFA6D1CA8461FFA88F838
:102B00002846394680B289B28842EFD3FEF7EBFA05
:102B100004F80800FEF79EFAFEF776FA3046BDE8A4
:102B2000F0812DE9F04107460C469046002501262C
:102B3000200034D0FEF750FA002800D12E46300095
:102B400007D0A020FEF7B2FAFEF797FA002800D1CE
:102B50002E46300006D03846000AFEF7A7FAFEF7E8
:102B60008CFA0646300013D03846C0B2FEF79EFA03
:102B7000FEF783FA06460BE0300008D0284680B204
:102B800018F80000FEF792FAFEF777FA06466D1C79
:102B90002846214680B28842EED3FEF735FA05205A
:102BA000FEF711FA3046BDE8F0812DE9F041044608
:102BB0000E461546002710F01F0F0ED004F01F0020
:102BC000C0F12000374680B2874200D90746394617
:102BD0002046FFF7A6FFF61B00E00120010019D0F8
:102BE000314689B2002915D04FF02008304680B216
:102BF000202800D2B046384680B22A18414689B211
:102C0000381980B2FFF78DFFA6EB080617FA88F790
:102C10000100E5D1BDE8F08130B4024600244FF652
:102C2000FF7000E0641C8C4212D2135D58400023F8
:102C3000082BF7D205466D10C007284601D480B294
:102C400004E080F4044080F0080080B25B1CEFE7F1
:102C5000C04380B230BC704770B504460D460020BA
:102C6000002C16D0204600F0FDF84FF6FE7108400B
:102C700000210BE0074A635CD35C66187678925DAE
:102C800042EA031205F8012B891C89B28142F1DB6B
:102C9000400870BD642F000830B400231C46002893
:102CA00078D0022A08D0082A18D00A2A27D0102A59
:102CB00054D0112A36D06DE022460D46D2B2AA4237
:102CC00068D20278302A01D0312A63D11D461346DA
:102CD000303B03EB4503641C401CEDE722460D46E8
:102CE000D2B2AA4256D20278A2F13005082D51D2B2
:102CF000303A02EBC3021346641C401CEEE7224646
:102D00000D46D2B2AA4245D20278A2F130050A2D70
:102D100040D203EB8305303A02EB45021346641CB4
:102D2000401CECE722460D46D2B2AA4232D20278CB
:102D3000A2F130050A2D02D32E2A2BD105E003EB98
:102D40008305303A02EB45021346641C401CE9E758
:102D5000373A02EB03121346641C401C22460D4610
:102D6000D2B2AA4216D20278A2F130050A2D04D2BC
:102D7000303A02EB03121346EEE7A2F16105062D8D
:102D800004D2573A02EB03121346E5E7A2F14105DC
:102D9000062DDDD3184630BC7047F0B40446002938
:102DA00001D1002028E09A1A18464D1E002818D09C
:102DB0000A26B4FBF6F6374607EB870CA4EB4C0467
:102DC00030342C543446461E1746FFB2BE4204D15E
:102DD00030462E260746FFB2EE55401EC0B2002CEC
:102DE000E4D11B1A30224C1E02E02254401EC0B215
:102DF0000028FAD11846C0B2F0BC7047038803F42B
:102E000041530A8813434A8813438A881343CA8864
:102E100013430A8913434A8913438A891343CA898E
:102E200013430380838B4FF2FF7213408383098A1D
:102E300001827047002904D0018841F040010180DF
:102E4000704702884FF6BF710A4002807047818147
:102E50007047808970470246002012890A4200D0DC
:102E60000120704700F10103810704D010F8011B15
:102E7000820781B1FAD10268A2F10131914311F0C8
:102E8000803104BF50F8042FF6E709BAB1FA81F196
:102E900000EBD100401CC01A704770B50D462C786D
:102EA00034B970BD11F8013F1678B34206D0401C0A
:102EB000214600F04BF828B101462A4612F8013F9E
:102EC000002BEFD170BD034600E05B1C1A78002A8E
:102ED000FBD111F801CB83F800C013F8012B002AB5
:102EE000F7D1704762F30F2262F31F42401810F0CF
:102EF000030308D0C91A1FD3DB0748BF00F8012D10
:102F000028BF20F8022D130030B41446154610399E
:102F100028BF20E93C00FAD8490728BF20E90C0067
:102F200048BF40F8042D890028BF20F8022D48BF73
:102F300000F8012D30BC7047C91818BF00F8012DEA
:102F4000CB0728BF00F8012D70470000C9B20278F6
:102F50008A421AB11CBF10F8012FF9E718BF0020F0
:102F600070470000000000000000000000000000AA
:102F70000000000000000000000000000000000051
:102F80000000000000000000000000000000000041
:102F90000000000000010203040506070809000004
:102FA00000000000000A0B0C0D0E0F0000000000D6
:102FB0000000000000000000000000000000000011
:102FC00000000000000A0B0C0D0E0F0000000000B6
:102FD00000000000000000000000000000000000F1
:102FE00000000000000000000000000000000000E1
:102FF00000000000000000000000000000000000D1
:1030000000000000000000000000000000000000C0
:1030100000000000000000000000000000000000B0
:1030200000000000000000000000000000000000A0
:103030000000000000000000000000000000000090
:103040000000000000000000000000000000000080
:103050000000000000000000000000000000000070
:10306000000000003649086840F0010008604A6826
:10307000344802404A600A68334802400A600868DF
:1030800020F480200860486820F4FE0048604FF477
:103090001F00886000E0000000BF82B000200090A8
:1030A00001902749086840F4803008604FF6FF72AD
:1030B000086800F4003001900098401C00900198CE
:1030C000002802D100989042F2D10868400C00F02C
:1030D000010001900198012830D11C48026842F09B
:1030E000100202600268920892000260026842F0D8
:1030F000020202604868486048684860486840F4D6
:1031000080604860486820F47C104860486840F45B
:10311000E8104860086840F0807008600868800126
:10312000FCD54868800880004860486840F002008C
:103130004860486800F00C000828FAD102B07047D7
:10314000001002400000FFF8FFFFF6FE00200240E2
:103150007047FEE7FEE7FEE7FEE7704770477047FF
:1031600024480168491C016000681521B0FBF1F298
:1031700001FB1200002806D11F48016841F490416C
:1031800041F0020101601D480178090608D5D0F818
:103190000818491DC0F80818322901D3052101700B
:1031A000704710B5164C40F225512046FFF706FB3C
:1031B000002819D01349A08808701048097842885F
:1031C000024491714188491C418089B2B1F5006F78
:1031D00004DA017841F08001017001E006210170FC
:1031E0000021C0F8081800E0A088208800F47C4086
:1031F000208010BD30240020E4230020640A002039
:10320000005000403E2400207047000047455420F5
:10321000687474703A2F2F696F742D6170692E680D
:1032200065636C6F7564732E636F6D2F6675736560
:103230002D6F74612F000000436F6E74656E742DE6
:10324000547970653A206170706C69636174696F5C
:103250006E2F6A736F6E0D0A000000007665727340
:10326000696F6E3D323032322D30352D303126725D
:1032700065733D7573657269642532463333323147
:1032800038362665743D3235393938383132343084
:10329000266D6574686F643D6D6435267369676E6D
:1032A0003D71544A59307A704938347951696862AD
:1032B00042545A676977412533442533440000005E
:1032C00041542B5149444E534346473D312C223102
:1032D00031342E3131342E3131342E313134222CEF
:1032E000223131342E3131342E3131352E313135D8
:1032F0002200000041542B51494F50454E3D312C86
:10330000312C22544350222C22696F742D61706934
:103310002E6865636C6F7564732E636F6D222C3835
:10332000302C302C3200000010B507497944183198
:10333000064C7C44163404E00A68081D1144884792
:103340000146A142F8D110BD2C0000004C00000045
:1033500080B5FCF75CFFFCF79CFFFCF7CDFFFDF7A9
:1033600065F8FDF7AAF8FDF76DF9FDF728FAFDF706
:103370008FFAF0E727DAFFFF2C240000140000206A
:10338000000000008BEBFFFF140000005400000061
:10339000000000200000000000F00DF8002801D01F
:1033A000FFF7C2FFAFF300800020AFF30080FFF70C
:1033B000CFFF00F002F80120704700F001B80000D4
:1033C0000746384600F002F8FBE7000080B5AFF38F
:1033D0000080024A11001820ABBEFBE72600020065
:1033E00000000000010203040102030406070809AB
:1033F000020406080148804701480047653000087C
:1034000005340008AFF30080AFF30080FFF7C4FF7E
:10341000000C014010000000000C014020000000E2
:10342000000C014000100000FFF7FEBFFFF7FEBFD9
:10343000FFF7FEBFFFF7FEBFFFF7FEBFFFF7FEBFC0
:10344000FFF7FEBFFFF7FEBFFFF7FEBFFFF7FEBFB0
:10345000FFF7FEBFFFF7FEBFFFF7FEBFFFF7FEBFA0
:10346000FFF7FEBFFFF7FEBFFFF7FEBFFFF7FEBF90
:10347000FFF7FEBFFFF7FEBFFFF7FEBFFFF7FEBF80
:10348000FFF7FEBFFFF7FEBFFFF7FEBFFFF7FEBF70
:10349000FFF7FEBFFFF7FEBFFFF7FEBFFFF7FEBF60
:1034A000FFF7FEBFFFF7FEBFFFF7FEBFFFF7FEBF50
:1034B000FFF7FEBFFFF7FEBFFFF7FEBFFFF7FEBF40
:1034C000FFF7FEBFFFF7FEBFFFF7FEBFFFF7FEBF30
:1034D000FFF7FEBFFFF7FEBFFFF7FEBFFFF7FEBF20
:1034E000FFF7FEBFFFF7FEBFFFF7FEBFFFF7FEBF10
:1034F000FFF7FEBFFFF7FEBFFFF7FEBFFFF7FEBF00
:10350000FFF7FEBFFFF7FEBFFFF7FEBFFFF7FEBFEF
:0400000508003405B6
:00000001FF
