:020000040800F2
:10000000182C0020692A0008C9270008CB270008FF
:10001000CD270008CF270008D127000800000000E6
:10002000000000000000000000000000D3270008CE
:10003000D527000800000000D7270008D9270008AE
:100040009D2A0008A12A0008A52A0008A92A00085C
:10005000AD2A0008B12A0008B52A0008B92A00080C
:10006000BD2A0008C12A0008C52A00088128000806
:10007000C92A0008CD2A0008D12A0008D52A00087C
:10008000D92A0008DD2A0008E12A0008E52A00082C
:10009000E92A0008ED2A0008F12A0008F52A0008DC
:1000A000F92A0008FD2A0008012B0008052B00088A
:1000B000092B00080D2B0008112B0008152B000838
:1000C000192B00081D2B0008212B0008252B0008E8
:1000D000292B00082D2B0008312B0008352B000898
:1000E000392B00083D2B0008412B0008452B000848
:1000F000492B00084D2B0008512B0008552B0008F8
:10010000592B00085D2B0008612B0008652B0008A7
:10011000692B00081B2800086D2B0008712B0008B4
:10012000752B0008792B00087D2B0008812B000817
:1001300080B54FF4E13000F05BFB00F0AEFB002136
:100140000120BDE8044000F0B9BBF8B504460D46F7
:10015000164600224FF4967100F002FC04F159009B
:1001600004F1FC0104F17C022B46012B40F080805D
:10017000C823136002230B7001230370C82353604C
:1001800002234B704370C823936019238B700B2399
:100190008370C823D3600223CB700C23C370C823A1
:1001A00013610A230B710D230371C82353610A23C2
:1001B0004B711B234371C82393610A238B71122354
:1001C0008371C823D3612823CB710423C371C8234F
:1001D0001362B4230B7205230372C8235362B42342
:1001E0004B7206234372C82393620A238B72072340
:1001F00083724FF44873D3620223CB720823C37215
:1002000040F6B833136302270F730927077353634C
:1002100002234B732B234373C823936302238B73F3
:100220002C238373C823D3630223CB732D23C3737F
:10023000C823136402230B7430230374C82353644C
:1002400002234B742E234374C823936402238B74BC
:1002500032238374C823D3640223CB743323C3743F
:10026000C823136502220A750A21017515201AE0B8
:100270004FF4FA63136001230B7010230370B4234F
:10028000536001234B70032343704FF4C873936092
:1002900001238B700F2383701423D3600122CA7053
:1002A0000021C170042004F58E7102224A800D7174
:1002B0000870482231462046BDE8F84000F08ABB6D
:1002C00038B504460D4694F81D01204490F85900B5
:1002D000332800F29C80DFE800F01A1A2323454AF5
:1002E0004F54595E92282C313B9A719A406C9A9ADD
:1002F0009A9A9A9A9A369A9A9A9A9A9A9A9A689AF4
:100300009A9A9A9A9A63797E889A839A8D96A14846
:10031000818800684161A04881880068416176E079
:100320009D4881880068016171E097A000F008FB9A
:100330006DE00FF2FC2000F003FB68E00FF2F82004
:1003400000F0FEFA63E00FF2F82000F0F9FA5EE048
:100350000FF2F42000F0F4FA59E00FF2F82000F068
:10036000EFFA54E00FF2F42000F0EAFA4FE00FF257
:10037000F82000F0E5FA4AE00FF2F82000F0E0FA89
:1003800045E00FF2FC2000F0DBFA40E00FF2103005
:1003900000F0D6FA3BE00FF2183000F0D1FA36E068
:1003A0000FF2183000F0CCFA31E07C4800F0C8FAC7
:1003B0002DE00FF2143000F0C3FA28E00A2000F01C
:1003C0009AFA0FF2243000F0BBFA20E00FF2283046
:1003D00000F0B6FA1BE00FF23C3000F0B1FA16E084
:1003E0000FF2503000F0ACFA11E00FF2643000F080
:1003F000A7FA0CE00FF2783000F0A2FA07E06848A4
:1004000000F09EFA03E00FF27C3000F099FAC4F895
:10041000245131BD70B506460D46002496F81D01E5
:10042000304490F85900001F2F2800F2AA80DFE81E
:1004300000F061697A1818188C181821A8A818A853
:100440001853A8A8A8A8A8A8A837A8A8A8A8A8A882
:10045000A8A89595A8A8A8A8A845959595A895A8F1
:100460009D954AA1284600F008FB002800F08980ED
:10047000012486E045A1284600F0FFFA002800F09C
:100480008080484C04F5C0660F22A91C304600F05D
:10049000A1FA04F5BE61304600F03CFB012470E097
:1004A0003AA1284600F0E9FA00286AD01122A91CD6
:1004B00006F1480000F08EFA012462E033A12846DC
:1004C00000F0DBFA00285CD0102205F1110136485B
:1004D00000F080FA012454E02CA1284600F0CDFA67
:1004E00000284ED0ABA1284600F0C7FA002848D01B
:1004F000012446E0A9A1284600F0BFFA002840D018
:1005000001243EE0A7A1284600F0B7FA002838D021
:100510001FA1284600F0B1FA4078312801D03528D3
:100520002FD101242DE000BFA0A1284600F0A5FA9C
:10053000002826D016A1284600F09FFA40783128DE
:1005400001D035281DD101241BE000BF99A1284608
:1005500000F093FA002814D0012412E00BA12846E1
:1005600000F08BFA00280CD001240AE091A1284663
:1005700000F083FA002804D0012400BF8FA000F00F
:10058000DFF9204670BD0000415400004F4B0000D1
:100590002C0000008C2A0008842A00083829000852
:1005A0006C290008701A00205020002000F21D1154
:1005B0000A78024492F85900032814D9001F0A2827
:1005C0001AD90B3801280ED9C01E012814D90938B0
:1005D00012D0093802280FD9C01F05280CD9C01F16
:1005E000012809D97047002082F8FC000878401CD7
:1005F00008700020C8727047C87A002805D1002012
:1006000082F8FC000878401C0870704710B504465A
:1006100071A100F032FA002840F0068071A1204656
:1006200000F02BFA002801D0012010BD002010BDE1
:10063000415445300000000041542B47534E000008
:1006400041542B43494D490041542B43434C4B3FAC
:1006500000000000415426443100000041542B4367
:1006600050494E3F0000000041542B435245473F44
:100670000000000041542B43475245473F00000013
:1006800041542B5149435347503D312C312C224387
:100690004D4E4554222C22222C22222C31000000C7
:1006A00041542B514944454143543D310000000021
:1006B00041542B51494143543D31000041542B5189
:1006C000494143543F00000041542B514E54503D8A
:1006D000312C223230322E3131322E31302E33361F
:1006E000222C31323300000041542B5149434C4FEE
:1006F00053453D310000000041542B5148545450A3
:100700004346473D22636F6E746578746964222C9A
:100710003100000041542B51485454504346473D4A
:100720002272657175657374686561646572222CE7
:100730003100000041542B51485454504346473D2A
:1007400022636F6E74656E7474797065222C30004C
:1007500041542B51485454504346473D22726573CF
:10076000706F6E7365686561646572222C3100007C
:1007700041542B514854545055524C3D32372C362D
:100780003030300041542B514854545055524C3F56
:1007900000000000514E54500000000052454144FA
:1007A000590000002B435245470000002B4347529D
:1007B00045470000434F4E4E4543540068747470E3
:1007C0003A2F2F696F742D6170692E6865636C6FA5
:1007D0007564732E636F6D00636C6F7365640D0ACF
:1007E0000000000070647064656163740D0A0000AD
:1007F00030B585B0054600220421684600F0B0F807
:100800000022102101A800F0ABF810208DF80300A1
:1008100003208DF802001020ADF80000444C69461A
:10082000204600F097F9102060612020ADF800000C
:100830006946204600F08EF9202020613D4C20467C
:1008400000F00EFA4FF48050ADF8000003208DF850
:10085000020018208DF803006946374800F07AF945
:100860000420ADF800008DF803006946334800F01D
:1008700071F9019500200290ADF80C00ADF8100060
:100880000C20ADF80E0001A9204600F036FA012137
:10089000204600F08FFA05B030BD80B535208DF8C8
:1008A000000001208DF8010000208DF802000120D9
:1008B0008DF80300684600F0E2FA01BD70B5044609
:1008C0000D461C4E40F22771304600F0CAFA22460F
:1008D00040F22551304600F07AFA2A4640F226616D
:1008E0003046BDE8704000F072BA12490A8812061C
:1008F000FCD588807047C0EBC001C902491C08467E
:10090000411E0028FBD1704710B4002208E0094BBB
:100910001C882406FBD51446A4B2045D9C80521C9E
:1009200013460C469BB2A342F1D310BC70470000A3
:10093000000C014000500040001001400014014034
:1009400010B5044600F0ECFA014689B22046FFF7E4
:10095000DBFF0D20FFF7C9FF0A20BDE81040C4E708
:1009600062F30F2262F31F4200B500BF13009646E8
:100970009446103928BFA0E80C50FAD85FEA417CB1
:1009800028BF0CC048BF40F8042BC90728BF20F877
:10099000022B48BF00F8012B00BD30B4002513E046
:1009A00050F8042BD30744BFA9F101039A18091F7B
:1009B000042942F8045BFAD213468C0744BF158021
:1009C0009B1CC90748BF1D7050F8041B0029E7D1C4
:1009D00030BC704762B38B0708D0521E11F8013B40
:1009E00000F8013B00F024808B07F6D1830740F02C
:1009F000208000BF103A07D330B4B1E83810103A65
:100A0000A0E83810F9D230BC530724BFB1E8081071
:100A1000A0E8081044BF51F8043B40F8043BD2075B
:100A200024BF31F8022B20F8022B44BF0B7803704F
:100A30007047121F17D35B0009D151F8043B20F80F
:100A4000023B1B0C121F20F8023BF6D20BE051F8C0
:100A5000043B00F8013B1B0A20F8023B1B0C121F51
:100A600000F8013BF3D238BF121D521E24BF11F80B
:100A7000013B00F8013BF8D8704770B50D462C7863
:100A800034B970BD11F8013F1678B34206D0401C4E
:100A9000214600F061FA28B101462A4612F8013FCA
:100AA000002BEFD170BD30B40EE002684368024401
:100AB0000830DC0744BFA9F10104E31852F8045BD5
:100AC00043F8045B091FF9D150F8041B0029ECD14D
:100AD00030BC704730B4024600244FF6FF7000E08F
:100AE000641C8C4212D2135D58400023082BF7D2AD
:100AF00005466D10C007284601D480B204E080F49A
:100B0000044080F0080080B25B1CEFE7C04380B275
:100B100030BC704770B504460D460020002C16D03E
:100B2000204600F0FDF94FF6FE71084000210BE071
:100B3000074A635CD35C66187678925D42EA0312DA
:100B400005F8012B891C89B28142F1DB400870BD98
:100B5000DC250008F0B40024CA78134603F00F0324
:100B6000D20601D58A7813430A88D2B2002A1AD055
:100B7000026815E0482D12D1066110E00126A6405A
:100B80000D883540B5420AD1A5000F27AF40BA43C2
:100B900003FA05F52A43CD78282DEBD14661641C74
:100BA000082CEBD302600A88B2F5807F1EDB446814
:100BB000002218E0012602F1080506FA05F50E8864
:100BC0002E40AE420ED196000F27B740BC4303FA29
:100BD00006F63443CE78282E00D14561CE78482ED3
:100BE00000D10561521C082AE4D34460F0BC704770
:100BF00070B41A4A002801D5936900E01368C0F365
:100C0000034485B200F44016B6F5401F06D123F028
:100C10007063146824F07064146010E0C60206D596
:100C2000032606FA04F4A34343F0706307E0044686
:100C3000640D240105FA04F4A34343F07063002912
:100C400004D00146490D09018D402B43002801D5F0
:100C5000936100E0136070BC704700000400014025
:100C600080B54F4988420BD101214FF4804000F0FC
:100C700063FA00214FF48040BDE8044000F05CBA04
:100C8000484988420BD101214FF4003000F05FFA4F
:100C900000214FF40030BDE8044000F058BA42494A
:100CA00088420BD101214FF4802000F050FA00213E
:100CB0004FF48020BDE8044000F049BA3B49884227
:100CC0000BD101214FF4002000F041FA00214FF434
:100CD0000020BDE8044000F03ABA354988420BD103
:100CE00001214FF4801000F032FA00214FF48010FF
:100CF000BDE8044000F02BBA01BD30B585B0044614
:100D00000D46218A4CF6FF700140E888014321829C
:100D1000A1894EF6F3100140A888014328890143B8
:100D200068890143A181A18A4FF6FF400140A8894B
:100D30000143A182684600F09EF91948844201D11E
:100D4000039900E002992A6819204143A089000410
:100D500003D55200B1FBF2F202E09200B1FBF2F2D5
:100D60006420B2FBF0F109010B461B0900FB1322C2
:100D7000A089000408D5D20032326420B2FBF0F022
:100D800000F00700014307E0120132326420B2FB99
:100D9000F0F000F00F000143218105B030BD0000EC
:100DA000003801400044004000480040004C004032
:100DB00000500040002904D0818941F40051818114
:100DC000704782894DF6FF710A408281704710B4E6
:100DD0000B46DBB25B09012401F01F0104FA01F1AB
:100DE000012B01D10C3004E0022B01D1103000E0C6
:100DF0001430002A026802D01143016002E022EAA6
:100E00000101016010BC70470246002012880A42AE
:100E100000D001207047C9430180704730B40246BA
:100E200000200C46E4B26409012501F01F0305FA15
:100E300003F3012C02D19489234006E0022C02D155
:100E4000148A234001E0948A2340090A05FA01F13B
:100E500012881140002B02D0002900D0284630BC57
:100E600070470122090A02FA01F189B2C9430180DF
:100E7000704700002249084322490860704770B457
:100E800003781C460122C17800291BD01D490B683C
:100E900003F4E063C3F5E0631B0A4578C3F1040182
:100EA0008D4081780F26DE4031400D432D011649DB
:100EB0000D55017801F01F0082401448491140F897
:100EC000212007E003F01F0302FA03F31048641126
:100ED00040F8243070BC70470E4A114008430E4958
:100EE000086070470D490428086803D140F00400E9
:100EF0000860704720F004000860704700000000A0
:100F00000000FA050CED00E000E400E000E100E084
:100F100080E100E080FFFF1F08ED00E010E000E04E
:100F200000F10103810704D010F8011B820781B191
:100F3000FAD10268A2F10131914311F0803104BF6E
:100F400050F8042FF6E709BAB1FA81F100EBD100AD
:100F5000401CC01A70470000C9B202788A421AB118
:100F60001CBF10F8012FF9E718BF002070470000E0
:100F70008549086840F0010008604A6883480240DB
:100F80004A600A68824802400A60086820F48020AB
:100F90000860486820F4FE0048604FF41F00886035
:100FA000704779490A6822F480320A600A6822F49C
:100FB00080220A60B0F5803F03D0B0F5802F05D0C5
:100FC0007047086840F4803008607047086840F453
:100FD000A020086070471CB5002000900446312016
:100FE00000F0C0F80099491C009100994FF6FF727B
:100FF000914201D00028F2D0312000F0B3F800284F
:1010000000D00124204616BD624A136823F47C13E5
:1010100018430843106070475F49086070475D4996
:101020000A68920850EA82000860704759480068D0
:1010300000F00C00704757490A6822F0F002104394
:101040000860704753490A6822F4E0621043086060
:10105000704750490A6822F4605242EAC0020A60AE
:1010600070474E49086070474A490A6822F4404276
:1010700010430860704710B4464A116801F00C0133
:10108000042902D0082903D01BE0454901601AE079
:10109000136803F47013116801F480319B0C9B1CDE
:1010A000002903D13F494B4303600CE011688903D9
:1010B00003D53D494B43036005E039494B43036089
:1010C00001E03A490160116801F0F001384B09096B
:1010D000595C0468CC404460116801F4E061090A7D
:1010E000595CCC408460116801F46051C90A595CB4
:1010F0004468CC40C460116801F4404103EB913175
:10110000097CB4FBF1F1016110BC7047294A002948
:10111000116802D008431060704721EA0000106097
:101120007047254A0029116802D0084310607047B3
:1011300021EA000010607047204A0029116802D09F
:1011400008431060704721EA0000106070471C4A95
:101150000029116802D008431060704721EA00009E
:101160001060704701464009074A012801D1106804
:1011700004E0022801D1106A00E0506A01F01F016A
:10118000C84000F001007047001002400000FFF866
:10119000FFFFF6FE0410024060004242D8004242C7
:1011A000001BB70000093D00808D5B0000127A0033
:1011B00000000020181002401C1002400C100240D9
:1011C0001010024000EB40014903491C0846411E33
:1011D0000028FBD1704780B5FFF7CAFE4FF480307E
:1011E000FFF7DFFEFFF7F7FE01282BD10020FFF706
:1011F00022FF0020FFF72DFF4FF48060FFF722FF52
:101200004FF44040FFF730FF0020FFF72AFF022095
:1012100000F002FB102000F007FB4FF400114FF428
:101220008030FFF7F1FE0120FFF7F6FE3920FFF7CF
:1012300099FF0028FAD00220FFF7F1FEFFF7F6FE33
:101240000828FBD101BD10B5044621463D20FFF71B
:101250005DFF21464FF4A210BDE81040FFF761BFCB
:1012600080B500214FF00060FFF736FE4FF4A0601C
:10127000BDE80240FFF7FEBD80B50121DFF848055B
:10128000FFF7B6FC10208DF8030003208DF8020054
:101290000220ADF800006946DFF83005FFF75AFC80
:1012A00001BD38B5FFF797FFFFF7DAFF0120FFF721
:1012B000CAFF72B6FFF7E0FFDFF814450220206096
:1012C0000A20FFF77FFF00F0BBFA00F08BFB00F075
:1012D00029FC00F0A7FC00F0FBFC00F01FFDDFF88C
:1012E000F4544AF6AA2028804FF4E13000F020FDA3
:1012F00000F06FFD0021012000F07CFDFEF718FFDB
:101300000822DFF8D414DFF8D404FFF763FB00F001
:10131000DCFD02206060DFF8C804298845F25552E0
:10132000914202D10121416005E04021416001204C
:10133000DFF8B0144870DFF8B044DFF8B0240121C2
:101340002046FEF702FF0220A4F81E0162B631BD5E
:10135000DFF88C0441688A070ED521F00201416054
:101360000169491C0161DFF86804C90702D502213F
:101370004160704702210160704710B572B60246A5
:101380001468DFF85C34DFF868140C40B4F1005FD7
:1013900009D1001D006898615861106880F30888C1
:1013A0005869804705E0012058600020DFF84414A8
:1013B000086062B610BDDFF8280441684A060ED402
:1013C000DFF830241268292A09D3DFF808241288AC
:1013D00045F255539A4202D141F0800141600079B3
:1013E000000606D50220DFF810140860DFF80C04B0
:1013F000C3E7704710B5DFF8084407212046FFF720
:1014000003FD00280FD007212046FFF704FD4FF40D
:10141000E13000F08DFC00F0DCFC00210120BDE893
:10142000104000F0E7BC10BDF8B5DFF8B4436068C9
:10143000400500F1B780DFF8CC5307212846FFF7BD
:10144000E3FC00280DD007212846FFF7E4FC4FF409
:10145000E130FFF7CDF9FFF720FA00210120FFF777
:101460002DFADFF8846306F58E75DFF89C73387803
:10147000052801D006281ED17988B81D00F0D7FCB8
:10148000A878400717D57A88D2B2B91D3046FEF742
:10149000C1FF00280AD0002028730820688000229D
:1014A00040F60C013846FFF75BFA04E08020387004
:1014B0000020C7F808086988880714D54FF6FD7022
:1014C000014069806878297888420CD2002240F671
:1014D0000C013846FFF744FAC64801683046FEF76B
:1014E000EFFE24206880A87880061ED56978AA6857
:1014F00006EB8100C06F8218BE480068824214D299
:1015000006F1FC00425C521E42546978405C00289F
:1015100009D169884FF6DF70014069800820688032
:101520000220287301E0022068806988080739D505
:101530004FF6F770014069803046FFF737F8287B97
:1015400000281ED10220688068782978884229D135
:10155000616821F0805161602879012808D140201C
:10156000688041F4806161608020A8490870F1BD05
:10157000002817D1A6488188006841610120688051
:10158000F1BD2879012807D1984A00213046FEF79D
:10159000DCFD02206880F1BD012068809C488188C4
:1015A00000684161F1BDF8B58D4C6068400540F1BF
:1015B000BF80944D07212846FFF726FC00280DD058
:1015C00007212846FFF727FC4FF4E130FFF710F919
:1015D000FFF763F900210120FFF770F98A4E307898
:1015E0008C4D052801D0062838D1A888800510D553
:1015F000B11D284600F03CFD002802D00120A88043
:1016000004E0802030700020C6F808086878401C8C
:1016100068707E4F7288B11D384600F067FD002863
:1016200004D074480168384600F0D4FDB01DFEF7C0
:10163000EDFF00280CD06C4F6C4A00213846FEF7B5
:1016400084FD0220A7F81E01606820F480606060BD
:10165000002240F60C013046FFF782F9A988C80540
:1016600015D54FF6FF600140A98068782978884237
:101670000DD2002240F60C013046FFF771F95D48AB
:101680000168284600F03CFC40F20120A88028793F
:10169000C00721D56978D5F8E82105F5B47050F870
:1016A0002100821853480068824215D205F2471083
:1016B000425C521E42546978405C002809D1A988D6
:1016C0004FF6FE700140A9800820A8800220A87073
:1016D00002E04FF48070A880A98808070CD54FF667
:1016E000F7700140A980284600F0EFFC687829785F
:1016F000884201D3002028806068C10018D520F0FE
:101700008050606005F5B4702978C82240F8212027
:1017100001202978294481F84801032029782944A7
:1017200081F828002878401C28704FF48070A88029
:10173000F1BD2B4841684A0500D4704730B40A0512
:101740003FD50278521C0270D2B2642A36D10022F0
:101750000270244A5278012A17D12E4A137802EBDC
:101760008303C824C3F86841012302F5A4741578E3
:101770006355032302F128041578635513785B1C25
:1017800013704FF48073938018E0022A16D1214A17
:10179000137802EB8303C824C3F86841012302F5E0
:1017A000A47415786355042302F128041578635551
:1017B00013785B1C13704FF48073938021F40061E5
:1017C000416030BC7047000000023000000C014056
:1017D000100C01400424002008500008FC230020C5
:1017E000E0230020140000206C2200209823002019
:1017F0000000FE2F0C240020140C014000400008C3
:101800000048004000500040640A0020701A002088
:10181000842A000880200020DFF820100A6802F0E7
:101820003802104308607047DFF810100A6822F091
:1018300010020A600A6810430860704700200240E6
:101840001CB503208DF8020014208DF803008020C1
:10185000ADF80000604C69462046FFF77BF9402058
:10186000ADF8000069462046FFF774F913BDC821A2
:101870000846411E0028FBD1704700EB4001490398
:10188000491C0846411E0028FBD1704710B5534C37
:101890008020A0604020A060FFF7E9FF2068802042
:1018A000E060FFF7E4FF2068000601D5002010BDCE
:1018B0008020E060FFF7DBFF012010BD10B5484C31
:1018C00040206060FFF7D3FF80206060FFF7CFFF0C
:1018D00040202060FFF7CBFF80202060BDE8104053
:1018E000C5E710B53E4C40206060FFF7C0FF802088
:1018F0006060FFF7BCFF40202060FFF7B8FF40208A
:101900006060BDE81040B2E710B5354C4020606023
:10191000FFF7ADFF80202060FFF7A9FF4020206087
:10192000FFF7A5FF40206060BDE810409FE710B5BD
:101930002A4C4020E060FFF79AFF8020A060FFF76C
:1019400096FF4020A060FFF792FF2068000603D5B5
:101950004020E060002010BD4020E060012010BD6C
:1019600070B5054608261E4C0FE08020606005E03B
:10197000402060602806F8D580202060FFF777FFC0
:1019800040202060FFF773FF6D003046461EC0B256
:101990000028EDD14020606070BD70B5082500269C
:1019A0000E4C8020A0600DE076004020E060FFF744
:1019B0005EFF4020A060FFF75AFF2068000601D5B7
:1019C00046F001062846451EC0B20028ECD1402052
:1019D000E0603046C0B270BD000C0140080C014010
:1019E000100C0140FEB5002208216846FEF7B8FF42
:1019F00000264B4D2A46082141F6F87000F0D4FC31
:101A0000040025D13220FFF738FF761C3046C0B2E3
:101A10000228EFDD00266A4608214FF4F05000F05E
:101A2000C3FC07001FD13220FFF727FF761C30468A
:101A3000C0B20228EFDD54EA070020D14AF6AA20FE
:101A400028800020688000F029F800F04CF8F7BDED
:101A500006212846FFF73EF8E988884201D0002495
:101A6000D8E70124D6E706216846FFF733F8BDF82A
:101A70000610884201D00027DDE70127DBE7002FB1
:101A800002D100F030F8F7BD002C06D108226946DB
:101A90002846FEF7AFFF00F001F8F7BD70B500244F
:101AA0001F4D2046E88006212846FFF713F8E880FE
:101AB0002A46082141F6F87000F014FD060006D011
:101AC0002A4608214FF4F05000F00CFD0646300085
:101AD00007D13220FFF7D1FE641C2046C0B2032894
:101AE000E6DB304670BD70B500240D4D2046E88021
:101AF00006212846FEF7EEFFE8802A4608214FF42B
:101B0000F05000F0EFFC060007D13220FFF7B5FEE1
:101B1000641C2046C0B20328EFDB304670BD0000D5
:101B20000424002038B586B00022122101A8FEF757
:101B300017FF002204216846FEF712FF03208DF8EC
:101B4000020010208DF803004FF480542046ADF8B9
:101B500000002C4D69462846FEF7FCFF2C614FF42F
:101B60006040ADF8000018208DF803006946284653
:101B7000FEF7F0FF244C0021204600F007FD002076
:101B8000ADF804004FF48270ADF80600002002901A
:101B9000ADF80C004FF40070ADF80E001020ADF859
:101BA00010000020ADF812000720ADF8140001A9C4
:101BB000204600F0CFFC0121204600F0E7FC07B0F2
:101BC00030BD38B50446104D0121284600F0EFFC29
:101BD000012802D1284600F0E8FC0221284600F046
:101BE000E6FC0028F9D02146284600F0DCFC012163
:101BF000284600F0DCFC0028F9D0284600F0D5FC8F
:101C0000C0B232BD000C01400038004005E04FF486
:101C1000907211464A1E0029FBD10146481E002938
:101C2000F5D1704738B53B48848805686C6104205D
:101C3000FFF7C7FF2C6131BD2DE9F84F04460D4673
:101C400016460027B846BB463248B0F80490D0F894
:101C500000A0CAF814900520FFF7B3FF0A20FFF791
:101C6000D5FF0BF1010BFF20FFF7ABFF810703D579
:101C7000594689B2C829F1DBCAF8109010F0030F59
:101C800023D1CAF814900320FFF79BFF2046000CD5
:101C9000C0B2FFF796FF2046000AC0B2FFF791FFDF
:101CA0002046C0B2FFF78DFF06E0FF20FFF789FF57
:101CB000394689B270547F1C3846294680B2884222
:101CC000F3D3CAF810904FF001084046BDE8F28FF8
:101CD00070B51048848805686C610A20FFF796FF8C
:101CE0009020FFF76EFF0020FFF76BFF0020FFF74B
:101CF00068FF0020FFF765FF074EFF20FFF761FF39
:101D000000023080FF20FFF75CFF318808433080FD
:101D10002C6170BD942A000814240020034A4FF45B
:101D200000614FF48070FFF787BF00BF7012002082
:101D300078B585B00446002204216846FEF710FEFF
:101D40000022102101A8FEF70BFE10208DF80300E1
:101D500003208DF80200414D2846FEF781FF4FF425
:101D60008060ADF8000003208DF8020018208DF887
:101D700003003B4E69463046FEF7ECFE10208DF81E
:101D800003000120ADF8000069463046FEF7E2FE90
:101D9000012070614FF40060ADF8000004208DF860
:101DA000030069463046FEF7D5FE019400200290FC
:101DB000ADF80C00ADF810000C20ADF80E0001A934
:101DC0002846FEF79AFF01212846FEF7F3FF06B0EA
:101DD00070BD80B527208DF8000001208DF801002E
:101DE00000208DF8020001208DF803006846FFF7FF
:101DF00046F801BD70B504460D46184E40F2A55197
:101E00003046FFF72EF8224640F225513046FEF7C5
:101E1000DEFF2A4640F226613046BDE87040FEF7FC
:101E2000D6BF0E490A881206FCD588807047F8B5DF
:101E300005460E4600270B4C0120206003E0E85DBC
:101E4000FFF7EFFF7F1C30468742F8D30348008836
:101E50004006FBD501206060F1BD00000048004055
:101E6000000C0140100C014010B50446FFF758F873
:101E7000014689B22046FFF7DAFF0D20FFF7D1FFB8
:101E80000A20BDE81040CCE70901020002D417483F
:101E900081547047164802F00F02104400F8041CE9
:101EA000704710B5401EB0F1807F01D3012010BDF6
:101EB000104C60600F214FF0FF30FFF7E5FF00206E
:101EC000A06007202060002010BD80B50420FFF72F
:101ED00009F80948FFF7E5FF084800210160416063
:101EE0000F214FF0FF30BDE80440CDE700E400E0F3
:101EF00018ED00E010E000E0C02709000C240020ED
:101F00002DE9F843ADF5007D04460D464FF400770A
:101F1000002239466846FEF723FD6078204490F899
:101F20002800032802D0042852D09AE0A34E0022B1
:101F300039463046FEF714FD002239466846FEF762
:101F40000FFD9F4F3946684600F038FB0FF24431D1
:101F500000F034FB0FF258284146684600F02EFB93
:101F6000984900F02BFB4146684600F027FB0FF232
:101F70002C3100F023FB9449684600F01FFBFEF76C
:101F8000CFFF0246921E69463046FEF733FD0FF240
:101F90002431304600F012FB07F12C0100F00EFB5B
:101FA0000FF21C31304600F009FB07F1500100F040
:101FB00005FB80A1304600F001FB0FF2143100F068
:101FC000FDFA3046FFF750FF3046FEF7B9FC48E017
:101FD000DFF8F88108F50566002239463046FEF73D
:101FE000BFFC002239466846FEF7BAFC744F3946FA
:101FF000304600F0E3FA00BFA6A100F0DFFA0FF2CE
:10200000B0194946304600F0D9FA6E4900F0D6FAC8
:102010004946304600F0D2FA08F6190100F0CEFA2F
:10202000B2A1304600F0CAFA07F12C0100F0C6FA5E
:10203000B4A1304600F0C2FA07F1500100F0BEFA38
:102040005CA1304600F0BAFAB2A100F0B7FA00BFC6
:102050009FA1304600F0B2FAFFF706FF3046FEF7C8
:102060006FFCC4F8E8510DF5017DBDE8F083000078
:1020700038B50C4600254178084490F8280003281C
:1020800004D020D3052817D00ED31CE0A5A12046EC
:10209000FEF7F3FC002816D04C49204600F09CF8CF
:1020A000002810D001250EE043A12046FEF7E5FCF4
:1020B000002808D0012506E09EA12046FEF7DDFCA1
:1020C000002800D00125284632BD4178421892F8F8
:1020D0002810491E042908D88178002905D100213B
:1020E00082F848114178491C41707047F8B505469F
:1020F0000E461746002400BF90A13046FEF7BDFCF7
:10210000002817D03248017800EB8101C822C1F8BD
:102110006821012100F5A4720378D154052100F152
:1021200028020378D1540178491C01704FF4807162
:1021300081803BE086A13046FEF79FFC002818D046
:1021400001242348017800EB8101C822C1F86821ED
:10215000214600F5A4720378D154052100F128022C
:102160000378D1540178491C01704FF4807181804B
:102170001CE000BF79A13046FEF77FFC002801D0AB
:10218000012413E079A13046FEF777FC002801D046
:1021900001240BE079A13046FEF76FFC002805D042
:1021A00001243A463146281DFEF714FC2046F2BDB4
:1021B0002F0000000D0A00004F4B000064080020B3
:1021C0008428000870200020FC2300201400002038
:1021D000802000207047000070B504460D460026A0
:1021E00032464FF405612846FEF7BAFB67A1204648
:1021F000FEF743FC00284AD067A12046FEF73DFCCD
:1022000000281FD0112204F58F7105F60600FEF795
:10221000E1FB062204F2371105F61900FEF7DAFB9E
:10222000062204F2451105F62100FEF7D3FB202219
:1022300004F5A97105F62900FEF7CCFB02206870B1
:10224000012624E056A12046FEF717FC00281ED0E8
:10225000112204F58F7105F60600FEF7BBFB06227E
:1022600004F2371105F61900FEF7B4FB062204F25A
:10227000451105F62100FEF7ADFB202204F5A971FA
:1022800005F62900FEF7A6FB0220687001263046FD
:1022900070BD00003539383234330000636865633F
:1022A0006B3F747970653D312676657273696F6E28
:1022B0003D00000020485454502F312E310D0A00AB
:1022C000617574686F72697A6174696F6E3A000043
:1022D000686F73743A696F742D6170692E686563F5
:1022E0006C6F7564732E636F6D0D0A002F646F77CA
:1022F0006E6C6F616420485454502F312E310D0A9A
:1023000000000000617574686F72697A6174696FAA
:102310006E3A200052616E67653A202D31303030C0
:102320000D0A0000485454502F312E3120323030E5
:1023300000000000434F4E4E454354002B5148547B
:1023400054504745543A20302C32303000000000C1
:102350002B51485454504745540000002B434D45E1
:10236000204552524F523A20373033002B514854B7
:1023700054504745543A2037303200002B514854CE
:102380005450524541443A203000000022636F64AB
:1023900065223A3000000000534D353030310000E6
:1023A000534D3530303200002DE9F04180460F4664
:1023B00014460126002538004DD0FFF767FA0028A3
:1023C00000D12E46300007D0A020FFF7C9FAFFF752
:1023D000AEFA002800D12E46300006D04046000A52
:1023E000FFF7BEFAFFF7A3FA0646300006D04046D4
:1023F000C0B2FFF7B5FAFFF79AFA0646300004D0EC
:10240000FFF744FA002800D12E46300007D0A12063
:10241000FFF7A6FAFFF78BFA002800D12E467F1EA1
:10242000300007D115E0FFF7B8FA04F80800FFF70D
:1024300058FA6D1CA8461FFA88F82846394680B21B
:1024400089B28842EFD3FFF7A8FA04F80800FFF733
:102450005BFAFFF733FA3046BDE8F0812DE9F04131
:1024600007460C46904600250126200034D0FFF791
:102470000DFA002800D12E46300007D0A020FFF72B
:102480006FFAFFF754FA002800D12E46300006D02C
:102490003846000AFFF764FAFFF749FA06463000AB
:1024A00013D03846C0B2FFF75BFAFFF740FA064692
:1024B0000BE0300008D0284680B218F80000FFF783
:1024C0004FFAFFF734FA06466D1C2846214680B2C3
:1024D0008842EED3FFF7F2F90520FFF7CEF9304638
:1024E000BDE8F0812DE9F04104460E46154600276F
:1024F00010F01F0F0ED004F01F00C0F1200037466F
:1025000080B2874200D9074639462046FFF7A6FF2A
:10251000F61B00E00120010019D0314689B20029E4
:1025200015D04FF02008304680B2202800D2B046A7
:10253000384680B22A18414689B2381980B2FFF76E
:102540008DFFA6EB080617FA88F70100E5D1BDE874
:10255000F0810000038803F441530A8813434A883A
:1025600013438A881343CA8813430A8913434A8949
:1025700013438A891343CA8913430380838B4FF221
:10258000FF7213408383098A01827047002904D0B7
:10259000018841F040010180704702884FF6BF7109
:1025A0000A400280704781817047808970470246E7
:1025B000002012890A4200D001207047034600E043
:1025C0005B1C1A78002AFBD111F801CB83F800C0FC
:1025D00013F8012B002AF7D170470000000000001B
:1025E00000000000000000000000000000000000EB
:1025F00000000000000000000000000000000000DB
:1026000000000000000000000000000000010203C4
:10261000040506070809000000000000000A0B0C72
:102620000D0E0F0000000000000000000000000080
:10263000000000000000000000000000000A0B0C79
:102640000D0E0F0000000000000000000000000060
:10265000000000000000000000000000000000007A
:10266000000000000000000000000000000000006A
:10267000000000000000000000000000000000005A
:10268000000000000000000000000000000000004A
:10269000000000000000000000000000000000003A
:1026A000000000000000000000000000000000002A
:1026B000000000000000000000000000000000001A
:1026C000000000000000000000000000000000000A
:1026D000000000000000000000000000364908680B
:1026E00040F0010008604A68344802404A600A68C5
:1026F000334802400A60086820F480200860486877
:1027000020F4FE0048604FF41F00886000E00000E5
:1027100000BF82B00020009001902749086840F473
:10272000803008604FF6FF72086800F400300190B6
:102730000098401C00900198002802D10098904217
:10274000F2D10868400C00F00100019001980128C6
:1027500030D11C48026842F0100202600268920800
:1027600092000260026842F002020260486848601B
:1027700048684860486840F480604860486820F4D1
:102780007C104860486840F4A0204860086840F029
:102790008070086008688001FCD548688008800067
:1027A0004860486840F002004860486800F00C004B
:1027B0000828FAD102B07047001002400000FFF86C
:1027C000FFFFF6FE002002407047FEE7FEE7FEE74F
:1027D000FEE7704770477047244A1068401C10603D
:1027E00010681521B0FBF1F301FB1300002805D19F
:1027F0001F490B6840F6020003430B6010681D4838
:102800000178090608D5D0F80818491DC0F808183D
:10281000322901D305210170704710B5164C40F2E2
:1028200025512046FEF7FAFA002819D01349A0884E
:102830000870104809784288024491714188491C07
:10284000418089B2B1F5006F04DA017841F080016E
:10285000017001E0062101700021C0F8081800E0B5
:10286000A088208800F47C40208010BD0C2400202B
:10287000E4230020640A00200050004016240020B9
:102880007047000047455420687474703A2F2F69D0
:102890006F742D6170692E6865636C6F7564732E3B
:1028A000636F6D2F667573652D6F74612F00000067
:1028B000436F6E74656E742D547970653A20617043
:1028C000706C69636174696F6E2F6A736F6E0D0A45
:1028D0000000000076657273696F6E3D32303232EF
:1028E0002D30352D3031267265733D7573657269F3
:1028F000642532463333323138362665743D3235FD
:102900003939383831323430266D6574686F643D3A
:102910006D6435267369676E3D71544A59307A701B
:10292000493834795169686242545A676977412558
:10293000334425334400000041542B5149444E5345
:102940004346473D312C223131342E3131342E3142
:1029500031342E313134222C223131342E31313484
:102960002E3131352E3131352200000041542B51AA
:10297000494F50454E3D312C312C22544350222C8E
:1029800022696F742D6170692E6865636C6F756460
:10299000732E636F6D222C38302C302C32000000E7
:1029A00010B5074979441831064C7C44163404E0CC
:1029B0000A68081D114488470146A142F8D110BD9C
:1029C0000800000028000000D3DFFFFF04240000FF
:1029D0001400002000000000CFE0FFFF1400000002
:1029E00074000000000000200000000080B5FEF729
:1029F00058FCFEF7ADFCFEF7DEFCFEF7FBFCFEF735
:102A000013FDFEF7D0FDFEF794FEF2E700F00DF89F
:102A1000002801D0FFF7C4FFAFF300800020AFF320
:102A20000080FFF7E3FF00F002F80120704700F09C
:102A300001B800000746384600F002F8FBE7000046
:102A400080B5AFF30080024A11001820ABBEFBE74F
:102A5000260002000000000001020304010203043A
:102A60000607080902040608014880470148004794
:102A7000DD260008792A0008AFF30080AFF300805C
:102A8000FFF7C4FF000C014010000000000C0140E3
:102A900020000000000C014000100000FFF7FEBF06
:102AA000FFF7FEBFFFF7FEBFFFF7FEBFFFF7FEBF5A
:102AB000FFF7FEBFFFF7FEBFFFF7FEBFFFF7FEBF4A
:102AC000FFF7FEBFFFF7FEBFFFF7FEBFFFF7FEBF3A
:102AD000FFF7FEBFFFF7FEBFFFF7FEBFFFF7FEBF2A
:102AE000FFF7FEBFFFF7FEBFFFF7FEBFFFF7FEBF1A
:102AF000FFF7FEBFFFF7FEBFFFF7FEBFFFF7FEBF0A
:102B0000FFF7FEBFFFF7FEBFFFF7FEBFFFF7FEBFF9
:102B1000FFF7FEBFFFF7FEBFFFF7FEBFFFF7FEBFE9
:102B2000FFF7FEBFFFF7FEBFFFF7FEBFFFF7FEBFD9
:102B3000FFF7FEBFFFF7FEBFFFF7FEBFFFF7FEBFC9
:102B4000FFF7FEBFFFF7FEBFFFF7FEBFFFF7FEBFB9
:102B5000FFF7FEBFFFF7FEBFFFF7FEBFFFF7FEBFA9
:102B6000FFF7FEBFFFF7FEBFFFF7FEBFFFF7FEBF99
:102B7000FFF7FEBFFFF7FEBFFFF7FEBFFFF7FEBF89
:042B8000FFF7FEBF9E
:0400000508002A794C
:00000001FF
