:020000040800F2
:10000000A819002065260008392400083B240008B0
:100010003D2400083F24000841240008000000009F
:100020000000000000000000000000004324000861
:100030004524000800000000472400084924000867
:100040009126000895260008992600089D2600089C
:10005000A1260008A5260008A9260008AD2600084C
:10006000B1260008B5260008B92600080D250008AD
:10007000BD260008C1260008C5260008C9260008BC
:10008000CD260008D1260008D5260008D92600086C
:10009000DD260008E1260008E5260008E92600081C
:1000A000ED260008F1260008F5260008F9260008CC
:1000B000FD26000801270008052700080927000879
:1000C0000D27000811270008152700081927000828
:1000D0001D270008212700082527000829270008D8
:1000E0002D27000831270008352700083927000888
:1000F0003D27000841270008452700084927000838
:100100004D270008512700085527000859270008E7
:100110005D270008A3240008612700086527000860
:10012000692700086D270008712700087527000857
:1001300000EB40014903491C0846411E0028FBD141
:10014000704780B500F010FB4FF4803000F025FBC5
:1001500000F03DFB01282BD1002000F068FB0020BF
:1001600000F073FB4FF4806000F068FB4FF44040F8
:1001700000F076FB002000F070FB022000F01EFC77
:10018000102000F023FC4FF400114FF4803000F0F9
:1001900037FB012000F03CFB392000F0DFFB00289A
:1001A000FAD0022000F037FB00F03CFB0828FBD11E
:1001B00001BD10B5044621463D2000F0A3FB2146B9
:1001C0004FF4A010BDE8104000F0A7BB80B500219F
:1001D0004FF0006000F038FC4FF4A060BDE8024032
:1001E00000F000BC80B50121DFF8140500F09EFC92
:1001F00010208DF8030003208DF802000220ADF8D6
:1002000000006946DFF8FC0400F042FC01BD70B557
:10021000FFF797FFFFF7DAFF0120FFF7CAFF72B67B
:10022000FFF7E0FFDFF8E044022020600A20FFF73C
:100230007FFF00F0B3FC00F083FD45F25555DFF879
:10024000CC643088A84206D100F09FF8002802D183
:100250004AF6AA2030804FF4E13000F011FE00F0A1
:1002600060FE0021012000F06DFE00F0B5FE0822C6
:10027000DFF89C14DFF89C0401F0B6F901F045FAB0
:1002800002206060DFF890043188A94202D1012188
:10029000016001E040210160DFF88044DFF8802444
:1002A0000121204600F0A5FE0220A4F81E0162B63E
:1002B00070BDDFF8640401688A070ED521F00201E1
:1002C0000160C168491CC160DFF83C04C90702D560
:1002D00002214160704702210160704710B572B67B
:1002E00002461468DFF83034DFF838140C40B4F1FB
:1002F000005F09D1001D006858611861106880F323
:1003000008881869804705E0012018600020DFF8A0
:100310001814086062B610BDDFF8FC0301684A06D5
:100320000ED4DFF804241268292A09D3DFF8DC236D
:10033000128845F255539A4202D141F08001016082
:100340000078000606D50220DFF8E0130860DFF829
:10035000E003C3E7704710B5DFF8D8430721204614
:1003600001F0C2FA00280FD00721204601F0C3FA9D
:100370004FF4E13000F084FD00F0D3FD00210120B6
:10038000BDE8104000F0DEBD10BD38B50024DFF838
:10039000A85308220FF2BC31284601F0F1FA0028D8
:1003A00012D1082100E0491C0846C0B2322807DA01
:1003B00015F8010BA0F12002602AF4D30028F2D036
:1003C000C9B2322900D10124200009D107220FF23D
:1003D0009031DFF8680301F0D3FA002800D101243E
:1003E000204632BDF8B5CC4C2068400500F1B18004
:1003F000DFF84C530721284601F076FA00280DD08B
:100400000721284601F077FA4FF4E13001F0ECFAC9
:1004100001F03FFB0021012001F04CFBBF4E06F52F
:100420008E75C84F3878052801D006281AD1A878CB
:10043000400717D57A88D2B2B91D304600F00EFFBA
:1004400000280AD0002028730820688000224FF47A
:10045000BD61384601F080FB04E080203870002048
:10046000C7F8E4056988880714D54FF6FD70014088
:1004700069806878297888420CD200224FF4BD61E7
:10048000384601F069FBA8480168304600F054FE88
:1004900024206880A87880061ED56978AA6806EBB3
:1004A0008100C06F8218A0480068824214D206F111
:1004B000FC00425C521E42546978405C002809D11D
:1004C00069884FF6DF70014069800820688002204B
:1004D000287301E0022068806988080739D54FF643
:1004E000F77001406980304600F08CFF287B0028BF
:1004F0001ED10220688068782978884229D1216835
:1005000021F0805121602879012808D1402068809D
:1005100041F48061216080208B490870F1BD002882
:1005200017D18A4881880068416101206880F1BD47
:100530002879012807D17A4A0021304600F059FD78
:1005400002206880F1BD01206880804881880068B1
:100550004161F1BDF8B5704C2068400540F1CE8096
:10056000774D0721284601F0BFF900280DD007215B
:10057000284601F0C0F94FF4E13001F035FA01F0FE
:1005800088FA0021012001F095FA6E4E3078704D06
:10059000052801D0062838D1A888800510D5B11DBE
:1005A000284601F08BFB002805D06878401C687055
:1005B0000120A88004E0802030700020C6F8E40507
:1005C000614F7288B11D384601F0D2FB002804D07B
:1005D00055480168384601F02DFCB01D00F040FF81
:1005E00000280CD04D4F4E4A0021384600F001FD46
:1005F0000220A7F81E01206820F4806020600022FD
:100600004FF4BD61304601F0A7FAA988C80515D599
:100610004FF6FF600140A9806878297888420DD2A2
:1006200000224FF4BD61304601F096FA3E48016861
:10063000284601F0AFFA40F20120A8802879C007CF
:1006400021D56978D5F8E82105F5B47050F8210076
:10065000821835480068824215D205F24710425C84
:10066000521E42546978405C002809D1A9884FF68F
:10067000FE700140A9800820A8800220A87002E036
:100680004FF48070A880A98808070CD54FF6F77042
:100690000140A980284601F059FB687829788842F2
:1006A00001D3002028802068C10027D520F0805089
:1006B000206005F5B470C8212A7840F8221005F5AD
:1006C000A47101222B78CA5405F128032C781A55FD
:1006D0002A78521C2A704FF48073AB80C824D2B29F
:1006E00040F8224001202A788854032005F128018F
:1006F0002A7888542878401C2870AB80F1BD00000F
:1007000000023000000C0140100C01409411002048
:10071000085000088C1100207411002000100020E7
:100720002C1100200000FE2F9C110020140C014011
:1007300000400008004800400050000880500008B9
:1007400000500040240600201400002080260008ED
:10075000140E002020534D353030312000000000B1
:1007600047323330323030008549086840F00100AC
:1007700008604A68834802404A600A68824802402A
:100780000A60086820F480200860486820F4FE00B1
:1007900048604FF41F008860704779490A6822F466
:1007A00080320A600A6822F480220A60B0F5803F35
:1007B00003D0B0F5802F05D07047086840F4803032
:1007C00008607047086840F4A020086070471CB5B6
:1007D000002000900446312000F0C0F80099491C28
:1007E000009100994FF6FF72914201D00028F2D09B
:1007F000312000F0B3F8002800D00124204616BDB7
:10080000624A136823F47C1318430843106070474E
:100810005F49086070475D490A68920850EA8200A3
:10082000086070475948006800F00C00704757494D
:100830000A6822F0F00210430860704753490A68C2
:1008400022F4E06210430860704750490A6822F4BD
:10085000605242EAC0020A6070474E490860704721
:100860004A490A6822F4404210430860704710B4B5
:10087000464A116801F00C01042902D0082903D06E
:100880001BE0454901601AE0136803F47013116816
:1008900001F480319B0C9B1C002903D13F494B4341
:1008A00003600CE01168890303D53D494B430360A5
:1008B00005E039494B43036001E03A4901601168A2
:1008C00001F0F001384B0909595C0468CC404460E0
:1008D000116801F4E061090A595CCC408460116838
:1008E00001F46051C90A595C4468CC40C460116885
:1008F00001F4404103EB9131097CB4FBF1F101615A
:1009000010BC7047294A0029116802D008431060C2
:10091000704721EA000010607047254A00291168DD
:1009200002D008431060704721EA00001060704751
:10093000204A0029116802D008431060704721EA5C
:100940000000106070471C4A0029116802D008435B
:100950001060704721EA00001060704701464009AE
:10096000074A012801D1106804E0022801D1106A69
:1009700000E0506A01F01F01C84000F0010070471C
:10098000001002400000FFF8FFFFF6FE04100240D6
:1009900060004242D8004242001BB70000093D00FF
:1009A000808D5B0000127A000000002018100240C9
:1009B0001C1002400C10024010100240DFF8201002
:1009C0000A6802F03802104308607047DFF8101020
:1009D0000A6822F010020A600A6810430860704733
:1009E000002002402249084322490860704770B441
:1009F00003781C460122C17800291BD01D490B68D1
:100A000003F4E063C3F5E0631B0A4578C3F1040116
:100A10008D4081780F26DE4031400D432D0116496F
:100A20000D55017801F01F0082401448491140F82B
:100A3000212007E003F01F0302FA03F310486411BA
:100A400040F8243070BC70470E4A114008430E49EC
:100A5000086070470D490428086803D140F004007D
:100A60000860704720F00400086070470000000034
:100A70000000FA050CED00E000E400E000E100E019
:100A800080E100E080FFFF1F08ED00E010E000E0E3
:100A9000F0B40024CA78134603F00F03D20601D540
:100AA0008A7813430A88D2B2002A1AD0026815E065
:100AB000482D12D1066110E00126A6400D88354070
:100AC000B5420AD1A5000F27AF40BA4303FA05F596
:100AD0002A43CD78282DEBD14661641C082CEBD33A
:100AE00002600A88B2F5807F1EDB4468002218E0AD
:100AF000012602F1080506FA05F50E882E40AE42E1
:100B00000ED196000F27B740BC4303FA06F63443D4
:100B1000CE78282E00D14561CE78482E00D10561CF
:100B2000521C082AE4D34460F0BC704770B41A4ADF
:100B3000002801D5936900E01368C0F3034485B22F
:100B400000F44016B6F5401F06D123F07063146818
:100B500024F07064146010E0C60206D5032606FA7D
:100B600004F4A34343F0706307E00446640D2401DA
:100B700005FA04F4A34343F07063002904D001464E
:100B8000490D09018D402B43002801D5936100E0F8
:100B9000136070BC70470000040001401CB50320C6
:100BA0008DF8020014208DF803008020ADF80000BD
:100BB000604C69462046FFF76BFF4020ADF800000F
:100BC00069462046FFF764FF13BDC8210846411E51
:100BD0000028FBD1704700EB40014903491C08463F
:100BE000411E0028FBD1704710B5534C8020A060F7
:100BF0004020A060FFF7E9FF20688020E060FFF759
:100C0000E4FF2068000601D5002010BD8020E060D0
:100C1000FFF7DBFF012010BD10B5484C402060609D
:100C2000FFF7D3FF80206060FFF7CFFF40202060F8
:100C3000FFF7CBFF80202060BDE81040C5E710B56E
:100C40003E4C40206060FFF7C0FF80206060FFF7EF
:100C5000BCFF40202060FFF7B8FF40206060BDE887
:100C60001040B2E710B5354C40206060FFF7ADFF93
:100C700080202060FFF7A9FF40202060FFF7A5FF3C
:100C800040206060BDE810409FE710B52A4C40202E
:100C9000E060FFF79AFF8020A060FFF796FF4020FA
:100CA000A060FFF792FF2068000603D54020E060B7
:100CB000002010BD4020E060012010BD70B5054649
:100CC00008261E4C0FE08020606005E04020606038
:100CD0002806F8D580202060FFF777FF40202060AD
:100CE000FFF773FF6D003046461EC0B20028EDD1FD
:100CF0004020606070BD70B5082500260E4C802035
:100D0000A0600DE076004020E060FFF75EFF40202D
:100D1000A060FFF75AFF2068000601D546F00106E3
:100D20002846451EC0B20028ECD14020E060304685
:100D3000C0B270BD000C0140080C0140100C014015
:100D4000FEB500220821684600F006FF00264B4D44
:100D50002A46082141F6F87001F0E4F8040025D194
:100D60003220FFF738FF761C3046C0B20228EFDD94
:100D700000266A4608214FF4F05001F0D3F807002E
:100D80001FD13220FFF727FF761C3046C0B2022861
:100D9000EFDD54EA070020D14AF6AA20288000207F
:100DA000688000F029F800F04CF8F7BD06212846CD
:100DB00001F08EF9E988884201D00024D8E70124A7
:100DC000D6E70621684601F083F9BDF8061088428F
:100DD00001D00027DDE70127DBE7002F02D100F07B
:100DE00030F8F7BD002C06D108226946284600F0ED
:100DF0000BFC00F001F8F7BD70B500241F4D204634
:100E0000E8800621284601F063F9E8802A46082197
:100E100041F6F87001F024F9060006D02A460821B0
:100E20004FF4F05001F01CF90646300007D1322093
:100E3000FFF7D1FE641C2046C0B20328E6DB304633
:100E400070BD70B500240D4D2046E880062128466F
:100E500001F03EF9E8802A4608214FF4F05001F0F5
:100E6000FFF8060007D13220FFF7B5FE641C2046CC
:100E7000C0B20328EFDB304670BD000094110020A3
:100E800078B585B0044600220421684600F064FE6F
:100E90000022102101A800F05FFE10208DF8030051
:100EA00003208DF80200414D284600F049FC4FF424
:100EB0008060ADF8000003208DF8020018208DF846
:100EC00003003B4E69463046FFF7E2FD10208DF8E7
:100ED00003000120ADF8000069463046FFF7D8FD59
:100EE000012070614FF40060ADF8000004208DF81F
:100EF000030069463046FFF7CBFD019400200290C5
:100F0000ADF80C00ADF810000C20ADF80E0001A9F2
:100F1000284600F062FC0121284600F0BBFC06B028
:100F200070BD80B527208DF8000001208DF80100EC
:100F300000208DF8020001208DF803006846FFF7BD
:100F400056FD01BD70B504460D46184E40F2A55140
:100F5000304600F0F6FC224640F22551304600F0C3
:100F6000A6FC2A4640F226613046BDE8704000F0FB
:100F70009EBC0E490A881206FCD588807047F8B5D9
:100F800005460E4600270B4C0120206003E0E85D7B
:100F9000FFF7EFFF7F1C30468742F8D303480088F5
:100FA0004006FBD501206060F1BD00000048004014
:100FB000000C0140100C014010B5044601F0FAF895
:100FC000014689B22046FFF7DAFF0D20FFF7D1FF77
:100FD0000A20BDE81040CCE780B54FF4E13000F0C6
:100FE00003FD00F056FD00210120BDE8044000F0A3
:100FF00061BDF8B504460D46164600224FF49671C1
:1010000000F0AAFD04F1590004F1FC0104F17C0296
:101010002B46012B67D1C823136002230B700123D9
:101020000370C823536002234B704370C82393603E
:1010300019238B700B238370C823D3600223CB70DA
:101040000C23C370C82313610A230B710D23037192
:10105000C82353610A234B711B234371C823936137
:101060000A238B7112238371C823D3612823CB7188
:101070000423C371C8231362B4230B7205230372C4
:10108000C8235362B4234B7206234372C82393626E
:101090000A238B72072383724FF44873D3620223AF
:1010A000CB720823C37240F6B833136302270F7361
:1010B00009270773536302234B732B234373C823FE
:1010C000936302238B732C238373C823D36302237C
:1010D000CB732D23C373C823136402220A742E21F9
:1010E000017411201AE04FF4FA63136001230B70AE
:1010F00010230370B423536001234B700323437008
:101100004FF4C873936001238B700F2383701423F3
:10111000D3600122CA700021C170042004F58E71D1
:1011200002224A800D710870482231462046BDE8EF
:10113000F84000F059BA000038B504460D4694F85E
:101140001D01204490F859002E2800F28380DFE82A
:1011500000F01818212143484D52575C81262A2F50
:1011600039816B813E668181818181818134818178
:101170008181818181818181818181818161737896
:101180007D009C488188006841619B488188006897
:1011900041615FE098488188006801615AE092A04F
:1011A00000F0CAFC56E00FF2DC2000F0C5FC51E074
:1011B0000FF2D82000F0C0FC4CE00FF2D82000F075
:1011C000BBFC47E00FF2D42000F0B6FC42E00FF287
:1011D000D82000F0B1FC3DE00FF2D42000F0ACFCD0
:1011E00038E00FF2D82000F0A7FC33E00FF2D8204F
:1011F00000F0A2FC2EE00FF2DC2000F09DFC29E0C4
:101200000FF2F02000F098FC24E00FF2F82000F03C
:1012100093FC1FE00FF2F82000F08EFC1AE00FF2B2
:10122000FC2000F089FC15E00A2000F060FC0FF2C1
:101230000C3000F081FC0DE00FF2103000F07CFC6F
:1012400008E00FF2243000F077FC03E00FF23830B2
:1012500000F072FCC4F8245131BD000070B50646A0
:101260000D46002496F81D01304490F85900001FE7
:101270002A2800F2B680DFE800F061697A161616B7
:101280008C16161FB4B416B41652B4B4B4B4B4B4B5
:10129000B435B4B4B4B4B4B4B4B4B4ADB4B4B4B494
:1012A000B444959DA50051A1284600F09EFF00285A
:1012B00000F09780012494E04CA1284600F095FFAF
:1012C000002800F08E804D4C04F5C0660F22A91C4A
:1012D000304600F089F904F5BE61304600F018FF91
:1012E00001247EE041A1284600F07FFF002800F0A5
:1012F00078801122A91C06F1480000F075F901243C
:101300006FE03AA1284600F070FF002869D0102253
:1013100005F111013A4800F067F9012461E033A1B9
:10132000284600F062FF00285BD000BF9EA128463F
:1013300000F05BFF002854D0012452E09CA1284615
:1013400000F053FF00284CD001244AE09AA128461F
:1013500000F04BFF002844D025A1284600F045FFAF
:101360004078312801D035283BD1012439E000BF35
:1013700093A1284600F039FF002832D01CA128464E
:1013800000F033FF4078312801D0352829D10124DD
:1013900027E000BF8CA1284600F027FF002820D0BE
:1013A00001241EE011A1284600F01FFF002818D0DC
:1013B000012416E00DA1284600F017FF002810D0E8
:1013C00001240EE009A1284600F00FFF002808D0F4
:1013D000012406E005A1284600F007FF002800D000
:1013E0000124204670BD0000415400004F4B000016
:1013F0002C00000088260008802600081400002029
:10140000F405002000F21D110A78024492F85900F8
:10141000032811D9001F0A2817D90B3801280BD926
:10142000C01E012811D909380FD00A3801280CD95B
:10143000801F042809D97047002082F8FC00087832
:10144000401C08700020C8727047C87A002805D177
:10145000002082F8FC000878401C087070470000EB
:1014600010B504465AA100F0C0FE002840F00680E6
:101470005AA1204600F0B9FE002801D0012010BD7D
:10148000002010BD415445300000000041542B475E
:10149000534E000041542B43494D490041542B43C6
:1014A000434C4B3F000000004154264431000000F3
:1014B00041542B4350494E3F0000000041542B4300
:1014C0005245473F0000000041542B4347524547D7
:1014D0003F00000041542B5149435347503D312CAC
:1014E000312C22434D4E4554222C22222C22222CD8
:1014F0003100000041542B514944454143543D3192
:101500000000000041542B51494143543D3100003B
:1015100041542B51494143543F00000041542B5149
:101520004E54503D312C223230322E3131322E3158
:10153000302E3336222C31323300000041542B51EF
:1015400049434C4F53453D310000000041542B515D
:10155000485454504346473D22636F6E7465787417
:101560006964222C3100000041542B5148545450DE
:101570004346473D227265717565737468656164A1
:101580006572222C3000000041542B5148545450B5
:101590004346473D22726573706F6E73656865617F
:1015A000646572222C310000514E5450000000003E
:1015B00052454144590000002B435245470000006A
:1015C0002B43475245470000434F4E4E454354007E
:1015D000636C6F7365640D0A0000000070647064D2
:1015E000656163740D0A000062B38B0708D0521E58
:1015F00011F8013B00F8013B00F024808B07F6D185
:10160000830740F0208000BF103A07D330B4B1E820
:101610003810103AA0E83810F9D230BC530724BF74
:10162000B1E80810A0E8081044BF51F8043B40F8A6
:10163000043BD20724BF31F8022B20F8022B44BF11
:101640000B7803707047121F17D35B0009D151F854
:10165000043B20F8023B1B0C121F20F8023BF6D281
:101660000BE051F8043B00F8013B1B0A20F8023B59
:101670001B0C121F00F8013BF3D238BF121D521E83
:1016800024BF11F8013B00F8013BF8D8704730B493
:10169000002513E050F8042BD30744BFA9F1010340
:1016A0009A18091F042942F8045BFAD213468C07E2
:1016B00044BF15809B1CC90748BF1D7050F8041B10
:1016C0000029E7D130BC70470901020002D4174855
:1016D00081547047164802F00F02104400F8041CB1
:1016E000704710B5401EB0F1807F01D3012010BDBE
:1016F000104C60600F214FF0FF30FFF7E5FF002036
:10170000A06007202060002010BD80B50420FFF7F6
:10171000A1F90948FFF7E5FF084800210160416091
:101720000F214FF0FF30BDE80440CDE700E400E0BA
:1017300018ED00E010E000E0C02709009C11002037
:1017400080B54F4988420BD101214FF48040FFF70B
:10175000EFF800214FF48040BDE80440FFF7E8B8FF
:10176000484988420BD101214FF40030FFF7EBF8D4
:1017700000214FF40030BDE80440FFF7E4B84249CF
:1017800088420BD101214FF48020FFF7DCF80021C3
:101790004FF48020BDE80440FFF7D5B83B498842AC
:1017A0000BD101214FF40020FFF7CDF800214FF4B9
:1017B0000020BDE80440FFF7C6B8354988420BD188
:1017C00001214FF48010FFF7BEF800214FF4801084
:1017D000BDE80440FFF7B7B801BD30B585B0044699
:1017E0000D46218A4CF6FF700140E88801432182B2
:1017F000A1894EF6F3100140A888014328890143CE
:1018000068890143A181A18A4FF6FF400140A88960
:101810000143A1826846FFF72AF81948844201D1A2
:10182000039900E002992A6819204143A089000425
:1018300003D55200B1FBF2F202E09200B1FBF2F2EA
:101840006420B2FBF0F109010B461B0900FB1322D7
:10185000A089000408D5D20032326420B2FBF0F037
:1018600000F00700014307E0120132326420B2FBAE
:10187000F0F000F00F000143218105B030BD000001
:10188000003801400044004000480040004C004047
:1018900000500040002904D0818941F40051818129
:1018A000704782894DF6FF710A408281704710B4FB
:1018B0000B46DBB25B09012401F01F0104FA01F1C0
:1018C000012B01D10C3004E0022B01D1103000E0DB
:1018D0001430002A026802D01143016002E022EABB
:1018E0000101016010BC70470246002012880A42C4
:1018F00000D001207047C9430180704730B40246D0
:1019000000200C46E4B26409012501F01F0305FA2A
:1019100003F3012C02D19489234006E0022C02D16A
:10192000148A234001E0948A2340090A05FA01F150
:1019300012881140002B02D0002900D0284630BC6C
:1019400070470122090A02FA01F189B2C9430180F4
:10195000704730B40EE00268436802440830DC0788
:1019600044BFA9F10104E31852F8045B43F8045B97
:10197000091FF9D150F8041B0029ECD130BC704785
:101980000300002013F0030F09D0521E22BF13F8EA
:10199000010B11F801CBB0EB0C00F3D0704711F044
:1019A000030F14D1121F22BF53F8040B51F804CBBC
:1019B0006045F7D0121D0AD200BA9CFA8CFCB0EB3D
:1019C0000C0038BF6FF0000088BF01207047521E26
:1019D00022BF13F8010B11F801CBB0EB0C00F6D0CD
:1019E000521C08BF1046704730B585B0054600222E
:1019F0000421684600F0B0F80022102101A800F090
:101A0000ABF810208DF8030003208DF802001020A1
:101A1000ADF80000444C69462046FFF739F8102025
:101A200060612020ADF8000069462046FFF730F8DD
:101A3000202020613D4C2046FFF782FE4FF480506D
:101A4000ADF8000003208DF8020018208DF8030087
:101A500069463748FFF71CF80420ADF800008DF800
:101A6000030069463348FFF713F801950020029000
:101A7000ADF80C00ADF810000C20ADF80E0001A977
:101A80002046FFF7AAFE01212046FFF703FF05B01D
:101A900030BD80B535208DF8000001208DF80100A3
:101AA00000208DF8020001208DF803006846FEF743
:101AB0009EFF01BD70B504460D461C4E40F22771D5
:101AC0003046FFF73EFF224640F225513046FFF7F1
:101AD000EEFE2A4640F226613046BDE87040FFF730
:101AE000E6BE12490A881206FCD588807047C0EB12
:101AF000C001C902491C0846411E0028FBD170479D
:101B000010B4002208E0094B1C882406FBD51446BB
:101B1000A4B2045D9C80521C13460C469BB2A342A7
:101B2000F1D310BC70470000000C01400050004091
:101B3000001001400014014010B5044600F03AFBCB
:101B4000014689B22046FFF7DBFF0D20FFF7C9FFF2
:101B50000A20BDE81040C4E762F30F2262F31F427F
:101B600000B500BF130096469446103928BFA0E880
:101B70000C50FAD85FEA417C28BF0CC048BF40F83F
:101B8000042BC90728BF20F8022B48BF00F8012BFF
:101B900000BD00002DE9F041ADF5107D04460D4675
:101BA0000022402180A8FFF7D7FF4FF400770022E2
:101BB00039466846FFF7D0FF6078204490F8280047
:101BC000012806D0022809D003280BD005286BD0A5
:101BD0006DE000BF98A0FFF7AFFF68E09BA0FFF7A4
:101BE000ABFF64E08E4E00223946301DFFF7B4FF94
:101BF000002239466846FFF7AFFF8A4F39466846EC
:101C000000F009FB95A100F006FB0FF20828414601
:101C1000684600F000FB844900F0FDFA4146684642
:101C200000F0F9FA8FA100F0F6FA8049684600F05A
:101C3000F2FA00F0BFFA0246921E6946301DFFF725
:101C4000E3FC0FF2D4184146301D00F0E4FA00BF67
:101C50008AA100F0E0FA07F12C01301D00F0DBFA58
:101C6000414600F0D8FA00BF88A1301D00F0D3FA39
:101C70008DA180A800F0CFFA301D00F09BFA3070E3
:101C8000301D00F097FA06F5017603230022314655
:101C900000F05EFA314680A800F0BDFAFFF78CF93B
:101CA00080A8FFF749FF02E083A0FFF745FFC4F8D3
:101CB000E8510DF5107DBDE8F081000038B50C4607
:101CC00000254178084490F82800401E04283BD89D
:101CD000DFE800F0031018272F0000BF7BA120468B
:101CE00000F083FA00282FD0012500BF79A0FFF76C
:101CF00023FF29E049A1204600F077FA002823D0ED
:101D0000012521E045A1204600F06FFA00281BD0F4
:101D10000125434C201DFFF74FF9201DFFF70CFF55
:101D200012E03EA1204600F060FA00280CD0012508
:101D30000AE000BF65A1204600F057FA002803D052
:101D400001252046FFF738F9284632BD4178421870
:101D500092F82810491E042908D88178002905D155
:101D6000002182F848114178491C417070470000F9
:101D7000F8B505460E461746002400BF5DA1304663
:101D800000F033FA002817D02948017800EB8101D0
:101D9000C822C1F86821012100F5A4720378D1544A
:101DA000052100F128020378D1540178491C017003
:101DB0004FF4807181802BE053A1304600F015FA7A
:101DC000002818D001241A48017800EB8101C822AC
:101DD000C1F86821214600F5A4720378D154052189
:101DE00000F128020378D1540178491C01704FF4A6
:101DF000807181800CE000BF46A1304600F0F5F90B
:101E0000002805D001243A463146281DFFF7ECFB97
:101E10002046F2BD2F0000000D0A00004F4B0000CD
:101E20000C0C002010250008140600208C11002046
:101E3000140E00207047000041542B514854545058
:101E400055524C3D32382C363030300041542B51F5
:101E5000485454504745543D3235000035393832E6
:101E600034330000636865636B3F747970653D319E
:101E70002676657273696F6E3D0000006175746847
:101E80006F72697A6174696F6E3A0000686F73747B
:101E90003A696F742D6170692E6865636C6F756443
:101EA000732E636F6D0D0A0041542B5148545450EA
:101EB0004745543D0000000041542B5148545450B4
:101EC000524541443D31383400000000434F4E4EEE
:101ED0004543540068747470733A2F2F696F742DE2
:101EE0006170692E6865636C6F7564732E636F6DC6
:101EF000000000002B51485454504745543A2030BC
:101F00002C323030000000002B51485454504745CB
:101F1000540000002B5148545450524541443A203B
:101F2000300000002DE9F04180460F46144601269E
:101F3000002538004DD0FEF757FE002800D12E4670
:101F4000300007D0A020FEF7B9FEFEF79EFE002865
:101F500000D12E46300006D04046000AFEF7AEFE05
:101F6000FEF793FE0646300006D04046C0B2FEF7AC
:101F7000A5FEFEF78AFE0646300004D0FEF734FECA
:101F8000002800D12E46300007D0A120FEF796FE93
:101F9000FEF77BFE002800D12E467F1E300007D1C1
:101FA00015E0FEF7A8FE04F80800FEF748FE6D1CD9
:101FB000A8461FFA88F82846394680B289B2884276
:101FC000EFD3FEF798FE04F80800FEF74BFEFEF78D
:101FD00023FE3046BDE8F0812DE9F04107460C466E
:101FE000904600250126200034D0FEF7FDFD002894
:101FF00000D12E46300007D0A020FEF75FFEFEF78E
:1020000044FE002800D12E46300006D03846000A93
:10201000FEF754FEFEF739FE0646300013D0384670
:10202000C0B2FEF74BFEFEF730FE06460BE0300076
:1020300008D0284680B218F80000FEF73FFEFEF7F1
:1020400024FE06466D1C2846214680B28842EED307
:10205000FEF7E2FD0520FEF7BEFD3046BDE8F0814B
:102060002DE9F04104460E461546002710F01F0FDB
:102070000ED004F01F00C0F12000374680B2874226
:1020800000D9074639462046FFF7A6FFF61B00E0B9
:102090000120010019D0314689B2002915D04FF036
:1020A0002008304680B2202800D2B046384680B2A0
:1020B0002A18414689B2381980B2FFF78DFFA6EB86
:1020C000080617FA88F70100E5D1BDE8F0810000A5
:1020D00030B4024600244FF6FF7000E0641C8C42CE
:1020E00012D2135D58400023082BF7D205466D101D
:1020F000C007284601D480B204E080F4044080F098
:10210000080080B25B1CEFE7C04380B230BC704770
:1021100070B504460D460020002C16D0204600F075
:1021200049F84FF6FE71084000210BE0074A635C56
:10213000D35C66187678925D42EA031205F8012BAB
:10214000891C89B28142F1DB400870BD4C22000835
:10215000F0B40446002901D1002028E09A1A18465C
:102160004D1E002818D00A26B4FBF6F6374607EBBA
:10217000870CA4EB4C0430342C543446461E1746CE
:10218000FFB2BE4204D130462E260746FFB2EE55BE
:10219000401EC0B2002CE4D11B1A30224C1E02E0BB
:1021A0002254401EC0B20028FAD11846C0B2F0BC7A
:1021B0007047000000F10103810704D010F8011BF3
:1021C000820781B1FAD10268A2F10131914311F085
:1021D000803104BF50F8042FF6E709BAB1FA81F153
:1021E00000EBD100401CC01A704770B50D462C782A
:1021F00034B970BD11F8013F1678B34206D0401CC7
:10220000214600F017F828B101462A4612F8013F8E
:10221000002BEFD170BD034600E05B1C1A78002A4A
:10222000FBD111F801CB83F800C013F8012B002A71
:10223000F7D17047C9B202788A421AB11CBF10F8B0
:10224000012FF9E718BF00207047000000000000D0
:10225000000000000000000000000000000000007E
:10226000000000000000000000000000000000006E
:102270000000000000000000000000000001020358
:10228000040506070809000000000000000A0B0C06
:102290000D0E0F0000000000000000000000000014
:1022A000000000000000000000000000000A0B0C0D
:1022B0000D0E0F00000000000000000000000000F4
:1022C000000000000000000000000000000000000E
:1022D00000000000000000000000000000000000FE
:1022E00000000000000000000000000000000000EE
:1022F00000000000000000000000000000000000DE
:1023000000000000000000000000000000000000CD
:1023100000000000000000000000000000000000BD
:1023200000000000000000000000000000000000AD
:10233000000000000000000000000000000000009D
:10234000000000000000000000000000364908689E
:1023500040F0010008604A68344802404A600A6858
:10236000334802400A60086820F48020086048680A
:1023700020F4FE0048604FF41F00886000E0000079
:1023800000BF82B00020009001902749086840F407
:10239000803008604FF6FF72086800F4003001904A
:1023A0000098401C00900198002802D100989042AB
:1023B000F2D10868400C00F001000190019801285A
:1023C00030D11C48026842F0100202600268920894
:1023D00092000260026842F00202026048684860AF
:1023E00048684860486840F480604860486820F465
:1023F0007C104860486840F4E8104860086840F085
:102400008070086008688001FCD5486880088000FA
:102410004860486840F002004860486800F00C00DE
:102420000828FAD102B07047001002400000FFF8FF
:10243000FFFFF6FE002002407047FEE7FEE7FEE7E2
:10244000FEE77047704770472B4A1068401C1060C9
:1024500010681521B0FBF1F301FB1300002804D133
:102460002648016841F002010160106840F2F51150
:10247000B0FBF1F201FB1200002804D11F480168F3
:1024800041F0805101601E480178090608D5D0F856
:10249000E415491DC0F8E415322901D30521017066
:1024A000704710B5174C40F225512046FFF726FA29
:1024B00000281AD01449A088087011480978428869
:1024C000024491714188491C418089B240F2DC523A
:1024D000914204DA017841F08001017001E00621A7
:1024E00001700021C0F8E41500E0A088208800F405
:1024F0007C40208010BD00009C1100207411002041
:102500002406002000500040A41100207047000065
:102510004745542068747470733A2F2F696F742D77
:102520006170692E6865636C6F7564732E636F6D7F
:102530002F667573652D6F74612F00007665727359
:10254000696F6E3D323032322D30352D303126728A
:1025500065733D7573657269642532463333323174
:1025600038362665743D32353939383831323430B1
:10257000266D6574686F643D6D6435267369676E9A
:102580003D71544A59307A704938347951696862DA
:1025900042545A676977412533442533440000008B
:1025A00010B5074979441831064C7C44163404E0D0
:1025B0000A68081D114488470146A142F8D110BDA0
:1025C0000800000028000000C7F0FFFF9411000081
:1025D00014000020000000007BF3FFFF1400000047
:1025E00070000000000000200000000000F00DF866
:1025F000002801D0FFF7D4FFAFF300800020AFF335
:10260000008000F004F800F010F80120704780B559
:10261000FDF7FDFDFDF74DFEFDF77EFEFDF79BFE90
:10262000FDF7E0FEFDF796FFF4E700F001B80000CB
:102630000746384600F002F8FBE7000080B5AFF32C
:102640000080024A11001820ABBEFBE72600020002
:102650000000000001020304010203040607080948
:102660000204060801488047014800474D2300083E
:1026700075260008AFF30080AFF30080FFF7B6FFC8
:10268000000C014010000000000C01402000000080
:10269000FFF7FEBFFFF7FEBFFFF7FEBFFFF7FEBF6E
:1026A000FFF7FEBFFFF7FEBFFFF7FEBFFFF7FEBF5E
:1026B000FFF7FEBFFFF7FEBFFFF7FEBFFFF7FEBF4E
:1026C000FFF7FEBFFFF7FEBFFFF7FEBFFFF7FEBF3E
:1026D000FFF7FEBFFFF7FEBFFFF7FEBFFFF7FEBF2E
:1026E000FFF7FEBFFFF7FEBFFFF7FEBFFFF7FEBF1E
:1026F000FFF7FEBFFFF7FEBFFFF7FEBFFFF7FEBF0E
:10270000FFF7FEBFFFF7FEBFFFF7FEBFFFF7FEBFFD
:10271000FFF7FEBFFFF7FEBFFFF7FEBFFFF7FEBFED
:10272000FFF7FEBFFFF7FEBFFFF7FEBFFFF7FEBFDD
:10273000FFF7FEBFFFF7FEBFFFF7FEBFFFF7FEBFCD
:10274000FFF7FEBFFFF7FEBFFFF7FEBFFFF7FEBFBD
:10275000FFF7FEBFFFF7FEBFFFF7FEBFFFF7FEBFAD
:10276000FFF7FEBFFFF7FEBFFFF7FEBFFFF7FEBF9D
:08277000FFF7FEBFFFF7FEBFFB
:040000050800267554
:00000001FF
