:020000040800F2
:10000000705A0020853C0008C1370008C33700083B
:10001000C5370008C7370008C937000800000000CE
:10002000000000000000000000000000CB370008C6
:10003000CD37000800000000CF370008D137000896
:10004000B93C0008BD3C0008C13C0008C53C0008A4
:10005000C93C0008CD3C0008D13C0008D53C000854
:10006000D93C0008DD3C0008E13C0008B538000838
:10007000E53C0008E93C0008ED3C0008F13C0008C4
:10008000F53C0008F93C0008FD3C0008013D000873
:10009000053D0008093D00080D3D0008113D000820
:1000A000153D0008193D00081D3D0008213D0008D0
:1000B000253D0008293D00082D3D0008313D000880
:1000C000353D0008393D00083D3D0008413D000830
:1000D000453D0008493D00084D3D0008513D0008E0
:1000E000553D0008593D00085D3D0008613D000890
:1000F000653D0008693D00086D3D0008713D000840
:10010000753D0008793D00087D3D0008813D0008EF
:100110006538000813380008853D0008893D00084F
:100120008D3D0008913D0008953D0008993D00086F
:1001300000EB40014903491C0846411E0028FBD141
:10014000704780B500F0FCFD4FF4803000F011FEE8
:1001500000F029FE01282BD1002000F054FE0020E1
:1001600000F05FFE4FF4806000F054FE4FF440401A
:1001700000F062FE002000F05CFE022000F00AFFAA
:10018000102000F00FFF4FF400114FF4803000F00A
:1001900023FE012000F028FE392000F0CBFE0028CD
:1001A000FAD0022000F023FE00F028FE0828FBD140
:1001B00001BD10B5044621463D2000F08FFE2146CA
:1001C0004FF4E210BDE8104000F093BE80B500216E
:1001D0004FF0006000F0D2FF4FF4A060BDE8024095
:1001E00000F09ABF1CB50121DFF8D40A01F038F8FD
:1001F00010208DF8030003208DF802000220ADF8D6
:100200000000DFF8C04A6946204600F0DBFF082006
:10021000ADF800006946204600F0D4FF13BD38B5A4
:10022000FFF78FFFFFF7D2FF0120FFF7C2FF72B683
:10023000FFF7D8FFDFF8904A0220206001F048F86D
:1002400001F018F901F0E4F901F064FA4FF4E1303B
:1002500001F0A2FB012001F0F5FB0021012001F0DB
:1002600006FCDFF8680A808845F2555188420CD0B8
:1002700001F044FCDFF8585ADFF8582A01212846DB
:1002800001F049FC0220A5F81E0101F0B8FF022090
:10029000606062B631BDDFF8400A81688A0712D516
:1002A00021F0020181604169491C4161DFF8180AAF
:1002B000C90704D50221416008214160704702212D
:1002C000016008210160704710B572B602461468DB
:1002D000DFF8043ADFF8041A0C40B4F1005F09D1EA
:1002E000001D0068D8619861106880F308889869DB
:1002F000804705E0012098600020DFF8E4190860DD
:1003000062B610BDF8B5DFF8DC49DFF8DC5907212B
:10031000284602F063F8002818D00721284602F08A
:1003200064F80021084601F0A2FB002240F61441C7
:10033000204602F09FF84FF4E13001F02DFB012040
:1003400001F080FB0021012001F091FBDFF88869BA
:10035000B068800440F1A080DFF8907938780528F3
:1003600001D0062808D1384602F022F9002240F6D2
:100370000C01384602F07EF804F60C45A8790028F6
:1003800030D104F50067DFF8440939898278914259
:1003900020D200213980F98029602971DFF84019C5
:1003A000096831614078401EB88004F60A024FF4B3
:1003B000806180B2401E800201F0A0FA0420287102
:1003C0003989491C89B2204602F06BF93880012036
:1003D000A871F1BDB16821F40051B16048F68801FF
:1003E0008180F1BD012814D1002240F60C0138466D
:1003F00002F040F804F500663188204601F057FB12
:1004000000203080DFF8D808006828600320A87139
:10041000F1BD03280AD1286800F57A70DFF8C0180A
:100420000968884238D28420A871F1BD010633D50D
:1004300000F07F00A871042810D10020A87168790D
:100440000146062907DB04F500600189491C01818A
:1004500000206871F1BD401C6871F1BD04F50066B3
:100460002879022808D104F60A024FF48061F08846
:10047000801E800201F042FA3946204602F018F848
:10048000002068713088401E8041C043C00FA871B1
:100490000A20BDE8F2404BE6F1BD70B5DFF82C480C
:1004A000A088DFF83458296A0246914266D045F2A6
:1004B0005551884203D047F27772904202D1012011
:1004C000A86057E041F21116B04203D04AF6AA22C2
:1004D000904208D1A86840F08040A8600120DFF871
:1004E0001018C87046E043F23332904204D1A86835
:1004F00040F48050A8603DE044F24442904217D15D
:10050000A86840F48050A8602278012A08D140F001
:100510000040A860DFF8DC07E86000F04DFD29E04E
:10052000022A03D140F40050A86023E0A18021E01A
:1005300048F6880188421DD1162204F11E0104F1FB
:10054000080002F089F900202080A68001F011F84F
:10055000DFF8A4078188006841610820DFF89C1754
:1005600008604FF4FA70FFF7E3FDDFF89407DFF857
:1005700094170860A088286200F0FBFFA868C107F4
:1005800007D5DFF85C170968292902D340F08000FD
:10059000A860287A000613D50220DFF860170860EB
:1005A000A86820F08000A86000F04AF8002804D075
:1005B000DFF84007FFF788FE02E04AF6AA20A08095
:1005C000A868C10412D520F48050A86002F058FC3D
:1005D000002808D02078012801D0022806D144F252
:1005E0004440A08002E047F27770A080286900F5BF
:1005F000EA30C030DFF8E816096888421FD21622B8
:1006000004F11E0104F1080002F026F90020208008
:1006100041F21110A08000F0ACFFDFF8DC06818809
:10062000006841610820DFF8D41608604FF4FA70C2
:10063000FFF77EFDDFF8C806DFF8C816086070BD5A
:1006400038B50024DFF8C05606220FF2E0612846D4
:1006500002F0CCFC002812D1062100E0491C08461B
:10066000C0B2322807DA15F8010BA0F12002602A87
:10067000F4D30028F2D0C9B2322900D101242000DD
:1006800009D108220FF2AC61DFF8800602F0AEFC5F
:10069000002800D10124204632BDF8B5DFF83846E5
:1006A000A068400500F1C180DFF82006808845F28F
:1006B0005551884200F0B980DFF85456072128468A
:1006C00001F08CFE00280DD00721284601F08DFE98
:1006D0004FF4E13002F0BEFC02F011FD00210120D8
:1006E00002F01EFDDFF8E86506F58E75DFF824766A
:1006F0003878052801D006281AD1A878400717D5E0
:100700007A88D2B2B91D304601F06AFB00280AD0BF
:100710000020287308206880002240F60C0138462B
:1007200001F0A8FE04E0802038700020C7F8080817
:100730006988880715D54FF6FD7001406980687893
:10074000297888420DD2002240F60C01384601F08B
:1007500091FEDFF88C050168304601F097FA2420FD
:100760006880A87880061FD56978AA6806EB8100A2
:10077000C06F8218DFF868050068824214D206F163
:10078000FC00425C521E42546978405C002809D14A
:1007900069884FF6DF700140698008206880022078
:1007A000287301E002206880698808073DD54FF66C
:1007B000F77001406980304601F0DEFB287B00289D
:1007C00020D1022068806878297888422DD1A168DC
:1007D00021F08051A1602879012809D1402068804A
:1007E00041F48061A1608020DFF82C150870F1BD14
:1007F00000281AD1DFF800058188006841610120D6
:100800006880F1BD2879012808D1DFF8C8240021CB
:10081000304601F080F902206880F1BD0120688037
:10082000DFF8D404818800684161F1BDF8B5DFF8D4
:10083000A854A868400540F1D380DFF8D4440721CC
:10084000204601F0CBFD00280DD00721204601F005
:10085000CCFD4FF4E13002F0FDFB02F050FC002132
:10086000012002F05DFCDFF8AC643078DFF8AC44C6
:10087000052801D0062831D12079400714D5B11DB3
:10088000204602F045F9002804D00020A07008207E
:10089000A08006E00120A070802030700020C6F803
:1008A00008086078401C6070B01D01F095FB0028BE
:1008B0000ED0DFF81C74DFF81C240021384601F04C
:1008C0002AF90220A7F81E01A86820F48060A86019
:1008D000002240F60C01304601F0CCFDA188DFF883
:1008E0001054880718D54FF6FD700140A18060783C
:1008F0002178884210D2002240F60C01304601F0E7
:10090000B9FDDFF8DC030168204602F002F8A8799F
:10091000401CA8710520A0802079C00721D56178EE
:10092000D4F8E82104EB8100D0F868018218DFF8E0
:10093000B0030068824214D204F24710425C521E97
:1009400042546178405C002809D1A1884FF6FE70BE
:100950000140A1800820A0800220A07001E00220B8
:10096000A080A188080725D54FF6F7700140A18027
:10097000204602F047F9E878032815D1A07800282E
:1009800012D1284602F0EEF900280BD028796979B7
:10099000884202D30520E87006E00221E970401C7D
:1009A000287101E00420E87060782178884201D342
:1009B00000202080A879142812DD0120DFF8101310
:1009C000A1F81E01DFF830038188006841614FF40F
:1009D000FA70FFF7ADFBDFF82803DFF82813086093
:1009E000F1BD30B4DFF83803BB498A680240824267
:1009F00077D1087802460A2A64DB00200870BC48D8
:100A0000C278012A19D14878401C4870C34800F5C3
:100A1000B4720378C82442F82340012200F5A4737D
:100A200004781A55032200F1280304781A55027835
:100A3000521C02700222828046E0022A01D0032A60
:100A40001FD10822A04B1A600322C270A44800687C
:100A50000861B24800F5B47203784FF4C87442F8E4
:100A60002340012200F5A47304781A55042200F1F2
:100A7000280304781A550278521C027002228280E0
:100A800022E0042A0AD14878401C48709448006843
:100A900008614AF6AA208D4A908015E0052A0ED1F9
:100AA0000820894A50608E4800680861886820F0F4
:100AB0008040886043F23330844A908004E0012211
:100AC000C27001E0401C087048780A2805DB00204D
:100AD000487047F277707D4A9080886820F4006003
:100AE00088608A6802F40440B0F5044F4FD1804B0F
:100AF00003F61F046078002845D02078002842D0F3
:100B0000A07800283FD0E07800283CD010053ED5E2
:100B1000887804460A2C27DB00208870D8780528BE
:100B200001D0002819D1C878401CC8707B4800F556
:100B3000B4730478C82543F82450012300F5A47445
:100B400005786355062300F128040578635503787A
:100B50005B1C03700223838008E0072806D145F25E
:100B600055505A4B988001E0401C8870C8780A287C
:100B700005DB0020C87045F25550544B988022F494
:100B800000628A6003E041F211105049888030BC55
:100B90007047F8B5504CA068002840F190804B4D4C
:100BA0002978012940F08B80410440F1888020F4AD
:100BB0008040A060207902287BD1002020714C4920
:100BC000887800282BD14B4A607902EB802072D3C1
:100BD000E26882426FD108223B4B1A6000F58062C6
:100BE000E2606A784F4B03EB8223834211D301F01A
:100BF00010FE002806D06079401C607138480068FB
:100C0000206137E000206071E0604AF6AA20A880E9
:100C100030E000206071E060012088704BE0012826
:100C200049D162791046800232490E188E4242D371
:100C30003D4F6978914221D30821234A11603A46F9
:100C40004FF4806100F05AFE002813D04FF4806208
:100C50003946304601F0E6FD002806D06079401C98
:100C600060711F480068206104E0002060714AF64E
:100C7000AA20A8800820144948601CE000F0A5F9CB
:100C80007878397841EA00211A4802F09BFAF9781D
:100C9000BA7842EA0122824203D148F68800A8804D
:100CA00002E04AF6AA20A880A06820F00040A060D8
:100CB00001E0401C2071A06820F48040A060F1BDDC
:100CC00000023000000C0140100C014004480020DC
:100CD00090460020BC4700203C4800200000FE2F2A
:100CE00060480020480E0020004C00406822002090
:100CF0001400002000400008A03C0008140C014033
:100D00000400FA050CED00E00050000880500008D7
:100D1000005000405C1A002080320020A4440020D3
:100D2000000C004000440008A43C0020534D353026
:100D3000303100004744333232333032000000009B
:100D40008549086840F0010008604A68834802400D
:100D50004A600A68824802400A60086820F48020DD
:100D60000860486820F4FE0048604FF41F00886067
:100D7000704779490A6822F480320A600A6822F4CE
:100D800080220A60B0F5803F03D0B0F5802F05D0F7
:100D90007047086840F4803008607047086840F485
:100DA000A020086070471CB5002000900446312048
:100DB00000F0C0F80099491C009100994FF6FF72AD
:100DC000914201D00028F2D0312000F0B3F8002881
:100DD00000D00124204616BD624A136823F47C1318
:100DE00018430843106070475F49086070475D49C9
:100DF0000A68920850EA8200086070475948006803
:100E000000F00C00704757490A6822F0F0021043C6
:100E10000860704753490A6822F4E0621043086092
:100E2000704750490A6822F4605242EAC0020A60E0
:100E300070474E49086070474A490A6822F44042A8
:100E400010430860704710B4464A116801F00C0165
:100E5000042902D0082903D01BE0454901601AE0AB
:100E6000136803F47013116801F480319B0C9B1C10
:100E7000002903D13F494B4303600CE0116889030B
:100E800003D53D494B43036005E039494B430360BB
:100E900001E03A490160116801F0F001384B09099D
:100EA000595C0468CC404460116801F4E061090AAF
:100EB000595CCC408460116801F46051C90A595CE6
:100EC0004468CC40C460116801F4404103EB9131A7
:100ED000097CB4FBF1F1016110BC7047294A00297B
:100EE000116802D008431060704721EA00001060CA
:100EF0007047254A0029116802D0084310607047E6
:100F000021EA000010607047204A0029116802D0D1
:100F100008431060704721EA0000106070471C4AC7
:100F20000029116802D008431060704721EA0000D0
:100F30001060704701464009074A012801D1106836
:100F400004E0022801D1106A00E0506A01F01F019C
:100F5000C84000F001007047001002400000FFF898
:100F6000FFFFF6FE0410024060004242D8004242F9
:100F7000001BB70000093D00808D5B0000127A0065
:100F800000000020181002401C1002400C1002400B
:100F900010100240DFF80C110A6802F0380210430A
:100FA00008607047DFF8FC100A6822F010020A603F
:100FB0000A68104308607047DFF8EC00DFF8EC10B7
:100FC0000160DFF8EC1001607047DFF8E8000168AD
:100FD00041F080010160704738B504464FF0FF30A2
:100FE00000F06CF80146042916D1DFF8C8502868D3
:100FF00040F0020028606C60286840F040002860E3
:101000004FF0FF3000F05AF80146052904D02A6855
:1010100041F6FD710A402A6032BD7CB504460D469A
:10102000002000904FF0FF3000F048F801460429FE
:1010300025D1204E306840F00100306025804FF00F
:10104000FF3000F03BF80146042911D1A41C0094A4
:101050002D0C009805804FF0FF3000F02FF801466E
:1010600005290CD0326841F6FE710A40326076BD27
:10107000052904D0326841F6FE710A40326076BD1F
:1010800004200D490A68D20701D5012070470A687B
:10109000520701D5022070470968C90600D5032010
:1010A00070470000002002400420024023016745F1
:1010B000AB89EFCD102002400C20024010B5044651
:1010C000FFF7DEFF02E0FFF7DBFF641E01460129A8
:1010D00001D1002CF7D1002C00D1052010BD30B477
:1010E000002513E050F8042BD30744BFA9F10103F6
:1010F0009A18091F042942F8045BFAD213468C0798
:1011000044BF15809B1CC90748BF1D7050F8041BC5
:101110000029E7D130BC70472249084322490860C2
:10112000704770B403781C460122C17800291BD097
:101130001D490B6803F4E063C3F5E0631B0A4578BF
:10114000C3F104018D4081780F26DE4031400D430C
:101150002D0116490D55017801F01F0082401448F9
:10116000491140F8212007E003F01F0302FA03F3BE
:101170001048641140F8243070BC70470E4A11408A
:1011800008430E49086070470D490428086803D1D8
:1011900040F004000860704720F0040008607047C9
:1011A000000000000000FA050CED00E000E400E0A3
:1011B00000E100E080E100E080FFFF1F08ED00E0BB
:1011C00010E000E0F0B40024CA78134603F00F03E7
:1011D000D20601D58A7813430A88D2B2002A1AD0DF
:1011E000026815E0482D12D1066110E00126A640E4
:1011F0000D883540B5420AD1A5000F27AF40BA434C
:1012000003FA05F52A43CD78282DEBD14661641CFD
:10121000082CEBD302600A88B2F5807F1EDB44689D
:10122000002218E0012602F1080506FA05F50E88ED
:101230002E40AE420ED196000F27B740BC4303FAB2
:1012400006F63443CE78282E00D14561CE78482E5C
:1012500000D10561521C082AE4D34460F0BC7047F9
:1012600070B41A4A002801D5936900E01368C0F3EE
:10127000034485B200F44016B6F5401F06D123F0B2
:101280007063146824F07064146010E0C60206D520
:10129000032606FA04F4A34343F0706307E0044610
:1012A000640D240105FA04F4A34343F0706300299C
:1012B00004D00146490D09018D402B43002801D57A
:1012C000936100E0136070BC7047000004000140AF
:1012D0001CB503208DF8020014208DF80300802037
:1012E000ADF80000604C69462046FFF76BFF4020D8
:1012F000ADF8000069462046FFF764FF13BDC82122
:101300000846411E0028FBD1704700EB400149030D
:10131000491C0846411E0028FBD1704710B5534CAC
:101320008020A0604020A060FFF7E9FF20688020B7
:10133000E060FFF7E4FF2068000601D5002010BD43
:101340008020E060FFF7DBFF012010BD10B5484CA6
:1013500040206060FFF7D3FF80206060FFF7CFFF81
:1013600040202060FFF7CBFF80202060BDE81040C8
:10137000C5E710B53E4C40206060FFF7C0FF8020FD
:101380006060FFF7BCFF40202060FFF7B8FF4020FF
:101390006060BDE81040B2E710B5354C4020606099
:1013A000FFF7ADFF80202060FFF7A9FF40202060FD
:1013B000FFF7A5FF40206060BDE810409FE710B533
:1013C0002A4C4020E060FFF79AFF8020A060FFF7E2
:1013D00096FF4020A060FFF792FF2068000603D52B
:1013E0004020E060002010BD4020E060012010BDE2
:1013F00070B5054608261E4C0FE08020606005E0B1
:10140000402060602806F8D580202060FFF777FF35
:1014100040202060FFF773FF6D003046461EC0B2CB
:101420000028EDD14020606070BD70B50825002611
:101430000E4C8020A0600DE076004020E060FFF7B9
:101440005EFF4020A060FFF75AFF2068000601D52C
:1014500046F001062846451EC0B20028ECD14020C7
:10146000E0603046C0B270BD000C0140080C014085
:10147000100C0140F8B58EB000223621684600F00D
:10148000F9FF00255B4E3246362141F6CA7001F065
:101490008BFF040036D13220FFF737FF6D1C284642
:1014A000C0B20328EFDB00276A4636214FF4F05024
:1014B00001F07AFF050030D13220FFF726FF7F1CB4
:1014C0003846C0B20328EFDB54EA050005D0307A75
:1014D00000282ED1707A00282BD1002236213046E8
:1014E00000F0C8FF0120F0804AF6AA20B080162242
:1014F00041A106F1080001F0BFF900F03AF800F050
:101500005DF824E03421304601F05CFEB18E884263
:1015100001D00024C7E70124C5E73421684601F063
:1015200051FEBDF83410884201D00025CCE70125DA
:10153000CAE7002D02D100F041F808E0002C06D1E6
:1015400036226946304601F097F900F012F8307AF9
:1015500000280CD1707A002809D1162226A106F1A4
:10156000080001F089F900F004F800F027F80FB046
:10157000F0BD70B500241F4D2046A88634212846B2
:1015800001F020FEA8862A46362141F6CA7001F0F5
:10159000A9FF060006D02A4636214FF4F05001F08C
:1015A000A1FF0646300007D13220FFF7AEFE641CD3
:1015B0002046C0B20328E6DB304670BD70B500247B
:1015C0000C4D2046A8863421284601F0FBFDA88654
:1015D0002A4636214FF4F05001F084FF060007D16F
:1015E0003220FFF792FE641C2046C0B20328EFDBD6
:1015F000304670BD04480020534D353030315F30E7
:10160000303030303030305F464646460000000013
:1016100038B586B00022122101A800F02BFF00226D
:101620000421684600F026FF03208DF802001020F8
:101630008DF803004FF480542046ADF800002D4D86
:1016400069462846FFF7BEFD2C616C612C614FF4A2
:101650006040ADF8000018208DF803006946284668
:10166000FFF7B0FD244C0021204601F08FFF002041
:10167000ADF804004FF48270ADF80600002002902F
:10168000ADF80C004FF40070ADF80E001020ADF86E
:1016900010000020ADF812000720ADF8140001A9D9
:1016A000204601F057FF0121204601F06FFF07B0EF
:1016B00030BD38B50446104D0121284601F077FFB2
:1016C000012802D1284601F070FF0221284601F0CE
:1016D0006EFF0028F9D02146284601F064FF012161
:1016E000284601F064FF0028F9D0284601F05DFF8C
:1016F000C0B232BD000C01400038004005E04FF49C
:10170000907211464A1E0029FBD10146481E00294D
:10171000F5D1704738B59F48848805686C6104200E
:10172000FFF7C7FF2C6131BD2DE9F047044688461D
:1017300015464FF00009CA469648868807687E61BC
:101740000520FFF7B6FF0A20FFF7D8FF0AF1010ACC
:10175000FF20FFF7AEFF810703D5514689B2C829A4
:10176000F1DB3E6180073ED47E610620FFF7A1FFDA
:101770003E610A20FFF7C2FFCA467E610520FFF7DF
:1017800098FF0A20FFF7BAFF0AF1010AFF20FFF7CE
:1017900090FF810703D4514689B2C829F1DB3E612D
:1017A000800720D57E610220FFF783FF2046000CD2
:1017B000C0B2FFF77EFF2046000AC0B2FFF779FFF4
:1017C0002046C0B2FFF775FF06E0484680B2285CAD
:1017D000FFF76FFF09F10109484680B24045F4D395
:1017E0003E614FF001094846BDE8F0872DE9F04120
:1017F00004460D4616460027E0050FD02746C7F3DE
:101800000807C7F58077BFB22846B84200DA074616
:1018100039462046FFF788FFED1B00E0012001005C
:1018200016D0294689B2002912D04FF48078284674
:1018300080B2B0F5807F00DA8046F219414638194F
:10184000FFF772FFA5EB08054744BFB20100E8D1DE
:10185000BDE8F0812DE9F04104460025A8464D4839
:10186000868807687E610520FFF723FF0A20FFF7BF
:1018700045FF08F10108FF20FFF71BFF810703D593
:10188000414689B2C829F1DB3E61800733D47E61CD
:101890000620FFF70EFF3E610A20FFF72FFFA84644
:1018A0007E610520FFF705FF0A20FFF727FF08F1FB
:1018B0000108FF20FFF7FDFE810703D4414689B2EE
:1018C000C829F1DB3E61800715D5A40CA4047E6114
:1018D000D820FFF7EEFE2046000CC0B2FFF7E9FE6D
:1018E0002046000AC0B2FFF7E4FE2046C0B2FFF770
:1018F000E0FE3E6101252846BDE8F0812DE9F84F64
:1019000004460D4616460027B846BB462148B0F8A7
:101910000490D0F800A0CAF814900520FFF7C9FE83
:101920000A20FFF7EBFE0BF1010BFF20FFF7C1FED2
:10193000810703D5594689B2C829F1DBCAF810904E
:1019400010F0030F23D1CAF814900320FFF7B1FE63
:101950002046000CC0B2FFF7ACFE2046000AC0B221
:10196000FFF7A7FE2046C0B2FFF7A3FE06E0FF2068
:10197000FFF79FFE394689B270547F1C38462946CE
:1019800080B28842F3D3CAF810904FF00108404665
:10199000BDE8F28FB03C000878B585B0054600225E
:1019A0000421684600F066FD0022102101A800F025
:1019B00061FD10208DF8030003208DF802004FF424
:1019C00080742046ADF80000484E69463046FFF767
:1019D000F9FB7461464C204600F02CFC4FF480600B
:1019E000ADF8000003208DF8020018208DF80300E8
:1019F000404E69463046FFF7E5FB4FF40060ADF816
:101A0000000048208DF8030069463046FFF7DAFBF6
:101A1000019500200290ADF80C00ADF810000C20EC
:101A2000ADF80E0001A9204600F051FC012120462E
:101A300000F0AAFC012240F22441204600F0B1FC53
:101A400006B070BD1CB5044600220421684600F0B3
:101A500011FD34208DF8000000208DF801008DF874
:101A600002008DF803406846FFF75BFB13BD70B5BD
:101A700004460D461E4E40F2A551304600F0DBFCF8
:101A8000224640F22551304600F08BFC2A4640F2B7
:101A900026613046BDE8704000F083BC00EB400199
:101AA0004903491C0846411E0028FBD170472DE917
:101AB000F04104460D4600260F4F4FF48078C7F8DA
:101AC00000800120FFF7EAFF094805E0A15D818061
:101AD00001880906FCD5761CAE42F7D30120FFF73A
:101AE000DDFFC7F80480BDE8F0810000000C014074
:101AF000004C004000100140100C014080B54FF434
:101B0000E13001F0A7FA01F0FAFA00210120BDE866
:101B1000044001F005BBF8B504460D461646002208
:101B20004FF4967100F0A6FC04F1590004F1FC0199
:101B300004F17C022B46012B40F08080C823136007
:101B400002230B7001230370C823536002234B70E0
:101B50004370C823936019238B700B238370C823B1
:101B6000D3600223CB700C23C370C82313610A23F4
:101B70000B710D230371C82353610A234B711B237F
:101B80004371C82393610A238B7112238371C82385
:101B9000D3612823CB710423C371C8231362B423F8
:101BA0000B7205230372C8235362B4234B720623BE
:101BB0004372C82393620A238B72072383724FF404
:101BC0004873D3620223CB720823C37240F6B83342
:101BD000136302270F7309270773536302234B73A1
:101BE0002B234373C823936302238B732C238373A8
:101BF000C823D3630223CB732D23C373C823136479
:101C000002230B7430230374C823536402234B74E0
:101C10002E234374C823936402238B74322383746A
:101C2000C823D3640223CB743323C374C82313653E
:101C300002220A750A21017515201AE04FF4FA6391
:101C4000136001230B7010230370B423536001232E
:101C50004B70032343704FF4C873936001238B7060
:101C60000F2383701423D3600122CA700021C17036
:101C7000042004F58E7102224A800D7108704822FA
:101C800031462046BDE8F84000F0E6BD38B50446D0
:101C90000D4694F81D01204490F85900332800F2B5
:101CA0009C80DFE800F01A1A2323454A4F54595EFE
:101CB00092282C313B9A719A406C9A9A9A9A9A9AE5
:101CC0009A369A9A9A9A9A9A9A9A689A9A9A9A9A0A
:101CD0009A63797E889A839A8D96A1488188006854
:101CE0004161A04881880068416176E09D48818813
:101CF0000068016171E097A001F054FA6DE00FF205
:101D0000FC2001F04FFA68E00FF2F82001F04AFAE7
:101D100063E00FF2F82001F045FA5EE00FF2F420E4
:101D200001F040FA59E00FF2F82001F03BFA54E0DC
:101D30000FF2F42001F036FA4FE00FF2F82001F034
:101D400031FA4AE00FF2F82001F02CFA45E00FF2E8
:101D5000FC2001F027FA40E00FF2103001F022FAE7
:101D60003BE00FF2183001F01DFA36E00FF21830A8
:101D700001F018FA31E07C4801F014FA2DE00FF27E
:101D8000143001F00FFA28E00A2001F0E6F90FF212
:101D9000243001F007FA20E00FF2283001F002FAB7
:101DA0001BE00FF23C3001F0FDF916E00FF250306D
:101DB00001F0F8F911E00FF2643001F0F3F90CE0F2
:101DC0000FF2783001F0EEF907E0684801F0EAF927
:101DD00003E00FF27C3001F0E5F9C4F8245131BD85
:101DE00070B506460D46002496F81D01304490F863
:101DF0005900001F2F2800F2AA80DFE800F0616977
:101E00007A1818188C181821A8A818A81853A8A868
:101E1000A8A8A8A8A837A8A8A8A8A8A8A8A89595D9
:101E2000A8A8A8A8A845959595A895A89D954AA164
:101E3000284601F0C3FB002800F08980012486E0D9
:101E400045A1284601F0BAFB002800F08080484CEC
:101E500004F5C0660F22A91C304600F0FDFC04F515
:101E6000BE61304601F0CEF9012470E03AA1284667
:101E700001F0A4FB00286AD01122A91C06F1480039
:101E800000F0EAFC012462E033A1284601F096FB51
:101E900000285CD0102205F11101364800F0DCFC6E
:101EA000012454E02CA1284601F088FB00284ED0E4
:101EB000ABA1284601F082FB002848D0012446E06F
:101EC000A9A1284601F07AFB002840D001243EE079
:101ED000A7A1284601F072FB002838D01FA1284690
:101EE00001F06CFB4078312801D035282FD1012436
:101EF0002DE000BFA0A1284601F060FB002826D0FD
:101F000016A1284601F05AFB4078312801D0352827
:101F10001DD101241BE000BF99A1284601F04EFB12
:101F2000002814D0012412E00BA1284601F046FB42
:101F300000280CD001240AE091A1284601F03EFBC4
:101F4000002804D0012400BF8FA001F02BF9204607
:101F500070BD0000415400004F4B00002C000000F9
:101F6000A83C0008A03C0008503B0008843B000847
:101F7000803200206038002000F21D110A780244EF
:101F800092F85900032814D9001F0A281AD90B38CF
:101F900001280ED9C01E012814D9093812D00938D9
:101FA00002280FD9C01F05280CD9C01F012809D944
:101FB0007047002082F8FC000878401C0870002060
:101FC000C8727047C87A002805D1002082F8FC004A
:101FD0000878401C0870704710B5044671A101F0E4
:101FE000EDFA002840F0068071A1204601F0E6FAE3
:101FF000002801D0012010BD002010BD4154453003
:102000000000000041542B47534E000041542B4325
:10201000494D490041542B43434C4B3F00000000C5
:10202000415426443100000041542B4350494E3F57
:102030000000000041542B435245473F0000000080
:1020400041542B43475245473F00000041542B5118
:1020500049435347503D312C312C22434D4E45547A
:10206000222C22222C22222C3100000041542B5100
:102070004944454143543D310000000041542B5137
:10208000494143543D31000041542B51494143548F
:102090003F00000041542B514E54503D312C223210
:1020A00030322E3131322E31302E3336222C313235
:1020B0003300000041542B5149434C4F53453D31AF
:1020C0000000000041542B51485454504346473DB2
:1020D00022636F6E746578746964222C310000008D
:1020E00041542B51485454504346473D2272657128
:1020F00075657374686561646572222C3100000037
:1021000041542B51485454504346473D22636F6E0F
:1021100074656E7474797065222C300041542B51B3
:10212000485454504346473D22726573706F6E7336
:1021300065686561646572222C31000041542B5141
:102140004854545055524C3D32372C3630303000C4
:1021500041542B514854545055524C3F00000000FC
:10216000514E5450000000005245414459000000B7
:102170002B435245470000002B4347524547000080
:10218000434F4E4E45435400687474703A2F2F6984
:102190006F742D6170692E6865636C6F7564732E42
:1021A000636F6D00636C6F7365640D0A000000005F
:1021B00070647064656163740D0A000009010200B7
:1021C00002D4174881547047164802F00F02104499
:1021D00000F8041C704710B5401EB0F1807F01D399
:1021E000012010BD104C60600F214FF0FF30FFF751
:1021F000E5FF0020A06007202060002010BD80B512
:102200000420FEF7C1FF0948FFF7E5FF0848002159
:10221000016041600F214FF0FF30BDE80440CDE781
:1022200000E400E018ED00E010E000E0C027090045
:102230006048002080B54F4988420BD101214FF4FE
:102240008040FEF761FE00214FF48040BDE804406D
:10225000FEF75ABE484988420BD101214FF40030A5
:10226000FEF75DFE00214FF40030BDE80440FEF7AC
:1022700056BE424988420BD101214FF48020FEF71F
:102280004EFE00214FF48020BDE80440FEF747BE1B
:102290003B4988420BD101214FF40020FEF73FFE5D
:1022A00000214FF40020BDE80440FEF738BE354958
:1022B00088420BD101214FF48010FEF730FE00213F
:1022C0004FF48010BDE80440FEF729BE01BD30B5D3
:1022D00085B004460D46218A4CF6FF700140E8881F
:1022E00001432182A1894EF6F3100140A8880143E1
:1022F0002889014368890143A181A18A4FF6FF40E3
:102300000140A8890143A1826846FEF79CFD194857
:10231000844201D1039900E002992A6819204143BF
:10232000A089000403D55200B1FBF2F202E0920052
:10233000B1FBF2F26420B2FBF0F109010B461B097C
:1023400000FB1322A089000408D5D2003232642099
:10235000B2FBF0F000F00700014307E01201323257
:102360006420B2FBF0F000F00F000143218105B0C2
:1023700030BD0000003801400044004000480040EB
:10238000004C004000500040002904D0818941F4F5
:1023900000518181704782894DF6FF710A40828128
:1023A000704710B40B46DBB25B09012401F01F013A
:1023B00004FA01F1012B01D10C3004E0022B01D110
:1023C000103000E01430002A026802D0114301608E
:1023D00002E022EA0101016010BC704702460020C1
:1023E00012880A4200D001207047C943018070471B
:1023F00030B4024600200C46E4B26409012501F025
:102400001F0305FA03F3012C02D19489234006E04F
:10241000022C02D1148A234001E0948A2340090A45
:1024200005FA01F112881140002B02D0002900D0DA
:10243000284630BC70470122090A02FA01F189B22C
:10244000C9430180704730B40EE00268436802441B
:102450000830DC0744BFA9F10104E31852F8045B1B
:1024600043F8045B091FF9D150F8041B0029ECD193
:1024700030BC704762F30F2262F31F4200B500BF09
:10248000130096469446103928BFA0E80C50FAD89D
:102490005FEA417C28BF0CC048BF40F8042BC90745
:1024A00028BF20F8022B48BF00F8012B00BD000018
:1024B0001CB590F8101C491E042974D8DFE801F0FF
:1024C0000F466E031C00012180F8101C00F500640B
:1024D0002189491C89B200F001F9208063E00521BF
:1024E00080F8101C00F50064E2882189491C89B23B
:1024F00000F011F9208056E000F50064E288521CDB
:10250000E2801146A38889B299420AD2052180F857
:10251000101CE2882189491C89B200F0FCF8208057
:1025200041E092B2521E9202022180F8101C4549ED
:1025300000914FF4806302F1006202F5804221892C
:10254000491C89B200F00DF920802CE000F50064F0
:10255000E1884A1EE280114689B2002914D092B265
:10256000521E9202022180F8101C364900914FF44D
:10257000806302F1006202F580422189491C89B220
:1025800000F0EFF820800EE0032180F8101C218974
:10259000491C89B200F020F9208004E000F50060B9
:1025A0000189491C01816420BDE81640FFF776BA15
:1025B00070B50546244C40F60C022946204600F032
:1025C0005BF9618860180279407912EB0026091FD7
:1025D00004F1080000F0F6FDB6B2864230D1A17BCE
:1025E000B5F80B0000282BD10846401E042827D838
:1025F000DFE800F0031403030A00144802788A425B
:102600001ED18221817070BD10480178052917D133
:10261000217C012914D18221817070BD0C4800F504
:102620004165297802290BD140F2094200F10901E4
:1026300004F1100000F0DAFC002801D18220A8701B
:1026400070BD000052160020742A0020581A002085
:10265000480E002030B4024600244FF6FF7000E020
:10266000641C23460D469BB2AB4216D223469BB256
:10267000D35C584000231D46ADB2082DF0DA054664
:102680006D10C007284601D480B204E080F40440F5
:1026900080F0080080B25B1CEDE7C04380B230BC24
:1026A000704710B504467E202070552060700820C9
:1026B000A0700020E07020716171090AA1710420EE
:1026C000E07100202072A078411E89B2A01CFFF7A3
:1026D000C1FF60720012A0720B2010BD10B504463D
:1026E0007E202070552060700820A0700020E070CF
:1026F00020716171090AA1710120E071002020722E
:10270000A078411E89B2A01CFFF7A4FF60720012DE
:10271000A0720B2010BD10B504467E2020705520FD
:1027200060700C20A0700020E07020716171090AB7
:10273000A1710520E0710020207262721046000A2B
:10274000A0721046000CE072120E2273A078411E97
:1027500089B2A01CFFF77EFF60730012A0730F20E8
:1027600010BD38B504461D467E202070552060708F
:102770000020A070E07020716171090AA17102202F
:10278000E0710020207201206072A2721046000ADF
:10279000E0721046000C2073120E6273A573284677
:1027A000000AE0732846000C20742846000E60746E
:1027B0002A46049904F1120000F04EF8123528461A
:1027C000811E89B2A01CFFF745FF60556D1C0012E9
:1027D00060556D1C284632BD10B504467E20207021
:1027E000552060700820A0700020E0702071617199
:1027F000090AA1710320E07100202072A078411E17
:1028000089B2A01CFFF726FF60720012A0720B2095
:1028100010BD80B5FEF7E0FB042801D1012002BD08
:10282000002002BD2DE9F04104460D461646002762
:102830004FF0010800E03F1DB7420AD23846800839
:1028400055F820103819FEF7E8FB0428F3D04FF0B4
:1028500000084046BDE8F08162B38B0708D0521EE5
:1028600011F8013B00F8013B00F024808B07F6D102
:10287000830740F0208000BF103A07D330B4B1E89E
:102880003810103AA0E83810F9D230BC530724BFF2
:10289000B1E80810A0E8081044BF51F8043B40F824
:1028A000043BD20724BF31F8022B20F8022B44BF8F
:1028B0000B7803707047121F17D35B0009D151F8D2
:1028C000043B20F8023B1B0C121F20F8023BF6D2FF
:1028D0000BE051F8043B00F8013B1B0A20F8023BD7
:1028E0001B0C121F00F8013BF3D238BF121D521E01
:1028F00024BF11F8013B00F8013BF8D870470000F5
:1029000000EB40014903491C0846411E0028FBD149
:1029100070472DE9F043A5B004460D460022802102
:1029200005A8FFF7A7FD002214216846FFF7A2FDC6
:102930006078204490F82800032805D0042844D06B
:10294000062800F09880DEE0DFF87865002240F28B
:10295000DC513046FFF78EFDDFF86C7539463046A6
:1029600000F042FE0FF2885100F03EFEA3A1304677
:1029700000F03AFEDFF8541500F036FE0FF2785101
:10298000304600F031FEDFF8481500F02DFE0FF262
:102990008051304600F028FE07F12C0100F024FEA3
:1029A0000FF27851304600F01FFE07F1500100F0A1
:1029B0001BFE93A1304600F017FE0FF2705100F09D
:1029C00013FE304600F0EEFB9DE0DFF8086506F6EA
:1029D0005807002240F2DC513846FFF74BFD707972
:1029E0003179884243D3DFF8E0844146384600F02D
:1029F000FBFD0FF2FC4100F0F7FD0FF20029494604
:102A0000384600F0F1FDDFF8C41400F0EDFD494652
:102A1000384600F0E9FD06F61F0100F0E5FD0FF273
:102A20002851384600F0E0FD08F12C0100F0DCFDF3
:102A30000FF22C51384600F0D7FD08F1500100F09C
:102A4000D3FD0FF2BC184146384600F0CDFD317978
:102A5000684600F0BFF90146384600F0C5FD414622
:102A600000F0C2FD0FF2C441384600F0BDFD38460B
:102A700000F098FB47E0DFF85C8408F65806002277
:102A800040F2DC513046FFF7F5FCDFF83C7407F10B
:102A9000B401304600F0A8FD0FF2544100F0A4FD4F
:102AA0000FF258194946304600F09EFDDFF81C141D
:102AB00000F09AFD4946304600F096FD08F61F01E9
:102AC00000F092FD0FF2A841304600F08DFD0FF2AC
:102AD000904100F089FD07F15001304600F084FD7F
:102AE00047A100F081FD07F12C01304600F07CFD8C
:102AF0000FF2904100F078FD0FF23041304600F0C7
:102B000073FD00F04FFBC4F8E85125B0BDE8F08339
:102B100070B50C4600254178084490F82800C01E86
:102B2000032866D8DFE800F00212545D0FF2684116
:102B3000204600F043FD00285BD0DFF898132046C4
:102B400000F072F8002854D0012552E00FF25841ED
:102B5000204600F033FD002806D10FF23C4120460C
:102B600000F02CFD002844D0204600F06EF9DFF87C
:102B7000685340F2144221182846FFF76DFEDFF833
:102B8000544320796179884208D1A87DE97D10EB12
:102B900001261421A81C00F015FB0AE005F21240E2
:102BA0000178407811EB00264FF48261A81C00F0F8
:102BB00009FBB6B2864207D14FF4806205F11201DB
:102BC000C648FFF749FE01E00420E070012510E04F
:102BD0000FF2E431204600F0F1FC002809D0012575
:102BE00007E00FF2D431204600F0E8FC002800D0C6
:102BF00001250020B7498871284670BD2F000000CC
:102C00000D0A00004178421892F82810491E042944
:102C100008D88178002905D1002182F8481141782F
:102C2000491C41707047000070B505460C460026EF
:102C3000324640F658012046FFF71CFC0FF2803167
:102C4000284600F0BBFC002800F07F800FF27C31AA
:102C5000284600F0B3FC002800F0828004F6090644
:102C6000142205F58F713046FFF7F6FD062205F5B3
:102C70009D7104F61F00FFF7EFFD062205F5A47114
:102C800004F62700FFF7E8FD202205F5A97104F6F8
:102C90002F00FFF7E1FD924D1622314605F11E008F
:102CA00000F0A4F900284BD1204600F083F8002062
:102CB000FEF7D0FD4FF47A70FFF722FE4FF480301C
:102CC000FEF7C8FD4FF47A70FFF71AFE607968705E
:102CD00004F61900017831290ED14278302A0BD13F
:102CE0008278302A08D1C278302A05D10120287094
:102CF00060700220E07026E030290DD14278312A40
:102D00000AD18278302A07D1C278302A04D1022031
:102D100028706070E07016E030290ED141783029BB
:102D20000BD18178312908D1C078302805D1032012
:102D3000287060700220E07005E00720E07002E07B
:102D400047F27770A88001260AE000BFA1A12846BB
:102D500000F034FC002803D047F277706049888087
:102D6000304670BDF8B5044600255E4E2A464FF445
:102D70008061304600F048FC584F3A464FF480617D
:102D800020798002FEF732FD002811D032464FF440
:102D9000806120798002FEF7B1FD002808D04FF451
:102DA00080623146384600F021F9002800D1012523
:102DB0002846F2BD10B504460A22062104F6270073
:102DC00000F040FA4849086040F21441B0FBF1F0CD
:102DD000607110BD7FB504460D460022062102A891
:102DE000FFF748FB002206216846FFF743FB40F24D
:102DF000144010FB05F5374801794079814202D132
:102E000005F1170601E005F213460623002202A988
:102E1000284600F098FA062300226946304600F062
:102E200092FA00BF6FA1204600F0DEFB02A9204607
:102E300000F0DAFB22A1204600F0D6FB69462046CE
:102E400000F0D2FB204604B070BD10B40146002251
:102E5000104601E00020521CB2F5806F0ED28B1894
:102E60001C780D2CF7D15C780A2CF4D198780D28B9
:102E7000F0D1D8780A28EDD1121D104610BC704749
:102E800038B50024154D2A464FF480614FF4805028
:102E9000FEF734FD002811D011480078012808D130
:102EA00006221249284600F0A1F8002806D1012484
:102EB00004E0022801D0032800D10124204632BDBD
:102EC0002D0000006C080020703A000880380020B7
:102ED0000C4800201400002090380020A43C002062
:102EE00004480020A440002068480020005000084A
:102EF00035393832343300002F636865636B3F74B3
:102F00007970653D312676657273696F6E3D00009C
:102F100020485454502F312E310D0A0061757468C9
:102F20006F72697A6174696F6E3A0000686F7374CA
:102F30003A696F742D6170692E6865636C6F756492
:102F4000732E636F6D0D0A002F646F776E6C6F6167
:102F50006420485454502F312E310D0A00000000D7
:102F6000617574686F72697A6174696F6E3A200076
:102F70002F73746174757320485454502F312E315F
:102F80000D0A0000646174613A207B737465703AC5
:102F90002039397D0D0A0000485454502F312E310C
:102FA0002032303000000000485454502F312E3170
:102FB0002032303600000000434F4E4E454354004F
:102FC00022636F6465223A3000000000534D3530B3
:102FD00030315F0022636F6465223A313230313222
:102FE0000000000052616E67653A20000300002077
:102FF00013F0030F09D0521E22BF13F8010B11F872
:1030000001CBB0EB0C00F3D0704711F0030F14D1DB
:10301000121F22BF53F8040B51F804CB6045F7D0C0
:10302000121D0AD200BA9CFA8CFCB0EB0C0038BF1F
:103030006FF0000088BF01207047521E22BF13F8B6
:10304000010B11F801CBB0EB0C00F6D0521C08BFFD
:103050001046704730B585B0054600220421684609
:10306000FFF708FA0022102101A8FFF703FA102049
:103070008DF8030003208DF802001020ADF8000049
:10308000444C69462046FEF79DF8102060612020E0
:10309000ADF8000069462046FEF794F82020206134
:1030A0003D4C2046FFF7C6F84FF48050ADF80000C5
:1030B00003208DF8020018208DF803006946374878
:1030C000FEF780F80420ADF800008DF80300694693
:1030D0003348FEF777F8019500200290ADF80C0018
:1030E000ADF810000C20ADF80E0001A92046FFF746
:1030F000EEF801212046FFF747F905B030BD80B555
:1031000035208DF8000001208DF8010000208DF899
:10311000020001208DF803006846FEF702F801BDA9
:1031200070B504460D461C4E40F227713046FFF73D
:1031300082F9224640F225513046FFF732F92A46FD
:1031400040F226613046BDE87040FFF72AB91249C7
:103150000A881206FCD588807047C0EBC001C902FE
:10316000491C0846411E0028FBD1704710B40022BC
:1031700008E0094B1C882406FBD51446A4B2045D64
:103180009C80521C13460C469BB2A342F1D310BC48
:1031900070470000000C014000500040001001404A
:1031A0000014014010B5044600F062FA014689B2ED
:1031B0002046FFF7DBFF0D20FFF7C9FF0A20BDE81F
:1031C0001040C4E730B4024600244FF6FF7000E020
:1031D000641C8C4212D2135D58400023082BF7D296
:1031E00005466D10C007284601D480B204E080F483
:1031F000044080F0080080B25B1CEFE7C04380B25F
:1032000030BC704770B504460D460020002C16D027
:10321000204600F02DFA4FF6FE71084000210BE029
:10322000074A635CD35C66187678925D42EA0312C3
:1032300005F8012B891C89B28142F1DB400870BD81
:10324000C036000830B400231C46002878D0022A7B
:1032500008D0082A18D00A2A27D0102A54D0112AB8
:1032600036D06DE022460D46D2B2AA4268D202782C
:10327000302A01D0312A63D11D461346303B03EB7F
:103280004503641C401CEDE722460D46D2B2AA421B
:1032900056D20278A2F13005082D51D2303A02EB15
:1032A000C3021346641C401CEEE722460D46D2B210
:1032B000AA4245D20278A2F130050A2D40D203EB92
:1032C0008305303A02EB45021346641C401CECE7D0
:1032D00022460D46D2B2AA4232D20278A2F130057D
:1032E0000A2D02D32E2A2BD105E003EB8305303AB9
:1032F00002EB45021346641C401CE9E7373A02EB37
:1033000003121346641C401C22460D46D2B2AA4248
:1033100016D20278A2F130050A2D04D2303A02EB1F
:1033200003121346EEE7A2F16105062D04D2573AC7
:1033300002EB03121346E5E7A2F14105062DDDD3AA
:10334000184630BC7047F0B40446002901D1002073
:1033500028E09A1A18464D1E002818D00A26B4FBF9
:10336000F6F6374607EB870CA4EB4C0430342C54AC
:103370003446461E1746FFB2BE4204D130462E26C2
:103380000746FFB2EE55401EC0B2002CE4D11B1A16
:1033900030224C1E02E02254401EC0B20028FAD156
:1033A0001846C0B2F0BC70472DE9F04180460F4688
:1033B00014460126002538004DD0FDF7AFFF002848
:1033C00000D12E46300007D0A020FEF711F8FDF7FF
:1033D000F6FF002800D12E46300006D04046000AF5
:1033E000FEF706F8FDF7EBFF0646300006D0404634
:1033F000C0B2FDF7FDFFFDF7E2FF0646300004D046
:10340000FDF78CFF002800D12E46300007D0A12008
:10341000FDF7EEFFFDF7D3FF002800D12E467F1EFB
:10342000300007D115E0FEF700F804F80800FDF7BA
:10343000A0FF6D1CA8461FFA88F82846394680B2BE
:1034400089B28842EFD3FDF7F0FF04F80800FDF7DA
:10345000A3FFFDF77BFF3046BDE8F0812DE9F04189
:1034600007460C46904600250126200034D0FDF783
:1034700055FF002800D12E46300007D0A020FDF7D0
:10348000B7FFFDF79CFF002800D12E46300006D084
:103490003846000AFDF7ACFFFDF791FF0646300005
:1034A00013D03846C0B2FDF7A3FFFDF788FF0646EC
:1034B0000BE0300008D0284680B218F80000FDF775
:1034C00097FFFDF77CFF06466D1C2846214680B21B
:1034D0008842EED3FDF73AFF0520FDF716FF304690
:1034E000BDE8F0812DE9F04104460E46154600275F
:1034F00010F01F0F0ED004F01F00C0F1200037465F
:1035000080B2874200D9074639462046FFF7A6FF1A
:10351000F61B00E00120010019D0314689B20029D4
:1035200015D04FF02008304680B2202800D2B04697
:10353000384680B22A18414689B2381980B2FFF75E
:103540008DFFA6EB080617FA88F70100E5D1BDE864
:10355000F0810000038803F441530A8813434A882A
:1035600013438A881343CA8813430A8913434A8939
:1035700013438A891343CA8913430380838B4FF211
:10358000FF7213408383098A01827047002904D0A7
:10359000018841F040010180704702884FF6BF71F9
:1035A0000A400280704781817047808970470246D7
:1035B000002012890A4200D00120704770B50D46E4
:1035C0002C7834B970BD11F8013F1678B34206D09B
:1035D000401C214600F068F828B101462A4612F83E
:1035E000013F002BEFD170BD034600E05B1C1A7851
:1035F000002AFBD111F801CB83F800C013F8012B8E
:10360000002AF7D17047000062F30F2262F31F42D5
:10361000401810F0030308D0C91A1FD3DB0748BFB6
:1036200000F8012D28BF20F8022D130030B41446F5
:103630001546103928BF20E93C00FAD8490728BFB1
:1036400020E90C0048BF40F8042D890028BF20F86D
:10365000022D48BF00F8012D30BC7047C91818BFB3
:1036600000F8012DCB0728BF00F8012D704700009E
:1036700000F10103810704D010F8011B820781B11A
:10368000FAD10268A2F10131914311F0803104BFF7
:1036900050F8042FF6E709BAB1FA81F100EBD10036
:1036A000401CC01A70470000C9B202788A421AB1A1
:1036B0001CBF10F8012FF9E718BF00207047000069
:1036C00000000000000000000000000000000000FA
:1036D00000000000000000000000000000000000EA
:1036E00000000000000000000000000000000000DA
:1036F000000102030405060708090000000000009D
:10370000000A0B0C0D0E0F0000000000000000006E
:1037100000000000000000000000000000000000A9
:10372000000A0B0C0D0E0F0000000000000000004E
:103730000000000000000000000000000000000089
:103740000000000000000000000000000000000079
:103750000000000000000000000000000000000069
:103760000000000000000000000000000000000059
:103770000000000000000000000000000000000049
:103780000000000000000000000000000000000039
:103790000000000000000000000000000000000029
:1037A0000000000000000000000000000000000019
:1037B0000000000000000000000000000000000009
:1037C0007047FEE7FEE7FEE7FEE770477047704789
:1037D00030480168491C016000681521B0FBF1F216
:1037E00001FB1200002806D12B48016841F49041EA
:1037F00041F00201016029480178090608D5D0F896
:103800000818491DC0F80818322901D30521017094
:10381000704710B5224C40F225512046FEF7E8FDD6
:10382000002819D01F49A08808701C4809784288D0
:10383000024491714188491C418089B2B1F5006F01
:1038400004DA017841F08001017001E00621017085
:103850000021C0F8081800E0A088208800F47C400F
:10386000208010BD10B5104C40F225512046FEF7C7
:10387000BFFD002807D00D48A18801700C490078D1
:1038800000F019F800E0A088208800F47C40208037
:1038900010BD000060480020444800205C1A002051
:1038A000005000406C480020004C00406D48002053
:1038B0006822002070470A78002A06D0812A0BD09F
:1038C000822A19D0842A32D057E07E2855D181200F
:1038D00008707E20887150E00246552A04D182206B
:1038E00008705520C87148E07E2802D181200870F8
:1038F00043E00020087040E00246083AE92A08D276
:1039000084220A700246D21C8A80087203204880F2
:1039100033E0002808D1842008701520888000201A
:1039200008720320488028E00020087025E00A7A09
:10393000002A17D14A880F2A03D18A8812188A8050
:1039400010E0102A05D18A88034612EB03228A80F0
:1039500008E0112A02D18A888A8003E0122A01D164
:103960008A888A804A88531C4B808B1D98544888CB
:103970008A88904201D3062008700020C1F8080808
:10398000704700003649086840F0010008604A6846
:10399000344802404A600A68334802400A600868B6
:1039A00020F480200860486820F4FE0048604FF44E
:1039B0001F00886000E0000000BF82B0002000907F
:1039C00001902749086840F4803008604FF6FF7284
:1039D000086800F4003001900098401C00900198A5
:1039E000002802D100989042F2D10868400C00F003
:1039F000010001900198012830D11C48026842F072
:103A0000100202600268920892000260026842F0AE
:103A1000020202604868486048684860486840F4AC
:103A200080604860486820F47C104860486840F432
:103A3000A0204860086840F0807008600868800135
:103A4000FCD54868800880004860486840F0020063
:103A50004860486800F00C000828FAD102B07047AE
:103A6000001002400000FFF8FFFFF6FE00200240B9
:103A700047455420687474703A2F2F696F742D6114
:103A800070692E6865636C6F7564732E636F6D2F3C
:103A9000667573652D6F74612F000000436F6E743F
:103AA000656E742D547970653A206170706C69632D
:103AB0006174696F6E2F6A736F6E0D0A00000000EB
:103AC00076657273696F6E3D323032322D30352D2E
:103AD0003031267265733D757365726964253246AF
:103AE0003333323138362665743D3235393938381A
:103AF00031323430266D6574686F643D6D643526EF
:103B00007369676E3D71544A59307A704938347917
:103B10005169686242545A676977412533442533B5
:103B200044000000504F535420687474703A2F2F93
:103B3000696F742D6170692E6865636C6F7564734D
:103B40002E636F6D2F667573652D6F74612F000086
:103B500041542B5149444E534346473D312C223169
:103B600031342E3131342E3131342E313134222C56
:103B7000223131342E3131342E3131352E3131353F
:103B80002200000041542B51494F50454E3D312CED
:103B9000312C22544350222C22696F742D6170699C
:103BA0002E6865636C6F7564732E636F6D222C389D
:103BB000302C302C3200000010B507497944183100
:103BC000064C7C44163404E00A68081D11448847FA
:103BD0000146A142F8D110BD2C0000004C000000AD
:103BE00080B5FCF71CFBFCF756FBFCF78BFBFCF7E6
:103BF00054FCFCF752FDFCF719FEFCF7F2FEFCF753
:103C0000C8FFF0E7DBD4FFFF5C4800001400002091
:103C10000000000033E8FFFF140000005400000023
:103C2000000000200000000000F00DF8002801D086
:103C3000FFF7C2FFAFF300800020AFF30080FFF773
:103C4000CFFF00F002F80120704700F001B800003B
:103C50000746384600F002F8FBE7000080B5AFF3F6
:103C60000080024A11001820ABBEFBE726000200CC
:103C70000000000001020304010203040607080912
:103C800002040608014880470148004785390008BA
:103C9000953C0008AFF30080AFF30080FFF7C4FF4E
:103CA000000C014010000000000C0140200000004A
:103CB000000C014000100000FFF7FEBFFFF7FEBF41
:103CC000FFF7FEBFFFF7FEBFFFF7FEBFFFF7FEBF28
:103CD000FFF7FEBFFFF7FEBFFFF7FEBFFFF7FEBF18
:103CE000FFF7FEBFFFF7FEBFFFF7FEBFFFF7FEBF08
:103CF000FFF7FEBFFFF7FEBFFFF7FEBFFFF7FEBFF8
:103D0000FFF7FEBFFFF7FEBFFFF7FEBFFFF7FEBFE7
:103D1000FFF7FEBFFFF7FEBFFFF7FEBFFFF7FEBFD7
:103D2000FFF7FEBFFFF7FEBFFFF7FEBFFFF7FEBFC7
:103D3000FFF7FEBFFFF7FEBFFFF7FEBFFFF7FEBFB7
:103D4000FFF7FEBFFFF7FEBFFFF7FEBFFFF7FEBFA7
:103D5000FFF7FEBFFFF7FEBFFFF7FEBFFFF7FEBF97
:103D6000FFF7FEBFFFF7FEBFFFF7FEBFFFF7FEBF87
:103D7000FFF7FEBFFFF7FEBFFFF7FEBFFFF7FEBF77
:103D8000FFF7FEBFFFF7FEBFFFF7FEBFFFF7FEBF67
:0C3D9000FFF7FEBFFFF7FEBFFFF7FEBF0E
:0400000508003C951E
:00000001FF
