:020000040800F2
:1000000048360020053500086132000863320008D8
:1000100065320008673200086932000800000000FD
:100020000000000000000000000000006B3200082B
:100030006D320008000000006F32000871320008C5
:10004000393500083D3500084135000845350008C0
:10005000493500084D350008513500085535000870
:10006000593500085D35000861350008193300086E
:1000700065350008693500086D35000871350008E0
:1000800075350008793500087D3500088135000890
:1000900085350008893500088D3500089135000840
:1000A00095350008993500089D350008A1350008F0
:1000B000A5350008A9350008AD350008B1350008A0
:1000C000B5350008B9350008BD350008C135000850
:1000D000C5350008C9350008CD350008D135000800
:1000E000D5350008D9350008DD350008E1350008B0
:1000F000E5350008E9350008ED350008F135000860
:10010000F5350008F9350008FD350008013600080E
:1001100005360008B3320008093600080D3600081D
:100120001136000815360008193600081D3600087B
:1001300000EB40014903491C0846411E0028FBD141
:10014000704780B500F0D0FC4FF4803000F0E5FC43
:1001500000F0FDFC01282BD1002000F028FD00203C
:1001600000F033FD4FF4806000F028FD4FF4404074
:1001700000F036FD002000F030FD022000F0DEFD32
:10018000102000F0E3FD4FF400114FF4803000F038
:10019000F7FC012000F0FCFC392000F09FFD002856
:1001A000FAD0022000F0F7FC00F0FCFC0828FBD19C
:1001B00001BD10B5044621463D2000F063FD2146F7
:1001C0004FF4A210BDE8104000F067BD80B50021DB
:1001D0004FF0006000F0A6FE4FF4A060BDE80240C2
:1001E00000F06EBE80B50121DFF8840800F00CFF3E
:1001F00010208DF8030003208DF802000220ADF8D6
:1002000000006946DFF86C0800F0B0FE01BD10B5D3
:10021000FFF797FFFFF7DAFF0120FFF7CAFF72B67B
:10022000FFF7E0FFDFF850480220206000F024FFD5
:1002300000F0F4FF01F092F801F012F901F050FA29
:1002400001F074FA4FF4E13001F078FA01F0C7FAE6
:100250000021012001F0D4FA01F01CFB0520FFF77A
:1002600067FF01F098FE02206060DFF81048DFF8B9
:1002700010280121204601F01AFB0220A4F81E01DB
:1002800062B610BDDFF8FC0781688A070ED521F041
:10029000020181604169491C4161DFF8DC07C9073F
:1002A00002D502214160704702210160704710B5FC
:1002B00072B602461468DFF8CC37DFF8CC170C4072
:1002C000B4F1005F09D1001D0068D8619861106821
:1002D00080F308889869804705E001209860002035
:1002E000DFF8A817086062B610BD70B5DFF8A04748
:1002F0006088DFF89057296A024691426BD045F238
:100300005551884203D047F27771884202D10120CB
:10031000A8605CE041F21111884203D04AF6AA219C
:10032000884217D1DFF86C671122DFF86C1730466E
:1003300001F04CFE11223146A01D01F047FE00F0F5
:10034000C9FFA86840F08040A8600120DFF84C1782
:10035000C8703CE043F23331884204D1A86840F4CD
:100360008050A86033E044F24441884218D1DFF85D
:1003700024671122DFF82017304601F027FE1122F2
:100380003146A01D01F022FE00F0A4FFA86840F055
:100390000040A860DFF80807E86000F0E1FC16E024
:1003A00048F68801884212D1DFF8E8661122DFF8AA
:1003B000E816304601F00AFE11223146A01D01F078
:1003C00005FE00F087FFA86840F40040A860608840
:1003D000286200F07FFFA868C10707D5DFF8AC16D8
:1003E0000968292902D340F08000A860287A000615
:1003F0002DD50220DFF8AC160860A86820F0800038
:10040000A86000F058F800281ED0A868400516D54E
:10041000DFF89406017800EB8101C822C1F8682159
:1004200001210278024482F8481103210278024433
:1004300082F828100178491C017002218180DFF8C0
:100440006006FFF734FF02E04AF6AA206080A86841
:10045000C10415D520F48050A86002F0AFF8002840
:100460000BD044F2444060802078022801D0032859
:1004700006D145F25550608070BD47F277706080BC
:1004800070BD10B5DFF824460721204602F014FAAB
:1004900000280FD00721204602F015FA4FF4E13072
:1004A00001F04CF901F09BF900210120BDE810405A
:1004B00001F0A6B910BD38B50024DFF8DC550822DC
:1004C0000FF20C61284602F02DFA002812D1082103
:1004D00000E0491C0846C0B2322807DA15F8010BC3
:1004E000A0F12002602AF4D30028F2D0C9B2322948
:1004F00000D10124200009D108220FF2E051DFF8D9
:10050000B00502F00FFA002800D10124204632BDC8
:10051000F8B5DFF87045A068400500F1BD80DFF850
:1005200094550721284602F0C7F900280DD007216D
:10053000284602F0C8F94FF4E13002F027FA02F041
:100540007AFA0021012002F087FADFF8306506F51B
:100550008E75DFF864753878052801D006281ED11D
:100560007988B81D01F069F9A878400717D57A880D
:10057000D2B2B91D304601F0FFFA00280AD000209F
:10058000287308206880002240F60C01384602F0EB
:10059000B5FA04E0802038700020C7F808086988A0
:1005A000880715D54FF6FD70014069806878297875
:1005B00088420DD2002240F60C01384602F09EFA25
:1005C000DFF8C8040168304601F02CFA2420688066
:1005D000A87880061FD56978AA6806EB8100C06FED
:1005E0008218DFF8A8040068824214D206F1FC00E9
:1005F000425C521E42546978405C002809D16988E7
:100600004FF6DF700140698008206880022028735F
:1006100001E002206880698808073DD54FF6F77031
:1006200001406980304601F073FB287B002820D10F
:10063000022068806878297888422DD1A16821F04D
:100640008051A1602879012809D14020688041F4B7
:100650008061A1608020DFF864140870F1BD00287B
:100660001AD1DFF85C04818800684161012068804C
:10067000F1BD2879012808D1DFF804240021304693
:1006800001F015F902206880F1BD01206880DFF8D3
:100690003004818800684161F1BDF8B5DFF8E453AA
:1006A000A868400540F1B880DFF8084407212046DB
:1006B00002F002F900280DD00721204602F003F9CC
:1006C0004FF4E13002F062F902F0B5F900210120A7
:1006D00002F0C2F9DFF8E0633078DFF8CC43052898
:1006E00001D0062831D12079400714D5B11D20460C
:1006F00001F0ADFD002804D00020A0700820A080EB
:1007000006E00120A070802030700020C6F80808A4
:100710006078401C6070B01D01F02AFB00280ED0EC
:10072000DFF85873DFF858230021384601F0BFF88E
:100730000220A7F81E01A86820F48060A8600022AB
:1007400040F60C01304602F0D9F9A188880715D58A
:100750004FF6FD700140A1806078217888420DD26B
:10076000002240F60C01304602F0C8F9DFF81C0305
:100770000168204601F09DFC0520A0802079C0077B
:1007800020D56178D4F8E82104EB8100D0F8680125
:100790008218BE480068824214D204F24710425CBC
:1007A000521E42546178405C002809D1A1884FF65E
:1007B000FE700140A1800820A0800220A07001E00E
:1007C0000220A080A188080726D54FF6F7700140C7
:1007D000A180204601F07EFDB04DE878032815D1B8
:1007E000A078002812D1284601F066FE00280BD020
:1007F00028796979884202D10520E87006E0022153
:10080000E970401C287101E00420E87060782178CC
:10081000884201D300202080F1BD38B5994CA068F2
:10082000A84901EA00028A4261D121780A294FD100
:10083000002121709949CA78012A19D16078401C99
:100840006070994800F5B4710278C82341F82230ED
:10085000012100F5A4720378D154032100F128028C
:100860000378D1540178491C01700221818031E064
:10087000022A19D10320C8708B4800F5B4710278A0
:100880004FF4C87341F82230012100F5A4720378B7
:10089000D154042100F128020378D1540178491C75
:1008A00001700221818015E0042A04D141F2111067
:1008B000774948800EE0052A07D120F08040A060EB
:1008C00043F233307249488004E00120C87001E0EF
:1008D000491C217060780A2805D10020607047F219
:1008E00077706B494880A06820F40060A060A5681C
:1008F00005F40C40B0F50C4F3ED1A0780A282DD15C
:100900000020A0706548C078052801D000281ED1BD
:10091000E078401CE07011225F495E4801F056FB10
:10092000614800F5B4710278C82341F822300121F2
:1009300000F5A4720378D154032100F12802037852
:10094000D1540178491C01700221818008E00728F8
:1009500006D145F255504E49488001E0401CA07038
:10096000E0780A2805D10020E07045F2555048494A
:10097000488025F40065A56031BDF8B5414CA068FC
:10098000002872D5424D297801296ED141046CD5D9
:1009900020F48040A0602079022860D100202071DE
:1009A0003E498878002828D13D4A607902EB8020B2
:1009B00057D3E268824254D100F58062E2606A78DF
:1009C000414B03EB8223834211D302F0B5F8002898
:1009D00003D06079401C607143E000206071E060EA
:1009E0000220254908604AF6AA20688039E00020E4
:1009F0006071E0600120887033E0012831D16279B4
:100A0000900227490E188E422BD36978491C9142D7
:100A10001FDB2E4F3A464FF4806100F015FE002890
:100A200013D04FF480623946304602F08EF8002829
:100A300003D06079401C607107E0002060710220E3
:100A40000D4908604AF6AA20688002200A494860D9
:100A500007E000F08EF948F68800688001E0401C4D
:100A60002071A06820F48040A060F1BD000000006B
:100A700000023000000C0140100C014070220020E8
:100A80009C230020E42300200000FE2F38240020B7
:100A90000824002024240020005000081400002016
:100AA00000400008140C0140842000200048004051
:100AB0008050000800500040680A00207412002096
:100AC00020350008000C0040004400088418002075
:100AD000534D353030313030000000004744333260
:100AE00032333032000000008549086840F00100D0
:100AF00008604A68834802404A600A6882480240A7
:100B00000A60086820F480200860486820F4FE002D
:100B100048604FF41F008860704779490A6822F4E2
:100B200080320A600A6822F480220A60B0F5803FB1
:100B300003D0B0F5802F05D07047086840F48030AE
:100B400008607047086840F4A020086070471CB532
:100B5000002000900446312000F0C0F80099491CA4
:100B6000009100994FF6FF72914201D00028F2D017
:100B7000312000F0B3F8002800D00124204616BD33
:100B8000624A136823F47C131843084310607047CB
:100B90005F49086070475D490A68920850EA820020
:100BA000086070475948006800F00C0070475749CA
:100BB0000A6822F0F00210430860704753490A683F
:100BC00022F4E06210430860704750490A6822F43A
:100BD000605242EAC0020A6070474E49086070479E
:100BE0004A490A6822F4404210430860704710B432
:100BF000464A116801F00C01042902D0082903D0EB
:100C00001BE0454901601AE0136803F47013116892
:100C100001F480319B0C9B1C002903D13F494B43BD
:100C200003600CE01168890303D53D494B43036021
:100C300005E039494B43036001E03A49016011681E
:100C400001F0F001384B0909595C0468CC4044605C
:100C5000116801F4E061090A595CCC4084601168B4
:100C600001F46051C90A595C4468CC40C460116801
:100C700001F4404103EB9131097CB4FBF1F10161D6
:100C800010BC7047294A0029116802D0084310603F
:100C9000704721EA000010607047254A002911685A
:100CA00002D008431060704721EA000010607047CE
:100CB000204A0029116802D008431060704721EAD9
:100CC0000000106070471C4A0029116802D00843D8
:100CD0001060704721EA000010607047014640092B
:100CE000074A012801D1106804E0022801D1106AE6
:100CF00000E0506A01F01F01C84000F00100704799
:100D0000001002400000FFF8FFFFF6FE0410024052
:100D100060004242D8004242001BB70000093D007B
:100D2000808D5B0000127A00000000201810024045
:100D30001C1002400C10024010100240DFF80C1191
:100D40000A6802F03802104308607047DFF8FC10B0
:100D50000A6822F010020A600A68104308607047AF
:100D6000DFF8EC00DFF8EC100160DFF8EC10016058
:100D70007047DFF8E800016841F0800101607047CA
:100D800038B504464FF0FF3000F06CF801460429F6
:100D900016D1DFF8C850286840F0020028606C6067
:100DA000286840F0400028604FF0FF3000F05AF80B
:100DB0000146052904D02A6841F6FD710A402A60DF
:100DC00032BD7CB504460D46002000904FF0FF3048
:100DD00000F048F80146042925D1204E306840F043
:100DE0000100306025804FF0FF3000F03BF80146F5
:100DF000042911D1A41C00942D0C009805804FF0FB
:100E0000FF3000F02FF8014605290CD0326841F67A
:100E1000FE710A40326076BD052904D0326841F681
:100E2000FE710A40326076BD04200D490A68D2077F
:100E300001D5012070470A68520701D5022070478A
:100E40000968C90600D50320704700000020024051
:100E50000420024023016745AB89EFCD10200240FA
:100E60000C20024010B50446FFF7DEFF02E0FFF75A
:100E7000DBFF641E0146012901D1002CF7D1002CB3
:100E800000D1052010BD30B4002513E050F8042B2C
:100E9000D30744BFA9F101039A18091F042942F896
:100EA000045BFAD213468C0744BF15809B1CC9070C
:100EB00048BF1D7050F8041B0029E7D130BC7047B3
:100EC0002249084322490860704770B403781C46E1
:100ED0000122C17800291BD01D490B6803F4E0638F
:100EE000C3F5E0631B0A4578C3F104018D408178A6
:100EF0000F26DE4031400D432D0116490D55017876
:100F000001F01F0082401448491140F8212007E0F9
:100F100003F01F0302FA03F31048641140F8243071
:100F200070BC70470E4A114008430E490860704774
:100F30000D490428086803D140F004000860704798
:100F400020F0040008607047000000000000FA056F
:100F50000CED00E000E400E000E100E080E100E0F2
:100F600080FFFF1F08ED00E010E000E0F0B4002477
:100F7000CA78134603F00F03D20601D58A781343CB
:100F80000A88D2B2002A1AD0026815E0482D12D180
:100F9000066110E00126A6400D883540B5420AD111
:100FA000A5000F27AF40BA4303FA05F52A43CD78D1
:100FB000282DEBD14661641C082CEBD302600A8813
:100FC000B2F5807F1EDB4468002218E0012602F1A2
:100FD000080506FA05F50E882E40AE420ED19600A1
:100FE0000F27B740BC4303FA06F63443CE78282EC9
:100FF00000D14561CE78482E00D10561521C082AE7
:10100000E4D34460F0BC704770B41A4A002801D59C
:10101000936900E01368C0F3034485B200F44016FE
:10102000B6F5401F06D123F07063146824F0706495
:10103000146010E0C60206D5032606FA04F4A343A2
:1010400043F0706307E00446640D240105FA04F4DC
:10105000A34343F07063002904D00146490D090100
:101060008D402B43002801D5936100E0136070BCD4
:1010700070470000040001401CB503208DF80200F9
:1010800014208DF803008020ADF80000604C694604
:101090002046FFF76BFF4020ADF800006946204670
:1010A000FFF764FF13BDC8210846411E0028FBD18D
:1010B000704700EB40014903491C0846411E0028C7
:1010C000FBD1704710B5534C8020A0604020A06039
:1010D000FFF7E9FF20688020E060FFF7E4FF206869
:1010E000000601D5002010BD8020E060FFF7DBFF87
:1010F000012010BD10B5484C40206060FFF7D3FFC1
:1011000080206060FFF7CFFF40202060FFF7CBFF1B
:1011100080202060BDE81040C5E710B53E4C40205F
:101120006060FFF7C0FF80206060FFF7BCFF4020D9
:101130002060FFF7B8FF40206060BDE81040B2E7D4
:1011400010B5354C40206060FFF7ADFF8020206077
:10115000FFF7A9FF40202060FFF7A5FF4020606057
:10116000BDE810409FE710B52A4C4020E060FFF733
:101170009AFF8020A060FFF796FF4020A060FFF755
:1011800092FF2068000603D54020E060002010BDDB
:101190004020E060012010BD70B5054608261E4CB9
:1011A0000FE08020606005E0402060602806F8D5F0
:1011B00080202060FFF777FF40202060FFF773FF5B
:1011C0006D003046461EC0B20028EDD14020606060
:1011D00070BD70B5082500260E4C8020A0600DE083
:1011E00076004020E060FFF75EFF4020A060FFF740
:1011F0005AFF2068000601D546F001062846451E24
:10120000C0B20028ECD14020E0603046C0B270BDD2
:10121000000C0140080C0140100C0140F0B587B0F3
:1012200000221A21684601F069FC00264A4D2A4630
:101230001A2141F6E67001F0A2FC040023D132200D
:10124000FFF737FF761C3046C0B20228EFDD0026DC
:101250006A461A214FF4F05001F091FC07001DD1AD
:101260003220FFF726FF761C3046C0B20228EFDDA1
:1012700054EA07001ED14AF6AA20688000F02AF836
:1012800000F04DF824E01821284601F04DFD298B8F
:10129000884201D00024DAE70124D8E71821684603
:1012A00001F042FDBDF81810884201D00027DFE7A9
:1012B0000127DDE7002F02D100F031F808E0002C13
:1012C00006D11A226946284600F090FE00F002F886
:1012D00007B0F0BD70B500241F4D204628831821AB
:1012E000284601F021FD28832A461A2141F6E6709E
:1012F00001F0E3FC060006D02A461A214FF4F05014
:1013000001F0DBFC0646300007D13220FFF7D1FEAA
:10131000641C2046C0B20328E6DB304670BD70B5C1
:1013200000240D4D204628831821284601F0FCFC9E
:1013300028832A461A214FF4F05001F0BEFC060023
:1013400007D13220FFF7B5FE641C2046C0B2032847
:10135000EFDB304670BD00000824002038B586B0B1
:101360000022122101A801F0C9FB002204216846D5
:1013700001F0C4FB03208DF8020010208DF803005B
:101380004FF480542046ADF800002D4D69462846A4
:10139000FFF7ECFD2C616C612C614FF46040ADF8FF
:1013A000000018208DF8030069462846FFF7DEFD8F
:1013B000244C0021204601F0C5FD0020ADF80400BA
:1013C0004FF48270ADF8060000200290ADF80C00DA
:1013D0004FF40070ADF80E001020ADF810000020A2
:1013E000ADF812000720ADF8140001A9204601F065
:1013F0008DFD0121204601F0A5FD07B030BD38B5B7
:101400000446104D0121284601F0ADFD012802D10E
:10141000284601F0A6FD0221284601F0A4FD00287F
:10142000F9D02146284601F09AFD0121284601F015
:101430009AFD0028F9D0284601F093FDC0B232BDD4
:10144000000C01400038004005E04FF49072114656
:101450004A1E0029FBD10146481E0029F5D17047DC
:1014600038B5B048848805686C610420FFF7C7FF71
:101470002C6131BD2DE9F0470446884615464FF0F2
:101480000009CA46A748868807687E610520FFF7DD
:10149000B6FF0A20FFF7D8FF0AF1010AFF20FFF785
:1014A000AEFF810703D5514689B2C829F1DB3E6101
:1014B00080073ED47E610620FFF7A1FF3E610A202F
:1014C000FFF7C2FFCA467E610520FFF798FF0A209A
:1014D000FFF7BAFF0AF1010AFF20FFF790FF81072B
:1014E00003D4514689B2C829F1DB3E61800720D57B
:1014F0007E610220FFF783FF2046000CC0B2FFF799
:101500007EFF2046000AC0B2FFF779FF2046C0B236
:10151000FFF775FF06E0484680B2285CFFF76FFFD3
:1015200009F10109484680B24045F4D33E614FF0CD
:1015300001094846BDE8F0872DE9F04104460D4613
:1015400016460027E0050FD02746C7F30807C7F562
:101550008077BFB22846B84200DA074639462046AF
:10156000FFF788FFED1B00E00120010016D029469F
:1015700089B2002912D04FF48078284680B2B0F5A5
:10158000807F00DA8046F21941463819FFF772FF72
:10159000A5EB08054744BFB20100E8D1BDE8F081E2
:1015A0002DE9F04104460025A8465E488688076874
:1015B0007E610520FFF723FF0A20FFF745FF08F1B2
:1015C0000108FF20FFF71BFF810703D5414689B2C1
:1015D000C829F1DB3E61800733D47E610620FFF726
:1015E0000EFF3E610A20FFF72FFFA8467E6105200F
:1015F000FFF705FF0A20FFF727FF08F10108FF208A
:10160000FFF7FDFE810703D4414689B2C829F1DB0B
:101610003E61800715D5A40CA4047E61D820FFF795
:10162000EEFE2046000CC0B2FFF7E9FE2046000A9D
:10163000C0B2FFF7E4FE2046C0B2FFF7E0FE3E6115
:1016400001252846BDE8F0812DE9F84F04460D46F6
:1016500016460027B846BB463248B0F80490D0F88A
:1016600000A0CAF814900520FFF7C9FE0A20FFF772
:10167000EBFE0BF1010BFF20FFF7C1FE810703D545
:10168000594689B2C829F1DBCAF8109010F0030F4F
:1016900023D1CAF814900320FFF7B1FE2046000CB6
:1016A000C0B2FFF7ACFE2046000AC0B2FFF7A7FEAB
:1016B0002046C0B2FFF7A3FE06E0FF20FFF79FFE23
:1016C000394689B270547F1C3846294680B2884218
:1016D000F3D3CAF810904FF001084046BDE8F28FEE
:1016E00070B51048848805686C610A20FFF7ACFE6D
:1016F0009020FFF784FE0020FFF781FE0020FFF717
:101700007EFE0020FFF77BFE074EFF20FFF777FEEF
:1017100000023080FF20FFF772FE318808433080DE
:101720002C6170BD3035000844240020024A4FF47B
:1017300080610020FFF788BF8418002078B585B04D
:10174000044600220421684601F0D8F90022102145
:1017500001A801F0D3F910208DF8030003208DF8C3
:101760000200414D284600F0D3FF4FF48060ADF8F1
:10177000000003208DF8020018208DF803003B4E76
:1017800069463046FFF7F2FB10208DF80300012078
:10179000ADF8000069463046FFF7E8FB01207061B4
:1017A0004FF40060ADF8000004208DF80300694696
:1017B0003046FFF7DBFB019400200290ADF80C00EF
:1017C000ADF810000C20ADF80E0001A9284600F07D
:1017D000ECFF0121284601F045F806B070BD80B548
:1017E00027208DF8000001208DF8010000208DF8E1
:1017F000020001208DF803006846FFF766FB01BD7B
:1018000070B504460D46184E40F2A551304601F021
:1018100080F8224640F22551304601F030F82A4641
:1018200040F226613046BDE8704001F028B80E490C
:101830000A881206FCD588807047F8B505460E4622
:1018400000270B4C0120206003E0E85DFFF7EFFF6D
:101850007F1C30468742F8D3034800884006FBD5FA
:1018600001206060F1BD000000480040000C014014
:10187000100C014010B5044601F07CFB014689B212
:101880002046FFF7DAFF0D20FFF7D1FF0A20BDE861
:101890001040CCE780B54FF4E13001F077F801F06B
:1018A000CAF800210120BDE8044001F0D5B8F8B520
:1018B00004460D46164600224FF4967101F01EF9BB
:1018C00004F1590004F1FC0104F17C022B46012BC8
:1018D00040F08080C823136002230B700123037043
:1018E000C823536002234B704370C82393601923AD
:1018F0008B700B238370C823D3600223CB700C231F
:10190000C370C82313610A230B710D230371C8230D
:1019100053610A234B711B234371C82393610A232C
:101920008B7112238371C823D3612823CB710423C5
:10193000C371C8231362B4230B7205230372C82337
:101940005362B4234B7206234372C82393620A2363
:101950008B72072383724FF44873D3620223CB72D6
:101960000823C37240F6B833136302270F730927A5
:101970000773536302234B732B234373C82393636F
:1019800002238B732C238373C823D3630223CB736B
:101990002D23C373C823136402230B7430230374F1
:1019A000C823536402234B742E234374C8239364C7
:1019B00002238B7432238374C823D3640223CB7431
:1019C0003323C374C823136502220A750A210175E3
:1019D00015201AE04FF4FA63136001230B701023F3
:1019E0000370B423536001234B70032343704FF4FF
:1019F000C873936001238B700F2383701423D3600B
:101A00000122CA700021C170042004F58E710222E7
:101A10004A800D710870482231462046BDE8F840E2
:101A200000F0D4BA38B504460D4694F81D012044A0
:101A300090F85900332800F29C80DFE800F01A1A71
:101A40002323454A4F54595E92282C313B9A719A70
:101A5000406C9A9A9A9A9A9A9A369A9A9A9A9A9AD2
:101A60009A9A689A9A9A9A9A9A63797E889A839AA5
:101A70008D96A148818800684161A04881880068EE
:101A8000416176E09D4881880068016171E097A01E
:101A900001F024F86DE00FF2FC2001F01FF868E07F
:101AA0000FF2F82001F01AF863E00FF2F82001F0CD
:101AB00015F85EE00FF2F42001F010F859E00FF293
:101AC000F82001F00BF854E00FF2F42001F006F8D2
:101AD0004FE00FF2F82001F001F84AE00FF2F82091
:101AE00000F0FCFF45E00FF2FC2000F0F7FF40E0C3
:101AF0000FF2103000F0F2FF3BE00FF2183000F070
:101B0000EDFF36E00FF2183000F0E8FF31E07C48DE
:101B100000F0E4FF2DE00FF2143000F0DFFF28E0CA
:101B20000A2000F0B6FF0FF2243000F0D7FF20E0CB
:101B30000FF2283000F0D2FF1BE00FF23C3000F033
:101B4000CDFF16E00FF2503000F0C8FF11E00FF2A9
:101B5000643000F0C3FF0CE00FF2783000F0BEFFFD
:101B600007E0684800F0BAFF03E00FF27C3000F0B5
:101B7000B5FFC4F8245131BD70B506460D460024AA
:101B800096F81D01304490F85900001F2F2800F2EC
:101B9000AA80DFE800F061697A1818188C181821FB
:101BA000A8A818A81853A8A8A8A8A8A8A837A8A89B
:101BB000A8A8A8A8A8A89595A8A8A8A8A845959554
:101BC00095A895A89D954AA1284601F0EEF9002810
:101BD00000F08980012486E045A1284601F0E5F95E
:101BE000002800F08080484C04F5C0660F22A91C34
:101BF000304600F0EBF904F5BE61304601F0B4F870
:101C0000012470E03AA1284601F0CFF900286AD0FB
:101C10001122A91C06F1480000F0D8F9012462E065
:101C200033A1284601F0C1F900285CD0102205F14B
:101C30001101364800F0CAF9012454E02CA12846CD
:101C400001F0B3F900284ED0ABA1284601F0ADF960
:101C5000002848D0012446E0A9A1284601F0A5F9B2
:101C6000002840D001243EE0A7A1284601F09DF9BC
:101C7000002838D01FA1284601F097F94078312874
:101C800001D035282FD101242DE000BFA0A1284686
:101C900001F08BF9002826D016A1284601F085F91D
:101CA0004078312801D035281DD101241BE000BF28
:101CB00099A1284601F079F9002814D0012412E0F6
:101CC0000BA1284601F071F900280CD001240AE08C
:101CD00091A1284601F069F9002804D0012400BF31
:101CE0008FA000F0FBFE204670BD000041540000B4
:101CF0004F4B00002C00000028350008203500085C
:101D0000D033000804340008741200205418002056
:101D100000F21D110A78024492F85900032814D9E0
:101D2000001F0A281AD90B3801280ED9C01E012815
:101D300014D9093812D0093802280FD9C01F052834
:101D40000CD9C01F012809D97047002082F8FC0077
:101D50000878401C08700020C8727047C87A0028B4
:101D600005D1002082F8FC000878401C08707047FC
:101D700010B5044671A101F018F9002840F0068062
:101D800071A1204601F011F9002801D0012010BDF9
:101D9000002010BD415445300000000041542B4745
:101DA000534E000041542B43494D490041542B43AD
:101DB000434C4B3F000000004154264431000000DA
:101DC00041542B4350494E3F0000000041542B43E7
:101DD0005245473F0000000041542B4347524547BE
:101DE0003F00000041542B5149435347503D312C93
:101DF000312C22434D4E4554222C22222C22222CBF
:101E00003100000041542B514944454143543D3178
:101E10000000000041542B51494143543D31000022
:101E200041542B51494143543F00000041542B5130
:101E30004E54503D312C223230322E3131322E313F
:101E4000302E3336222C31323300000041542B51D6
:101E500049434C4F53453D310000000041542B5144
:101E6000485454504346473D22636F6E74657874FE
:101E70006964222C3100000041542B5148545450C5
:101E80004346473D22726571756573746865616488
:101E90006572222C3100000041542B51485454509B
:101EA0004346473D22636F6E74656E747479706546
:101EB000222C300041542B51485454504346473D46
:101EC00022726573706F6E736568656164657222F6
:101ED0002C31000041542B514854545055524C3D24
:101EE00032372C363030300041542B514854545046
:101EF00055524C3F00000000514E5450000000006D
:101F000052454144590000002B4352454700000010
:101F10002B43475245470000434F4E4E4543540024
:101F2000687474703A2F2F696F742D6170692E6810
:101F300065636C6F7564732E636F6D00636C6F7394
:101F400065640D0A0000000070647064656163746C
:101F50000D0A00000901020002D41748815470479D
:101F6000164802F00F02104400F8041C704710B528
:101F7000401EB0F1807F01D3012010BD104C606085
:101F80000F214FF0FF30FFF7E5FF0020A060072092
:101F90002060002010BD80B50420FEF7C9FF09486D
:101FA000FFF7E5FF08480021016041600F214FF075
:101FB000FF30BDE80440CDE700E400E018ED00E0AC
:101FC00010E000E0C02709003824002062B38B072E
:101FD00008D0521E11F8013B00F8013B00F02480AC
:101FE0008B07F6D1830740F0208000BF103A07D35B
:101FF00030B4B1E83810103AA0E83810F9D230BC4B
:10200000530724BFB1E80810A0E8081044BF51F8F6
:10201000043B40F8043BD20724BF31F8022B20F8E0
:10202000022B44BF0B7803707047121F17D35B005D
:1020300009D151F8043B20F8023B1B0C121F20F879
:10204000023BF6D20BE051F8043B00F8013B1B0ABF
:1020500020F8023B1B0C121F00F8013BF3D238BFE3
:10206000121D521E24BF11F8013B00F8013BF8D8A5
:10207000704730B40EE00268436802440830DC0761
:1020800044BFA9F10104E31852F8045B43F8045B70
:10209000091FF9D150F8041B0029ECD130BC70475E
:1020A00000EB40014903491C0846411E0028FBD1B2
:1020B00070472DE9F043ADF5057D04460D464FF41C
:1020C00000780022414605A800F018FD6078204401
:1020D00090F82800032802D0042851D0B1E0DFF89E
:1020E000306500224146304600F008FD002241469E
:1020F00005A800F003FDDFF81C75394605A800F0BF
:102100006AFF0FF2305100F066FF71A105A800F0E0
:1021100062FFDFF8041500F05EFF0FF2205105A802
:1021200000F059FFDFF8F41400F055FF05A800F0A7
:1021300021FF0246D21E05A93046FFF757FF0FF2D6
:102140001451304600F047FF07F12C0100F043FF27
:102150000FF20C51304600F03EFF07F1500100F045
:102160003AFFD4A1304600F036FF0FF2045100F0E0
:1021700032FF3046FFF77EFB304600F0AFFC60E0F8
:10218000DFF89C6406F6540700224146384600F00A
:10219000B5FC0022414605A800F0B0FC0022142145
:1021A000684600F0ABFC70793179884243D3DFF8A0
:1021B00064844146384600F00EFF0FF2784100F08B
:1021C0000AFF0FF20C194946384600F004FFDFF809
:1021D000481400F000FF4946384600F0FCFE06F6C1
:1021E0001B0100F0F8FE0FF2A441384600F0F3FEA8
:1021F00008F12C0100F0EFFE0FF2A841384600F084
:10220000EAFE08F1500100F0E6FE0FF2A828414670
:10221000384600F0E0FE3179684600F083F9014667
:10222000384600F0D8FE414600F0D5FE0FF240419E
:10223000384600F0D0FE3846FFF71CFB384600F069
:102240004DFCC4F8E8510DF5057DBDE8F08338B5C7
:102250000C4600254178084490F82800032804D053
:1022600034D305282AD010D330E00FF2484120465D
:1022700000F09BFE002829D0DFF8A413204600F0D0
:102280003BF8002822D0012520E00FF238412046FB
:1022900000F08BFE002806D10FF21841204600F016
:1022A00084FE002812D0204600F06DF94FF48062C1
:1022B0002118DC48FFF78AFE012507E00FF21441E0
:1022C000204600F072FE002800D00125284632BDCD
:1022D0002F0000004178421892F82810491E042966
:1022E00008D88178002905D1002182F84811417869
:1022F000491C41707047000070B505460C46002629
:10230000324640F65401204600F0F8FB0FF2CC3183
:10231000284600F04AFE002800F0BF800FF2C831C6
:10232000284600F042FE002838D0112205F58F71B2
:1023300004F60800FFF74AFE062205F2371104F6FC
:102340001B00FFF743FE062205F2451104F62300A9
:10235000FFF73CFE202205F5A97104F62B00FFF7DC
:1023600035FE204600F0D0F83046FFF719F94FF45B
:102370007A70FFF795FE4FF48030FFF711F94FF4B4
:102380007A70FFF78DFEA8486179417001210170D4
:10239000084660700220E0700E4688E00FF250316F
:1023A000284600F002FE002837D0112205F58F7173
:1023B00004F60800FFF70AFE062205F2371104F6BC
:1023C0001B00FFF703FE062205F2451104F6230069
:1023D000FFF7FCFD202205F5A97104F62B00FFF79D
:1023E000F5FD204600F090F83046FFF7D9F84FF49D
:1023F0007A70FFF755FE4FF48030FFF7D1F84FF4B5
:102400007A70FFF74DFE88486179417002210170B2
:1024100008466070E070012649E000BFB6A128467A
:1024200000F0C3FD002842D0112205F58F7104F69B
:102430000800FFF7CBFD062205F2371104F61B005A
:10244000FFF7C4FD062205F2451104F62300FFF74D
:10245000BDFD202205F5A97104F62B00FFF7B6FD9E
:10246000204600F051F83046FFF79AF84FF47A70A2
:10247000FFF716FE4FF48030FFF792F84FF47A70B2
:10248000FFF70EFE6848617941700321017008462C
:1024900060700220E070012609E000BF98A1284684
:1024A00000F083FD002802D001260720E0703046AE
:1024B00070BD00000D0A0000F8B5044600255B4E13
:1024C0002A464FF48061304600F094FD554F3A465D
:1024D0004FF4806120798002FFF72EF8002811D098
:1024E00032464FF4806120798002FFF7ADF8002872
:1024F00008D04FF480623146384600F013FA0028C5
:1025000000D101252846F2BD10B504460A22062155
:1025100004F6230000F048FC45490860800A607119
:1025200010BD000038B584B004460D4600220621D7
:1025300002A800F0E3FA00220621684600F0DEFA65
:10254000AD020623002202A9284600F0AEFC0623B5
:102550000022694605F2FF35284600F0A6FC00BFC0
:1025600069A1204600F037FD02A9204600F033FDA6
:1025700026A1204600F02FFD6946204600F02BFDE5
:10258000204605B030BD10B401460022104601E0DF
:102590000020521CB2F5806F0ED28B181C780D2CC7
:1025A000F7D15C780A2CF4D198780D28F0D1D8783E
:1025B0000A28EDD1121D104610BC704770B50024DA
:1025C000184D2A464FF480614FF48050FFF73CF8D5
:1025D000002818D0144E307801280FD10822B11DE0
:1025E000284600F09FF900280DD11122B11D284680
:1025F00000F098F9002806D0012404E0022801D058
:10260000032800D10124204670BD00002D000000E9
:10261000680800201C330008741800200E240020D5
:10262000140000208418002008240020841C0020AE
:102630004024002035393832343300002F63686578
:10264000636B3F747970653D312676657273696F8F
:102650006E3D000020485454502F312E310D0A0099
:10266000617574686F72697A6174696F6E3A00009F
:10267000686F73743A696F742D6170692E68656351
:102680006C6F7564732E636F6D0D0A002F646F7726
:102690006E6C6F616420485454502F312E310D0AF6
:1026A00000000000617574686F72697A6174696F07
:1026B0006E3A2000485454502F312E3120323030A1
:1026C00000000000485454502F312E312032303653
:1026D00000000000434F4E4E4543540022636F6498
:1026E00065223A3000000000534D35303031000093
:1026F000534D353030320000534D3530303300000B
:10270000313230313200000052616E67653A20008C
:1027100080B54F4988420BD101214FF48040FEF72C
:10272000C7FA00214FF48040BDE80440FEF7C0BA6C
:10273000484988420BD101214FF40030FEF7C3FA1B
:1027400000214FF40030BDE80440FEF7BCBA424916
:1027500088420BD101214FF48020FEF7B4FA00210A
:102760004FF48020BDE80440FEF7ADBA3B498842F3
:102770000BD101214FF40020FEF7A5FA00214FF400
:102780000020BDE80440FEF79EBA354988420BD1CF
:1027900001214FF48010FEF796FA00214FF48010CB
:1027A000BDE80440FEF78FBA01BD30B585B00446E0
:1027B0000D46218A4CF6FF700140E88801432182D2
:1027C000A1894EF6F3100140A888014328890143EE
:1027D00068890143A181A18A4FF6FF400140A88981
:1027E0000143A1826846FEF702FA1948844201D1EA
:1027F000039900E002992A6819204143A089000446
:1028000003D55200B1FBF2F202E09200B1FBF2F20A
:102810006420B2FBF0F109010B461B0900FB1322F7
:10282000A089000408D5D20032326420B2FBF0F057
:1028300000F00700014307E0120132326420B2FBCE
:10284000F0F000F00F000143218105B030BD000021
:10285000003801400044004000480040004C004067
:1028600000500040002904D0818941F40051818149
:10287000704782894DF6FF710A408281704710B41B
:102880000B46DBB25B09012401F01F0104FA01F1E0
:10289000012B01D10C3004E0022B01D1103000E0FB
:1028A0001430002A026802D01143016002E022EADB
:1028B0000101016010BC70470246002012880A42E4
:1028C00000D001207047C9430180704730B40246F0
:1028D00000200C46E4B26409012501F01F0305FA4B
:1028E00003F3012C02D19489234006E0022C02D18B
:1028F000148A234001E0948A2340090A05FA01F171
:1029000012881140002B02D0002900D0284630BC8C
:1029100070470122090A02FA01F189B2C943018014
:10292000704700000300002013F0030F09D0521E6F
:1029300022BF13F8010B11F801CBB0EB0C00F3D060
:10294000704711F0030F14D1121F22BF53F8040B6C
:1029500051F804CB6045F7D0121D0AD200BA9CFA98
:102960008CFCB0EB0C0038BF6FF0000088BF01207A
:102970007047521E22BF13F8010B11F801CBB0EBC8
:102980000C00F6D0521C08BF1046704730B585B019
:10299000054600220421684600F0B0F8002210210C
:1029A00001A800F0ABF810208DF8030003208DF88B
:1029B00002001020ADF80000444C69462046FEF7A6
:1029C000D5FA102060612020ADF80000694620464D
:1029D000FEF7CCFA202020613D4C2046FFF798FE00
:1029E0004FF48050ADF8000003208DF8020018204D
:1029F0008DF8030069463748FEF7B8FA0420ADF8B1
:102A000000008DF8030069463348FEF7AFFA0195E0
:102A100000200290ADF80C00ADF810000C20ADF8CD
:102A20000E0001A92046FFF7C0FE01212046FFF756
:102A300019FF05B030BD80B535208DF800000120AC
:102A40008DF8010000208DF8020001208DF80300B0
:102A50006846FEF73AFA01BD70B504460D461C4EB5
:102A600040F227713046FFF754FF224640F22551CD
:102A70003046FFF704FF2A4640F226613046BDE8A3
:102A80007040FFF7FCBE12490A881206FCD5888008
:102A90007047C0EBC001C902491C0846411E00280E
:102AA000FBD1704710B4002208E0094B1C882406B3
:102AB000FBD51446A4B2045D9C80521C13460C4600
:102AC0009BB2A342F1D310BC70470000000C014040
:102AD00000500040001001400014014010B50446B1
:102AE00000F048FA014689B22046FFF7DBFF0D20CF
:102AF000FFF7C9FF0A20BDE81040C4E762F30F22C8
:102B000062F31F4200B500BF130096469446103989
:102B100028BFA0E80C50FAD85FEA417C28BF0CC05F
:102B200048BF40F8042BC90728BF20F8022B48BF34
:102B300000F8012B00BD000080B5FEF721F9042844
:102B400001D1012002BD002002BD2DE9F041044663
:102B50000D46164600274FF0010800E03F1DB74222
:102B60000AD23846800855F820103819FEF729F99E
:102B70000428F3D04FF000084046BDE8F0812DE96D
:102B8000F04180460F4614460126002538004DD0FE
:102B9000FEF798FA002800D12E46300007D0A0207A
:102BA000FEF7FAFAFEF7DFFA002800D12E463000D1
:102BB00006D04046000AFEF7EFFAFEF7D4FA0646C2
:102BC000300006D04046C0B2FEF7E6FAFEF7CBFA78
:102BD0000646300004D0FEF775FA002800D12E46D4
:102BE000300007D0A120FEF7D7FAFEF7BCFA002884
:102BF00000D12E467F1E300007D115E0FEF7E9FA1E
:102C000004F80800FEF789FA6D1CA8461FFA88F838
:102C10002846394680B289B28842EFD3FEF7D9FA06
:102C200004F80800FEF78CFAFEF764FA3046BDE8B7
:102C3000F0812DE9F04107460C469046002501261B
:102C4000200034D0FEF73EFA002800D12E46300096
:102C500007D0A020FEF7A0FAFEF785FA002800D1E1
:102C60002E46300006D03846000AFEF795FAFEF7E9
:102C70007AFA0646300013D03846C0B2FEF78CFA16
:102C8000FEF771FA06460BE0300008D0284680B205
:102C900018F80000FEF780FAFEF765FA06466D1C8C
:102CA0002846214680B28842EED3FEF723FA05205B
:102CB000FEF7FFF93046BDE8F0812DE9F04104460A
:102CC0000E461546002710F01F0F0ED004F01F000F
:102CD000C0F12000374680B2874200D90746394606
:102CE0002046FFF7A6FFF61B00E00120010019D0E7
:102CF000314689B2002915D04FF02008304680B205
:102D0000202800D2B046384680B22A18414689B2FF
:102D1000381980B2FFF78DFFA6EB080617FA88F77F
:102D20000100E5D1BDE8F08130B4024600244FF641
:102D3000FF7000E0641C8C4212D2135D58400023E7
:102D4000082BF7D205466D10C007284601D480B283
:102D500004E080F4044080F0080080B25B1CEFE7E0
:102D6000C04380B230BC704770B504460D460020A9
:102D7000002C16D0204600F0FDF84FF6FE710840FA
:102D800000210BE0074A635CD35C66187678925D9D
:102D900042EA031205F8012B891C89B28142F1DB5A
:102DA000400870BD7430000830B400231C46002871
:102DB00078D0022A08D0082A18D00A2A27D0102A48
:102DC00054D0112A36D06DE022460D46D2B2AA4226
:102DD00068D20278302A01D0312A63D11D461346C9
:102DE000303B03EB4503641C401CEDE722460D46D7
:102DF000D2B2AA4256D20278A2F13005082D51D2A1
:102E0000303A02EBC3021346641C401CEEE7224634
:102E10000D46D2B2AA4245D20278A2F130050A2D5F
:102E200040D203EB8305303A02EB45021346641CA3
:102E3000401CECE722460D46D2B2AA4232D20278BA
:102E4000A2F130050A2D02D32E2A2BD105E003EB87
:102E50008305303A02EB45021346641C401CE9E747
:102E6000373A02EB03121346641C401C22460D46FF
:102E7000D2B2AA4216D20278A2F130050A2D04D2AB
:102E8000303A02EB03121346EEE7A2F16105062D7C
:102E900004D2573A02EB03121346E5E7A2F14105CB
:102EA000062DDDD3184630BC7047F0B40446002927
:102EB00001D1002028E09A1A18464D1E002818D08B
:102EC0000A26B4FBF6F6374607EB870CA4EB4C0456
:102ED00030342C543446461E1746FFB2BE4204D14D
:102EE00030462E260746FFB2EE55401EC0B2002CDB
:102EF000E4D11B1A30224C1E02E02254401EC0B204
:102F00000028FAD11846C0B2F0BC7047038803F419
:102F100041530A8813434A8813438A881343CA8853
:102F200013430A8913434A8913438A891343CA897D
:102F300013430380838B4FF2FF7213408383098A0C
:102F400001827047002904D0018841F040010180CE
:102F5000704702884FF6BF710A4002807047818136
:102F60007047808970470246002012890A4200D0CB
:102F70000120704700F10103810704D010F8011B04
:102F8000820781B1FAD10268A2F10131914311F0B7
:102F9000803104BF50F8042FF6E709BAB1FA81F185
:102FA00000EBD100401CC01A704770B50D462C785C
:102FB00034B970BD11F8013F1678B34206D0401CF9
:102FC000214600F04BF828B101462A4612F8013F8D
:102FD000002BEFD170BD034600E05B1C1A78002A7D
:102FE000FBD111F801CB83F800C013F8012B002AA4
:102FF000F7D1704762F30F2262F31F42401810F0BE
:10300000030308D0C91A1FD3DB0748BF00F8012DFE
:1030100028BF20F8022D130030B41446154610398D
:1030200028BF20E93C00FAD8490728BF20E90C0056
:1030300048BF40F8042D890028BF20F8022D48BF62
:1030400000F8012D30BC7047C91818BF00F8012DD9
:10305000CB0728BF00F8012D70470000C9B20278E5
:103060008A421AB11CBF10F8012FF9E718BF0020DF
:103070007047000000000000000000000000000099
:103080000000000000000000000000000000000040
:103090000000000000000000000000000000000030
:1030A00000000000000102030405060708090000F3
:1030B00000000000000A0B0C0D0E0F0000000000C5
:1030C0000000000000000000000000000000000000
:1030D00000000000000A0B0C0D0E0F0000000000A5
:1030E00000000000000000000000000000000000E0
:1030F00000000000000000000000000000000000D0
:1031000000000000000000000000000000000000BF
:1031100000000000000000000000000000000000AF
:10312000000000000000000000000000000000009F
:10313000000000000000000000000000000000008F
:10314000000000000000000000000000000000007F
:10315000000000000000000000000000000000006F
:10316000000000000000000000000000000000005F
:10317000000000003649086840F0010008604A6815
:10318000344802404A600A68334802400A600868CE
:1031900020F480200860486820F4FE0048604FF466
:1031A0001F00886000E0000000BF82B00020009097
:1031B00001902749086840F4803008604FF6FF729C
:1031C000086800F4003001900098401C00900198BD
:1031D000002802D100989042F2D10868400C00F01B
:1031E000010001900198012830D11C48026842F08A
:1031F000100202600268920892000260026842F0C7
:10320000020202604868486048684860486840F4C4
:1032100080604860486820F47C104860486840F44A
:10322000E8104860086840F0807008600868800115
:10323000FCD54868800880004860486840F002007B
:103240004860486800F00C000828FAD102B07047C6
:10325000001002400000FFF8FFFFF6FE00200240D1
:103260007047FEE7FEE7FEE7FEE7704770477047EE
:1032700024480168491C016000681521B0FBF1F287
:1032800001FB1200002806D11F48016841F490415B
:1032900041F0020101601D480178090608D5D0F807
:1032A0000818491DC0F80818322901D305210170FA
:1032B000704710B5164C40F225512046FFF706FB2B
:1032C000002819D01349A08808701048097842884E
:1032D000024491714188491C418089B2B1F5006F67
:1032E00004DA017841F08001017001E006210170EB
:1032F0000021C0F8081800E0A088208800F47C4075
:10330000208010BD38240020EC230020680A002013
:1033100000500040462400207047000047455420DC
:10332000687474703A2F2F696F742D6170692E68FC
:1033300065636C6F7564732E636F6D2F667573654F
:103340002D6F74612F000000436F6E74656E742DD5
:10335000547970653A206170706C69636174696F4B
:103360006E2F6A736F6E0D0A00000000766572732F
:10337000696F6E3D323032322D30352D303126724C
:1033800065733D7573657269642532463333323136
:1033900038362665743D3235393938383132343073
:1033A000266D6574686F643D6D6435267369676E5C
:1033B0003D71544A59307A7049383479516968629C
:1033C00042545A676977412533442533440000004D
:1033D00041542B5149444E534346473D312C2231F1
:1033E00031342E3131342E3131342E313134222CDE
:1033F000223131342E3131342E3131352E313135C7
:103400002200000041542B51494F50454E3D312C74
:10341000312C22544350222C22696F742D61706923
:103420002E6865636C6F7564732E636F6D222C3824
:10343000302C302C3200000010B507497944183187
:10344000064C7C44163404E00A68081D1144884781
:103450000146A142F8D110BD2C0000004C00000034
:1034600080B5FCF7D4FEFCF70DFFFCF73EFFFDF73F
:1034700008F8FDF74DF8FDF710F9FDF7CEF9FDF767
:103480007CFAF0E703DAFFFF342400001400002088
:1034900000000000DFEBFFFF1400000054000000FC
:1034A000000000200000000000F00DF8002801D00E
:1034B000FFF7C2FFAFF300800020AFF30080FFF7FB
:1034C000CFFF00F002F80120704700F001B80000C3
:1034D0000746384600F002F8FBE7000080B5AFF37E
:1034E0000080024A11001820ABBEFBE72600020054
:1034F000000000000102030401020304060708099A
:103500000204060801488047014800477531000859
:1035100015350008AFF30080AFF30080FFF7C4FF5C
:10352000000C014010000000000C014020000000D1
:10353000000C014000100000FFF7FEBFFFF7FEBFC8
:10354000FFF7FEBFFFF7FEBFFFF7FEBFFFF7FEBFAF
:10355000FFF7FEBFFFF7FEBFFFF7FEBFFFF7FEBF9F
:10356000FFF7FEBFFFF7FEBFFFF7FEBFFFF7FEBF8F
:10357000FFF7FEBFFFF7FEBFFFF7FEBFFFF7FEBF7F
:10358000FFF7FEBFFFF7FEBFFFF7FEBFFFF7FEBF6F
:10359000FFF7FEBFFFF7FEBFFFF7FEBFFFF7FEBF5F
:1035A000FFF7FEBFFFF7FEBFFFF7FEBFFFF7FEBF4F
:1035B000FFF7FEBFFFF7FEBFFFF7FEBFFFF7FEBF3F
:1035C000FFF7FEBFFFF7FEBFFFF7FEBFFFF7FEBF2F
:1035D000FFF7FEBFFFF7FEBFFFF7FEBFFFF7FEBF1F
:1035E000FFF7FEBFFFF7FEBFFFF7FEBFFFF7FEBF0F
:1035F000FFF7FEBFFFF7FEBFFFF7FEBFFFF7FEBFFF
:10360000FFF7FEBFFFF7FEBFFFF7FEBFFFF7FEBFEE
:10361000FFF7FEBFFFF7FEBFFFF7FEBFFFF7FEBFDE
:0400000508003515A5
:00000001FF
